:100000000C9446050C946E050C946E050C946E05CC
:100010000C946E050C946E050C946E050C946E0594
:100020000C946E050C946E050C946E050C946E0584
:100030000C946E050C946E050C946E050C946E0574
:100040000C94481A0C946E050C94B81A0C94921ADD
:100050000C946E050C946E050C946E050C946E0554
:100060000C94EA1A0C946E0500000000003E5B4FF1
:100070005B3E3E6B4F6B3E1C3E7C3E1C183C7E3C08
:10008000181C577D571C1C5E7F5E1C00183C180016
:10009000FFE7C3E7FF0018241800FFE7DBE7FF30A6
:1000A000483A060E2629792926407F050507407F14
:1000B00005253F5A3CE73C5A7F3E1C1C08081C1C87
:1000C0003E7F14227F22145F5F005F5F06097F017D
:1000D0007F006689956A606060606094A2FFA29468
:1000E00008047E040810207E201008082A1C080836
:1000F0001C2A08081E101010100C1E0C1E0C303884
:100100003E3830060E3E0E06000000000000005F84
:1001100000000007000700147F147F14242A7F2AA0
:100120001223130864623649562050000807030062
:10013000001C2241000041221C002A1C7F1C2A08AE
:10014000083E080800807030000808080808000011
:1001500060600020100804023E5149453E00427F85
:10016000400072494949462141494D331814127FD4
:100170001027454545393C4A494931412111090774
:100180003649494936464949291E000014000000F5
:1001900040340000000814224114141414140041C7
:1001A00022140802015909063E415D594E7C121184
:1001B000127C7F494949363E414141227F414141BC
:1001C0003E7F494949417F090909013E4141517337
:1001D0007F0808087F00417F41002040413F017FA8
:1001E000081422417F404040407F021C027F7F0470
:1001F00008107F3E4141413E7F090909063E4151B9
:10020000215E7F09192946264949493203017F01A8
:10021000033F4040403F1F2040201F3F4038403FA9
:10022000631408146303047804036159494D4300BF
:100230007F4141410204081020004141417F0402F6
:10024000010204404040404000030708002054548D
:1002500078407F284444383844444428384444286B
:100260007F385454541800087E090218A4A49C78BE
:100270007F0804047800447D40002040403D007F1A
:100280001028440000417F40007C047804787C08FA
:100290000404783844444438FC18242418182424CE
:1002A00018FC7C08040408485454542404043F44B3
:1002B000243C4040207C1C2040201C3C4030403CE2
:1002C00044281028444C9090907C4464544C440042
:1002D00008364100000077000000413608000201A6
:1002E0000204023C2623263C1EA1A161123A404092
:1002F000207A38545455592155557941225454780F
:1003000042215554784020545579400C1E527212A7
:100310003955555559395454545939555454580030
:1003200000457C410002457D420001457C407D1234
:1003300011127DF0282528F07C5455450020545496
:100340007C547C0A097F4932494949323A44444441
:100350003A324A4848303A4141217A3A424020787C
:10036000009DA0A07D3D4242423D3D4040403D3C7D
:1003700024FF2424487E4943662B2FFC2F2BFF09A2
:1003800029F620C0887E0903205454794100004496
:100390007D413048484A32384040227A007A0A0A81
:1003A000727D0D19317D2629292F282629292926F4
:1003B00030484D4020380808080808080808382F39
:1003C00010C8ACBA2F102834FA00007B00000814C3
:1003D0002A142222142A14085500550055AA55AA99
:1003E00055AAFF55FF55FF000000FF00101010FF39
:1003F00000141414FF001010FF00FF1010F010F094
:10040000141414FC001414F700FF0000FF00FF1484
:1004100014F404FC141417101F10101F101F1414D0
:10042000141F00101010F0000000001F101010101A
:100430001F10101010F010000000FF10101010100E
:1004400010101010FF10000000FF140000FF00FF4C
:1004500000001F10170000FC04F4141417101714E8
:1004600014F404F40000FF00F7141414141414140A
:10047000F700F7141414171410101F101F1414147D
:10048000F4141010F010F000001F101F0000001FE7
:1004900014000000FC140000F010F01010FF10FF1A
:1004A000141414FF141010101F00000000F010FFAF
:1004B000FFFFFFFFF0F0F0F0F0FFFFFF0000000093
:1004C00000FFFF0F0F0F0F0F3844443844FC4A4A17
:1004D0004A347E02020606027E027E0263554941CC
:1004E000633844443C04407E201E2006027E020203
:1004F00099A5E7A5991C2A492A1C4C7201724C3017
:100500004A4D4D303048784830BC625A463D3E49ED
:100510004949007E0101017E2A2A2A2A2A44445F91
:10052000444440514A444040444A51400000FF0185
:1005300003E080FF000008086B6B08361236243693
:10054000060F090F060000181800000010100030F8
:1005500040FF0101001F01011E00191D1712003C80
:100560003C3C3C0000000000000103070F1F3F7FE0
:100570000080C0E0F0F8FCFEDB40A4A62EAF200017
:10058000A1C8D300408DAED580A800006000000057
:100590000000000000000000000000E0000000007B
:1005A00000000000000000000001E000000000006A
:1005B000000000000000000001F00000000000004A
:1005C0000000000000000003F00000000000000038
:1005D00000000000000007F0000000000000000024
:1005E000000000000007F80000000000000000000C
:1005F000000000000FF800000003C0007E000001B2
:10060000E0007F0FF800000003C000FE000001E0E2
:1006100000FFEFF800000003C000FE000001E00052
:10062000FFFFF800000003C000F00000000F007F93
:10063000FE7FC0000003C000F00000000F003FFE7E
:100640007FF83FF1FBCFFCFEF3BC3DEFE01FFE7FE8
:10065000FF7FFBFFDFFEFEFFBC3DEFE01FC6FFFF9D
:100660007FFBFFDFFEFEFFBC3DEFE00FE3C7FE7840
:100670007BC3DE1EF0FFBC3DEF0007FF87FC787BED
:10068000C3DE1EF0F83C3DEF0001FFFFF0007BC32E
:10069000C01EF0F03C3DEF0001F37FE03FFBC3CF15
:1006A000FEF0F03C3DEF0003E33F807FFBC3DFFE45
:1006B000F0F03C3DEF0007E73C00787BC3DE1EF026
:1006C000F03C3DEF0007FFBE00787BC3DE1EF0F07C
:1006D0003C3DEF0007FFFE00787BC3DE1EF0F03CE0
:1006E0003DEF000FFFFE007FFBFFDFFEF0F03FFD60
:1006F000EFE00FFFFF007FFBFFDFFEF0F03FFDEFBD
:10070000E00FF9FF003E79F9CF9EF0F01F3DE7E0E2
:100710001FF1FF0000000000000000000000001FAB
:1007200080FF007FFFFFFFFFFFFFFFFFFFE01C00D8
:100730007F007FFFFFFFFEB46D888D18E000001F73
:10074000007FFFFFFFFE95AD7DB577E000000F0055
:100750007FFFFFFFFEA5AD9D8D19E0000006007F25
:10076000FFFFFFFEB5ADEDB57EE00000000000012B
:100770008000000000000000000003800000000076
:10078000000000000007C0000000000000000000A2
:1007900007C00000000000000000000FC0000000C3
:1007A0000000000000001FE000000000000000004A
:1007B000001FE00000000000000000003FE000001B
:1007C000000000000000003FF000000000000000FA
:1007D00000007FF0000000000000001FF87FF00024
:1007E0000000000000003FFE7FF00000000000005D
:1007F000003FFF7FF0000000000000001FFFFBE053
:10080000000000000000000FFFF9FFC00000000022
:1008100000000FFFF9FFF800000000000007FFF1E3
:10082000FFFF00000000000003FC73FFFF800000DA
:1008300000000001FE3FFFFF80000000000000FFFD
:100840001E0FFF000000000000007FFE1FFC0000E4
:1008500000000000003FFFFFF80000000000000063
:100860000FDFFFE0000000000000001F19FFC000C4
:100870000000000000003F3CFF00000000000000FE
:10088000007E7CF800000000000000007FFE7C007D
:1008900000000000000000FFFFFC0000000000005E
:1008A0000000FFFFFE0000000000000000FFFFFE50
:1008B0000000000000000001FFEFFE00000000004B
:1008C000000001FFCFFE0000000000000003FF0752
:1008D000FE0000000000000003FC07FE0000000016
:1008E00000000003F003FE00000000000000018093
:1008F00000FE000000000000000000007E0000007C
:10090000000000000000003E0000000000000000A9
:1009100000000C000000000000078000FC00000345
:10092000C0000000078001FC000003C000000007B9
:100930008001FC000003C0000000078001E000000F
:10094000001E000000078001E00000001E007FE3A1
:10095000F79FF9FDE7787BDFC0FFF7FFBFFDFDFFE5
:10096000787BDFC0FFF7FFBFFDFDFF787BDFC0F0C6
:10097000F787BC3DE1FF787BDE00F0F787BC3DE107
:10098000F0787BDE0000F787803DE1E0787BDE00D9
:100990007FF7879FFDE1E0787BDE00FFF787BFFDF3
:1009A000E1E0787BDE00F0F787BC3DE1E0787BDEBC
:1009B00000F0F787BC3DE1E0787BDE00F0F787BC14
:1009C0003DE1E0787BDE00FFF7FFBFFDE1E07FFB6C
:1009D000DFC0FFF7FFBFFDE1E07FFBDFC07CF3F38B
:1009E0009F3DE1E03E7BCFC0000000000000000022
:1009F000000000FFFFFFFFFFFFFFFFFFFFC0FFFF43
:100A0000FFFFFD68DB111A31C0FFFFFFFFFD2B5A0E
:100A1000FB6AEFC0FFFFFFFFFD4B5B3B1A33C0FFDC
:100A2000FFFFFFFD6B5BDB6AFDC0000000002400E0
:100A300027002A0000000000250028002B000000ED
:100A40000000230026002900040404040404040414
:100A50000202020202020303030303030102040869
:100A60001020408001020408102001020408102018
:100A7000000000080002010000030407000000005D
:100A8000000000002200FF21091C242311241FBEA6
:100A9000CFEFD8E0DEBFCDBF23E0A2EBB1E001C0D5
:100AA0001D92A23FB207E1F711E0A0E0B1E0EAE752
:100AB000F2E502C005900D92A23BB107D9F715E00F
:100AC000C5E4D5E004C02197FE010E942427C43468
:100AD000D107C9F70E94291D0C9430290C940000FD
:100AE000DC0114962D913C911597232B41F0ED914B
:100AF000FC9181E09081992319F080E0089581E0D4
:100B00000895089596E0899FD0011124AF5CBC4FF1
:100B100090967C936E935F9791E091969C939197BA
:100B2000E0919E03F0919F0390919D03992339F0EA
:100B3000309751F0811108C080914D03099430978E
:100B400019F05C968C91FACF0895CF92DF92EF92D4
:100B5000FF920F931F9396E0899FF0011124EF5CA1
:100B6000FC4F11A2278D30A12130310551F178F0D1
:100B70002230310509F451C02330310509F452C047
:100B80001F910F91FF90EF90DF90CF900895662313
:100B9000B9F361E070E00E9482052FB7F89480916C
:100BA000800290918102A0918202B09183022FBFB6
:100BB0008093890390938A03A0938B03B0938C0353
:100BC000DFCF9FB7F894C0908002D0908102E09070
:100BD0008202F09083029FBF0091890310918A03E3
:100BE00020918B0330918C03C01AD10AE20AF30AD8
:100BF00000919B0310919C0330E020E00C151D0533
:100C00002E053F0550F462E070E01F910F91FF90B8
:100C1000EF90DF90CF900C9482056111B1CF63E02B
:100C200070E0F3CF70E060E0F0CF833081F028F423
:100C3000813099F08230A9F008958730A9F088308A
:100C4000C9F08430B1F4809180008F7D03C0809121
:100C500080008F7780938000089584B58F7784BD5E
:100C6000089584B58F7DFBCF8091B0008F778093FE
:100C7000B00008958091B0008F7DF9CFCF93DF93BE
:100C8000282F30E0F901E059F54F8491F901E45A39
:100C9000F54FD491F901E85BF54FC491CC23A1F055
:100CA00081110E941506EC2FF0E0EE0FFF1FE25CB1
:100CB000F54FA591B491EC91ED2381E090E009F41A
:100CC00080E0DF91CF91089580E090E0FACF1F930C
:100CD000CF93DF93282F30E0F901E059F54F84914D
:100CE000F901E45AF54FD491F901E85BF54FC4914D
:100CF000CC23A9F0162F81110E941506EC2FF0E0ED
:100D0000EE0FFF1FEC5CF54FA591B4918FB7F894EF
:100D1000EC91111108C0D095DE23DC938FBFDF91D9
:100D2000CF911F910895DE2BF8CFCF93DF9390E002
:100D3000FC01E45AF54F2491885B954FFC018491A6
:100D40008823C9F090E0880F991FFC01E65DF54FFC
:100D5000A591B491FC01EC5CF54FC591D491611162
:100D60000DC09FB7F8948C91209582238C93888135
:100D7000282328839FBFDF91CF910895623051F4DB
:100D80009FB7F8943C91822F809583238C93E881C0
:100D90002E2BEFCF8FB7F894EC912E2B2C938FBF87
:100DA000EACF3FB7F89480917C0290917D02A091A8
:100DB0007E02B0917F0226B5A89B05C02F3F19F097
:100DC0000196A11DB11D3FBFBA2FA92F982F8827CB
:100DD000BC01CD01620F711D811D911D42E0660FA6
:100DE000771F881F991F4A95D1F708958F929F9278
:100DF000AF92BF92CF92DF92EF92FF924B015C01D4
:100E00000E94D1066B017C010E94D1066C197D09FC
:100E10008E099F09683E734081059105A8F321E082
:100E2000821A9108A108B10888EEC80E83E0D81E86
:100E3000E11CF11C81149104A104B10429F7FF9075
:100E4000EF90DF90CF90BF90AF909F908F900895DC
:100E5000862F642F0C949506862F642F0C946706BA
:100E6000862F0C943E06089508950895AF92BF9280
:100E7000CF92DF92EF92FF920F931F93CF93DF9366
:100E80006C017B018B01040F151FEB015E01AE1895
:100E9000BF08C017D10759F06991D601ED91FC91B7
:100EA0000190F081E02DC6010995892B79F7C501E4
:100EB000DF91CF911F910F91FF90EF90DF90CF9036
:100EC000BF90AF900895FC01538D448D252F30E0E5
:100ED000842F90E0821B930B541710F0CF96089547
:100EE00001970895FC01918D828D981761F0A28D74
:100EF000AE0FBF2FB11D5D968C91928D9F5F9F733A
:100F0000928F90E008958FEF9FEF0895FC01918DEF
:100F1000828D981731F0828DE80FF11D858D90E05C
:100F200008958FEF9FEF0895FC01918D228D892FF9
:100F300090E0805C9F4F821B91098F7399270895E1
:100F400088E892E00E94940721E0892B09F420E0D0
:100F5000822F089580E090E0892B29F00E94A0075D
:100F600081110C9400000895FC01A48DA80FB92FE5
:100F7000B11DA35ABF4F2C91848D90E001968F73C1
:100F80009927848FA689B7892C93A089B1898C91E0
:100F9000837080648C93938D848D981306C002882F
:100FA000F389E02D80818F7D80830895EF92FF92F9
:100FB0000F931F93CF93DF93EC0181E0888F9B8D7C
:100FC0008C8D98131AC0E889F989808185FF15C036
:100FD0009FB7F894EE89FF896083E889F989808159
:100FE0008370806480839FBF81E090E0DF91CF9128
:100FF0001F910F91FF90EF900895F62E0B8D10E04A
:101000000F5F1F4F0F731127E02E8C8D8E110CC0B8
:101010000FB607FCFACFE889F989808185FFF5CF03
:10102000CE010E94B407F1CFEB8DEC0FFD2FF11D27
:10103000E35AFF4FF0829FB7F8940B8FEA89FB8940
:1010400080818062CFCFCF93DF93EC01888D88239E
:10105000B9F0AA89BB89E889F9898C9185FD03C01B
:10106000808186FD0DC00FB607FCF7CF8C9185FF00
:10107000F2CF808185FFEDCFCE010E94B407E9CF8A
:10108000DF91CF910895EF92FF920F931F93CF932B
:10109000DF93EC01EC80FD806E157F050CF070C0D5
:1010A00057FF04C0240F351F50E040E08E819F8120
:1010B000FA01E20FF31F8E179F071CF49C01241BFB
:1010C000350B121613060CF05BC0922F842F8695F9
:1010D000869586958E9DD0018F9DB00D11246A0F47
:1010E0007B1FAF8DB8A1A60FB71F477049F188E0ED
:1010F000841B482F682F70E0FB01E059FA4FE49100
:10110000281708F063C0621B71092FEF30E002C09E
:10111000359527956A95E2F7E2230130110539F0FC
:10112000B0F10230110561F58C91E82702C08C9175
:10113000E82BEC93941720F12C813D81A20FB31F73
:10114000E92FE41BE83078F00230110521F58E2FED
:101150009C9190959C932C813D81A20FB31F885048
:101160008830B0F7E770EE2359F0F0E0E859FA4F15
:10117000E49101301105F9F010F10230110519F177
:10118000DF91CF911F910F91FF90EF900895E0951F
:101190008C91E823CECF81E00115110509F480E0A0
:1011A00081959E2F8C932C813D81A20FB31F985067
:1011B0009830C0F7D7CF8C91E82BEC93E1CFE09536
:1011C0008C91E823FACF8C91E827F7CF01301105F5
:1011D00009F4ADCFE0F20230110509F4A5CFAE0D50
:1011E000BF1DAECF0F931F93CF93DF9377FF04C044
:1011F000260F371F70E060E0DC011496CD91DC9182
:10120000FB01E20FF31FCE17DF071CF49E01261B24
:10121000370B121613064CF5FA0157FD3796A3E06B
:10122000F595E795AA95E1F7EC9FD001ED9FB00DFC
:10123000FC9FB00D11246A0F7B1FDC015F96ED91BE
:10124000FC91E60FF71F4770552781E090E001C041
:10125000880F4A95EAF7482F0130110559F0A8F098
:101260002E0F3F1F02301105E1F0DF91CF911F914A
:101270000F9108952E0F3F1FE217F307B1F38191ED
:10128000DF011197842B8C93F7CF80952E0F3F1F92
:10129000E217F30751F39191DF01119798239C9383
:1012A000F7CFE217F30709F38191DF011197842744
:1012B0008C93F7CF0F931F93FA01DC0156964C9154
:1012C00056974230E9F04330A1F1413061F5149670
:1012D0004D915C91DA01AE1BBF0BFD01E21BF30BDC
:1012E00077FD0BC0DC0116964D915C916417750774
:1012F00024F4AB01BF010E94F2081F910F910895E1
:1013000014964D915C91DA01A61BB70BBD0161509B
:101310007109DC0116964D915C91DA01AE1BBF0B91
:10132000FD01E21BF30B77FDE8CFAF010E944308FC
:10133000E4CF16964D915C91DA01A61BB70BBD0167
:1013400061507109CDCF0F931F93FA01DC015696BE
:101350004C9156974230A9F0433091F1413019F544
:1013600014964D915C91DA01AE1BBF0BFD013197D4
:10137000F7FD04C0AB01BF010E9443081F910F910C
:10138000089514964D915C91DA01A61BB70BBD012F
:10139000DC0116964D915C91DA01AE1BBF0BFD018D
:1013A0003197621B730BF7FDE9CFDC0116964D9167
:1013B0005C91E417F50714F7AF010E94F208DECF45
:1013C00016964D915C91DA01A61BB70BBD01621B0D
:1013D000730BCECFFC0177FD64C0808591856817C3
:1013E00079070CF05EC057FD5CC082859385481775
:1013F00059070CF056C086898230B1F0833029F14C
:10140000813041F484819581841B950BAB01BC0133
:10141000615071092130310509F108F443C02230CF
:10142000310509F463C0089584819581DC01A61B10
:10143000B70BBD016150710986819781DC01A41B46
:10144000B50BAD0141505109E5CF86819781861BCF
:10145000970BBA01AC0141505109DCCFCA0157FDCD
:101460000796A3E095958795AA95E1F7A481B581A4
:101470008A9F90018B9F300D9A9F300D1124620F2F
:10148000731F078CF0A1E02DE60FF71F477055275B
:1014900021E030E001C0220F4A95EAF78081822BDB
:1014A00080830895CA0157FD079633E09595879587
:1014B0003A95E1F7A481B5818A9F90018B9F300D09
:1014C0009A9F300D1124620F731F078CF0A1E02D3D
:1014D000E60FF71F4770552781E090E001C0880FA5
:1014E0004A95EAF7809590818923DACFCA0157FDA2
:1014F000079623E0959587952A95E1F7A481B58114
:101500008A9F90018B9F300D9A9F300D1124620F9E
:10151000731F078CF0A1E02DE60FF71F47705527CA
:1015200021E030E001C0220F4A95EAF7808182274E
:10153000B7CF08958EBD00000DB407FEFDCF8EB568
:1015400008958CBD9DBD08950895FC016370668B60
:101550008481958126813781613039F0633029F0AB
:1015600091878087338722870895318720879387E3
:10157000828708952F923F924F925F926F927F924F
:101580008F929F92AF92BF92CF92DF92EF92FF9293
:101590000F931F93CF93DF93CDB7DEB76A970FB644
:1015A000F894DEBF0FBECDBF9A8F898F7A8369838F
:1015B0004A01D22E18870F833701BC2CDC015996C3
:1015C0002D913C915A972115310509F015C11896B6
:1015D0008D919C911997681779070CF0D7C11A96CD
:1015E0008D919C91481759070CF0D0C14C2C512C6F
:1015F000B6E0CB9E600D711D11247C876B8716169B
:1016000017060CF0C3C1EA2DF0E0FA87E98793E0F2
:10161000EE0FFF1F9A95E1F7F88BEF87CF01840F4C
:10162000951F181619060CF0B1C1A98DBA8D5896E0
:101630008C91811104C0BFEABD1508F4D394A98D23
:10164000BA8DED91FC9111970284F385E02DCD01C7
:101650000995B5E0DB9EC0011124E981FA81FC8384
:10166000EB83312C212C9C0128593F4F388F2F8B35
:101670004A2D50E05E8B4D8BEF89F88DE20DF31D06
:1016800044919E828D82D12CC12C69817A81620D18
:10169000731D7A8B698B842F90E09C8B8B8BE98DEB
:1016A000FA8DA081B18140FF82C0F1E0BF126FC00E
:1016B000AF126DC01C96ED91FC912F813885A4016D
:1016C0004C0D5D1D69897A89898D9A8D0995EB8903
:1016D000FC89F595E7954E2F5FEFC51AD50A6D8108
:1016E0007E818D899E89680F791F7E836D8398E046
:1016F000C916D10481F6AFEF2A1A3A0AEB81FC81B0
:10170000E40DF51DFC83EB83F5E02F16310409F0A1
:10171000B3CF2F81388526153705B9F0A98DBA8D3D
:10172000ED91FC91B1E0BB1257C0AB1255C069817D
:101730007A816B5F7F4F0088F189E02D830128E07B
:1017400030E0A401898D9A8D0995A98DBA8DED910E
:10175000FC9111970688F789E02DCD016A960FB6A6
:10176000F894DEBF0FBECDBFDF91CF911F910F91D7
:10177000FF90EF90DF90CF90BF90AF909F908F90B1
:101780007F906F905F904F903F902F9009941E969E
:10179000ED91FC91EF80F88409851A8592014D81C5
:1017A0005E816B817C81898D9A8D099590CF2F8187
:1017B00038852615370509F48ACF31E0B31207C002
:1017C000A31205C01C96ED91FC91930178CF1E9653
:1017D000ED91FC917301E0CF6B857C8564197509EF
:1017E0000684F785E02D73010F8518899201A40105
:1017F000898D9A8D0995A9CFF901349694913297E4
:1018000045915491D91AB7E0DB9E400D511D11242A
:10181000F901259134913C8B2B8BFA012590349062
:10182000FA013296749031963491398B32966490E5
:101830003196449041E04C1518F04A1508F07FC0ED
:10184000662D062C000C770B7C836B83842D042C77
:10185000000C990B9E838D83A98DBA8DED91FC911F
:1018600011970284F385E02DCD010995512CD12CDF
:10187000C12CEA2DF0E0FA87E9872B2D30E03C8778
:101880002B87A401440D511D47FC5A95588F4F8B4F
:1018900069817A81660D711D67FC7A957E876D87F7
:1018A0007989C71608F051CF2C2D30E04D815E812B
:1018B000420F531FA985BA854A9FC0014B9F900DC7
:1018C0005A9F900D1124FC01E80DF91DF88BEF874C
:1018D000852D612C4F89588D420F531F5E8B4D8B88
:1018E000671408F050C044244394480E877041F4B4
:1018F000C1010196EB89FC89E20DF31DD4901C0116
:10190000D7FE19C0A98DBA8DED91FC91662D70E0BE
:10191000B1E0BB1219C0AB1217C02D853E85620F16
:10192000731F0484F585E02D2F8138854D895E89EC
:10193000898D9A8D0995DD0C6394842DD1CF1E82FB
:101940001D821C821B8288CF4B815C81640F751FB6
:10195000AB85BC856A9FC0016B9F900D7A9F900DEF
:10196000112469817A81680F791F0684F785E02D3B
:10197000EF80F88409851A859D014F855889898DE6
:101980009A8D0995D8CF570CC3948ACF6A960FB613
:10199000F894DEBF0FBECDBFDF91CF911F910F91A5
:1019A000FF90EF90DF90CF90BF90AF909F908F907F
:1019B0007F906F905F904F903F902F9008958F92FF
:1019C0009F92AF92CF92EF92FF920F931F93CF937C
:1019D000DF93EC01262F898D9A8D009709F051C075
:1019E0006A30D1F41D861C868D8948E0849F900161
:1019F00011248E859F85820F931F9F878E8781E09C
:101A000090E0DF91CF911F910F91FF90EF90CF90D9
:101A1000AF909F908F9008956D3089F3CC88AD88FA
:101A20008F898823C1F08C859D8536E0C39E800D0B
:101A3000911D1124488559854817590764F44E852E
:101A40005F851D861C8638E0A39EC0011124840F8B
:101A5000951F9F878E87EA88FB88088919894E859C
:101A60005F856C857D85CE010E94BA0A2C898C85A4
:101A70009D8546E0249F800D911D11249D878C87B4
:101A8000BECF6A3069F41D861C86FC013896E4914D
:101A90002D898E859F85E29F800D911D1124ADCFEC
:101AA0006D3009F4ACCFFC0134963491631708F41F
:101AB000A6CF3296E491E61708F4A1CFFC01329646
:101AC00085909490462F431B342F47E0349F800C21
:101AD000911C1124F401329634913196E491332310
:101AE000A9F1EE2399F1CC88F4013596E491AD8803
:101AF0004F89442301F10E2E000CFF0BE30FF11D63
:101B0000CE9EA001CF9E500D11246C857D85460F81
:101B1000571F68857985641775076CF44E855F8556
:101B20001D861C86FC013896E491AE9E400D511D29
:101B300011245F874E87EA88FB88088919894E85BA
:101B40005F856C857D85CE010E94BA0AF4013496CA
:101B5000E4912C898C859D85E29F800D911D112437
:101B60008DCF6F927F928F929F92AF92BF92CF92C2
:101B7000DF92EF92FF920F931F93CF93DF93EC01CD
:101B80006B015A0139014801E881F9810284F3852A
:101B9000E02D0995E881F9810288F389E02D87011C
:101BA0009301A501B601CE010995A501480D591D66
:101BB00041505109E881F9810288F389E02D9301B0
:101BC000B601CE010995E881F9810088F189E02DFF
:101BD0009401A501B601CE010995C60CD71CB6012A
:101BE00061507109E881F9810088F189E02D940143
:101BF000A501CE010995E881F9810688F789E02DD4
:101C0000CE01DF91CF911F910F91FF90EF90DF9068
:101C1000CF90BF90AF909F908F907F906F900994DE
:101C20006F927F928F929F92AF92BF92CF92DF92EC
:101C3000EF92FF920F931F93CF93DF935C01EB0121
:101C40006A01490138018701DC01ED91FC916217BD
:101C5000730719F5641675062CF0962D872D3A0139
:101C6000C92ED82E9601261937092F5F3F4F048CB5
:101C7000F58DE02DA301BE01C5010995DF91CF913E
:101C80001F910F91FF90EF90DF90CF90BF90AF909A
:101C90009F908F907F906F9008954615570591F40F
:101CA0002617370724F0892D4B01C22FD82F9E010C
:101CB000281939092F5F3F4F068CF78DE02DA601BB
:101CC000B401DACF0284F385E02D0995D501ED91B9
:101CD000FC910488F589E02D83019401A601BE01E1
:101CE000C5010995D501ED91FC910688F789E02D94
:101CF000C501DF91CF911F910F91FF90EF90DF9081
:101D0000CF90BF90AF909F908F907F906F900994ED
:101D1000EF92FF920F931F93DC011A960D911C9185
:101D20001B9718962D913C911997ED91FC9100A06D
:101D3000F1A1E02D7B0150E040E070E060E009950A
:101D40001F910F91FF90EF9008954F925F926F92C5
:101D50007F928F929F92AF92BF92CF92DF92EF923B
:101D6000FF920F931F93CF93DF936C012B015A01C6
:101D700039014801DC01ED91FC910284F385E02DED
:101D80000995E201640C751CD601ED91FC91C61514
:101D9000D7055CF40088F189E02D87019401A50145
:101DA000BE01C60109952196EFCF0688F789E02D7F
:101DB000C601DF91CF911F910F91FF90EF90DF90BF
:101DC000CF90BF90AF909F908F907F906F905F90DB
:101DD0004F9009948F929F92AF92BF92CF92DF92D1
:101DE000EF92FF920F931F93CF93DF93EC015B0170
:101DF0004A016901E881F9810284F385E02D0995A2
:101E000095012C0D3D1D21503109E881F98104888F
:101E1000F589E02D78018401A401B501CE01099571
:101E2000E881F9810688F789E02DCE01DF91CF9115
:101E30001F910F91FF90EF90DF90CF90BF90AF90E8
:101E40009F908F9009948F929F92AF92BF92CF9262
:101E5000DF92EF92FF920F931F93CF93DF93EC01EA
:101E60005B014A0169017801E881F9810284F38507
:101E7000E02D0995C80CD91C860101501109E88193
:101E8000F9810488F589E02D9501A401B501CE0101
:101E90000995E881F9810688F789E02DCE01DF9167
:101EA000CF911F910F91FF90EF90DF90CF90BF9057
:101EB000AF909F908F900994EF92FF920F931F9392
:101EC000DC01ED91FC9100A0F1A1E02D09951F919D
:101ED0000F91FF90EF9008950F931F93DC01ED9108
:101EE000FC91068CF78DE02D09951F910F910895B7
:101EF0000F931F93DC01ED91FC91048CF58DE02D87
:101F000009951F910F910895DC01ED91FC910084DA
:101F1000F185E02D09943F924F925F926F927F92EC
:101F20008F929F92AF92BF92CF92DF92EF92FF92E9
:101F30000F931F93CF93DF935C017B014A016901EB
:101F4000390187E0680E711C93E0759467949A9547
:101F5000E1F72B01400E511E10E000E0312CD0E0E3
:101F6000C0E0CE0187709927330C892B59F4FE010C
:101F700083E0F595E7958A95E1F7E00FF11FE80D0D
:101F8000F91D349037FE0AC021E030E0A701B50109
:101F90006C0F7D1F8CEA93E00E94840F2196CC1673
:101FA000DD06F9F68FEFE81AF80A060D171DE4149E
:101FB000F504A9F6DF91CF911F910F91FF90EF905B
:101FC000DF90CF90BF90AF909F908F907F906F9059
:101FD0005F904F903F9008952F923F924F925F9263
:101FE0006F927F928F929F92AF92BF92CF92DF9229
:101FF000EF92FF920F931F93CF93DF9300D000D007
:1020000000D0CDB7DEB73C016A013E832D83FC8250
:10201000EB825801A41AB50AB7FE03C0B194A1948B
:10202000B1088D809E80861A970A97FE03C091940E
:10203000819491088A149B045CF0902F812F0D816C
:102040001E819D838E839C2D8D2D6B01692F782F92
:102050000C151D055CF09D818E817E836D83692F3B
:10206000782F902F812F8601C92ED82E1601201A85
:10207000310A2B012D813E81421A530A57FE03C0BB
:10208000519441945108710137FE03C03FEFE31AA8
:10209000F30AF594E7948D819E81861797075CF586
:1020A000A1E0B0E0BA83A983C016D1064CF1D301F8
:1020B000ED91FC910484F585E02D2B813C81A801F4
:1020C0006D817E818A149B041CF04D815E81B80174
:1020D000C3010995E418F508F7FE0AC02D813E8179
:1020E00089819A81280F391F3E832D83E20CF31CCE
:1020F0000F5F1F4FD9CF2FEF3FEF3A832983D4CF04
:1021000026960FB6F894DEBF0FBECDBFDF91CF91FC
:102110001F910F91FF90EF90DF90CF90BF90AF9005
:102120009F908F907F906F905F904F903F902F90F7
:10213000089520911802260F3327331F21323105CD
:10214000ECF420913C02FC0190E080E0243069F046
:1021500082E00895A09118022191AC0148505E4F91
:10216000A40FB52FB11D2C930196861798F380917B
:102170001802680F6093180280E0089581E00895C6
:1021800010923C0281E080933E0210923D0261E099
:1021900082E10E94670661E083E10E946706E9EB45
:1021A000F0E080818E7F808380818D7F808388E4D2
:1021B0008093B80085E48093BC000895CF93DF93AB
:1021C00091E09093F7018823B9F0C091B800D091C5
:1021D000BA008091BC008A7B8093BC0060E082E101
:1021E0000E94670660E083E10E9467060E94C010BB
:1021F000D093BA00C093B800DF91CF910895E091D9
:10220000680280916702E81730F4F0E0EE52FE4F6A
:10221000808190E008958FEF9FEF0895909168027C
:10222000809167022FEF3FEF981748F4E92FF0E015
:10223000EE52FE4F208130E09F5F90936802C9010B
:1022400008958091670290916802891B990B089507
:10225000CF92DF92EF92FF920F931F93CF93DF9372
:102260007C01CB018A0120918702222389F0EB01B6
:102270006B01C40ED51ECC15DD0569F06991D7013F
:10228000ED91FC910190F081E02DC7010995F3CF0C
:10229000642F0E949910C801DF91CF911F910F9177
:1022A000FF90EF90DF90CF900895CF93DF931F9230
:1022B000CDB7DEB76983209187022223F9F0209100
:1022C0008402203258F021E030E0FC013383228385
:1022D00090E080E00F90DF91CF910895809185028A
:1022E000E82FF0E0EE54FE4F998190838F5F80934A
:1022F00085028093840281E090E0ECCF61E0CE0122
:1023000001960E949910F7CFCF92DF92EF92FF9241
:102310000F931F93CF93DF93D091840281E0D1324A
:1023200008F09CC0C09186020E94D1066B017C011E
:1023300080913C0281116CC082E080933C0281E07C
:1023400080933E028FEF80933B0210926002D09305
:102350005F02A2EBB1E0EFE3F2E080E0D8138DC0C2
:102360001092610280916102CC0FC82BC093610270
:1023700080913D02813009F084C010923D020E949C
:10238000D1066B017C01809161028093BB0080913A
:10239000F3019091F401A091F501B091F601892B20
:1023A0008A2B8B2BA1F00E94D1060091F301109192
:1023B000F4012091F5013091F6016C197D098E0927
:1023C0009F09061717072807390708F442C08091AC
:1023D000BC0083FDD8CF85EC8093BC000E94D10661
:1023E0006B017C0180913C02823009F44CC08091E9
:1023F0003B028F3F09F469C080913B02803209F4AF
:1024000066C080913B02803309F463C084E026C03B
:102410008091F3019091F401A091F501B091F60142
:10242000892B8A2B8B2B09F483CF0E94D106009134
:10243000F3011091F4012091F5013091F6016C192E
:102440007D098E099F09061717072807390708F025
:102450006FCF8091F2010E94DE1085E0109285021C
:102460001092840210928702DF91CF911F910F91F9
:10247000FF90EF90DF90CF9008959D9191938F5FA3
:102480006DCF85EEA9CF8091F3019091F401A091D9
:10249000F501B091F601892B8A2B8B2B09F4A2CF81
:1024A0000E94D1060091F3011091F4012091F501F1
:1024B0003091F6016C197D098E099F0906171707DF
:1024C0002807390708F08ECFC4CF80E0C7CF82E05D
:1024D000C5CF83E0C3CFEF92FF920F931F93CF93AB
:1024E000DF937C01C62F8091C9039091CA030097A6
:1024F00009F459C02091CD0331E030938702209335
:1025000086021092850210928402DC01ED91FC910A
:102510000190F081E02D60E009958701EE24E394BD
:10252000F12CD1E0C1508091C9039091CA03CF3FF3
:1025300091F1B0E2EB16F104D8F00E948411809181
:10254000C9039091CA032091CD03D09387022093B1
:1025500086021092850210928402DC01ED91FC91BA
:102560000190F081E02D60E00995EE24E394F12CD8
:102570008091C9039091CA03F8016491DC01ED9147
:10258000FC910190F081E02D0995BFEFEB1AFB0A59
:102590000F5F1F4FC7CFDF91CF911F910F91FF901A
:1025A000EF900C948411E091D903F091DA039081BB
:1025B0008091DF038095892380838701C15008F4CF
:1025C00038C0F80184912091C7033091C803232BB0
:1025D00029F00E949A0A0F5F1F4FF0CF28E030E0E9
:1025E00040E8E091D503F091D6039091DD03582F98
:1025F0005423D9F05081952B9083E091D703F0912B
:10260000D80390815091DE03952B9083E091D703FE
:10261000F091D80350819091DE039095952390839B
:10262000469521503109E9F6D6CF508190959523F2
:10263000E3CFDF91CF911F910F91FF90EF9008951D
:102640001F93CF93DF93EC018D8D9E8D009721F129
:10265000162F29A131E03093870220938602109231
:10266000850210928402DC01ED91FC910190F081D1
:10267000E02D60E009958D8D9E8DDC01ED91FC9142
:102680000190F081E02D612F09958D8D9E8DDF9158
:10269000CF911F910C948411ADA5BEA59C918BA9DF
:1026A000809589238C938B8D9C8D892B31F0862F7F
:1026B000DF91CF911F910C949A0A28E030E080E8D6
:1026C000A9A5BAA599A9462F4823C1F04C91942BEE
:1026D0009C93ABA5BCA59C914AA9942B9C93ABA5BC
:1026E000BCA54C919AA9909594239C9386952150D2
:1026F000310931F7DF91CF911F9108954C91909559
:102700009423E6CFDF92EF92FF920F931F93CF9324
:10271000DF938091C9039091CA03892B09F4A5C066
:102720002091E1033091E2034091E3035091E403EF
:1027300060E074E284EF90E00E94A325205131090B
:102740004109510956954795379527952093B8002B
:1027500064E084E89AE00E946B128091B00390914B
:10276000B1038034910509F097C060E28CEA93E0F0
:102770000E9420136091B003615E8CEA93E00E9496
:1027800020132091B2033091B303C901079697FD3E
:10279000079633E0959587953A95E1F72091B00338
:1027A0003091B103829F8001839F100D929F100D85
:1027B0001124C091CB03D091CC038091C903909197
:1027C000CA030C0F1D1F009709F498C02091CD0378
:1027D00031E0309387022093860210928502109296
:1027E0008402DC01ED91FC910190F081E02D60E428
:1027F0000995EE24E394F12CDD24D3948091C90350
:102800009091CA030C171D0709F44FC0B0E2EB16F4
:10281000F104D8F00E9484118091C9039091CA03F9
:102820002091CD03D09287022093860210928502D8
:1028300010928402DC01ED91FC910190F081E02D79
:1028400060E40995EE24E394F12C8091C903909102
:10285000CA036991DC01ED91FC910190F081E02DBA
:102860000995BFEFEB1AFB0AC9CF8091C70390917E
:10287000C803892B31F08091EA039091EB030E9409
:10288000A10AE091DB03F091DC0390818091E003E9
:102890008095892380835CCF60E08CEA93E00E947E
:1028A00020136091B003615068CF0E948411809121
:1028B000C9039091CA03892B09F461C02091E503F3
:1028C0003091E6034091E7035091E80360E074E241
:1028D00084EF90E00E94A32520513109410951095C
:1028E00056954795379527952093B800DF91CF915E
:1028F0001F910F91FF90EF90DF900895E091D90321
:10290000F091DA0380819091DF03892B80830C178B
:102910001D0769F289912091C7033091C803232BC9
:1029200019F00E949A0AF3CF28E030E040E8E091E5
:10293000D503F091D6039091DD03582F5423D9F09D
:102940005081952B9083E091D703F091D80390812B
:102950005091DE03952B9083E091D703F091D8033B
:1029600050819091DE039095952390834695215058
:102970003109E9F6CCCF508190959523E3CFE091D2
:10298000DB03F091DC0380819091E003892B80834D
:10299000ADCF1F93CF93DF93EC01162F8D8D9E8DBE
:1029A000892BB1F12DA93EA94FA958AD60E074E281
:1029B00084EF90E00E94A32520513109410951097B
:1029C00056954795379527952093B80066EA1111DB
:1029D00067EACE010E9420138D8D9E8D892B41F1D7
:1029E00029AD3AAD4BAD5CAD60E074E284EF90E0B0
:1029F0000E94A32520513109410951095695479557
:102A0000379527952093B800DF91CF911F910895B6
:102A10008B8D9C8D892B21F08EAD9FAD0E94A10ADC
:102A2000EFA5F8A990818CA9809589238083CECFCA
:102A3000EFA5F8A980819CA9892B8083E5CF90E040
:102A400080E008952F923F924F925F926F927F9213
:102A50008F929F92AF92BF92CF92DF92EF92FF92AE
:102A60000F931F93CF93DF9300D000D000D01F921D
:102A7000CDB7DEB76093C0036093C103FC0144810E
:102A80005581452B09F4CCC00091C5031091C603B4
:102A9000B090C30326E0269F3001279F700C1124BD
:102AA0008090B4039090B50398012C5F3F4F3A8318
:102AB0002983A8014A5F5F4F5C834B83180152E072
:102AC000250E311C2801E8E04E0E511CFC01E0806F
:102AD000F18090E080E02FEF3FEFAFEFBFE7F7012D
:102AE000D1907F01DD2009F494C0FAE001151105B1
:102AF00009F46EC0DF1205C0F201849190E080E01D
:102B0000EECFFDE0DF1659F3E981FA81C490EB8145
:102B1000FC814491DC1418F34D1508F3F101459143
:102B20005491DC18F7E0DF9E400D511D1124FA018D
:102B30003296D4903196E491FA013496C49031964D
:102B4000A490AD823196E4914A2D042E000C550BD1
:102B50005F834E83BB2099F0FA01ED0DF11DE69FD6
:102B6000A001E79F500DF69F500D1124480F591FEB
:102B70008416950624F4F201849190E080E0EE81C1
:102B8000FF81E69FA001E79F500DF69F500D112495
:102B9000FA01E80FF91FFF83EE83EA17FB070CF435
:102BA000DF01D69EA001D79E500D1124EE81FF813A
:102BB0004E0F5F1F41505109241735070CF49A013D
:102BC000C69EA001C79E500D1124840F951F87CF6C
:102BD000DF1609F493CF4DE0A42EDA1409F47FCF69
:102BE000BB2041F0A301480F591F8416950614F429
:102BF00090E080E0A301480F591FFA0131972E178A
:102C00003F070CF49F018A179B070CF4DC01CA01F3
:102C100066CF2A173B071CF12A1B3B0B2F5F3F4F48
:102C200080E890E0821B930B9695879527960FB6C8
:102C3000F894DEBF0FBECDBFDF91CF911F910F91F2
:102C4000FF90EF90DF90CF90BF90AF909F908F90CC
:102C50007F906F905F904F903F902F90089530E05D
:102C600020E0DECF2091B2033091B303C901079673
:102C700097FD079623E0959587952A95E1F7209192
:102C8000B0033091B103829FA001839F500D929FAA
:102C9000500D112470E060E08091CB039091CC0343
:102CA0000C9422290E940C29FB0101900020E9F7D5
:102CB0003197AF01461B570BDC01ED91FC9102806F
:102CC000F381E02D0994CF93DF93FC01448155817A
:102CD000608171818CEA93E00E943607EC0169E81B
:102CE00071E08CEA93E00E9454168C0F9D1FDF91D7
:102CF000CF9108950F931F93CF93DF938C01EB0136
:102D0000FC01808191810097E1F0688179816115F2
:102D10007105A9F0428153812C813D8142175307EF
:102D200070F00E9429298C819D81F801958384830C
:102D30001D821C82DF91CF911F910F9108950E94F7
:102D4000C62788819981F801918380838A819B813C
:102D5000938382838C819D819583848319821882D9
:102D60001B821A82E5CFCF93DF93EC018881998192
:102D7000009711F00E94C627198218821D821C82BA
:102D80001B821A82DF91CF910895FC01808191818D
:102D9000009711F00C94C62708950F931F93CF93BB
:102DA000DF93EC0188819981009759F02A813B815A
:102DB0002617370730F081E0DF91CF911F910F91F7
:102DC00008958B016F5F7F4F0E944F28009759F045
:102DD000998388831B830A832C813D81232B59F798
:102DE000FC011082E8CF80E0E7CFEF92FF920F93D3
:102DF0001F93CF93DF936115710541F480E0DF915C
:102E0000CF911F910F91FF90EF90089541155105BB
:102E1000B1F07B01EC010C811D81040F151FB8017D
:102E20000E94CD16882351F3288139818C819D81A0
:102E3000B701820F931F0E9429291D830C8381E013
:102E4000DECFEF92FF920F931F93CF93DF93EC01AE
:102E50007B018A01BA010E94CD1681110BC0CE01FF
:102E60000E94B316CE01DF91CF911F910F91FF9079
:102E7000EF9008951D830C83B701888199810E948A
:102E80002929F0CFFB0101900020E9F73197AF012C
:102E9000461B570B0C942117CF93DF93EC01FB01DA
:102EA0008617970749F0608171816115710541F0BE
:102EB000448155810E942117CE01DF91CF91089561
:102EC0000E94B316F9CFFC01118210821382128284
:102ED000158214820C944C17FC011182108213820B
:102EE000128215821482FB0101900020E9F73197CC
:102EF000AF01461B570B0C9421170F931F93CF93D1
:102F0000DF9300D000D000D0CDB7DEB70E943216DC
:102F10000CEA13E082E0F801848B858B6CE871E0A9
:102F2000CE0101960E946C1762E070E0CE0101961E
:102F30000E942215F8019587848784E190E09787A5
:102F40008687CE0101960E94C5166CE871E0C80123
:102F50000E94541669E871E0C8010E9454160E944C
:102F6000821326960FB6F894DEBF0FBECDBFDF9159
:102F7000CF911F910F9108950F931F93CF93DF93DC
:102F8000CDB7DEB7A1970FB6F894DEBF0FBECDBFA9
:102F90008C01CB01BA01F8011182108213821282D6
:102FA0001582148230E0AE014F5F5F4F0E942F24E4
:102FB000BE016F5F7F4FC8010E944217A1960FB6F6
:102FC000F894DEBF0FBECDBFDF91CF911F910F915F
:102FD0000895EF92FF920F931F93CF93DF9300D04A
:102FE00000D000D0CDB7DEB78C01809169029091FE
:102FF0006A0281309105F1F058F082309105E1F0DC
:103000000397E1F06BE871E0C8010E946C1704C0FF
:103010002AE0C8010E94BC17C80126960FB6F89492
:10302000DEBF0FBECDBFDF91CF911F910F91FF90FB
:10303000EF90089522E0EDCF28E0EBCF20E1CE0124
:1030400001960E94BC17E980FA80E114F10471F046
:10305000F70181917F01882349F0082E000C990B1C
:103060000E941129F70131978083F2CFF801118274
:1030700010821382128215821482BE016F5F7F4F0D
:10308000C8010E947A16CE0101960E94C516C4CFCF
:103090000F931F93CF93DF93CDB7DEB76E970FB625
:1030A000F894DEBF0FBECDBF0E94321681E0809340
:1030B000C0038093C1031092B9031092B803109219
:1030C000BB031092BA038091690290916A02813029
:1030D000910509F4F6C008F4EDC08230910509F4B9
:1030E000F3C0039709F4F3C06BE871E0CE01499691
:1030F0000E946C176BE871E0CE010D960E946C1770
:103100006BE871E0CE0143960E946C1765E273E0B4
:10311000CE0149960E944C1710916B0280916C026F
:103120008111D8C011111FC16BE273E0CE01499625
:103130000E944C17CE0149960E947005811124C04F
:1031400081E08093C0038093C103BE01675E7F4F1F
:10315000CE0101960E94631761E070E0CE010196F6
:103160000E9422159093B9038093B80384E090E005
:103170009093BB038093BA03CE0101960E94C516BB
:10318000CE0149960E946316CE010D960E947005ED
:10319000811124C081E08093C0038093C103BE01EC
:1031A000635F7F4FCE0101960E94631761E070E07C
:1031B000CE0101960E9422159093B9038093B80323
:1031C00088E190E09093BB038093BA03CE0101960F
:1031D0000E94C516CE010D960E94631680916C0266
:1031E000811104C080916B02882361F001E010E03E
:1031F0002CE630E048E250E06AE070E08CEA93E0D0
:103200000E94A309CE0143960E947005811139C026
:103210006BE871E0CE0107960E946C17BE016D5EEF
:103220007F4FCE0101960E946317CE0101960E9446
:10323000C516CE0107960E94C51681E08093C00393
:103240008093C103BE016D5E7F4FCE0101960E9447
:10325000631761E070E0CE0101960E942215909301
:10326000B9038093B8038EE290E09093BB03809300
:10327000BA03CE0101960E94C516CE0143960E9464
:1032800063160E948213CE0143960E94C516CE019A
:103290000D960E94C516CE0149960E94C5166E96DF
:1032A0000FB6F894DEBF0FBECDBFDF91CF911F9157
:1032B0000F91089560E971E08CEA93E00E94541642
:1032C00013CF64E971E0F8CF68E971E0F5CF6CE9FC
:1032D00071E0F2CF80916D021A8219821C821B82EA
:1032E0001E821D828F831886BE01695F7F4FCE01CB
:1032F00001960E944217BE016F5F7F4FCE010D966F
:103300000E947A16CE0101960E94C5168BE293E0C8
:103310000E947005811124C060EA71E0CE0101961F
:103320000E946C1740912F035091300360912B0342
:1033300070912C03CE0101960E94F516811104C0F4
:10334000CE0101960E94B3164D815E8169817A811A
:10335000CE010D960E94F516CE0101960E94C5166B
:10336000112309F4E7CE60916E0270916F02809193
:103370007002909171020E94F526AB01BC01CE0152
:1033800001960E94E917BE016F5F7F4FCE01439601
:103390000E947A16CE0101960E94C516CBCE2091CE
:1033A000690230916A022817390791F410926A0273
:1033B000109269026BE871E08BE293E00E94421781
:1033C00010926C0210926D0210926B020C944818CD
:1033D00090936A0280936902EDCF85ED8093BC00E3
:1033E0008091F3019091F401A091F501B091F60163
:1033F0000796A11DB11D23E0B695A79597958795D2
:103400002A95D1F72091BC0024FD03C010923C0204
:1034100008954091F3015091F4016091F50170918C
:10342000F601452B462B472B69F30097A105B10503
:1034300041F02AE22A95F1F700C00197A109B109EC
:10344000E1CF8091F2010C94DE10FC0180916902C1
:1034500090916A028130910591F048F08230910597
:1034600089F0039791F060E070E0CB0108954AE0A5
:1034700050E070E060E0808191810C943B2342E059
:1034800050E0F7CF48E050E0F4CF40E150E0F1CF1A
:103490001F920F920FB60F9211242F933F938F9389
:1034A0009F93AF93BF938091800290918102A091EE
:1034B0008202B091830230917B0223E0230F2D37EB
:1034C00058F50196A11DB11D20937B0280938002C7
:1034D00090938102A0938202B093830280917C0238
:1034E00090917D02A0917E02B0917F020196A11D74
:1034F000B11D80937C0290937D02A0937E02B093D5
:103500007F02BF91AF919F918F913F912F910F902B
:103510000FBE0F901F90189526E8230F0296A11D4D
:10352000B11DD2CF1F920F920FB60F9211242F937D
:103530003F934F935F936F937F938F939F93AF933B
:10354000BF93EF93FF9388E892E00E94B407FF9146
:10355000EF91BF91AF919F918F917F916F915F910B
:103560004F913F912F910F900FBE0F901F90189584
:103570001F920F920FB60F9211242F938F939F9348
:10358000EF93FF93E0919802F09199028081E0918E
:103590009E02F0919F0282FD1BC090818091A1024A
:1035A0008F5F8F732091A202821741F0E091A102F8
:1035B000F0E0E857FD4F958F8093A102FF91EF91C6
:1035C0009F918F912F910F900FBE0F901F90189584
:1035D0008081F4CF1F920F920FB60F9211242F9378
:1035E0003F934F935F936F937F938F939F93AF938B
:1035F000BF93EF93FF938091B900887F803609F4E1
:103600004AC0F0F5883209F4A7C018F5803109F4F2
:103610009BC0B8F4882309F4F9C0883009F494C039
:10362000FF91EF91BF91AF919F918F917F916F919A
:103630005F914F913F912F910F900FBE0F901F9070
:103640001895883109F488C0803251F780933B0285
:1036500014C0803409F49DC040F48033B9F388333A
:10366000F9F680933B0285ECB0C0803509F485C043
:10367000883509F496C0883499F60E94ED19D0CFA8
:10368000883909F48CC038F5883729F050F4883629
:1036900011F0803729F683E080933C0210923A02C1
:1036A00057C0883809F47BC0803919F0803809F098
:1036B000B7CF80913A02803208F071C0E0913A02AF
:1036C00081E08E0F80933A028091BB00F0E0E65ECD
:1036D000FD4F80833DC0803B39F0E0F4803A09F42F
:1036E00079C0883A09F09CCF84E080933C02109224
:1036F000190210921802E0916502F0916602099594
:103700008091180281110FC081E0809318021092FD
:10371000F80109C0803C09F4A6CF883C09F4A3CF86
:10372000883B09F07DCFE091190281E08E0F8093F4
:103730001902F0E0E850FE4F80818093BB00909129
:1037400019028091180229C0809161028093BB0008
:1037500085EC8093BC0064CF9091600280915F0201
:10376000981758F5E091600281E08E0F8093600217
:10377000F0E0E15CFD4F8081E9CFE091600281E003
:103780008E0F809360028091BB00F0E0E15CFD4F02
:1037900080839091600280915F029817C8F285E85B
:1037A000D8CFE091600281E08E0F8093600280911B
:1037B000BB00F0E0E15CFD4F808380913E0281110F
:1037C0005CCF81E080933D0284EA8093BC0010923C
:1037D0003C0226CF85EC8093BC0010923C02809185
:1037E0003A02803230F4E0913A02F0E0E65EFD4FBA
:1037F000108260913A0270E0E0916302F0916402FD
:103800008AE192E0099510923A020ACF10923B02A7
:1038100034CF10928B0210928A0288EE93E0A0E0DF
:10382000B0E080938C0290938D02A0938E02B093AF
:103830008F0225E131E0309389022093880225EC44
:1038400030E0309395022093940224EC30E03093E2
:1038500097022093960220EC30E030939902209357
:10386000980221EC30E030939B0220939A0222ECE4
:1038700030E030939D0220939C0226EC30E03093A0
:103880009F0220939E021092A1021092A202109217
:10389000A3021092A4021092A3031092A203809399
:1038A000A4039093A503A093A603B093A70387E274
:1038B00091E09093A1038093A0031092AF03109224
:1038C000AE0320E830E03093B1032093B00380E4EE
:1038D00090E09093B3038093B2033093B5032093A9
:1038E000B4039093B7038093B6031092C20310926F
:1038F000B9031092B8031092BB031092BA0381E08F
:103900008093C1038093C0032FEF3FEF3093BF0339
:103910002093BE033093BD032093BC038093C30365
:103920001092C4031092C6031092C50383E491E081
:103930009093AD038093AC031092C8031092C70319
:1039400080EA93E09093CA038093C9031092CC035A
:103950001092CB038FEF8093D0038093D103809399
:10396000D2038093D3038093D40380E89AE1A6E046
:10397000B0E08093E1039093E203A093E303B0935C
:10398000E40380EA96E8A1E0B0E08093E503909339
:10399000E603A093E703B093E80380E58093EA038E
:1039A0001092EB03109233031092370310923603F8
:1039B0001092380389E391E09093320380933103AE
:1039C000EDE4F3E01082148213821582369683E0D0
:1039D000E938F807B9F785E091E090939403809374
:1039E000930380E091E0909396038093950386E0A3
:1039F0008093970385E0809398038BE691E0909302
:103A00009203809391038AE090E090939A038093CD
:103A1000990384EF91E090939C0380939B03109211
:103A20009F0310929E0310928D0310928E031092AA
:103A30008F031092900310929D0362EA71E08BE273
:103A400093E00E946C1762EA71E085E293E00C94C7
:103A50006C17CF93DF93CDB7DEB728970FB6F894E6
:103A6000DEBF0FBECDBF789484B5826084BD84B5BF
:103A7000816084BD85B5826085BD85B5816085BD69
:103A800080916E00816080936E0010928100809121
:103A900081008260809381008091810081608093A9
:103AA0008100809180008160809380008091B100CE
:103AB00084608093B1008091B00081608093B000F9
:103AC00080917A00846080937A0080917A0082608D
:103AD00080937A0080917A00816080937A0080914F
:103AE0007A00806880937A001092C100E091980279
:103AF000F091990282E08083E0919402F091950226
:103B00001082E0919602F09197028FEC80831092E0
:103B1000A002E0919C02F0919D0286E08083E091FA
:103B20009A02F0919B02808180618083E0919A02E9
:103B3000F0919B02808188608083E0919A02F091ED
:103B40009B02808180688083E0919A02F0919B02C1
:103B500080818F7D80838091CB039091CC03892BD2
:103B600071F52091B2033091B303C901079697FD17
:103B70000796B3E095958795BA95E1F72091B00344
:103B80003091B103AC01429FC001439F900D529F01
:103B9000900D11240E942A279093CC038093CB038D
:103BA000892B69F464EA71E088E892E00E94541677
:103BB00069E871E088E892E00E945416FFCF0E9405
:103BC00032162091B2033091B3038091B0039091EB
:103BD000B103B901213231050CF44BC160547109B4
:103BE00077FF02C06F5F7F4F75956795825591098A
:103BF00097FD019600E410E022E530E04AE657E048
:103C0000959587950E948B0F82E08093CE038091DB
:103C1000C9039091CA03892B09F43EC18CE38093B8
:103C2000CD031092680210926702109285021092E2
:103C300084020E94C01083E397E090936602809311
:103C4000650284E397E0909364028093630280911D
:103C5000D40387FD1EC061E00E94950661E080915B
:103C6000D4030E94670661E070E080E090E00E946B
:103C7000F60660E08091D4030E9467066AE070E077
:103C800080E090E00E94F60661E08091D4030E94FB
:103C900067068091C9039091CA03892B09F4BBC1BF
:103CA0002091E1033091E2034091E3035091E4035A
:103CB00060E074E284EF90E00E94A3252051310976
:103CC0004109510956954795379527952093B80096
:103CD00064E086E895E00E946B126091B203615047
:103CE0008CEA93E00E94201364E082E895E00E9451
:103CF0006B128091CE0360E1813009F064E18CEABF
:103D000093E00E94201364E08EE795E00E946B121E
:103D10008FE88093E9038091B0039091B1038038DC
:103D2000910509F08FC18091B2039091B303803463
:103D3000910509F097C18091CE03813009F0A5C1AA
:103D40008FE98093E90312E16AED8CEA93E00E9427
:103D50002013612F8CEA93E00E94201361E88CEA23
:103D600093E00E9420136091E9038CEA93E00E94A3
:103D7000201369ED8CEA93E00E9420138091CE031A
:103D800062E2813009F061EF8CEA93E00E94201337
:103D900066E088E795E00E946B128091C9039091DC
:103DA000CA03892B09F473C12091E5033091E6031E
:103DB0004091E7035091E80360E074E284EF90E003
:103DC0000E94A32520513109410951095695479573
:103DD000379527952093B8000E94321681E090E035
:103DE0009093BF038093BE039093BD038093BC0365
:103DF0000E947D17212C312C2101239446E0642E52
:103E0000EE24E394E0929D038FB7F89440918002F2
:103E10005091810260918202709183028FBF8091E4
:103E20008D0390918E03A0918F03B0919003481B56
:103E3000590B6A0B7B0B8091990390919A03B0E028
:103E4000A0E084179507A607B70708F036C210E070
:103E500080919703181708F024C1E0919303F09123
:103E60009403E10FF11D62E080810E9495061F5FBF
:103E7000EFCF6052710977FF02C06F5F7F4F75957A
:103E800067958357910997FD019600E210E023E7BB
:103E900030E04AE855E0B4CE61E08091D2030E9460
:103EA000950661E08091D3030E9495068091D2032C
:103EB000082E000C990BFC01E85BF54FE491F0E053
:103EC000EE0FFF1FEC5CF54F259134913093DA0330
:103ED0002093D903FC01E45AF54FE491E093DF030A
:103EE0008091D303082E000C990BFC01E85BF54F81
:103EF000E491F0E0EE0FFF1FEC5CF54FA591B4915B
:103F0000B093DC03A093DB03FC01E45AF54FE4918A
:103F1000E093E0038C91E82BEC938091C7039091A0
:103F2000C803892B09F434C01FB7F894809162024A
:103F3000811127C0E2E5FAE08491E6E6FAE0949187
:103F4000E82FF0E0EE0FFF1FE65DF54FA591B4916D
:103F5000EC91E92321F461E08AE00E94670661E0C8
:103F60008AE00E9495068CB580618CBD8CB580641A
:103F70008CBD61E08DE00E94950661E08BE00E94BF
:103F80009506809162028F5F809362021FBF5FCEB1
:103F900061E08091D0030E94950661E08091D10399
:103FA0000E9495068091D003082E000C990BFC010D
:103FB000E85BF54FE491F0E0EE0FFF1FEC5CF54F8E
:103FC000259134913093D6032093D503FC01E45A14
:103FD000F54FE491E093DD038091D103082E000CAE
:103FE000990BFC01E85BF54FE491F0E0EE0FFF1F49
:103FF000EC5CF54FA591B491B093D803A093D7038F
:10400000FC01E45AF54FE491E093DE038C91E095D6
:10401000E823EC931CCE8091C7039091C803892BB1
:1040200031F08091EA039091EB030E94A10AE091A4
:10403000DB03F091DC0390818091E003809589237C
:10404000808346CE8036910589F48091B2039091A9
:10405000B303409739F48091CE03813029F480E195
:104060008093E90312E070CE8FEAFACF8034910595
:10407000C9F78091B2039091B303809799F780912B
:10408000CE03813011F480E15CCE8FEC5ACEE0910A
:10409000DB03F091DC0380819091E003892B808326
:1040A0009BCEF12C80919803F81608F061C0CF2CBC
:1040B000D12CE0919503F0919603EC0DFD1D61E08C
:1040C00080810E949506E0919503F0919603EC0D96
:1040D000FD1D60E080810E946706D201C1010F2CA6
:1040E00004C0880F991FAA1FBB1F0A94D2F74C0166
:1040F0005C01A094B094712C80919703781608F518
:10410000072D10E0E0919303F0919403E00FF11F6D
:1041100080810E943E060C5F1F4F000F111FF801A7
:10412000EF5CFC4F892B41F480819181882999298A
:10413000918380837394E0CF808191818A219B2138
:10414000F7CFE0919503F0919603EC0DFD1D61E032
:1041500080810E9467068091950390919603C80E16
:10416000D91E60E0F60180810E949506F3949ACFF3
:1041700001E313E0F801878D90A1892B31F4148EAF
:104180004FEF5FEF568F458F11A2369653E0ED3615
:10419000F50789F7F12C80919703F81608F052C0C3
:1041A000B12CCF2CD12CCC0CDD1CC601875C9C4FD4
:1041B0006C0120919803B21608F042C0F6016081AC
:1041C00071810B2C02C0769567950A94E2F7F29EF6
:1041D000900111242B0D311DE1E3F3E080E0458DCA
:1041E000568D2417350709F42DC28F5F36968A3015
:1041F000B1F760FF23C0E1E3F3E090E080E0448D9D
:10420000411117C0E0919103F0919203E20FF31F67
:104210004081689EF001699EF00D1124EF5CFC4F17
:10422000448F368F258F10A2178E61E00E94A5055E
:1042300005C0019636968A30910509F7B394B9CF37
:10424000F394A9CF80E0F80191A19111892F0A5F21
:104250001F4FF3E00D361F07B1F79FB7F894409159
:1042600080025091810260918202709183029FBF0F
:1042700040938D0350938E0360938F03709390034C
:104280008823D9F0809152038823B9F0809150039C
:1042900090915103019789F410914D03111110C0B1
:1042A00040E050E0452B09F4ADCD0E94A0078823E3
:1042B00009F4A6CD0E940000A3CD10929D03F0CF7B
:1042C000612F88E892E00E94D60769E871E088E8EB
:1042D00092E00E94541680917A021035C9F58E251D
:1042E00080937A02811109C00E947D1768EC70E00A
:1042F00080E090E00E94F606D3CF6BE871E08BE29D
:1043000093E00E9442171092760210927702109268
:104310007802109279021092720210927302109237
:1043200074021092750210926E0210926F02109237
:1043300070021092710210926D0210926C02109233
:104340006B0210926A02109269020E944818CECF46
:10435000882309F4A5CF81E090E0183521F01F34BF
:1043600029F482E090E00E94CF199ACF83E090E098
:104370001834C9F31C3439F56BE871E08BE293E033
:104380000E944217109276021092770210927802E1
:1043900010927902109272021092730210927402BB
:1043A0001092750210926E0210926F0210927002BB
:1043B0001092710210926C0210926B0210926D02B8
:1043C0000E9448186DCF812F8D7F8D3221F086EDB0
:1043D000810F8230E0F56BE273E0CE0101960E941E
:1043E0006317CE0101960E94251A0E9474244B0186
:1043F0005C018092760290927702A0927802B0924D
:104400007902CE0101960E94C516C501B4010E9431
:10441000F526AB01BC01CE0101960E94E917BE0151
:104420006F5F7F4F85E293E00E947A16CE0101967E
:104430000E94C51610936D02E0926C0210926B02FE
:104440006BE871E08BE293E00E944217B9CF1D3315
:1044500009F084C080916D02882309F4B1CF809166
:104460006C02882309F4ACCF6BE273E0CE010196B5
:104470000E946317CE0101960E94251A0E9474249F
:104480004B015C018092720290927302A0927402BE
:10449000B0927502CE0101960E94C51680916D0200
:1044A0008B3239F164F48A3209F447C060917602A4
:1044B00070917702809178029091790226C08D32B6
:1044C00079F18F3299F720E030E0A901C501B401FC
:1044D0000E946F248823F1F1A50194016091760276
:1044E0007091770280917802909179020E948326E0
:1044F0000CC0209176023091770240917802509161
:104500007902C501B4010E94172660936E02709370
:104510006F028093700290937102E0926B0250CF11
:10452000A5019401609176027091770280917802E2
:10453000909179020E941626E8CF20917602309160
:1045400077024091780250917902C501B4010E942E
:10455000D524DBCF60E070E0CB01D7CF812F110FE6
:10456000990B0E941129182F8091690290916A027B
:104570000097E9F580ED810F8A3008F091CE8091A7
:104580006B02882361F06BE871E08BE293E00E949C
:10459000421710926C0210926B0210926D02809181
:1045A0002F03909130030D9708F00ACF8BE293E030
:1045B0000E9470058823D1F11A8219821C821B8205
:1045C0001E821D821F831886BE01695F7F4FCE0148
:1045D00001960E944217BE016F5F7F4F8BE293E00E
:1045E0000E947A16CE0101960E94C516E9CE81304E
:1045F000910529F480ED810F823008F251CE82308E
:10460000910531F480ED810F883008F4B8CF48CEA1
:10461000039709F045CE80ED810F8A3008F4AFCFC3
:104620008FEB810F863008F03BCEA9CF19831A8219
:1046300041E050E0BE016F5F7F4F8BE293E00E944C
:10464000F516BECE6170F2CD85E293E00E94C516EC
:104650008BE293E00E94C51683E491E09093AD0352
:104660008093AC038091CB039091CC03009711F021
:104670000C94C6270895B0E0A0E0E1E4F3E20C94C6
:10468000D1255C016B017A016115710519F0FB01FF
:1046900091838083E114F10449F0C7010297839765
:1046A00028F060E070E0CB019CC05E01E50121963E
:1046B000F5011081812F90E00E942624892BA9F713
:1046C0001D3209F056C02196F501118101E0E11477
:1046D000F10409F4AEC0F0E1EF16F10409F08EC068
:1046E000103341F488818F7D883509F083C01981AA
:1046F00022960260E0E1EE2EF12C88248A94982C18
:10470000A82CFFE0BF2E20E060E070E0CB01270185
:104710000F2C000C66087708FE0150ED352E310E87
:1047200039E0331538F43FEB310F3A31A0F549EC5D
:10473000342E310E3E141F04BCF52F3FB9F08616FF
:104740009706A806B90670F1A30192010E9493256D
:10475000232D30E050E040E0620F731F841F951F4F
:104760006217730784079507E8F021E0219610810E
:10477000D3CF1B3221F4E5012296F501118100E02F
:10478000A6CF78E0E72EF12C88248A94982CA82CC8
:104790006FE1B62EB8CF3FE9310F3A3128F439EA4C
:1047A000332EC7CF2FEFE2CFC114D10431F0222333
:1047B000E9F02197F601D183C08300FF07C09095EF
:1047C0008095709561957F4F8F4F9F4F2F3F49F494
:1047D00082E290E09093ED038093EC036FEF7FEF24
:1047E000CB01CDB7DEB7E1E10C94ED2501FFE5CFBC
:1047F0002297E0CF10E3E114F10419F23AE0E31656
:10480000F104E9F080E1E816F10409F473CFE8E07F
:10481000EE16F10409F4B8CF6FEF7FEFCB019701EB
:104820000F2C000C440B550B0E94A32549015A0183
:104830006ACF103309F456CF9AE0E92EF12C89E9BA
:10484000882E982CA82C89E1B82E5DCF91110C945C
:104850005C24803219F089508550C8F708952532BC
:10486000310520F4223010F00C943A24FA01108221
:10487000CA010895BB27FA01A62F621771058105A9
:104880009105330B30FB66F0AA27660F771F881F50
:10489000991FAA1FA21710F0A21B63953850A9F701
:1048A000A05DAA3308F0A95DA19336F7B111B193C9
:1048B0001082CA010C945F24992788270895DC018F
:1048C000FC01672F71917723E1F7329704C07C9147
:1048D0006D9370836291AE17BF07C8F308950E946D
:1048E000B12408F481E00895E89409C097FB3EF4F0
:1048F00090958095709561957F4F8F4F9F4F99232D
:10490000A9F0F92F96E9BB279395F69587957795AA
:104910006795B795F111F8CFFAF4BB0F11F460FF6A
:104920001BC06F5F7F4F8F4F9F4F16C0882311F0C2
:1049300096E911C0772321F09EE8872F762F05C0D6
:10494000662371F096E8862F70E060E02AF09A9571
:10495000660F771F881FDAF7880F9695879597F966
:104960000895990F0008550FAA0BE0E8FEEF161600
:104970001706E807F907C0F012161306E407F50753
:1049800098F0621B730B840B950B39F40A2661F0C7
:10499000232B242B252B21F408950A2609F4A1406A
:1049A000A6958FEF811D811D08950E94E8240C9427
:1049B00059250E944B2538F00E94522520F095235E
:1049C00011F00C9442250C94482511240C948D254B
:1049D0000E946A2570F3959FC1F3950F50E0551F13
:1049E000629FF001729FBB27F00DB11D639FAA2744
:1049F000F00DB11DAA1F649F6627B00DA11D661F93
:104A0000829F2227B00DA11D621F739FB00DA11DB3
:104A1000621F839FA00D611D221F749F3327A00D6D
:104A2000611D231F849F600D211D822F762F6A2F09
:104A300011249F5750409AF0F1F088234AF0EE0F6E
:104A4000FF1FBB1F661F771F881F91505040A9F79B
:104A50009E3F510580F00C9442250C948D255F3FBC
:104A6000E4F3983ED4F3869577956795B795F795D7
:104A7000E7959F5FC1F7FE2B880F911D969587954F
:104A800097F9089597F99F6780E870E060E00895CE
:104A90009FEF80EC089500240A9416161706180656
:104AA0000906089500240A94121613061406050632
:104AB0000895092E0394000C11F4882352F0BB0FC3
:104AC00040F4BF2B11F460FF04C06F5F7F4F8F4F26
:104AD0009F4F089557FD9058440F551F59F05F3F61
:104AE00071F04795880F97FB991F61F09F3F79F010
:104AF00087950895121613061406551FF2CF469592
:104B0000F1DF08C0161617061806991FF1CF869513
:104B10007105610508940895E894BB2766277727F7
:104B2000CB0197F90895DB018F939F930E94C525D0
:104B3000BF91AF91A29F800D911DA39F900DB29F39
:104B4000900D11240895A1E21A2EAA1BBB1BFD0192
:104B50000DC0AA1FBB1FEE1FFF1FA217B307E4075C
:104B6000F50720F0A21BB30BE40BF50B661F771FB4
:104B7000881F991F1A9469F7609570958095909594
:104B80009B01AC01BD01CF0108950E940726A59F9E
:104B9000900DB49F900DA49F800D911D1124089538
:104BA0002F923F924F925F926F927F928F929F923D
:104BB000AF92BF92CF92DF92EF92FF920F931F932B
:104BC000CF93DF93CDB7DEB7CA1BDB0B0FB6F894DC
:104BD000DEBF0FBECDBF09942A88398848885F841C
:104BE0006E847D848C849B84AA84B984C884DF808D
:104BF000EE80FD800C811B81AA81B981CE0FD11D71
:104C00000FB6F894DEBF0FBECDBFED010895A29F91
:104C1000B001B39FC001A39F700D811D1124911D90
:104C2000B29F700D811D1124911D08955058BB270E
:104C3000AA270E942E260C9459250E944B2538F055
:104C40000E94522520F039F49F3F19F426F40C9469
:104C500048250EF4E095E7FB0C944225E92F0E94CD
:104C60006A2558F3BA17620773078407950720F07F
:104C700079F4A6F50C948C250EF4E0950B2EBA2F42
:104C8000A02D0B01B90190010C01CA01A001112452
:104C9000FF27591B99F0593F50F4503E68F11A16FE
:104CA000F040A22F232F342F4427585FF3CF46958F
:104CB00037952795A795F0405395C9F77EF41F16B1
:104CC000BA0B620B730B840BBAF09150A1F0FF0F7B
:104CD000BB1F661F771F881FC2F70EC0BA0F621F67
:104CE000731F841F48F4879577956795B795F79557
:104CF0009E3F08F0B0CF9395880F08F09927EE0FEC
:104D00009795879508950E9497260C9459250E949F
:104D1000522558F00E944B2540F029F45F3F29F0BE
:104D20000C94422551110C948D250C9448250E9419
:104D30006A2568F39923B1F3552391F3951B550B1D
:104D4000BB27AA2762177307840738F09F5F5F4F5E
:104D5000220F331F441FAA1FA9F335D00E2E3AF09D
:104D6000E0E832D091505040E695001CCAF72BD0B5
:104D7000FE2F29D0660F771F881FBB1F2617370706
:104D80004807AB07B0E809F0BB0B802DBF01FF2738
:104D900093585F4F3AF09E3F510578F00C944225AE
:104DA0000C948D255F3FE4F3983ED4F38695779578
:104DB0006795B795F7959F5FC9F7880F911D9695F1
:104DC000879597F90895E1E0660F771F881FBB1F4D
:104DD000621773078407BA0720F0621B730B840BFA
:104DE000BA0BEE1F88F7E09508950E94722588F0AF
:104DF0009F5798F0B92F9927B751B0F0E1F0660F9F
:104E0000771F881F991F1AF0BA95C9F714C0B130DF
:104E100091F00E948C25B1E008950C948C25672FA9
:104E2000782F8827B85F39F0B93FCCF3869577950E
:104E30006795B395D9F73EF49095809570956195F7
:104E40007F4F8F4F9F4F0895EE0FFF1F0590F491F6
:104E5000E02D09940F931F93CF93DF938230910538
:104E600010F482E090E0E091F003F091F10330E083
:104E700020E0B0E0A0E0309799F42115310509F465
:104E80004AC0281B390B24303105D8F58A819B8113
:104E90006115710589F1FB0193838283FE0111C0C5
:104EA000408151810281138148175907E0F048176A
:104EB000590799F4109761F012960C931297139674
:104EC0001C933296CF01DF91CF911F910F910895DE
:104ED0000093F0031093F103F4CF2115310551F045
:104EE0004217530738F0A901DB019A01BD01DF0128
:104EF000F801C1CFEF01F9CF9093F1038093F00354
:104F0000CDCFFE01E20FF31F81939193225031091F
:104F100039832883D7CF2091EE033091EF03232BE1
:104F200041F420910D0130910E013093EF03209355
:104F3000EE0320910B0130910C012115310541F454
:104F40002DB73EB740910F0150911001241B350B36
:104F5000E091EE03F091EF03E217F307A0F42E1BAC
:104F60003F0B2817390778F0AC014E5F5F4F2417CD
:104F7000350748F04E0F5F1F5093EF034093EE0349
:104F8000819391939FCFF0E0E0E09CCFCF93DF93AC
:104F90000097E9F0FC01329713821282A091F0038E
:104FA000B091F103ED0130E020E01097A1F42081F1
:104FB0003181820F931F2091EE033091EF03281768
:104FC000390709F061C0F093EF03E093EE03DF913E
:104FD000CF910895EA01CE17DF07E8F54A815B819A
:104FE0009E0141155105B1F7E901FB83EA8349911F
:104FF0005991C40FD51FEC17FD0761F48081918191
:105000000296840F951FE901998388838281938199
:105010009B838A83F0E0E0E012968D919C91139738
:105020000097B9F52D913C911197CD010296820F11
:10503000931F2091EE033091EF032817390739F6BB
:10504000309751F51092F1031092F003B093EF03F3
:10505000A093EE03BCCFD383C28340815181840FE0
:10506000951FC817D90761F44E5F5F4F88819981FA
:10507000480F591F518340838A819B819383828388
:105080002115310509F0B0CFF093F103E093F0035F
:105090009ECFFD01DC01C0CF13821282D7CFB0E0DA
:1050A000A0E0E5E5F8E20C94D2258C01009751F4DC
:1050B000CB010E942A278C01C801CDB7DEB7E0E101
:1050C0000C94EE25FC01E60FF71F9C0122503109DC
:1050D000E217F30708F49DC0D901CD91DC91119737
:1050E000C617D70798F0C530D10530F3CE01049725
:1050F0008617970708F3C61BD70B2297C193D19346
:105100006D937C93CF010E94C627D6CF5B01AC1A6A
:10511000BD0A4C018C0E9D1EA091F003B091F103CD
:10512000512C412CF12CE12C109731F58091EE039C
:105130009091EF038815990509F05CC04616570653
:1051400008F058C080910B0190910C01009741F438
:105150008DB79EB740910F0150911001841B950BA4
:10516000E817F90708F055C0F093EF03E093EE035A
:10517000F90171836083A0CF8D919C911197129654
:105180006C90129713967C901397A815B90559F552
:105190006C0142E0C40ED11CCA14DB0420F1AC0146
:1051A0004A195B09DA011296159780F062827382C0
:1051B00051834083D9016D937C93E114F10471F024
:1051C000D7011396FC93EE93129776CF22968C0F0D
:1051D0009D1FF90191838083F301EFCFF093F103D9
:1051E000E093F00369CF4816590608F42C017D01BD
:1051F000D3019ACFCB010E942A277C01009749F066
:10520000AE01B8010E941929C8010E94C627870172
:1052100053CF10E000E050CF81E090E0F8940C9480
:1052200030299111089581568A5108F48052855889
:105230000895FB01DC0102C001900D9241505040E5
:10524000D8F70895DC0101C06D9341505040E0F75C
:105250000895FB01DC0101900D920020E1F7089513
:1052600015E0C5E4D5E004C0FE010E942427219684
:0A527000C634D107C9F7F894FFCF48
:10527A0008090A0B0C0203040506070000F2038062
:10528A000000000000D60736076307230894077258
:10529A0007860700000000551128111F15810521F6
:1052AA00110E11FF100000000028072C073007001C
:1052BA00000000DF0C36071F153507EA098105844F
:1052CA000F5C0F780F6C0FEC0F8105A50AC9145AF1
:1052DA0009A309A50E880E100EB10D50584F48416A
:1052EA002829254C423738392B433435362D443159
:1052FA0032332A45302E3D2F460D0A004F464600CE
:10530A004445430042494E004F4354004845580023
:10531A0020003000446973706C6179206572726F85
:02532A0072000F
:00000001FF
