:100000000C946F050C9497050C9497050C94970528
:100010000C9497050C9497050C9497050C949705F0
:100020000C9497050C9497050C9497050C949705E0
:100030000C9497050C9497050C9497050C949705D0
:100040000C94211C0C9497050C94911C0C946B1C23
:100050000C9497050C9497050C9497050C949705B0
:100060000C94C31C0C9497054E414E494E4954596B
:10007000494E46CDCCCC3D0AD7233C17B7D1387773
:10008000CC2B329595E6241FB14F0A000020410089
:1000900000C84200401C4620BCBE4CCA1B0E5AAED3
:1000A000C59D7400000000003E5B4F5B3E3E6B4F01
:1000B0006B3E1C3E7C3E1C183C7E3C181C577D57FA
:1000C0001C1C5E7F5E1C00183C1800FFE7C3E7FFA6
:1000D0000018241800FFE7DBE7FF30483A060E2639
:1000E00029792926407F050507407F05253F5A3C91
:1000F000E73C5A7F3E1C1C08081C1C3E7F14227FD4
:1001000022145F5F005F5F06097F017F00668995AB
:100110006A606060606094A2FFA29408047E040894
:1001200010207E201008082A1C08081C2A08081E17
:10013000101010100C1E0C1E0C30383E3830060EFD
:100140003E0E06000000000000005F0000000700F7
:100150000700147F147F14242A7F2A1223130864B3
:100160006236495620500008070300001C22410057
:100170000041221C002A1C7F1C2A08083E08080097
:100180008070300008080808080000606000201037
:100190000804023E5149453E00427F4000724949F1
:1001A00049462141494D331814127F1027454545D2
:1001B000393C4A49493141211109073649494936F3
:1001C000464949291E000014000000403400000088
:1001D00008142241141414141400412214080201BA
:1001E0005909063E415D594E7C1211127C7F4949E6
:1001F00049363E414141227F4141413E7F49494983
:10020000417F090909013E414151737F0808087F78
:1002100000417F41002040413F017F081422417F7F
:10022000404040407F021C027F7F0408107F3E4117
:1002300041413E7F090909063E4151215E7F09196E
:100240002946264949493203017F01033F40404086
:100250003F1F2040201F3F4038403F631408146375
:1002600003047804036159494D43007F4141410231
:1002700004081020004141417F0402010204404073
:10028000404040000307080020545478407F284431
:1002900044383844444428384444287F385454541B
:1002A0001800087E090218A4A49C787F080404782A
:1002B00000447D40002040403D007F102844000065
:1002C000417F40007C047804787C0804047838443A
:1002D000444438FC1824241818242418FC7C0804EE
:1002E0000408485454542404043F44243C4040200F
:1002F0007C1C2040201C3C4030403C4428102844BA
:100300004C9090907C4464544C440008364100006A
:1003100000770000004136080002010204023C267A
:1003200023263C1EA1A161123A4040207A38545441
:1003300055592155557941225454784221555478C4
:100340004020545579400C1E52721239555555595A
:10035000395454545939555454580000457C41007F
:1003600002457D420001457C407D1211127DF0283E
:100370002528F07C545545002054547C547C0A09AF
:100380007F4932494949323A4444443A324A48481A
:10039000303A4141217A3A42402078009DA0A07D28
:1003A0003D4242423D3D4040403D3C24FF242448E4
:1003B0007E4943662B2FFC2F2BFF0929F620C0888E
:1003C0007E090320545479410000447D413048485F
:1003D0004A32384040227A007A0A0A727D0D193179
:1003E0007D2629292F28262929292630484D4020D5
:1003F000380808080808080808382F10C8ACBA2FB1
:10040000102834FA00007B000008142A1422221459
:100410002A14085500550055AA55AA55AAFF55FF9C
:1004200055FF000000FF00101010FF00141414FF0F
:10043000001010FF00FF1010F010F0141414FC0056
:100440001414F700FF0000FF00FF1414F404FC1460
:100450001417101F10101F101F1414141F00101059
:1004600010F0000000001F101010101F10101010CE
:10047000F010000000FF101010101010101010FFEE
:1004800010000000FF140000FF00FF00001F101705
:100490000000FC04F414141710171414F404F400EE
:1004A00000FF00F714141414141414F700F71414B4
:1004B00014171410101F101F141414F4141010F03B
:1004C00010F000001F101F0000001F14000000FCAF
:1004D000140000F010F01010FF10FF141414FF149B
:1004E0001010101F00000000F010FFFFFFFFFFF0D2
:1004F000F0F0F0F0FFFFFF0000000000FFFF0F0F23
:100500000F0F0F3844443844FC4A4A4A347E0202F2
:100510000606027E027E0263554941633844443C2C
:1005200004407E201E2006027E020299A5E7A599BE
:100530001C2A492A1C4C7201724C304A4D4D3030F5
:1005400048784830BC625A463D3E494949007E01E0
:1005500001017E2A2A2A2A2A44445F444440514AFF
:10056000444040444A51400000FF0103E080FF0046
:100570000008086B6B083612362436060F090F0682
:10058000000018180000001010003040FF010100AA
:100590001F01011E00191D1712003C3C3C3C0000CD
:1005A000000000000103070F1F3F7F0080C0E0F044
:1005B000F8FCFEDB40A4A62EAF2000A1C8D300406B
:1005C0008DAED580A8000060000000000000000093
:1005D000000000000000E00000000000000000003B
:1005E0000000000001E0000000000000000000002A
:1005F00000000001F000000000000000000000000A
:10060000000003F0000000000000000000000000F7
:100610000007F000000000000000000000000000E3
:1006200007F8000000000000000000000000000FBC
:10063000F800000003C0007E000001E0007F0FF81A
:1006400000000003C000FE000001E000FFEFF80022
:10065000000003C000FE000001E000FFFFF8000002
:100660000003C000F00000000F007FFE7FC000000C
:1006700003C000F00000000F003FFE7FF83FF1FBD9
:10068000CFFCFEF3BC3DEFE01FFE7FFF7FFBFFDFF3
:10069000FEFEFFBC3DEFE01FC6FFFF7FFBFFDFFE5E
:1006A000FEFFBC3DEFE00FE3C7FE787BC3DE1EF02C
:1006B000FFBC3DEF0007FF87FC787BC3DE1EF0F830
:1006C0003C3DEF0001FFFFF0007BC3C01EF0F03C9B
:1006D0003DEF0001F37FE03FFBC3CFFEF0F03C3D78
:1006E000EF0003E33F807FFBC3DFFEF0F03C3DEF14
:1006F0000007E73C00787BC3DE1EF0F03C3DEF00D6
:1007000007FFBE00787BC3DE1EF0F03C3DEF000724
:10071000FFFE00787BC3DE1EF0F03C3DEF000FFFD4
:10072000FE007FFBFFDFFEF0F03FFDEFE00FFFFF7D
:10073000007FFBFFDFFEF0F03FFDEFE00FF9FF0071
:100740003E79F9CF9EF0F01F3DE7E01FF1FF00007A
:10075000000000000000000000001F80FF007FFF7D
:10076000FFFFFFFFFFFFFFFFE01C007F007FFFFF99
:10077000FFFEB46D888D18E000001F007FFFFFFFB3
:10078000FE95AD7DB577E000000F007FFFFFFFFE17
:10079000A5AD9D8D19E0000006007FFFFFFFFEB5AF
:1007A000ADEDB57EE000000000000180000000001B
:1007B00000000000000380000000000000000000B6
:1007C00007C000000000000000000007C00000009B
:1007D0000000000000000FC000000000000000004A
:1007E000001FE00000000000000000001FE000000B
:1007F000000000000000003FE000000000000000DA
:1008000000003FF00000000000000000007FF0004A
:100810000000000000001FF87FF000000000000052
:10082000003FFE7FF0000000000000003FFF7FF06F
:10083000000000000000001FFFFBE00000000000BF
:1008400000000FFFF9FFC00000000000000FFFF9DB
:10085000FFF800000000000007FFF1FFFF000000AC
:1008600000000003FC73FFFF80000000000001FE99
:100870003FFFFF80000000000000FF1E0FFF000090
:1008800000000000007FFE1FFC00000000000000D0
:100890003FFFFFF8000000000000000FDFFFE00056
:1008A0000000000000001F19FFC000000000000051
:1008B000003F3CFF00000000000000007E7CF800CC
:1008C000000000000000007FFE7C0000000000002F
:1008D0000000FFFFFC0000000000000000FFFFFE22
:1008E0000000000000000000FFFFFE00000000000C
:1008F000000001FFEFFE0000000000000001FFCF3C
:10090000FE0000000000000003FF07FE00000000E2
:1009100000000003FC07FE0000000000000003F0E0
:1009200003FE00000000000000018000FE00000047
:10093000000000000000007E000000000000000039
:1009400000003E000000000000000000000C00005D
:1009500000000000078000FC000003C0000000074A
:100960008001FC000003C0000000078001FC0000C3
:1009700003C0000000078001E00000001E0000002E
:10098000078001E00000001E007FE3F79FF9FDE70C
:10099000787BDFC0FFF7FFBFFDFDFF787BDFC0FF87
:1009A000F7FFBFFDFDFF787BDFC0F0F787BC3DE1BF
:1009B000FF787BDE00F0F787BC3DE1F0787BDE005E
:1009C00000F787803DE1E0787BDE007FF7879FFDC1
:1009D000E1E0787BDE00FFF787BFFDE1E0787BDEBA
:1009E00000F0F787BC3DE1E0787BDE00F0F787BCE4
:1009F0003DE1E0787BDE00F0F787BC3DE1E0787B0D
:100A0000DE00FFF7FFBFFDE1E07FFBDFC0FFF7FF88
:100A1000BFFDE1E07FFBDFC07CF3F39F3DE1E03E03
:100A20007BCFC00000000000000000000000FFFFBE
:100A3000FFFFFFFFFFFFFFFFC0FFFFFFFFFD68DBC2
:100A4000111A31C0FFFFFFFFFD2B5AFB6AEFC0FFF9
:100A5000FFFFFFFD4B5B3B1A33C0FFFFFFFFFD6B4A
:100A60005BDB6AFDC0535344313330362064697315
:100A7000706C6179206661696C656400000000003B
:100A8000240027002A0000000000250028002B0079
:100A900000000000230026002900040404040404CC
:100AA000040402020202020203030303030301021D
:100AB00004081020408001020408102001020408EC
:100AC00010200000000800020100000304070000DD
:100AD0000000000000002200FF21E21D7826112402
:100AE0001FBECFEFD8E0DEBFCDBF23E0A0EBB1E06B
:100AF00001C01D92AA3EB207E1F711E0A0E0B1E00B
:100B0000E8E7FAE502C005900D92A03BB107D9F7DE
:100B100015E0CEE6D5E004C02197FE010E94222B0D
:100B2000CD36D107C9F70E94FC1E0C942F2D0C94D2
:100B30000000089596E0899FD0011124A75DBC4F65
:100B400090967C936E935F9791E091969C9391978A
:100B5000E0919603F091970390919503992339F0D2
:100B6000309751F0811108C0809145030994309766
:100B700019F05C968C91FACF0895CF92DF92EF92A4
:100B8000FF920F931F9396E0899FF0011124E75D78
:100B9000FC4F11A2278D30A12130310551F178F0A1
:100BA0002230310509F451C02330310509F452C017
:100BB0001F910F91FF90EF90DF90CF9008956623E3
:100BC000B9F361E070E00E949A052FB7F894809124
:100BD0007E0290917F02A0918002B09181022FBF8E
:100BE0008093810390938203A0938303B093840343
:100BF000DFCF9FB7F894C0907E02D0907F02E09044
:100C00008002F09081029FBF0091810310918203C6
:100C10002091830330918403C01AD10AE20AF30AB7
:100C2000009193031091940330E020E00C151D0512
:100C30002E053F0550F462E070E01F910F91FF9088
:100C4000EF90DF90CF900C949A056111B1CF63E0E3
:100C500070E0F3CF70E060E0F0CF833081F028F4F3
:100C6000813099F08230A9F008958730A9F088305A
:100C7000C9F08430B1F4809180008F7D03C08091F1
:100C800080008F7780938000089584B58F7784BD2E
:100C9000089584B58F7DFBCF8091B0008F778093CE
:100CA000B00008958091B0008F7DF9CFCF93DF938E
:100CB000282F30E0F901EE53F54F8491F901E25508
:100CC000F54FD491F901E656F54FC491CC23A1F02C
:100CD00081110E942D06EC2FF0E0EE0FFF1FE05770
:100CE000F54FA591B491EC91ED2381E090E009F4EA
:100CF00080E0DF91CF91089580E090E0FACF1F93DC
:100D0000CF93DF93282F30E0F901EE53F54F849114
:100D1000F901E255F54FD491F901E656F54FC4912A
:100D2000CC23A9F0162F81110E942D06EC2FF0E0A4
:100D3000EE0FFF1FEA57F54FA591B4918FB7F894C6
:100D4000EC91111108C0D095DE23DC938FBFDF91A9
:100D5000CF911F910895DE2BF8CFCF93DF9390E0D2
:100D6000FC01E255F54F24918656954FFC01849184
:100D70008823C9F090E0880F991FFC01E458F54FD3
:100D8000A591B491FC01EA57F54FC591D491611139
:100D90000DC09FB7F8948C91209582238C93888105
:100DA000282328839FBFDF91CF910895623051F4AB
:100DB0009FB7F8943C91822F809583238C93E88190
:100DC0002E2BEFCF8FB7F894EC912E2B2C938FBF57
:100DD000EACF3FB7F89480917A0290917B02A0917C
:100DE0007C02B0917D0226B5A89B05C02F3F19F06B
:100DF0000196A11DB11D3FBFBA2FA92F982F88279B
:100E0000BC01CD01620F711D811D911D42E0660F75
:100E1000771F881F991F4A95D1F708958F929F9247
:100E2000AF92BF92CF92DF92EF92FF924B015C01A3
:100E30000E94E9066B017C010E94E9066C197D099C
:100E40008E099F09683E734081059105A8F321E052
:100E5000821A9108A108B10888EEC80E83E0D81E56
:100E6000E11CF11C81149104A104B10429F7FF9045
:100E7000EF90DF90CF90BF90AF909F908F900895AC
:100E8000862F642F0C94AD06862F642F0C947F065A
:100E9000862F0C94560608950895FC01248135810F
:100EA0006217730748F480819181009729F0860FBB
:100EB000971FFC018081089580E008950895AF9206
:100EC000BF92CF92DF92EF92FF920F931F93CF9337
:100ED000DF936C017B018B01040F151FEB015E0199
:100EE000AE18BF08C017D10759F06991D601ED912E
:100EF000FC910190F081E02DC6010995892B79F7CD
:100F0000C501DF91CF911F910F91FF90EF90DF907E
:100F1000CF90BF90AF900895FC01538D448D252F45
:100F200030E0842F90E0821B930B541710F0CF9683
:100F3000089501970895FC01918D828D981761F0B5
:100F4000A28DAE0FBF2FB11D5D968C91928D9F5FCC
:100F50009F73928F90E008958FEF9FEF0895FC01AB
:100F6000918D828D981731F0828DE80FF11D858D5E
:100F700090E008958FEF9FEF0895FC01918D228DF1
:100F8000892F90E0805C9F4F821B91098F73992776
:100F9000089586E892E00E94BD0721E0892B09F4BC
:100FA00020E0822F089580E090E0892B29F00E94B4
:100FB000C90781110C9400000895FC01A48DA80FAD
:100FC000B92FB11DA35ABF4F2C91848D90E001968B
:100FD0008F739927848FA689B7892C93A089B189AB
:100FE0008C91837080648C93938D848D981306C04C
:100FF0000288F389E02D80818F7D80830895EF92B0
:10100000FF920F931F93CF93DF93EC0181E0888FC2
:101010009B8D8C8D98131AC0E889F989808185FF92
:1010200015C09FB7F894EE89FF896083E889F98934
:1010300080818370806480839FBF81E090E0DF9136
:10104000CF911F910F91FF90EF900895F62E0B8D89
:1010500010E00F5F1F4F0F731127E02E8C8D8E1144
:101060000CC00FB607FCFACFE889F989808185FFAB
:10107000F5CFCE010E94DD07F1CFEB8DEC0FFD2FF8
:10108000F11DE35AFF4FF0829FB7F8940B8FEA8966
:10109000FB8980818062CFCFCF93DF93EC01888D75
:1010A0008823B9F0AA89BB89E889F9898C9185FDE3
:1010B00003C0808186FD0DC00FB607FCF7CF8C9171
:1010C00085FFF2CF808185FFEDCFCE010E94DD0745
:1010D000E9CFDF91CF910895EF92FF920F931F9385
:1010E000CF93DF93EC01EC80FD806E157F050CF053
:1010F00070C057FF04C0240F351F50E040E08E81C0
:101100009F81FA01E20FF31F8E179F071CF49C01C9
:10111000241B350B121613060CF05BC0922F842F84
:101120008695869586958E9DD0018F9DB00D112454
:101130006A0F7B1FAF8DB8A1A60FB71F477049F18B
:1011400088E0841B482F682F70E0FB01E555FA4FBB
:10115000E491281708F063C0621B71092FEF30E09B
:1011600002C0359527956A95E2F7E2230130110513
:1011700039F0B0F10230110561F58C91E82702C019
:101180008C91E82BEC93941720F12C813D81A20FD8
:10119000B31FE92FE41BE83078F00230110521F588
:1011A0008E2F9C9190959C932C813D81A20FB31F13
:1011B00088508830B0F7E770EE2359F0F0E0ED5535
:1011C000FA4FE49101301105F9F010F102301105E8
:1011D00019F1DF91CF911F910F91FF90EF9008953A
:1011E000E0958C91E823CECF81E00115110509F43B
:1011F00080E081959E2F8C932C813D81A20FB31F9F
:1012000098509830C0F7D7CF8C91E82BEC93E1CF72
:10121000E0958C91E823FACF8C91E827F7CF013045
:10122000110509F4ADCFE0F20230110509F4A5CFA4
:10123000AE0DBF1DAECF0F931F93CF93DF9377FFFC
:1012400004C0260F371F70E060E0DC011496CD91DA
:10125000DC91FB01E20FF31FCE17DF071CF49E01A8
:10126000261B370B121613064CF5FA0157FD37965D
:10127000A3E0F595E795AA95E1F7EC9FD001ED9FE6
:10128000B00DFC9FB00D11246A0F7B1FDC015F962F
:10129000ED91FC91E60FF71F4770552781E090E034
:1012A00001C0880F4A95EAF7482F0130110559F01F
:1012B000A8F02E0F3F1F02301105E1F0DF91CF9112
:1012C0001F910F9108952E0F3F1FE217F307B1F3FF
:1012D0008191DF011197842B8C93F7CF80952E0F8E
:1012E0003F1FE217F30751F39191DF011197982304
:1012F0009C93F7CFE217F30709F38191DF01119770
:1013000084278C93F7CF0F931F93FA01DC01569635
:101310004C9156974230E9F04330A1F1413061F5EC
:1013200014964D915C91DA01AE1BBF0BFD01E21BDF
:10133000F30B77FD0BC0DC0116964D915C916417A1
:10134000750724F4AB01BF010E941B091F910F9187
:10135000089514964D915C91DA01A61BB70BBD015F
:1013600061507109DC0116964D915C91DA01AE1B5A
:10137000BF0BFD01E21BF30B77FDE8CFAF010E942D
:101380006C08E4CF16964D915C91DA01A61BB70B61
:10139000BD0161507109CDCF0F931F93FA01DC019C
:1013A00056964C9156974230A9F0433091F1413016
:1013B00019F514964D915C91DA01AE1BBF0BFD013E
:1013C0003197F7FD04C0AB01BF010E946C081F916B
:1013D0000F91089514964D915C91DA01A61BB70BFD
:1013E000BD01DC0116964D915C91DA01AE1BBF0B7D
:1013F000FD013197621B730BF7FDE9CFDC011696F7
:101400004D915C91E417F50714F7AF010E941B0999
:10141000DECF16964D915C91DA01A61BB70BBD018C
:10142000621B730BCECFFC0177FD64C08085918574
:10143000681779070CF05EC057FD5CC08285938504
:10144000481759070CF056C086898230B1F08330B6
:1014500029F1813041F484819581841B950BAB0186
:10146000BC01615071092130310509F108F443C014
:101470002230310509F463C0089584819581DC012F
:10148000A61BB70BBD016150710986819781DC01F4
:10149000A41BB50BAD0141505109E5CF8681978161
:1014A000861B970BBA01AC0141505109DCCFCA0130
:1014B00057FD0796A3E095958795AA95E1F7A48136
:1014C000B5818A9F90018B9F300D9A9F300D11241A
:1014D000620F731F078CF0A1E02DE60FF71F477016
:1014E000552721E030E001C0220F4A95EAF78081BC
:1014F000822B80830895CA0157FD079633E09595A6
:1015000087953A95E1F7A481B5818A9F90018B9FD9
:10151000300D9A9F300D1124620F731F078CF0A1BC
:10152000E02DE60FF71F4770552781E090E001C0DE
:10153000880F4A95EAF7809590818923DACFCA010E
:1015400057FD079623E0959587952A95E1F7A481A5
:10155000B5818A9F90018B9F300D9A9F300D112489
:10156000620F731F078CF0A1E02DE60FF71F477085
:10157000552721E030E001C0220F4A95EAF780812B
:101580008227B7CF08958EBD00000DB407FEFDCFB2
:101590008EB508958CBD9DBD08950895FC016370BE
:1015A000668B8481958126813781613039F0633083
:1015B00029F0918780873387228708953187208794
:1015C0009387828708952F923F924F925F926F92F6
:1015D0007F928F929F92AF92BF92CF92DF92EF92C3
:1015E000FF920F931F93CF93DF93CDB7DEB76A9728
:1015F0000FB6F894DEBF0FBECDBF9A8F898F7A8366
:1016000069834A01D22E18870F833701BC2CDC0175
:1016100059962D913C915A972115310509F015C124
:1016200018968D919C911997681779070CF0D7C17E
:101630001A968D919C91481759070CF0D0C14C2CEB
:10164000512CB6E0CB9E600D711D11247C876B87F9
:10165000161617060CF0C3C1EA2DF0E0FA87E987E9
:1016600093E0EE0FFF1F9A95E1F7F88BEF87CF011C
:10167000840F951F181619060CF0B1C1A98DBA8DEB
:1016800058968C91811104C0BFEABD1508F4D3941B
:10169000A98DBA8DED91FC9111970284F385E02D0F
:1016A000CD010995B5E0DB9EC0011124E981FA81E5
:1016B000FC83EB83312C212C9C012D553F4F388F1F
:1016C0002F8B4A2D50E05E8B4D8BEF89F88DE20D0C
:1016D000F31D44919E828D82D12CC12C69817A8127
:1016E000620D731D7A8B698B842F90E09C8B8B8BA2
:1016F000E98DFA8DA081B18140FF82C0F1E0BF1277
:101700006FC0AF126DC01C96ED91FC912F81388592
:10171000A4014C0D5D1D69897A89898D9A8D099581
:10172000EB89FC89F595E7954E2F5FEFC51AD50A31
:101730006D817E818D899E89680F791F7E836D837F
:1017400098E0C916D10481F6AFEF2A1A3A0AEB8164
:10175000FC81E40DF51DFC83EB83F5E02F163104CD
:1017600009F0B3CF2F81388526153705B9F0A98D3B
:10177000BA8DED91FC91B1E0BB1257C0AB1255C0D0
:1017800069817A816B5F7F4F0088F189E02D830149
:1017900028E030E0A401898D9A8D0995A98DBA8D34
:1017A000ED91FC9111970688F789E02DCD016A969D
:1017B0000FB6F894DEBF0FBECDBFDF91CF911F9162
:1017C0000F91FF90EF90DF90CF90BF90AF909F90E0
:1017D0008F907F906F905F904F903F902F900994E3
:1017E0001E96ED91FC91EF80F88409851A8592018F
:1017F0004D815E816B817C81898D9A8D099590CF19
:101800002F8138852615370509F48ACF31E0B312C8
:1018100007C0A31205C01C96ED91FC91930178CFEF
:101820001E96ED91FC917301E0CF6B857C85641968
:1018300075090684F785E02D73010F8518899201DB
:10184000A401898D9A8D0995A9CFF90134969491B7
:10185000329745915491D91AB7E0DB9E400D511D46
:101860001124F901259134913C8B2B8BFA012590A1
:101870003490FA013296749031963491398B3296C5
:1018800064903196449041E04C1518F04A1508F0E8
:101890007FC0662D062C000C770B7C836B83842D18
:1018A000042C000C990B9E838D83A98DBA8DED912C
:1018B000FC9111970284F385E02DCD010995512CFF
:1018C000D12CC12CEA2DF0E0FA87E9872B2D30E0EE
:1018D0003C872B87A401440D511D47FC5A95588F16
:1018E0004F8B69817A81660D711D67FC7A957E87C1
:1018F0006D877989C71608F051CF2C2D30E04D81C6
:101900005E81420F531FA985BA854A9FC0014B9F34
:10191000900D5A9F900D1124FC01E80DF91DF88BD4
:10192000EF87852D612C4F89588D420F531F5E8B99
:101930004D8B671408F050C044244394480E8770C0
:1019400041F4C1010196EB89FC89E20DF31DD490AD
:101950001C01D7FE19C0A98DBA8DED91FC91662DA1
:1019600070E0B1E0BB1219C0AB1217C02D853E85E7
:10197000620F731F0484F585E02D2F8138854D8912
:101980005E89898D9A8D0995DD0C6394842DD1CF64
:101990001E821D821C821B8288CF4B815C81640F5A
:1019A000751FAB85BC856A9FC0016B9F900D7A9FA8
:1019B000900D112469817A81680F791F0684F7855B
:1019C000E02DEF80F88409851A859D014F8558899F
:1019D000898D9A8D0995D8CF570CC3948ACF6A9672
:1019E0000FB6F894DEBF0FBECDBFDF91CF911F9130
:1019F0000F91FF90EF90DF90CF90BF90AF909F90AE
:101A00008F907F906F905F904F903F902F900895B0
:101A10008F929F92AF92CF92EF92FF920F931F936C
:101A2000CF93DF93EC01262F898D9A8D009709F0D3
:101A300051C06A30D1F41D861C868D8948E0849F90
:101A4000900111248E859F85820F931F9F878E871B
:101A500081E090E0DF91CF911F910F91FF90EF9087
:101A6000CF90AF909F908F9008956D3089F3CC8880
:101A7000AD888F898823C1F08C859D8536E0C39E13
:101A8000800D911D1124488559854817590764F424
:101A90004E855F851D861C8638E0A39EC0011124FB
:101AA000840F951F9F878E87EA88FB88088919898C
:101AB0004E855F856C857D85CE010E94E30A2C8969
:101AC0008C859D8546E0249F800D911D11249D8766
:101AD0008C87BECF6A3069F41D861C86FC0138965F
:101AE000E4912D898E859F85E29F800D911D1124A3
:101AF000ADCF6D3009F4ACCFFC013496349163174F
:101B000008F4A6CF3296E491E61708F4A1CFFC01C1
:101B1000329685909490462F431B342F47E0349F94
:101B2000800C911C1124F401329634913196E49189
:101B30003323A9F1EE2399F1CC88F4013596E49191
:101B4000AD884F89442301F10E2E000CFF0BE30FEB
:101B5000F11DCE9EA001CF9E500D11246C857D8578
:101B6000460F571F68857985641775076CF44E8595
:101B70005F851D861C86FC013896E491AE9E400D63
:101B8000511D11245F874E87EA88FB8808891989CF
:101B90004E855F856C857D85CE010E94E30AF40148
:101BA0003496E4912C898C859D85E29F800D911D52
:101BB00011248DCF6F927F928F929F92AF92BF929E
:101BC000CF92DF92EF92FF920F931F93CF93DF9309
:101BD000EC016B015A0139014801E881F981028465
:101BE000F385E02D0995E881F9810288F389E02DDC
:101BF00087019301A501B601CE010995A501480D04
:101C0000591D41505109E881F9810288F389E02D7D
:101C10009301B601CE010995E881F9810088F18927
:101C2000E02D9401A501B601CE010995C60CD71C83
:101C3000B60161507109E881F9810088F189E02DD0
:101C40009401A501CE010995E881F9810688F789FB
:101C5000E02DCE01DF91CF911F910F91FF90EF907A
:101C6000DF90CF90BF90AF909F908F907F906F90BC
:101C700009946F927F928F929F92AF92BF92CF9270
:101C8000DF92EF92FF920F931F93CF93DF935C014C
:101C9000EB016A01490138018701DC01ED91FC91FA
:101CA0006217730719F5641675062CF0962D872DAB
:101CB0003A01C92ED82E9601261937092F5F3F4FBA
:101CC000048CF58DE02DA301BE01C5010995DF91BE
:101CD000CF911F910F91FF90EF90DF90CF90BF9029
:101CE000AF909F908F907F906F9008954615570505
:101CF00091F42617370724F0892D4B01C22FD82FD6
:101D00009E01281939092F5F3F4F068CF78DE02D72
:101D1000A601B401DACF0284F385E02D0995D5013F
:101D2000ED91FC910488F589E02D83019401A601D1
:101D3000BE01C5010995D501ED91FC910688F78991
:101D4000E02DC501DF91CF911F910F91FF90EF9092
:101D5000DF90CF90BF90AF909F908F907F906F90CB
:101D60000994EF92FF920F931F93DC011A960D9145
:101D70001C911B9718962D913C911997ED91FC9110
:101D800000A0F1A1E02D7B0150E040E070E060E0B8
:101D900009951F910F91FF90EF9008954F925F92D8
:101DA0006F927F928F929F92AF92BF92CF92DF926B
:101DB000EF92FF920F931F93CF93DF936C012B0150
:101DC0005A0139014801DC01ED91FC910284F3854F
:101DD000E02D0995E201640C751CD601ED91FC9192
:101DE000C615D7055CF40088F189E02D87019401C0
:101DF000A501BE01C60109952196EFCF0688F78996
:101E0000E02DC601DF91CF911F910F91FF90EF90D0
:101E1000DF90CF90BF90AF909F908F907F906F900A
:101E20005F904F9009948F929F92AF92BF92CF9202
:101E3000DF92EF92FF920F931F93CF93DF93EC010A
:101E40005B014A016901E881F9810284F385E02D93
:101E5000099595012C0D3D1D21503109E881F9812D
:101E60000488F589E02D78018401A401B501CE0133
:101E70000995E881F9810688F789E02DCE01DF9187
:101E8000CF911F910F91FF90EF90DF90CF90BF9077
:101E9000AF909F908F9009948F929F92AF92BF9234
:101EA000CF92DF92EF92FF920F931F93CF93DF9326
:101EB000EC015B014A0169017801E881F981028442
:101EC000F385E02D0995C80CD91C86010150110934
:101ED000E881F9810488F589E02D9501A401B50117
:101EE000CE010995E881F9810688F789E02DCE01B8
:101EF000DF91CF911F910F91FF90EF90DF90CF90E6
:101F0000BF90AF909F908F900994EF92FF920F93A4
:101F10001F93DC01ED91FC9100A0F1A1E02D09954A
:101F20001F910F91FF90EF9008950F931F93DC0185
:101F3000ED91FC91068CF78DE02D09951F910F9185
:101F400008950F931F93DC01ED91FC91048CF58DA6
:101F5000E02D09951F910F910895DC01ED91FC9101
:101F60000084F185E02D09943F924F925F926F9229
:101F70007F928F929F92AF92BF92CF92DF92EF9219
:101F8000FF920F931F93CF93DF935C017B014A0174
:101F90006901390187E0680E711C93E075946794BC
:101FA0009A95E1F72B01400E511E10E000E0312C14
:101FB000D0E0C0E0CE0187709927330C892B59F40B
:101FC000FE0183E0F595E7958A95E1F7E00FF11FB3
:101FD000E80DF91D349037FE0AC021E030E0A7017A
:101FE000B5016C0F7D1F84EA93E00E94AD0F21962E
:101FF000CC16DD06F9F68FEFE81AF80A060D171D64
:10200000E414F504A9F6DF91CF911F910F91FF9091
:10201000EF90DF90CF90BF90AF909F908F907F9088
:102020006F905F904F903F9008952F923F924F9204
:102030005F926F927F928F929F92AF92BF92CF9258
:10204000DF92EF92FF920F931F93CF93DF9300D015
:1020500000D000D0CDB7DEB73C016A013E832D83AE
:10206000FC82EB825801A41AB50AB7FE03C0B194F2
:10207000A194B1088D809E80861A970A97FE03C0AE
:102080009194819491088A149B045CF0902F812F85
:102090000D811E819D838E839C2D8D2D6B01692F5B
:1020A000782F0C151D055CF09D818E817E836D83DC
:1020B000692F782F902F812F8601C92ED82E1601D7
:1020C000201A310A2B012D813E81421A530A57FEF4
:1020D00003C0519441945108710137FE03C03FEF92
:1020E000E31AF30AF594E7948D819E81861797078A
:1020F0005CF5A1E0B0E0BA83A983C016D1064CF12B
:10210000D301ED91FC910484F585E02D2B813C8178
:10211000A8016D817E818A149B041CF04D815E8133
:10212000B801C3010995E418F508F7FE0AC02D812E
:102130003E8189819A81280F391F3E832D83E20CCD
:10214000F31C0F5F1F4FD9CF2FEF3FEF3A83298347
:10215000D4CF26960FB6F894DEBF0FBECDBFDF9169
:10216000CF911F910F91FF90EF90DF90CF90BF9094
:10217000AF909F908F907F906F905F904F903F9027
:102180002F90089520911602260F3327331F2132F6
:102190003105ECF420913A02FC0190E080E024301B
:1021A00069F082E00895A09116022191AC014A5095
:1021B0005E4FA40FB52FB11D2C930196861798F38F
:1021C00080911602680F6093160280E0089581E006
:1021D000089510923A0281E080933C0210923B02F3
:1021E00061E082E10E947F0661E083E10E947F0658
:1021F000E9EBF0E080818E7F808380818D7F80831A
:1022000088E48093B80085E48093BC000895CF9360
:10221000DF9391E09093F5018823B9F0C091B80065
:10222000D091BA008091BC008A7B8093BC0060E0B2
:1022300082E10E947F0660E083E10E947F060E94A7
:10224000E910D093BA00C093B800DF91CF91089500
:10225000E091660280916502E81730F4F0E0E05307
:10226000FE4F808190E008958FEF9FEF0895909149
:102270006602809165022FEF3FEF981748F4E92F2F
:10228000F0E0E053FE4F208130E09F5F90936602C4
:10229000C90108958091650290916602891B990B8E
:1022A0000895CF92DF92EF92FF920F931F93CF93F7
:1022B000DF937C01CB018A0120918502222389F0E2
:1022C000EB016B01C40ED51ECC15DD0569F06991DB
:1022D000D701ED91FC910190F081E02DC7010995A6
:1022E000F3CF642F0E94C210C801DF91CF911F91DC
:1022F0000F91FF90EF90DF90CF900895CF93DF93F1
:102300001F92CDB7DEB76983209185022223F9F0B1
:1023100020918202203258F021E030E0FC0133832A
:10232000228390E080E00F90DF91CF91089580911B
:102330008302E82FF0E0E055FE4F998190838F5F94
:10234000809383028093820281E090E0ECCF61E091
:10235000CE0101960E94C210F7CFCF92DF92EF928A
:10236000FF920F931F93CF93DF93D091820281E06E
:10237000D13208F09CC0C09184020E94E9066B0132
:102380007C0180913A0281116CC082E080933A0214
:1023900081E080933C028FEF8093390210925E02BD
:1023A000D0935D02A0EBB1E0EDE3F2E080E0D81362
:1023B0008DC010925F0280915F02CC0FC82BC0933A
:1023C0005F0280913B02813009F084C010923B0291
:1023D0000E94E9066B017C0180915F028093BB0043
:1023E0008091F1019091F201A091F301B091F4017B
:1023F000892B8A2B8B2BA1F00E94E9060091F10119
:102400001091F2012091F3013091F4016C197D09D2
:102410008E099F09061717072807390708F442C0D5
:102420008091BC0083FDD8CF85EC8093BC000E94D6
:10243000E9066B017C0180913A02823009F44CC0BC
:10244000809139028F3F09F469C08091390280324E
:1024500009F466C080913902803309F463C084E0D6
:1024600026C08091F1019091F201A091F301B09109
:10247000F401892B8A2B8B2B09F483CF0E94E90668
:102480000091F1011091F2012091F3013091F401DA
:102490006C197D098E099F09061717072807390748
:1024A00008F06FCF8091F0010E94071185E0109233
:1024B00083021092820210928502DF91CF911F91C8
:1024C0000F91FF90EF90DF90CF9008959D919193A1
:1024D0008F5F6DCF85EEA9CF8091F1019091F201D0
:1024E000A091F301B091F401892B8A2B8B2B09F475
:1024F000A2CF0E94E9060091F1011091F201209112
:10250000F3013091F4016C197D098E099F090617BA
:1025100017072807390708F08ECFC4CF80E0C7CF50
:1025200082E0C5CF83E0C3CFEF92FF920F931F935A
:10253000CF93DF937C01C62F8091C1039091C2039A
:10254000009709F459C02091C50331E0309385020A
:10255000209384021092830210928202DC01ED919A
:10256000FC910190F081E02D60E009958701EE2457
:10257000E394F12CD1E0C1508091C1039091C2034A
:10258000CF3F91F1B0E2EB16F104D8F00E94AD110B
:102590008091C1039091C2032091C503D09385021D
:1025A000209384021092830210928202DC01ED914A
:1025B000FC910190F081E02D60E00995EE24E39418
:1025C000F12C8091C1039091C203F8016491DC0168
:1025D000ED91FC910190F081E02D0995BFEFEB1A90
:1025E000FB0A0F5F1F4FC7CFDF91CF911F910F9154
:1025F000FF90EF900C94AD11E091D103F091D203D4
:1026000090818091D7038095892380838701C15071
:1026100008F438C0F80184912091BF033091C003C1
:10262000232B29F00E94C30A0F5F1F4FF0CF28E031
:1026300030E040E8E091CD03F091CE039091D503D6
:10264000582F5423D9F05081952B9083E091CF03DC
:10265000F091D00390815091D603952B9083E09117
:10266000CF03F091D00350819091D603909595239C
:102670009083469521503109E9F6D6CF5081909547
:102680009523E3CFDF91CF911F910F91FF90EF90B2
:1026900008951F93CF93DF93EC018D8D9E8D00974E
:1026A00021F1162F29A131E0309385022093840275
:1026B0001092830210928202DC01ED91FC91019054
:1026C000F081E02D60E009958D8D9E8DDC01ED910E
:1026D000FC910190F081E02D612F09958D8D9E8DEB
:1026E000DF91CF911F910C94AD11ADA5BEA59C912A
:1026F0008BA9809589238C938B8D9C8D892B31F0B0
:10270000862FDF91CF911F910C94C30A28E030E00F
:1027100080E8A9A5BAA599A9462F4823C1F04C91F4
:10272000942B9C93ABA5BCA59C914AA9942B9C93FC
:10273000ABA5BCA54C919AA9909594239C938695A2
:102740002150310931F7DF91CF911F9108954C91BC
:1027500090959423E6CFDF92EF92FF920F931F9311
:10276000CF93DF938091C1039091C203892B09F429
:10277000A5C02091D9033091DA034091DB03509139
:10278000DC0360E074E284EF90E00E94F82A2051BC
:102790003109410951095695479537952795209359
:1027A000B80064E086ED9AE00E9494128091A8033C
:1027B0009091A9038034910509F097C060E284EA02
:1027C00093E00E9449136091A803615E84EA93E05C
:1027D0000E9449132091AA033091AB03C9010796C7
:1027E00097FD079633E0959587953A95E1F7209107
:1027F000A8033091A903829F8001839F100D929FAF
:10280000100D1124C091C303D091C4038091C10362
:102810009091C2030C0F1D1F009709F498C02091DE
:10282000C50331E030938502209384021092830225
:1028300010928202DC01ED91FC910190F081E02D7B
:1028400060E40995EE24E394F12CDD24D394809187
:10285000C1039091C2030C171D0709F44FC0B0E2E9
:10286000EB16F104D8F00E94AD118091C103909154
:10287000C2032091C503D092850220938402109256
:10288000830210928202DC01ED91FC910190F081B3
:10289000E02D60E40995EE24E394F12C8091C103CE
:1028A0009091C2036991DC01ED91FC910190F0815E
:1028B000E02D0995BFEFEB1AFB0AC9CF8091BF034A
:1028C0009091C003892B31F08091E2039091E30352
:1028D0000E94CA0AE091D303F091D40390818091C1
:1028E000D8038095892380835CCF60E084EA93E0FD
:1028F0000E9449136091A803615068CF0E94AD11F6
:102900008091C1039091C203892B09F461C0209189
:10291000DD033091DE034091DF035091E00360E07E
:1029200074E284EF90E00E94F82A205131094109B5
:10293000510956954795379527952093B800DF9113
:10294000CF911F910F91FF90EF90DF900895E0914C
:10295000D103F091D20380819091D703892B80839A
:102960000C171D0769F289912091BF033091C003B4
:10297000232B19F00E94C30AF3CF28E030E040E88F
:10298000E091CD03F091CE039091D503582F5423BD
:10299000D9F05081952B9083E091CF03F091D00333
:1029A00090815091D603952B9083E091CF03F091C5
:1029B000D00350819091D6039095952390834695AE
:1029C00021503109E9F6CCCF508190959523E3CF82
:1029D000E091D303F091D40380819091D803892BA7
:1029E0008083ADCF1F93CF93DF93EC01162F8D8D96
:1029F0009E8D892BB1F12DA93EA94FA958AD60E05C
:102A000074E284EF90E00E94F82A205131094109D4
:102A1000510956954795379527952093B80066EA52
:102A2000111167EACE010E9449138D8D9E8D892B6D
:102A300041F129AD3AAD4BAD5CAD60E074E284EF9D
:102A400090E00E94F82A2051310941095109569518
:102A50004795379527952093B800DF91CF911F9127
:102A600008958B8D9C8D892B21F08EAD9FAD0E949A
:102A7000CA0AEFA5F8A990818CA980958923808343
:102A8000CECFEFA5F8A980819CA9892B8083E5CFC3
:102A900090E080E008952091AA033091AB03C90132
:102AA000079697FD079623E0959587952A95E1F778
:102AB0002091A8033091A903829FA001839F500D0C
:102AC000929F500D112470E060E08091C3039091BB
:102AD000C4030C94182DFB0101900020E9F73197F5
:102AE000AF01461B570BDC01ED91FC910280F38195
:102AF000E02D0994CF93DF93FC01448155816081DF
:102B0000718184EA93E00E945F07EC0169E871E05B
:102B100084EA93E00E946B158C0F9D1FDF91CF918B
:102B200008950E940A2DFC0124813581232B39F45C
:102B300021E0FB018081882349F020E007C08081EB
:102B400091810E941F2D21E0892BB9F7822F0895D2
:102B50000F931F93CF93DF938C01EB01FC018081D6
:102B600091810097E1F06881798161157105A9F083
:102B7000428153812C813D814217530770F00E949E
:102B8000282D8C819D81F801958384831D821C8270
:102B9000DF91CF911F910F9108950E94C42B8881DE
:102BA0009981F801918380838A819B8193838283B9
:102BB0008C819D8195838483198218821B821A825D
:102BC000E5CFCF93DF93EC0188819981009711F0D5
:102BD0000E94C42B198218821D821C821B821A82B9
:102BE000DF91CF910895FC0180819181009711F0D0
:102BF0000C94C42B08950F931F93CF93DF93EC0194
:102C000088819981009759F02A813B8126173707DF
:102C100030F081E0DF91CF911F910F9108958B01EA
:102C20006F5F7F4F0E944D2C009759F099838883E6
:102C30001B830A832C813D81232B59F7FC011082D1
:102C4000E8CF80E0E7CFEF92FF920F931F93CF93EF
:102C5000DF936115710541F480E0DF91CF911F9101
:102C60000F91FF90EF90089541155105B1F07B0150
:102C7000EC010C811D81040F151FB8010E94FB158A
:102C8000882351F3288139818C819D81B701820F7E
:102C9000931F0E94282D1D830C8381E0DECFCF93EC
:102CA000DF93EC0141E050E06EEA71E00E942316F0
:102CB000811103C0CE010E94E115CE01DF91CF91B9
:102CC0000895CF93DF93EC01FB014481558160812E
:102CD00071810E942316811103C0CE010E94E1156B
:102CE000CE01DF91CF910895EF92FF920F931F9342
:102CF000CF93DF93EC017B018A01BA010E94FB159F
:102D000081110BC0CE010E94E115CE01DF91CF9160
:102D10001F910F91FF90EF9008951D830C83B701D1
:102D2000888199810E94282DF0CFFB01019000201D
:102D3000E9F73197AF01461B570B0C9474160F93AC
:102D40001F93CF93DF93CDB7DEB7A2970FB6F8945A
:102D5000DEBF0FBECDBF8C01CB01BA01F8011182DD
:102D6000108213821282158214822AE0AE014F5F14
:102D70005F4F0E949A26BE016F5F7F4FC8010E947D
:102D80009516A2960FB6F894DEBF0FBECDBFDF91A9
:102D9000CF911F910F910895CF93DF9300D0CDB7BE
:102DA000DEB7FC0111821082138212821582148216
:102DB00069831A82BE016F5F7F4F0E9495160F9044
:102DC0000F90DF91CF910895CF93DF93EC01FB013A
:102DD0008617970749F0608171816115710541F08F
:102DE000448155810E947416CE01DF91CF910895E0
:102DF0000E94E115F9CFFC01118210821382128228
:102E0000158214820C94E416FC0111821082138244
:102E1000128215821482FB0101900020E9F731979C
:102E2000AF01461B570B0C9474162F923F924F9292
:102E30005F926F927F928F929F92AF92BF92CF924A
:102E4000DF92EF92FF920F931F93CF93DF93CDB753
:102E5000DEB728970FB6F894DEBF0FBECDBF0E9435
:102E60004B1582E0F82EF092B803F092B9036CE8AB
:102E700071E0CE0101960E940417F092B803F0921F
:102E8000B9038D819E81892B09F4AEC00091BD03E9
:102E90001091BE032091BB032F83C090AC03D09050
:102EA000AD03180134E0230E311C280186E0480EE2
:102EB000511C4801E2E08E0E911C7801F8E0EF0E03
:102EC000F11CA980BA8090E080E06FEF7FEFAFEF58
:102ED000BFE7F50121915F01222309F47BC00115B1
:102EE000110509F456C02A3029F4F701849190E0C5
:102EF00080E0EFCF2D3069F3F1013491F20144917C
:102F0000231738F3421728F3F40165907490231BBC
:102F1000F7E02F9F600C711C1124F301329624916D
:102F20003196E491F3013496349138873196449187
:102F30003196E491042E000C550B30E0EF81EE2326
:102F400071F0FA01E20FF31FEE0FFF1FE80FF91FF8
:102F5000CE16DF0624F4F701849190E080E0440F60
:102F6000551F480F591F4A175B070CF4DA01220F4F
:102F7000331F240F351F21503109621773070CF4DA
:102F8000B9012885E22FF0E0EE0FFF1F8E0F9F1F83
:102F9000A0CF2A3009F4ABCF2D3009F49ACF3F816E
:102FA000332341F09C01245F3F4FC216D30614F433
:102FB00090E080E0AC01445F5F4F9C01255F3F4F94
:102FC000621773070CF4B9018A179B070CF4DC0134
:102FD000CA017FCF10E000E06A177B072CF06A1B64
:102FE0007B0B8B010F5F1F4F80E890E0801B910BE4
:102FF000969587959093B1038093B00384E190E018
:103000009093B3038093B203CE0101960E94F3150F
:103010006CE871E084EA93E00E946B1569E871E066
:1030200084EA93E00E946B150E94AB1328960FB6BA
:10303000F894DEBF0FBECDBFDF91CF911F910F91EE
:10304000FF90EF90DF90CF90BF90AF909F908F90C8
:103050007F906F905F904F903F902F90089585EDF7
:103060008093BC008091F1019091F201A091F30155
:10307000B091F4010796A11DB11D23E0B695A79567
:10308000979587952A95D1F72091BC0024FD03C020
:1030900010923A0208954091F1015091F20160912D
:1030A000F3017091F401452B462B472B69F30097F0
:1030B000A105B10541F02AE22A95F1F700C0019778
:1030C000A109B109E1CF8091F0010C940711CF92D1
:1030D000DF92EF92FF920F931F93CF93DF93CDB7C1
:1030E000DEB76E970FB6F894DEBF0FBECDBF8C0172
:1030F000CB01BA010E94BD2A6B017C01809167025D
:10310000909168028230910509F457C0833091058F
:1031100009F492C0019709F009C1C114D104E10476
:10312000F104A9F460E971E0C8010E940417C80124
:103130006E960FB6F894DEBF0FBECDBFDF91CF9174
:103140001F910F91FF90EF90DF90CF9008956BE863
:1031500071E0CE0149960E9404171C141D041E0440
:103160001F040CF0D1C0B701A60141705527662796
:103170007727CE0143960E949F16BE016D5E7F4F5A
:10318000CE0101960E94FB16BE01675E7F4FCE0105
:1031900001960E946116BC01CE0149960E94E41678
:1031A000CE0101960E94F315CE0143960E94F315BD
:1031B000F594E794D794C794D0CFC114D104E10417
:1031C000F10409F4AFCF6BE871E0CE0149960E949B
:1031D00004171C141D041E041F040CF095C0B70135
:1031E000A6014770552766277727CE0143960E9490
:1031F0009F16BE016D5E7F4FCE0101960E94FB16A9
:10320000BE01675E7F4FCE0101960E946116BC0130
:10321000CE0149960E94E416CE0101960E94F31554
:10322000CE0143960E94F31593E0F594E794D7946A
:10323000C7949A95D1F7CDCFC114D104E104F1041C
:1032400009F470CF6BE871E0CE0149960E94041733
:103250001C141D041E041F040CF056C0D701C60127
:103260008F709927AA27BB278A309105B4F51C8A4D
:103270001B8A1E8A1D8A188E1F8A4AE0BE016F5F54
:103280007F4F0E948F26BE016F5F7F4FCE01439616
:103290000E949516BE016D5E7F4FCE0101960E9481
:1032A000FB16BE01675E7F4FCE0101960E9461163C
:1032B000BC01CE0149960E94E416CE0101960E94FF
:1032C000F315CE0143960E94F31584E0F594E7943C
:1032D000D794C7948A95D1F7BBCF67E3680FCE0127
:1032E00001960E94CC16BE01675E7F4FCE0101960B
:1032F0000E946116BC01CE0149960E94E416CE01DF
:1033000001960E94F315E1CFF80111821082138219
:10331000128215821482BE01675E7F4FC8010E942F
:10332000A815CE0149960E94F31501CFB701A60159
:10333000C8010E949F16FBCECF92DF92EF92FF92C0
:103340000F931F93CF93DF93CDB7DEB7A4970FB63C
:10335000F894DEBF0FBECDBF0E944B1581E0809375
:10336000B8038093B90385E090E09093B103809314
:10337000B00382E090E09093B3038093B203809116
:103380006702909168026AE971E08230910559F014
:103390006EE971E08330910531F062E971E00197E7
:1033A00011F466E971E0CE0101960E940417CE0186
:1033B00001960E947A15CE0101960E94F3156BE8E2
:1033C00071E0CE0143960E9404176BE871E0CE01D4
:1033D00049960E9404176BE871E0CE014F960E9457
:1033E0000417C0907402D0907502E0907602F090BD
:1033F000770220E030E0A901C701B6010E946628EB
:10340000811109C060E971E083E293E00E949315A5
:10341000882309F4D0C0B701A601CE0101960E940D
:103420006718BE016F5F7F4FCE0143960E94A815BB
:10343000CE0101960E94F31580916A02882309F457
:10344000C9C060916B02CE0101960E94CC16BE01EC
:103450006F5F7F4FCE0107960E94FB16CE01079645
:103460000E944F1663E273E00E946116BC01CE0118
:1034700049960E94E416CE0107960E94F315CE01EC
:1034800001960E94F315809169028823B9F040915A
:103490006C0250916D0260916E0270916F02CE01CC
:1034A00001960E946718BE016F5F7F4FCE014F9655
:1034B0000E94A815CE0101960E94F3156BE871E0F9
:1034C000CE0143960E949315811110C085E090E0D3
:1034D0009093B1038093B0038FE090E09093B30397
:1034E0008093B203CE0143960E947A156BE871E097
:1034F000CE0149960E949315811110C085E090E09D
:103500009093B1038093B00389E190E09093B3036B
:103510008093B203CE0149960E947A1580916A0287
:10352000811108C080916902811104C080916B02F1
:10353000882361F001E010E02CE630E048E250E042
:103540006AE070E084EA93E00E94CC096BE871E0E5
:10355000CE014F960E949315811110C085E090E036
:103560009093B1038093B0038EE290E09093B30305
:103570008093B203CE014F960E947A150E94AB133E
:10358000CE014F960E94F315CE0149960E94F31585
:10359000CE0143960E94F315A4960FB6F894DEBFB1
:1035A0000FBECDBFDF91CF911F910F91FF90EF9094
:1035B000DF90CF90089580916A0281113DCF809174
:1035C0006902811139CF63E273E0CE0143960E9414
:1035D000E41632CF80916902882309F454CF809198
:1035E0006B02882309F44FCF409170025091710211
:1035F0006091720270917302CE010D960E9467185D
:1036000060916B02CE0101960E94CC16BE016F5FE5
:103610007F4FCE0107960E94FB16CE0107960E94AF
:103620004F16BE01635F7F4F0E946116BC01CE0141
:1036300049960E94E416CE0107960E94F315CE012A
:1036400001960E94F315CE010D961BCF8F929F928B
:10365000AF92BF92CF92DF92EF92FF920F931F93A0
:10366000CF93DF9300D000D000D0CDB7DEB78C0170
:103670006BE871E00E9493158111DFC060E971E091
:10368000C8010E9493158111D8C080916702909162
:1036900068028130910591F030F082309105C1F1DE
:1036A000039709F465C0F80180819181009709F4BE
:1036B000C4C00E948B266B017C01AAC0B801CE0158
:1036C00001960E94FB160D811E8101501109812C6B
:1036D000912C54018394C12CD12C760117FD8EC0FE
:1036E000B801CE0101960E944D07813359F4C80CF0
:1036F000D91CEA1CFB1C880C991CAA1CBB1C015081
:103700001109ECCF8033B9F3C12CD12C76017CC0E8
:10371000B801CE0101960E94FB160D811E81015059
:103720001109812C912C54018394C12CD12C760148
:1037300017FD64C0B801CE0101960E944D07A82F65
:10374000880FBB0BD097A830B105F0F6A501940106
:103750000E941A2BC60ED71EE81EF91E23E0880C05
:10376000991CAA1CBB1C2A95D1F701501109E0CF66
:10377000B801CE0101960E94FB160D811E810150F9
:103780001109812C912C54018394C12CD12C7601E8
:1037900017FD34C0B801CE0101960E944D07A82F35
:1037A00080ED8A0F8A30B0F40A2E000CBB0BD09744
:1037B000A50194010E941A2BC60ED71EE81EF91E01
:1037C00084E0880C991CAA1CBB1C8A95D1F7015077
:1037D0001109DECF8FEB8A0F863028F40A2E000CF9
:1037E000BB0BD797E5CF8FE98A0F863008F08CCFD7
:1037F0000A2E000CBB0BA755B109DACFC701B601E1
:103800000E946D286B017C01CE0101960E94F31588
:10381000C701B60126960FB6F894DEBF0FBECDBF26
:10382000DF91CF911F910F91FF90EF90DF90CF909C
:10383000BF90AF909F908F900895C12CD12C7601AE
:10384000E7CF1F920F920FB60F9211242F933F9341
:103850008F939F93AF93BF9380917E0290917F024D
:10386000A0918002B09181023091790223E0230F70
:103870002D3758F50196A11DB11D20937902809333
:103880007E0290937F02A0938002B0938102809188
:103890007A0290917B02A0917C02B0917D02019608
:1038A000A11DB11D80937A0290937B02A0937C02AC
:1038B000B0937D02BF91AF919F918F913F912F91D6
:1038C0000F900FBE0F901F90189526E8230F0296B9
:1038D000A11DB11DD2CF1F920F920FB60F921124CE
:1038E0002F933F934F935F936F937F938F939F9308
:1038F000AF93BF93EF93FF9386E892E00E94DD07BA
:10390000FF91EF91BF91AF919F918F917F916F91B7
:103910005F914F913F912F910F900FBE0F901F908D
:1039200018951F920F920FB60F9211242F938F9319
:103930009F93EF93FF93E0919602F091970280811D
:10394000E0919C02F0919D0282FD1BC090818091CC
:103950009F028F5F8F732091A002821741F0E09148
:103960009F02F0E0EA57FD4F958F80939F02FF91F1
:10397000EF919F918F912F910F900FBE0F901F90FD
:1039800018958081F4CF1F920F920FB60F921124D9
:103990002F933F934F935F936F937F938F939F9357
:1039A000AF93BF93EF93FF938091B900887F8036E8
:1039B00009F44AC0F0F5883209F4A7C018F580313F
:1039C00009F49BC0B8F4882309F4F9C0883009F4DD
:1039D00094C0FF91EF91BF91AF919F918F917F9193
:1039E0006F915F914F913F912F910F900FBE0F906C
:1039F0001F901895883109F488C0803251F7809360
:103A0000390214C0803409F49DC040F48033B9F306
:103A10008833F9F68093390285ECB0C0803509F41B
:103A200085C0883509F496C0883499F60E942F180D
:103A3000D0CF883909F48CC038F5883729F050F494
:103A4000883611F0803729F683E080933A0210928D
:103A5000380257C0883809F47BC0803919F08038A3
:103A600009F0B7CF80913802803208F071C0E09140
:103A7000380281E08E0F809338028091BB00F0E025
:103A8000E85EFD4F80833DC0803B39F0E0F4803A32
:103A900009F479C0883A09F09CCF84E080933A0217
:103AA0001092170210921602E0916302F0916402E4
:103AB00009958091160281110FC081E08093160252
:103AC0001092F60109C0803C09F4A6CF883C09F4A5
:103AD000A3CF883B09F07DCFE091170281E08E0FE4
:103AE00080931702F0E0EA50FE4F80818093BB0084
:103AF000909117028091160229C080915F028093F5
:103B0000BB0085EC8093BC0064CF90915E028091F5
:103B10005D02981758F5E0915E0281E08E0F809368
:103B20005E02F0E0E35CFD4F8081E9CFE0915E0250
:103B300081E08E0F80935E028091BB00F0E0E35C39
:103B4000FD4F808390915E0280915D029817C8F2CC
:103B500085E8D8CFE0915E0281E08E0F80935E020F
:103B60008091BB00F0E0E35CFD4F808380913C02DC
:103B700081115CCF81E080933B0284EA8093BC009A
:103B800010923A0226CF85EC8093BC0010923A0244
:103B900080913802803230F4E0913802F0E0E85E43
:103BA000FD4F10826091380270E0E0916102F09167
:103BB000620288E192E00995109238020ACF1092D1
:103BC000390234CF109289021092880288EE93E075
:103BD000A0E0B0E080938A0290938B02A0938C02C5
:103BE000B0938D0225E131E0309387022093860265
:103BF00025EC30E0309393022093920224EC30E0E5
:103C0000309395022093940220EC30E03093970299
:103C10002093960221EC30E0309399022093980291
:103C200022EC30E030939B0220939A0226EC30E0A5
:103C300030939D0220939C0210929F021092A0024A
:103C40001092A1021092A20210929B0310929A036A
:103C500080939C0390939D03A0939E03B0939F0336
:103C600087E291E090939903809398031092A703C1
:103C70001092A60320E830E03093A9032093A80314
:103C800080E490E09093AB038093AA033093AD035C
:103C90002093AC039093AF038093AE031092BA03CA
:103CA0001092B1031092B0031092B3031092B203BA
:103CB00081E08093B9038093B8032FEF3FEF3093F7
:103CC000B7032093B6033093B5032093B4038093D6
:103CD000BB031092BC031092BE031092BD0383E499
:103CE00091E09093A5038093A4031092C0031092D7
:103CF000BF0388E993E09093C2038093C1031092BD
:103D0000C4031092C3038FEF8093C8038093C90349
:103D10008093CA038093CB038093CC0380E89AE11D
:103D2000A6E0B0E08093D9039093DA03A093DB037D
:103D3000B093DC0380EA96E8A1E0B0E08093DD0375
:103D40009093DE03A093DF03B093E00380E58093BC
:103D5000E2031092E30310922B0310922F031092B0
:103D60002E031092300389E391E090932A0380930D
:103D70002903E5E4F3E0108214821382158236965B
:103D800083E0E138F807B9F785E091E090938C0380
:103D900080938B0380E091E090938E0380938D035A
:103DA00086E080938F0385E0809390038BE691E01B
:103DB00090938A03809389038AE090E09093920322
:103DC0008093910384EF91E0909394038093930305
:103DD0001092970310929603109285031092860317
:103DE00010928703109288031092950360E971E0A6
:103DF00083E293E00C940417CF93DF93CDB7DEB743
:103E00002C970FB6F894DEBF0FBECDBF789484B563
:103E1000826084BD84B5816084BD85B5826085BDC6
:103E200085B5816085BD80916E00816080936E0054
:103E30001092810080918100826080938100809146
:103E400081008160809381008091800081608093F7
:103E500080008091B10084608093B1008091B000B7
:103E600081608093B00080917A00846080937A00B2
:103E700080917A00826080937A0080917A008160DC
:103E800080937A0080917A00806880937A00109203
:103E9000C100E0919602F091970282E08083E09168
:103EA0009202F09193021082E0919402F0919502B7
:103EB0008FEC808310929E02E0919A02F0919B0217
:103EC00086E08083E0919802F09199028081806180
:103ED0008083E0919802F0919902808188608083CC
:103EE000E0919802F0919902808180688083E0914E
:103EF0009802F091990280818F7D80838091C30325
:103F00009091C403892B11F10E944B152091AA03B3
:103F10003091AB038091A8039091A9032132310520
:103F20000CF04BC0B9016052710977FF02C06F5F9E
:103F30007F4F759567958357910997FD019600E22C
:103F400010E023E730E045EC55E04AC02091AA0399
:103F50003091AB03C901079697FD0796B3E095959D
:103F60008795BA95E1F72091A8033091A903AC0198
:103F7000429FC001439F900D529F900D11240E94BB
:103F8000282B9093C4038093C303892B09F0BCCFE3
:103F900005E61AE0F8016491662341F086E892E0B4
:103FA0000E94FF070F5F1F4F892BA1F769E871E09F
:103FB00086E892E00E946B15FFCFB9016054710949
:103FC00077FF02C06F5F7F4F7595679582559109A6
:103FD00097FD019600E410E022E530E045EA57E065
:103FE000959587950E94B40F82E08093C6038091D7
:103FF000C1039091C203892B09F428C18CE38093FB
:10400000C50310926602109265021092830210920C
:1040100082020E94E9108BE497E0909364028093FF
:1040200063028CE497E09093620280936102809136
:10403000CC0387FD1EC061E00E94AD0661E0809167
:10404000CC030E947F0661E070E080E090E00E9477
:104050000E0760E08091CC030E947F066AE070E06A
:1040600080E090E00E940E0761E08091CC030E9406
:104070007F068091C1039091C203892B09F4A5C1E9
:104080002091D9033091DA034091DB035091DC0396
:1040900060E074E284EF90E00E94F82A2051310938
:1040A0004109510956954795379527952093B800B2
:1040B00064E081EC95E00E9494126091AA03615043
:1040C00084EA93E00E94491364E08DEB95E00E943E
:1040D00094128091C60360E1813009F064E184EAC2
:1040E00093E00E94491364E089EB95E00E949412EA
:1040F0008FE88093E1038091A8039091A903803811
:10410000910509F079C18091AA039091AB038034A5
:10411000910509F081C18091C603813009F08FC1FA
:104120008FE98093E10312E16AED84EA93E00E9453
:104130004913612F84EA93E00E94491361E884EAFD
:1041400093E00E9449136091E10384EA93E00E94A6
:10415000491369ED84EA93E00E9449138091C603F4
:1041600062E2813009F061EF84EA93E00E94491332
:1041700066E083EB95E00E9494128091C1039091D8
:10418000C203892B09F45DC12091DD033091DE0368
:104190004091DF035091E00360E074E284EF90E02F
:1041A0000E94F82A20513109410951095695479535
:1041B000379527952093B8000E944B1581E090E039
:1041C0009093B7038093B6039093B5038093B403A1
:1041D0000E941517412C512C3201439481E08093A9
:1041E00095038FB7F89440917E0250917F026091C1
:1041F0008002709181028FBF809185039091860328
:10420000A0918703B0918803481B590B6A0B7B0B65
:104210008091910390919203B0E0A0E084179507FC
:10422000A607B70708F027C210E080918F03181780
:1042300008F011C1E0918B03F0918C03E10FF11DA7
:1042400062E080810E94AD061F5FEFCF61E0809148
:10425000CA030E94AD0661E08091CB030E94AD06C7
:104260008091CA03082E000C990BFC01E656F54F0D
:10427000E491F0E0EE0FFF1FEA57F54F25913491DE
:104280003093D2032093D103FC01E255F54FE49122
:10429000E093D7038091CB03082E000C990BFC010F
:1042A000E656F54FE491F0E0EE0FFF1FEA57F54FA9
:1042B000A591B491B093D403A093D303FC01E2552C
:1042C000F54FE491E093D8038C91E82BEC93809127
:1042D000BF039091C003892B09F434C01FB7F89431
:1042E00080916002811127C0E4EAFAE08491E8EB52
:1042F000FAE09491E82FF0E0EE0FFF1FE458F54F3D
:10430000A591B491EC91E92321F461E08AE00E9447
:104310007F0661E08AE00E94AD068CB580618CBDAD
:104320008CB580648CBD61E08DE00E94AD0661E0DB
:104330008BE00E94AD06809160028F5F80936002E7
:104340001FBF75CE61E08091C8030E94AD0661E099
:104350008091C9030E94AD068091C803082E000C0D
:10436000990BFC01E656F54FE491F0E0EE0FFF1FCC
:10437000EA57F54F259134913093CE032093CD0326
:10438000FC01E255F54FE491E093D5038091C90318
:10439000082E000C990BFC01E656F54FE491F0E075
:1043A000EE0FFF1FEA57F54FA591B491B093D003DC
:1043B000A093CF03FC01E255F54FE491E093D603BF
:1043C0008C91E095E823EC9332CE8091BF039091DD
:1043D000C003892B31F08091E2039091E3030E94A6
:1043E000CA0AE091D303F091D40390818091D8035D
:1043F0008095892380835CCE8036910589F48091F5
:10440000AA039091AB03409739F48091C6038130A1
:1044100029F480E18093E10312E086CE8FEAFACF9F
:1044200080349105C9F78091AA039091AB038097DE
:1044300099F78091C603813011F480E172CE8FEC40
:1044400070CEE091D303F091D40380819091D80392
:10445000892B8083B1CE312C80919003381608F0DF
:1044600061C0E32CF12CE0918D03F0918E03EE0DF1
:10447000FF1D61E080810E94AD06E0918D03F09107
:104480008E03EE0DFF1D60E080810E947F06D30148
:10449000C201032C04C0880F991FAA1FBB1F0A94D6
:1044A000D2F75C016C01C094D094212C80918F03D1
:1044B000281608F5022D10E0E0918B03F0918C0393
:1044C000E00FF11F80810E9456060C5F1F4F000F06
:1044D000111FF801E75DFC4F892B41F48081918128
:1044E0008A299B29918380832394E0CF80819181C5
:1044F0008C219D21F7CFE0918D03F0918E03EE0D7D
:10450000FF1D61E080810E947F0680918D03909164
:104510008E03E80EF91E60E0F70180810E94AD066F
:1045200033949ACF09E213E07801F701878D90A1C7
:10453000892B31F4148E4FEF5FEF568F458F11A208
:1045400056E0E50EF11C85E6E81683E0F80669F70B
:10455000D12C80918F03D81608F053C0C12CAD2CFC
:10456000B12CAA0CBB1CF501EF5CFC4F5F01209144
:104570009003C21608F043C0F501608171810C2CD4
:1045800002C0769567950A94E2F7D29E90011124B5
:104590002C0D311DE9E2F3E080E0458D568D2417A6
:1045A000350709F492C38F5F36968A30B1F760FF02
:1045B00024C0E9E2F3E090E080E0448D411118C0AE
:1045C000E0918903F0918A03E20FF31F408156E0E6
:1045D000589FF001599FF00D1124E75DFC4F448F67
:1045E000368F258F10A2178E61E00E94BD0505C091
:1045F000019636968A30910501F7C394B8CFD394CB
:10460000A8CF80E0F80191A19111892F0A5F1F4F77
:10461000E016F106B9F79FB7F89440917E025091E9
:104620007F0260918002709181029FBF4093850359
:104630005093860360938703709388038823D9F08F
:1046400080914A038823B9F08091480390914903EF
:10465000019789F4B0904503B11010C080E090E05C
:10466000892B09F4BBCD0E94C907882309F4B6CD74
:104670000E940000B3CD10929503F0CF62EA71E082
:1046800086E892E00E946B156B2D86E892E00E940E
:10469000FF0769E871E086E892E00E946B153090B0
:1046A0007802F0E5BF123AC081E0382630927802F5
:1046B000332089F160E971E083E293E00E9495166E
:1046C0001092740210927502109276021092770284
:1046D0001092700210927102109272021092730284
:1046E00010926C0210926D0210926E0210926F0284
:1046F00010926B0210926A02109269021092680284
:10470000109267020E949C196CE271E080E090E0D8
:104710000E940E07A3CF0E941517F6CF332009F48D
:104720009DCF4FE4B41629F08B2D8F7E883409F08D
:10473000A0C06BE871E083E293E00E9493158111C1
:104740003BC060E971E083E293E00E949315811120
:1047500033C063E273E0CE0101960E94FB16CE01E6
:1047600001960E94261B6B017C01CE0101960E94DE
:10477000F31558E5B51246C0809167029091680222
:10478000019709F050C01092680210926702809160
:104790006902882309F44EC0C0926C02D0926D0267
:1047A000E0926E02F0926F0281E0809369020E94B3
:1047B0009C190E949C1952CF80916902882349F06C
:1047C000C0906C02D0906D02E0906E02F0906F028B
:1047D000D0CF80916A02882389F0C0907402D09073
:1047E0007502E0907602F090770220E030E0A901B7
:1047F000C701B6010E9466288111BBCFC12CD12C04
:104800007601B7CF8FE4B81262C2809167029091AF
:104810006802029709F4B7CF42E050E05093680273
:1048200040936702B4CFE1E0F0E0F0936802E093D8
:104830006702ADCF80916A02882349F0C09274026A
:10484000D0927502E0927602F0927702B0CFB70173
:10485000A601CE0101960E946718BE016F5F7F4FCF
:1048600083E293E00E94A815CE0101960E94F31501
:104870009ECF93E4B91225C060E971E083E293E032
:104880000E94951610927402109275021092760290
:1048900010927702109270021092710210927202BE
:1048A0001092730210926C0210926D0210926E02BE
:1048B00010926F0210926B0210926A0210926902BB
:1048C00078CFECE4BE1207C060E971E083E293E0C8
:1048D0000E949516F3CF8B2D8D7F8D3229F086EDBA
:1048E0008B0D823008F049C06BE871E083E293E001
:1048F0000E94931581112CC060E971E083E293E07E
:104900000E949315811124C063E273E0CE010196E9
:104910000E94FB16CE0101960E94261B6093740232
:10492000709375028093760290937702CE01019680
:104930000E94F315B0926B0281E080936A0210929C
:10494000690260E971E083E293E00E94951631CF3D
:1049500080916902882371F380916C0290916D02BD
:10496000A0916E02B0916F028093740290937502D1
:10497000A0937602B0937702DDCFFDE3BF12AAC009
:1049800080916B02882309F414CF80916A028823F6
:10499000B1F063E273E0CE0101960E94FB16CE01F6
:1049A00001960E94261B609370027093710280939F
:1049B000720290937302CE0101960E94F3158091CA
:1049C0006B028B3289F164F48A3209F46CC0609115
:1049D000740270917502809176029091770236C0D0
:1049E0008D3209F441C08F3291F7C0907002D0909F
:1049F0007102E0907202F090730220E030E0A901B1
:104A0000C701B6010E946628882309F45FC0A70188
:104A10009601609174027091750280917602909176
:104A200077020E944B2A12C02091700230917102CD
:104A300040917202509173026091740270917502FC
:104A400080917602909177020E94DF2960936C0238
:104A500070936D0280936E0290936F0281E0809359
:104A6000690210926A02A5CEC0907402D0907502BD
:104A7000E0907602F0907702809070029090710240
:104A8000A0907202B0907302A5019401C701B60113
:104A90000E94F32A87FD1AC0A5019401C701B6013F
:104AA0000E94DE29D3CF2091700230917102409193
:104AB000720250917302609174027091750280913C
:104AC0007602909177020E94CC28C0CF60E070E01F
:104AD000CB01BCCF00916702109168024EE2B41284
:104AE0002AC00115110509F0B9CDA0906902AA20CC
:104AF00009F448C06B2DCE0101960E94CC16BE0170
:104B00006F5F7F4F83E293E00E94A815CE0101966C
:104B10000E94F31580916C0290916D02A0916E023B
:104B2000B0916F028093740290937502A093760205
:104B3000B0937702BFCE80ED8B0D8A30C0F48B2D01
:104B40000B2C000C990BC0970130110549F068F24D
:104B50000230110541F00330110509F07FCDC5CFBA
:104B6000029718F27BCD089708F4BFCF77CD0330BA
:104B7000110509F073CD8B2D8F7D8154863008F09F
:104B80006DCDB3CF80912703909128030D9708F046
:104B900010CE60E971E083E293E00E9493158823D0
:104BA00089F06B2DCE0101960E94CC16BE016F5F7D
:104BB0007F4F83E293E00E94A815CE0101960E94E8
:104BC000F315F7CD63E273E0CE0101960E94FB1668
:104BD000BF82188641E050E0BE01695F7F4FCE0181
:104BE00001960E942316811104C0CE0101960E94F5
:104BF000E115BE016F5F7F4FCE0107960E94FB1645
:104C0000CE0101960E94F315BE01695F7F4FCE0170
:104C100001960E94FB166BE871E0CE0101960E949E
:104C2000931581113CC0ED80FE80D12CC12CCE1497
:104C3000DF0409F448C0B601CE0101960E944D0779
:104C40008E3239F40115110551F55FEFC51AD50AF9
:104C5000EECF90ED980F9A3068F4082E000C990B67
:104C6000C09701301105C9F00230110571F708979E
:104C700064F315C09FEB980F963028F4082E000CB3
:104C8000990BC797EECF9FE9980F963040F4082E06
:104C9000000C990B87559109E4CF0297B4F2CE012D
:104CA00001960E94F315AA2059F0B9821A8241E0B8
:104CB00050E0BE016F5F7F4F83E293E00E942316B6
:104CC000CE0107967CCFA32CEACF61708ECC88E40E
:104CD000B8125DCD8091670290916802039709F444
:104CE00052CD83E090E090936802809367024FCDAD
:104CF00083E293E00E94F31583E491E09093A5038F
:104D00008093A4038091C3039091C403009711F092
:104D10000C94C42B0895662777270C94E526BB27AF
:104D20004A3031F4992322F4BDE2909581959F4F4A
:104D30000C94CC26BB272A3051F4992342F4BDE2CF
:104D400090958095709561957F4F8F4F9F4F0C94F4
:104D5000AA26BB27FA01A62F6217710581059105C6
:104D6000330B30FB66F0AA27660F771F881F991F49
:104D7000AA1FA21710F0A21B63953850A9F7A05DD7
:104D8000AA3308F0A95DA19336F7B111B19310824F
:104D9000CA010C945628BB27FB015527AA27880F68
:104DA000991FAA1FA41710F0A41B83955051B9F79F
:104DB000A05DAA3308F0A95DA193009779F7B1111E
:104DC000B1931192CB010C945628B0E0A0E0EBEE29
:104DD000F6E20C949E295C017B016115710519F0C6
:104DE000DB018D939C9385010F5F1F4FF501D081EF
:104DF0008D2F90E00E9435286C01892BB9F5DD32AA
:104E0000B9F50F5F1F4FD5011196DC91C1E0580134
:104E1000F1E0AF1AB10843E050E060E770E0C5018F
:104E20000E943E28892B69F5680182E0C80ED11CDA
:104E300045E050E06BE670E0C6010E943E28892BF9
:104E400021F4680197E0C90ED11CE114F10419F0B6
:104E5000D701CD92DC9260E070E080E89FEFC11155
:104E6000FFC060E070E080E89FE7FAC05801BBCF68
:104E7000DB3229F485010E5F1F4FF501D181C0E0BF
:104E8000C6CF43E050E068E670E0C5010E943E28CE
:104E9000892BE9F0F80110E000E020E030E0A90102
:104EA0005F01B0ED8B2E8D0E89E08815C8F19C2E28
:104EB000689491F88C2F8870C2FF16C0811102C0CF
:104EC0000F5F1F4F3196D501DC91C92DE9CFE11459
:104ED000F10429F00E5F1F4FF7011183008360E09A
:104EE00070E080EC9FE7BCC0882311F001501109ED
:104EF000A5E0B0E00E948D299B01AC01220F331F79
:104F0000441F551F280D311D411D511D283999E998
:104F10003907490799E15907A8F2C6609C2ED2CFFC
:104F2000AEEF8A1206C0C3FD3CC09C2E689493F875
:104F3000C9CFDF7DD534A9F580818D3239F4C061C8
:104F4000DF011296818162E070E006C0DF018B32E2
:104F5000C1F3119661E070E080535D01A61AB70AB3
:104F60008A30F8F4E0E8CE16ECE0DE065CF4B60138
:104F7000660F771F660F771FC60ED71ECC0CDD1C81
:104F8000C80ED11C5D01FFEFAF1ABF0A8C91805390
:104F90008A30A8F1C4FF03C0D194C194D1080C0D8C
:104FA0001D1DC1FF09C0E114F10431F081E0A81A10
:104FB000B108D701AD92BC92CA01B9010E946B2819
:104FC000C370C33009F490584B015C0120E030E01D
:104FD000A9010E946628882309F440C0CFE9D0E0E7
:104FE00017FF05C0119501951109C7E8D0E06E01C2
:104FF000B8E1CB1AD10880E2E82EF12C0FC0D50120
:10500000B1CFFE0125913591459154910E191F099B
:10501000C501B4010E94CC284B015C01D501C4013B
:105020000E151F0574F72497F594E794CC16DD064A
:10503000A9F78A2F880F8B2F881F8F3F49F020E018
:1050400030E0A901C501B4010E946628811106C0A3
:1050500082E290E09093E5038093E403C501B401FC
:10506000CDB7DEB7ECE00C94BA2991110C94392934
:10507000803219F089508550C8F70895FB01DC0192
:105080004150504088F08D9181341CF08B350CF4E8
:10509000805E659161341CF06B350CF4605E861B9C
:1050A000611171F3990B0895881BFCCFDC01FC01A1
:1050B000672F71917723E1F7329704C07C916D934C
:1050C00070836291AE17BF07C8F308950E94A828A5
:1050D00008F481E00895E89409C097FB3EF49095A8
:1050E0008095709561957F4F8F4F9F4F9923A9F0C1
:1050F000F92F96E9BB279395F69587957795679550
:10510000B795F111F8CFFAF4BB0F11F460FF1BC093
:105110006F5F7F4F8F4F9F4F16C0882311F096E926
:1051200011C0772321F09EE8872F762F05C06623D4
:1051300071F096E8862F70E060E02AF09A95660F8D
:10514000771F881FDAF7880F9695879597F9089546
:10515000990F0008550FAA0BE0E8FEEF1616170688
:10516000E807F907C0F012161306E407F50798F0F0
:10517000621B730B840B950B39F40A2661F0232B09
:10518000242B252B21F408950A2609F4A140A69585
:105190008FEF811D811D08950E94DF280C945329F3
:1051A0000E94452938F00E944C2920F0952311F0E7
:1051B0000C943C290C94422911240C9487290E94B8
:1051C000642970F3959FC1F3950F50E0551F629FBE
:1051D000F001729FBB27F00DB11D639FAA27F00D50
:1051E000B11DAA1F649F6627B00DA11D661F829F77
:1051F0002227B00DA11D621F739FB00DA11D621F5C
:10520000839FA00D611D221F749F3327A00D611D78
:10521000231F849F600D211D822F762F6A2F11245A
:105220009F5750409AF0F1F088234AF0EE0FFF1F8D
:10523000BB1F661F771F881F91505040A9F79E3FE4
:10524000510580F00C943C290C9487295F3FE4F3CE
:10525000983ED4F3869577956795B795F795E7953A
:105260009F5FC1F7FE2B880F911D9695879597F943
:10527000089599278827089597F99F6780E870E037
:1052800060E008959FEF80EC089500240A941616BC
:10529000170618060906089500240A941216130624
:1052A000140605060895092E0394000C11F48823B2
:1052B00052F0BB0F40F4BF2B11F460FF04C06F5FCE
:1052C0007F4F8F4F9F4F089557FD9058440F551FA4
:1052D00059F05F3F71F04795880F97FB991F61F078
:1052E0009F3F79F087950895121613061406551FEF
:1052F000F2CF4695F1DF08C0161617061806991F5B
:10530000F1CF86957105610508940895E894BB274F
:1053100066277727CB0197F908950E94CF29A59F8B
:10532000900DB49F900DA49F800D911D11240895A0
:105330002F923F924F925F926F927F928F929F92A5
:10534000AF92BF92CF92DF92EF92FF920F931F9393
:10535000CF93DF93CDB7DEB7CA1BDB0B0FB6F89444
:10536000DEBF0FBECDBF09942A88398848885F8484
:105370006E847D848C849B84AA84B984C884DF80F5
:10538000EE80FD800C811B81AA81B981CE0FD11DD9
:105390000FB6F894DEBF0FBECDBFED010895A29FFA
:1053A000B001B39FC001A39F700D811D1124911DF9
:1053B000B29F700D811D1124911D08955058BB2777
:1053C000AA270E94F6290C9453290E94452938F0F7
:1053D0000E944C2920F039F49F3F19F426F40C94D4
:1053E00042290EF4E095E7FB0C943C29E92F0E943A
:1053F000642958F3BA17620773078407950720F0EA
:1054000079F4A6F50C9486290EF4E0950B2EBA2FAC
:10541000A02D0B01B90190010C01CA01A0011124BA
:10542000FF27591B99F0593F50F4503E68F11A1666
:10543000F040A22F232F342F4427585FF3CF4695F7
:1054400037952795A795F0405395C9F77EF41F1619
:10545000BA0B620B730B840BBAF09150A1F0FF0FE3
:10546000BB1F661F771F881FC2F70EC0BA0F621FCF
:10547000731F841F48F4879577956795B795F795BF
:105480009E3F08F0B0CF9395880F08F09927EE0F54
:105490009795879508950E945F2A0C9453290E943E
:1054A0004C2958F00E94452940F029F45F3F29F02B
:1054B0000C943C2951110C9487290C9442290E9488
:1054C000642968F39923B1F3552391F3951B550B88
:1054D000BB27AA2762177307840738F09F5F5F4FC7
:1054E000220F331F441FAA1FA9F335D00E2E3AF006
:1054F000E0E832D091505040E695001CCAF72BD01E
:10550000FE2F29D0660F771F881FBB1F261737076E
:105510004807AB07B0E809F0BB0B802DBF01FF27A0
:1055200093585F4F3AF09E3F510578F00C943C2918
:105530000C9487295F3FE4F3983ED4F386957795E2
:105540006795B795F7959F5FC9F7880F911D969559
:10555000879597F90895E1E0660F771F881FBB1FB5
:10556000621773078407BA0720F0621B730B840B62
:10557000BA0BEE1F88F7E09508950E94C42A68943C
:10558000B1110C94872908950E946C2988F09F57C7
:1055900098F0B92F9927B751B0F0E1F0660F771F57
:1055A000881F991F1AF0BA95C9F714C0B13091F04D
:1055B0000E948629B1E008950C948629672F782FE0
:1055C0008827B85F39F0B93FCCF386957795679512
:1055D000B395D9F73EF490958095709561957F4F7E
:1055E0008F4F9F4F08950E94A82808F48FEF0895C9
:1055F000A1E21A2EAA1BBB1BFD010DC0AA1FBB1FD7
:10560000EE1FFF1FA217B307E407F50720F0A21B48
:10561000B30BE40BF50B661F771F881F991F1A94B5
:1056200069F760957095809590959B01AC01BD01DF
:10563000CF010895B7FF0C948D290E948D29821BFC
:10564000930B0895EE0FFF1F0590F491E02D099440
:105650000F931F93CF93DF938230910510F482E074
:1056600090E0E091E803F091E90330E020E0B0E061
:10567000A0E0309799F42115310509F44AC0281BA0
:10568000390B24303105D8F58A819B81611571056C
:1056900089F1FB0193838283FE0111C04081518116
:1056A0000281138148175907E0F04817590799F408
:1056B000109761F012960C93129713961C933296E2
:1056C000CF01DF91CF911F910F9108950093E803CF
:1056D0001093E903F4CF2115310551F04217530718
:1056E00038F0A901DB019A01BD01DF01F801C1CF4A
:1056F000EF01F9CF9093E9038093E803CDCFFE014A
:10570000E20FF31F8193919322503109398328834B
:10571000D7CF2091E6033091E703232B41F420916A
:105720000D0130910E013093E7032093E6032091A1
:105730000B0130910C012115310541F42DB73EB715
:1057400040910F0150911001241B350BE091E603AD
:10575000F091E703E217F307A0F42E1B3F0B281785
:10576000390778F0AC014E5F5F4F2417350748F0DA
:105770004E0F5F1F5093E7034093E603819391938D
:105780009FCFF0E0E0E09CCFCF93DF930097E9F06C
:10579000FC01329713821282A091E803B091E903D1
:1057A000ED0130E020E01097A1F420813181820FDB
:1057B000931F2091E6033091E7032817390709F07A
:1057C00061C0F093E703E093E603DF91CF91089582
:1057D000EA01CE17DF07E8F54A815B819E0141159A
:1057E0005105B1F7E901FB83EA8349915991C40F4F
:1057F000D51FEC17FD0761F4808191810296840F1B
:10580000951FE90199838883828193819B838A8391
:10581000F0E0E0E012968D919C9113970097B9F516
:105820002D913C911197CD010296820F931F2091EB
:10583000E6033091E7032817390739F6309751F519
:105840001092E9031092E803B093E703A093E603F4
:10585000BCCFD383C28340815181840F951FC81769
:10586000D90761F44E5F5F4F88819981480F591FB6
:10587000518340838A819B819383828321153105E3
:1058800009F0B0CFF093E903E093E8039ECFFD0168
:10589000DC01C0CF13821282D7CFB0E0A0E0E3E5F5
:1058A000FCE20C949A298C01009751F4CB010E94E0
:1058B000282B8C01C801CDB7DEB7E0E10C94B629E6
:1058C000FC01E60FF71F9C0122503109E217F30794
:1058D00008F49DC0D901CD91DC911197C617D70767
:1058E00098F0C530D10530F3CE010497861797079D
:1058F00008F3C61BD70B2297C193D1936D937C936A
:10590000CF010E94C42BD6CF5B01AC1ABD0A4C015B
:105910008C0E9D1EA091E803B091E903512C412CFF
:10592000F12CE12C109731F58091E6039091E7037B
:105930008815990509F05CC04616570608F058C04E
:1059400080910B0190910C01009741F48DB79EB7A7
:1059500040910F0150911001841B950BE817F90736
:1059600008F055C0F093E703E093E603F901718373
:105970006083A0CF8D919C91119712966C90129795
:1059800013967C901397A815B90559F56C0142E060
:10599000C40ED11CCA14DB0420F1AC014A195B0906
:1059A000DA011296159780F06282738251834083E8
:1059B000D9016D937C93E114F10471F0D701139632
:1059C000FC93EE93129776CF22968C0F9D1FF901D0
:1059D00091838083F301EFCFF093E903E093E80331
:1059E00069CF4816590608F42C017D01D3019ACFDE
:1059F000CB010E94282B7C01009749F0AE01B80131
:105A00000E940F2DC8010E94C42B870153CF10E0C4
:105A100000E050CF81E090E0F8940C942F2DFB0132
:105A2000DC0102C001900D9241505040D8F708951A
:105A3000DC0101C06D9341505040E0F70895FB0137
:105A4000DC018D91019080190110D9F3990B089513
:105A5000FB01DC0101900D920020E1F7089515E0B3
:105A6000CEE6D5E004C0FE010E94222B2196CF365F
:085A7000D107C9F7F894FFCF3C
:105A780008090A0B0C0203040506070000EA038064
:105A88000000000000FF075F078C074C08BD079B5C
:105A980007AF07000000007E115111481599054A0B
:105AA800113711281100000000400744074807007B
:105AB800000000080D5F0748155E07130A9905AD39
:105AC8000F850FA10F950F15109905CE0AF21483B3
