:100000000C9462000C948A000C948A000C948A0070
:100010000C948A000C948A000C948A000C948A0038
:100020000C948A000C948A000C948A000C948A0028
:100030000C948A000C948A000C948A000C948A0018
:100040000C94E6010C948A000C948A000C948A00AB
:100050000C948A000C948A000C948A000C948A00F8
:100060000C948A000C948A000000000024002700F1
:100070002A0000000000250028002B0000000000DE
:1000800023002600290004040404040404040202DA
:100090000202020203030303030301020408102007
:1000A0004080010204081020010204081020000012
:1000B0000008000201000003040700000000000027
:1000C0000000EB0311241FBECFEFD8E0DEBFCDBF91
:1000D00011E0A0E0B1E0EEE7F8E002C005900D927B
:1000E000AE31B107D9F721E0AEE1B1E001C01D9218
:1000F000A639B207E1F710E0C2E6D0E004C02197CC
:10010000FE010E943704C136D107C9F70E943002B0
:100110000C943D040C94000096E0899FD0011124BA
:10012000A95DBE4F90967C936E935F9791E09196F8
:100130009C939197E0919401F09195019091930196
:10014000992339F0309751F0811108C08091430113
:100150000994309719F05C968C91FACF0895CF925C
:10016000DF92EF92FF920F931F9396E0899FF00129
:100170001124E95DFE4F11A2278D30A121303105F8
:1001800051F178F02230310509F451C023303105A6
:1001900009F452C01F910F91FF90EF90DF90CF9024
:1001A00008956623B9F361E070E00E948C002FB7D8
:1001B000F8948091230190912401A0912501B091A0
:1001C00026012FBF80937F0190938001A09381012E
:1001D000B0938201DFCF9FB7F894C0902301D090F5
:1001E0002401E0902501F09026019FBF00917F013E
:1001F000109180012091810130918201C01AD10AB1
:10020000E20AF30A009191011091920130E020E09E
:100210000C151D052E053F0550F462E070E01F919E
:100220000F91FF90EF90DF90CF900C948C006111B4
:10023000B1CF63E070E0F3CF70E060E0F0CF8330E7
:1002400081F028F4813099F08230A9F00895873048
:10025000A9F08830C9F08430B1F4809180008F7D9E
:1002600003C0809180008F7780938000089584B5CB
:100270008F7784BD089584B58F7DFBCF8091B000CA
:100280008F778093B00008958091B0008F7DF9CF73
:10029000CF93DF93282F30E0F901E255FF4F84918F
:1002A000F901E656FF4FD491F901EA57FF4FC49187
:1002B000CC23A1F081110E941F01EC2FF0E0EE0F82
:1002C000FF1FE458FF4FA591B491EC91ED2381E01D
:1002D00090E009F480E0DF91CF91089580E090E014
:1002E000FACF1F93CF93DF93282F30E0F901E25527
:1002F000FF4F8491F901E656FF4FD491F901EA5777
:10030000FF4FC491CC23A9F0162F81110E941F0129
:10031000EC2FF0E0EE0FFF1FEE58FF4FA591B491C8
:100320008FB7F894EC91111108C0D095DE23DC93BF
:100330008FBFDF91CF911F910895DE2BF8CFCF9320
:10034000DF9390E0FC01E656FF4F24918A579F4FC0
:10035000FC0184918823C9F090E0880F991FFC016B
:10036000E859FF4FA591B491FC01EE58FF4FC5919C
:10037000D49161110DC09FB7F8948C912095822380
:100380008C938881282328839FBFDF91CF91089584
:10039000623051F49FB7F8943C91822F809583236B
:1003A0008C93E8812E2BEFCF8FB7F894EC912E2B06
:1003B0002C938FBFEACF862F642F0C949F01862F3A
:1003C000642F0C947101862F0C9448011F920F9298
:1003D0000FB60F9211242F933F938F939F93AF9358
:1003E000BF938091230190912401A0912501B091A8
:1003F00026013091220123E0230F2D3758F5019675
:10040000A11DB11D2093220180932301909324010B
:10041000A0932501B093260180911E0190911F01A8
:10042000A0912001B09121010196A11DB11D8093E1
:100430001E0190931F01A0932001B0932101BF9151
:10044000AF919F918F913F912F910F900FBE0F9081
:100450001F90189526E8230F0296A11DB11DD2CF3B
:10046000789484B5826084BD84B5816084BD85B58F
:10047000826085BD85B5816085BD80916E0081609B
:1004800080936E0010928100809181008260809341
:100490008100809181008160809381008091800043
:1004A0008160809380008091B10084608093B1006E
:1004B0008091B00081608093B00080917A00846068
:1004C00080937A0080917A00826080937A00809194
:1004D0007A00816080937A0080917A0080688093AE
:1004E0007A001092C10061E089E00E949F0161E002
:1004F0008AE00E949F0161E08BE00E949F01812CB5
:10050000912C5401839444244A94542C60E0662E28
:1005100060E0762E51E0509393018FB7F8944091AC
:1005200023015091240160912501709126018FBF14
:100530008091830190918401A0918501B091860101
:10054000481B590B6A0B7B0B80918F019091900196
:10055000B0E0A0E084179507A607B70708F013C11D
:10056000C0E080918D01C81760F4E0918901F0919D
:100570008A01EC0FF11D62E080810E949F01CF5F34
:10058000F0CF312C80918E01381608F05FC0032D1A
:1005900010E0E0918B01F0918C01E00FF11F61E020
:1005A00080810E949F01E0918B01F0918C01E00F0E
:1005B000F11F60E080810E947101D501C401032C0C
:1005C00004C0880F991FAA1FBB1F0A94D2F76C01A1
:1005D0007C01E094F094212C80918D012816F8F490
:1005E000C22DD0E0E0918901F0918A01EC0FFD1F4E
:1005F00080810E9448012496CC0FDD1FC95DDE4F2B
:10060000892B41F4888199818C299D29998388833C
:100610002394E2CF888199818E219F21F7CFE091A9
:100620008B01F0918C01E00FF11F61E080810E944D
:10063000710180918B0190918C01080F191F60E06E
:10064000F80180810E949F0133949CCF07E211E062
:10065000E8018F8D98A1892B21F41C8E5E8E4D8E22
:1006600019A22696F1E0C336DF0799F7D12C8091C5
:100670008D01D81608F053C0C12CED2CF12CEE0CD6
:10068000FF1CC701815D9E4F7C0120918E01C21627
:1006900008F043C0F701608171810C2C02C076958F
:1006A00067950A94E2F7D29E900111242C0D311D1A
:1006B000E7E2F1E080E0458D568D2417350709F417
:1006C00088C08F5F36968A30B1F760FF24C0E7E2BA
:1006D000F1E090E080E0448D411118C0E091870185
:1006E000F0918801E20FF31F408156E0589FF0011E
:1006F000599FF00D1124E95DFE4F448F368F258FF1
:1007000010A2178E61E00E94AF0005C001963696D8
:100710008A30910501F7C394B8CFD394A8CF80E075
:10072000F80191A19111892F0A5F1F4FC017D107BE
:10073000B9F79FB7F894409123015091240160913B
:100740002501709126019FBF40938301509384013E
:1007500060938501709386018823A9F080914801F8
:10076000882389F08091460190914701019759F4BF
:10077000C0914301C1110AC06114710409F4CACEC9
:100780000E940000C7CE10929301F6CF80ED8C0F2F
:100790008A30E0F40C2E000CDD0BE097C830D10558
:1007A0005CF76C2F617089E00E947101BE01759544
:1007B000679561708AE00E947101BE017595679529
:1007C000759567958BE00E947101D6CFD0E0C0E0AF
:1007D000E8CF617098CF1092290110922D011092EC
:1007E0002C0110922E0187E191E0909328018093D3
:1007F0002701E3E4F1E01082148213821582369619
:1008000081E0EF37F807B9F783E091E090938A0130
:100810008093890180E091E090938C0180938B011B
:1008200084E080938D0183E080938E0187E091E0E6
:1008300090938801809387018AE090E090939001E3
:1008400080938F0184EF91E09093920180939101C6
:1008500010929501109294011092830110928401DC
:100860001092850110928601109293010895EE0F67
:0E087000FF1F0590F491E02D0994F894FFCF3E
:10087E00060708020304053132333435363738396A
:0E088E002A302300000000DB01DF01E301003F
:00000001FF
