:100000000C947E050C94A6050C94A6050C94A605EC
:100010000C94A6050C94A6050C94A6050C94A605B4
:100020000C94A6050C94A6050C94A6050C94A605A4
:100030000C94A6050C94A6050C94A6050C94A60594
:100040000C947F1A0C94A6050C94A6050C94A60596
:100050000C94A6050C94A6050C94A6050C94A60574
:100060000C94C91A0C94A60500000000003E5B4FDA
:100070005B3E3E6B4F6B3E1C3E7C3E1C183C7E3C08
:10008000181C577D571C1C5E7F5E1C00183C180016
:10009000FFE7C3E7FF0018241800FFE7DBE7FF30A6
:1000A000483A060E2629792926407F050507407F14
:1000B00005253F5A3CE73C5A7F3E1C1C08081C1C87
:1000C0003E7F14227F22145F5F005F5F06097F017D
:1000D0007F006689956A606060606094A2FFA29468
:1000E00008047E040810207E201008082A1C080836
:1000F0001C2A08081E101010100C1E0C1E0C303884
:100100003E3830060E3E0E06000000000000005F84
:1001100000000007000700147F147F14242A7F2AA0
:100120001223130864623649562050000807030062
:10013000001C2241000041221C002A1C7F1C2A08AE
:10014000083E080800807030000808080808000011
:1001500060600020100804023E5149453E00427F85
:10016000400072494949462141494D331814127FD4
:100170001027454545393C4A494931412111090774
:100180003649494936464949291E000014000000F5
:1001900040340000000814224114141414140041C7
:1001A00022140802015909063E415D594E7C121184
:1001B000127C7F494949363E414141227F414141BC
:1001C0003E7F494949417F090909013E4141517337
:1001D0007F0808087F00417F41002040413F017FA8
:1001E000081422417F404040407F021C027F7F0470
:1001F00008107F3E4141413E7F090909063E4151B9
:10020000215E7F09192946264949493203017F01A8
:10021000033F4040403F1F2040201F3F4038403FA9
:10022000631408146303047804036159494D4300BF
:100230007F4141410204081020004141417F0402F6
:10024000010204404040404000030708002054548D
:1002500078407F284444383844444428384444286B
:100260007F385454541800087E090218A4A49C78BE
:100270007F0804047800447D40002040403D007F1A
:100280001028440000417F40007C047804787C08FA
:100290000404783844444438FC18242418182424CE
:1002A00018FC7C08040408485454542404043F44B3
:1002B000243C4040207C1C2040201C3C4030403CE2
:1002C00044281028444C9090907C4464544C440042
:1002D00008364100000077000000413608000201A6
:1002E0000204023C2623263C1EA1A161123A404092
:1002F000207A38545455592155557941225454780F
:1003000042215554784020545579400C1E527212A7
:100310003955555559395454545939555454580030
:1003200000457C410002457D420001457C407D1234
:1003300011127DF0282528F07C5455450020545496
:100340007C547C0A097F4932494949323A44444441
:100350003A324A4848303A4141217A3A424020787C
:10036000009DA0A07D3D4242423D3D4040403D3C7D
:1003700024FF2424487E4943662B2FFC2F2BFF09A2
:1003800029F620C0887E0903205454794100004496
:100390007D413048484A32384040227A007A0A0A81
:1003A000727D0D19317D2629292F282629292926F4
:1003B00030484D4020380808080808080808382F39
:1003C00010C8ACBA2F102834FA00007B00000814C3
:1003D0002A142222142A14085500550055AA55AA99
:1003E00055AAFF55FF55FF000000FF00101010FF39
:1003F00000141414FF001010FF00FF1010F010F094
:10040000141414FC001414F700FF0000FF00FF1484
:1004100014F404FC141417101F10101F101F1414D0
:10042000141F00101010F0000000001F101010101A
:100430001F10101010F010000000FF10101010100E
:1004400010101010FF10000000FF140000FF00FF4C
:1004500000001F10170000FC04F4141417101714E8
:1004600014F404F40000FF00F7141414141414140A
:10047000F700F7141414171410101F101F1414147D
:10048000F4141010F010F000001F101F0000001FE7
:1004900014000000FC140000F010F01010FF10FF1A
:1004A000141414FF141010101F00000000F010FFAF
:1004B000FFFFFFFFF0F0F0F0F0FFFFFF0000000093
:1004C00000FFFF0F0F0F0F0F3844443844FC4A4A17
:1004D0004A347E02020606027E027E0263554941CC
:1004E000633844443C04407E201E2006027E020203
:1004F00099A5E7A5991C2A492A1C4C7201724C3017
:100500004A4D4D303048784830BC625A463D3E49ED
:100510004949007E0101017E2A2A2A2A2A44445F91
:10052000444440514A444040444A51400000FF0185
:1005300003E080FF000008086B6B08361236243693
:10054000060F090F060000181800000010100030F8
:1005500040FF0101001F01011E00191D1712003C80
:100560003C3C3C0000000000000103070F1F3F7FE0
:100570000080C0E0F0F8FCFEEF03038002CF030030
:10058000C130ED0464031281E803850078CB05399E
:100590002C003402F70120EA020000C00123C1014F
:1005A00010C5023E28C701863601483701003A01CE
:1005B00055B1020018B603088227F2010026010196
:1005C000E00F0F312B0C0E084EF1370710030E0908
:1005D00000E10F000E1403110731C148080F0C3160
:1005E000360F1180298000DB40A4A62EAF2000A189
:1005F000C8D300408DAED580A80000600000000088
:1006000000000000000000000000E000000000000A
:10061000000000000000000001E0000000000000F9
:100620000000000000000001F000000000000000D9
:1006300000000000000003F00000000000000000C7
:10064000000000000007F0000000000000000000B3
:100650000000000007F8000000000000000000009B
:100660000000000FF800000003C0007E000001E061
:10067000007F0FF800000003C000FE000001E00052
:10068000FFEFF800000003C000FE000001E000FFE3
:10069000FFF800000003C000F00000000F007FFE24
:1006A0007FC0000003C000F00000000F003FFE7F8D
:1006B000F83FF1FBCFFCFEF3BC3DEFE01FFE7FFFF8
:1006C0007FFBFFDFFEFEFFBC3DEFE01FC6FFFF7FAD
:1006D000FBFFDFFEFEFFBC3DEFE00FE3C7FE787BD4
:1006E000C3DE1EF0FFBC3DEF0007FF87FC787BC335
:1006F000DE1EF0F83C3DEF0001FFFFF0007BC3C0C1
:100700001EF0F03C3DEF0001F37FE03FFBC3CFFE66
:10071000F0F03C3DEF0003E33F807FFBC3DFFEF0E2
:10072000F03C3DEF0007E73C00787BC3DE1EF0F0B5
:100730003C3DEF0007FFBE00787BC3DE1EF0F03CBF
:100740003DEF0007FFFE00787BC3DE1EF0F03C3D6E
:10075000EF000FFFFE007FFBFFDFFEF0F03FFDEF3D
:10076000E00FFFFF007FFBFFDFFEF0F03FFDEFE05B
:100770000FF9FF003E79F9CF9EF0F01F3DE7E01F33
:10078000F1FF0000000000000000000000001F80DA
:10079000FF007FFFFFFFFFFFFFFFFFFFE01C007F69
:1007A000007FFFFFFFFEB46D888D18E000001F0082
:1007B0007FFFFFFFFE95AD7DB577E000000F007F66
:1007C000FFFFFFFEA5AD9D8D19E0000006007FFF35
:1007D000FFFFFEB5ADEDB57EE0000000000001803A
:1007E0000000000000000000000380000000000086
:1007F0000000000007C0000000000000000000072B
:10080000C00000000000000000000FC00000000059
:1008100000000000001FE0000000000000000000D9
:100820001FE00000000000000000003FE0000000AA
:100830000000000000003FF0000000000000000089
:10084000007FF0000000000000001FF87FF00000B3
:1008500000000000003FFE7FF000000000000000EC
:100860003FFF7FF0000000000000001FFFFBE000E2
:100870000000000000000FFFF9FFC00000000000B2
:10088000000FFFF9FFF800000000000007FFF1FF74
:10089000FF00000000000003FC73FFFF8000000069
:1008A000000001FE3FFFFF80000000000000FF1E6F
:1008B0000FFF000000000000007FFE1FFC00000092
:1008C000000000003FFFFFF8000000000000000FE4
:1008D000DFFFE0000000000000001F19FFC0000063
:1008E00000000000003F3CFF00000000000000008E
:1008F0007E7CF800000000000000007FFE7C00000D
:10090000000000000000FFFFFC00000000000000ED
:1009100000FFFFFE0000000000000000FFFFFE00DF
:1009200000000000000001FFEFFE000000000000DA
:100930000001FFCFFE0000000000000003FF07FEE3
:100940000000000000000003FC07FE0000000000A3
:10095000000003F003FE0000000000000001800022
:10096000FE000000000000000000007E000000000B
:100970000000000000003E00000000000000000039
:10098000000C000000000000078000FC000003C015
:10099000000000078001FC000003C0000000078089
:1009A00001FC000003C0000000078001E00000001F
:1009B0001E000000078001E00000001E007FE3F73A
:1009C0009FF9FDE7787BDFC0FFF7FFBFFDFDFF78F4
:1009D0007BDFC0FFF7FFBFFDFDFF787BDFC0F0F7D7
:1009E00087BC3DE1FF787BDE00F0F787BC3DE1F09E
:1009F000787BDE0000F787803DE1E0787BDE007FDA
:100A0000F7879FFDE1E0787BDE00FFF787BFFDE120
:100A1000E0787BDE00F0F787BC3DE1E0787BDE002C
:100A2000F0F787BC3DE1E0787BDE00F0F787BC3D66
:100A3000E1E0787BDE00FFF7FFBFFDE1E07FFBDF59
:100A4000C0FFF7FFBFFDE1E07FFBDFC07CF3F39F5A
:100A50003DE1E03E7BCFC000000000000000000050
:100A60000000FFFFFFFFFFFFFFFFFFFFC0FFFFFFD3
:100A7000FFFD68DB111A31C0FFFFFFFFFD2B5AFBA2
:100A80006AEFC0FFFFFFFFFD4B5B3B1A33C0FFFF68
:100A9000FFFFFD6B5BDB6AFDC02200FF2100000051
:100AA00000240027002A000000000023002600295F
:100AB000000000000800020100000304070000001D
:100AC0000000000000010204081020408001020420
:100AD0000810200102040810200000000025002852
:100AE000002B0004040404040404040202020202B1
:100AF00002030303030303000B1C042311241FBE82
:100B0000CFEFD8E0DEBFCDBF11E0A0E0B1E0EEE274
:100B1000F9E402C005900D92AA3EB107D9F723E08F
:100B2000AAEEB1E001C01D92A13BB207E1F715E0CA
:100B3000CDE7D5E004C02197FE010E945323CC37B6
:100B4000D107C9F70E94701D0C948A240C940000F0
:100B5000089596E0899FD0011124A155BD4F90962C
:100B60007C936E935F9791E091969C939197E0911F
:100B70001C03F0911D0390911B03992339F03097CA
:100B800051F0811108C08091CB020994309719F07F
:100B90005C968C91FACF0895CF92DF92EF92FF92FC
:100BA0000F931F9396E0899FF0011124E155FD4FAB
:100BB00011A2278D30A12130310551F178F022307A
:100BC000310509F451C02330310509F452C01F9199
:100BD0000F91FF90EF90DF90CF9008956623B9F3C7
:100BE00061E070E00E94A9052FB7F8948091A602F9
:100BF0009091A702A091A802B091A9022FBF809363
:100C0000070390930803A0930903B0930A03DFCF6F
:100C10009FB7F894C090A602D090A702E090A802D7
:100C2000F090A9029FBF0091070310910803209143
:100C3000090330910A03C01AD10AE20AF30A0091AB
:100C4000190310911A0330E020E00C151D052E0544
:100C50003F0550F462E070E01F910F91FF90EF901C
:100C6000DF90CF900C94A9056111B1CF63E070E0E3
:100C7000F3CF70E060E0F0CF833081F028F4813072
:100C800099F08230A9F008958730A9F08830C9F032
:100C90008430B1F4809180008F7D03C0809180000A
:100CA0008F7780938000089584B58F7784BD0895F1
:100CB00084B58F7DFBCF8091B0008F778093B0009B
:100CC00008958091B0008F7DF9CFCF93DF93282FC7
:100CD00030E0F901EF54F54F8491F901EB53F54FF2
:100CE000D491F901ED51F54FC491CC23A1F08111BC
:100CF0000E943C06EC2FF0E0EE0FFF1FE955F54F88
:100D0000A591B491EC91ED2381E090E009F480E0AD
:100D1000DF91CF91089580E090E0FACF1F93CF93B9
:100D2000DF93282F30E0F901EF54F54F8491F9015A
:100D3000EB53F54FD491F901ED51F54FC491CC230C
:100D4000A9F0162F81110E943C06EC2FF0E0EE0F67
:100D5000FF1FE752F54FA591B4918FB7F894EC912E
:100D6000111108C0D095DE23DC938FBFDF91CF91A6
:100D70001F910895DE2BF8CFCF93DF9390E0FC0115
:100D8000EB53F54F24918D51954FFC0184918823AD
:100D9000C9F090E0880F991FFC01E356F54FA5912B
:100DA000B491FC01E752F54FC591D49161110DC08A
:100DB0009FB7F8948C91209582238C938881282367
:100DC00028839FBFDF91CF910895623051F49FB780
:100DD000F8943C91822F809583238C93E8812E2B6D
:100DE000EFCF8FB7F894EC912E2B2C938FBFEACFD7
:100DF0003FB7F8948091A2029091A302A091A4021F
:100E0000B091A50226B5A89B05C02F3F19F0019609
:100E1000A11DB11D3FBFBA2FA92F982F8827BC0154
:100E2000CD01620F711D811D911D42E0660F771F7C
:100E3000881F991F4A95D1F708958F929F92AF927C
:100E4000BF92CF92DF92EF92FF924B015C010E9422
:100E5000F8066B017C010E94F8066C197D098E0969
:100E60009F09683E734081059105A8F321E0821A2D
:100E70009108A108B10888EEC80E83E0D81EE11CD5
:100E8000F11C81149104A104B10429F7FF90EF90A3
:100E9000DF90CF90BF90AF909F908F900895862F56
:100EA000642F0C94BC06862F642F0C948E06862F1C
:100EB0000C94650608950895AF92BF92CF92DF9289
:100EC000EF92FF920F931F93CF93DF936C017B01FF
:100ED0008B01040F151FEB015E01AE18BF08C01790
:100EE000D10759F06991D601ED91FC910190F08103
:100EF000E02DC6010995892B79F7C501DF91CF91C6
:100F00001F910F91FF90EF90DF90CF90BF90AF9027
:100F10000895EF92FF920F931F93CF93DF93EC010D
:100F2000EC80FD806E157F050CF070C057FF04C08B
:100F3000240F351F50E040E08E819F81FA01E20FBF
:100F4000F31F8E179F071CF49C01241B350B1216F0
:100F500013060CF05BC0922F842F8695869586959C
:100F60008E9DD0018F9DB00D11246A0F7B1FAF8D18
:100F7000B8A1A60FB71F477049F188E0841B482F1E
:100F8000682F70E0FB01E059FA4FE491281708F050
:100F900063C0621B71092FEF30E002C035952795C1
:100FA0006A95E2F7E2230130110539F0B0F1023021
:100FB000110561F58C91E82702C08C91E82BEC9328
:100FC000941720F12C813D81A20FB31FE92FE41B60
:100FD000E83078F00230110521F58E2F9C91909524
:100FE0009C932C813D81A20FB31F88508830B0F7AD
:100FF000E770EE2359F0F0E0E859FA4FE491013040
:101000001105F9F010F10230110519F1DF91CF91BE
:101010001F910F91FF90EF900895E0958C91E82338
:10102000CECF81E00115110509F480E081959E2F56
:101030008C932C813D81A20FB31F98509830C0F73C
:10104000D7CF8C91E82BEC93E1CFE0958C91E823FE
:10105000FACF8C91E827F7CF0130110509F4ADCF15
:10106000E0F20230110509F4A5CFAE0DBF1DAECFE1
:101070000F931F93CF93DF9377FF04C0260F371F83
:1010800070E060E0DC011496CD91DC91FB01E20F91
:10109000F31FCE17DF071CF49E01261B370B121619
:1010A00013064CF5FA0157FD3796A3E0F595E79541
:1010B000AA95E1F7EC9FD001ED9FB00DFC9FB00D1C
:1010C00011246A0F7B1FDC015F96ED91FC91E60F06
:1010D000F71F4770552781E090E001C0880F4A95BF
:1010E000EAF7482F0130110559F0A8F02E0F3F1FE5
:1010F00002301105E1F0DF91CF911F910F9108951A
:101100002E0F3F1FE217F307B1F38191DF01119713
:10111000842B8C93F7CF80952E0F3F1FE217F30798
:1011200051F39191DF01119798239C93F7CFE21728
:10113000F30709F38191DF01119784278C93F7CF8F
:101140000F931F93FA01DC0156964C91569742304B
:10115000E9F04330A1F1413061F514964D915C9175
:10116000DA01AE1BBF0BFD01E21BF30B77FD0BC0D9
:10117000DC0116964D915C916417750724F4AB0160
:10118000BF010E9438081F910F91089514964D9148
:101190005C91DA01A61BB70BBD0161507109DC013E
:1011A00016964D915C91DA01AE1BBF0BFD01E21B5F
:1011B000F30B77FDE8CFAF010E948907E4CF1696C5
:1011C0004D915C91DA01A61BB70BBD01615071090D
:1011D000CDCF0F931F93FA01DC0156964C91569791
:1011E0004230A9F0433091F1413019F514964D91F8
:1011F0005C91DA01AE1BBF0BFD013197F7FD04C016
:10120000AB01BF010E9489071F910F9108951496A9
:101210004D915C91DA01A61BB70BBD01DC0116965E
:101220004D915C91DA01AE1BBF0BFD013197621B42
:10123000730BF7FDE9CFDC0116964D915C91E41735
:10124000F50714F7AF010E943808DECF16964D91CE
:101250005C91DA01A61BB70BBD01621B730BCECFED
:10126000FC0177FD64C080859185681779070CF0D3
:101270005EC057FD5CC082859385481759070CF006
:1012800056C086898230B1F0833029F1813041F433
:1012900084819581841B950BAB01BC016150710960
:1012A0002130310509F108F443C02230310509F439
:1012B00063C0089584819581DC01A61BB70BBD0135
:1012C0006150710986819781DC01A41BB50BAD01CA
:1012D00041505109E5CF86819781861B970BBA0152
:1012E000AC0141505109DCCFCA0157FD0796A3E07C
:1012F00095958795AA95E1F7A481B5818A9F90017C
:101300008B9F300D9A9F300D1124620F731F078C35
:10131000F0A1E02DE60FF71F4770552721E030E0E0
:1013200001C0220F4A95EAF78081822B80830895BD
:10133000CA0157FD079633E0959587953A95E1F7F1
:10134000A481B5818A9F90018B9F300D9A9F300DAB
:101350001124620F731F078CF0A1E02DE60FF71F19
:101360004770552781E090E001C0880F4A95EAF761
:10137000809590818923DACFCA0157FD079623E033
:10138000959587952A95E1F7A481B5818A9F90016B
:101390008B9F300D9A9F300D1124620F731F078CA5
:1013A000F0A1E02DE60FF71F4770552721E030E050
:1013B00001C0220F4A95EAF780818227B7CFCF93E9
:1013C000CFB7F89480919A02811127C0EDEEFAE030
:1013D0008491EFECFAE09491E82FF0E0EE0FFF1F1C
:1013E000E356F54FA591B491EC91E92321F461E026
:1013F0008AE00E948E0661E08AE00E94BC068CB5FD
:1014000080618CBD8CB580648CBD61E08DE00E94F4
:10141000BC0661E08BE00E94BC0680919A028F5F5F
:1014200080939A02CFBFCF910895FC01A5A1B6A1E8
:101430008C9192A589238C93A5A1B6A18C9191A59D
:10144000892B8C9308950F931F93CF93DF93EC0117
:101450008B018DA981110DC01EBD0DB407FEFDCFFE
:101460000EBD0DB407FEFDCFDF91CF911F910F91FF
:1014700008958130E9F480E1E9A1FAA1908117FF94
:1014800014C02DA1922B9083EBA1FCA190812FA1E0
:10149000922B9083EBA1FCA1908128A592239083AD
:1014A000000F111F815041F7DFCF2EA19223EBCF08
:1014B000EF8DF8A11083CE010E94150AEF8DF8A1DF
:1014C0000083CE01DF91CF911F910F910C94150AEB
:1014D000FC0185A9811105C06EBD0DB407FEFDCFCD
:1014E00008958130E1F488E0A1A1B2A19C9167FF49
:1014F00013C025A1922B9C93A3A1B4A19C9127A1D9
:10150000922B9C93660FA3A1B4A19C9120A592233A
:101510009C93815049F7089526A19223ECCFA78D83
:10152000B0A16C93CF010C94150ACF93DF93EC011B
:10153000ED8DFE8D80819CA989238083CE010E9440
:10154000680AED8DFE8D80819BA9892B8083DF91B8
:10155000CF910895AF92BF92CF92DF92EF92FF9218
:101560000F931F93CF93DF93EC015B016A0121502E
:1015700031097901E60EF71E01501109040F151FFC
:1015800080910601909107018617970739F48091A1
:101590000401909105018E159F05A1F06AE2CE012C
:1015A0000E94950AB501CE010E94230AB701CE011F
:1015B0000E94230AB0920701A0920601F092050151
:1015C000E092040180910201909103018C159D0528
:1015D00039F4809100019091010180179107A1F0E9
:1015E0006BE2CE010E94950AB601CE010E94230A49
:1015F000B801CE010E94230AD0920301C0920201D9
:1016000010930101009300016CE2CE01DF91CF91B4
:101610001F910F91FF90EF90DF90CF90BF90AF9010
:101620000C94950A1F93CF93DF93EC01162FE8815A
:10163000F9810284F385E02D0995112371F06DADD8
:10164000CE010E94950AE881F9810688F789E02D8C
:10165000CE01DF91CF911F9109946EADF1CFAF9282
:10166000BF92CF92DF92EF92FF920F931F93CF938F
:10167000DF93EC0177FD38C0888599856817790775
:101680009CF557FD31C08A859B854817590764F53D
:1016900069017A015B01E881F9810284F385E02D1B
:1016A000CE010995E881F98102A4F3A5E02D01E0BE
:1016B00010E021E030E0A701B501CE010995B601A7
:1016C000CE010E94230AE881F9810688F789E02D7E
:1016D000CE01DF91CF911F910F91FF90EF90DF909E
:1016E000CF90BF90AF900994DF91CF911F910F9150
:1016F000FF90EF90DF90CF90BF90AF9008958F92C2
:101700009F92AF92BF92CF92DF92EF92FF920F9390
:101710001F93CF93DF93EC0149015701E881F981D1
:1017200002A4F3A5E02D09959401D8010E94352368
:101730006B017C01C114D104E104F10409F490C0EF
:101740008DA9811115C081E0C81AD108E108F108FE
:101750008FEFC816D806E806F80609F481C0BEBCAB
:101760000DB407FEFDCFAEBC0DB407FEFDCFEBCF31
:10177000813009F045C081E0C81AD108E108F108BC
:101780008FEFC816D806E806F80609F469C09B2D45
:1017900088E0E9A1FAA1208197FF2CC03DA1232B6D
:1017A0002083EBA1FCA120813FA1232B2083EBA16F
:1017B000FCA1208138A523232083990F815049F76C
:1017C0009A2D88E0E9A1FAA1208197FF16C03DA1DA
:1017D000232B2083EBA1FCA120813FA1232B20837D
:1017E000EBA1FCA1208138A523232083990F8150F0
:1017F00049F7C1CF3EA12323D3CF3EA12323E9CF75
:10180000BA1016C0CC0CDD1CEE1CFF1CEF8DF8A12D
:10181000B08281E0C81AD108E108F1088FEFC8163C
:10182000D806E806F806E1F0CE010E94150AF1CFCD
:1018300081E0C81AD108E108F1088FEFC816D80670
:10184000E806F80669F0EF8DF8A1B082CE010E949B
:10185000150AEF8DF8A1A082CE010E94150AE8CFEB
:10186000DF91CF911F910F91FF90EF90DF90CF907C
:10187000BF90AF909F908F9008958F929F92AF925C
:10188000BF92CF92DF92EF92FF920F931F93CF936D
:10189000DF934C01EB016A01590137FF07C0C90111
:1018A0000196C80FD91FB194A194B108F401A08585
:1018B000B185CA17DB070CF058C017FF07C0C80175
:1018C0000196C80ED91E119501951109F401828562
:1018D0009385C816D9060CF048C0FE01EA0DFB1D21
:1018E000AF014150510957FD40C0B601600F711F53
:1018F0009B012150310937FD38C0D7FF03C05F017C
:10190000D0E0C0E0D7FE03C08B01D12CC12C4A1718
:101910005B071CF05D01AC1ABD0A281739071CF0E3
:101920008C010C191D09D401ED91FC910284F38501
:10193000E02DC40109959501A601BE01C4010E94D4
:101940007F0BD401ED91FC910688F789E02DC4014D
:10195000DF91CF911F910F91FF90EF90DF90CF908B
:10196000BF90AF909F908F900994DF91CF911F917E
:101970000F91FF90EF90DF90CF90BF90AF909F902E
:101980008F900895EF92FF920F931F9321153105C9
:1019900029F00115110511F00E943D0C1F910F91C6
:1019A000FF90EF9008958F929F92AF92BF92CF9247
:1019B000DF92EF92FF920F931F93CF93DF935C011F
:1019C0004B016A01E90177FD52C0DC0118968D9147
:1019D0009C91681779070CF04AC0209709F447C01A
:1019E00037FF07C0C9010196C80ED91ED195C19510
:1019F000D109F50182859385C816D906C4F5A601DB
:101A00004C0F5D1F9A012150310937FD30C0D7FEC0
:101A100003C0EA01D12CC12C281739071CF0EC01B6
:101A2000CC19DD09D501ED91FC910284F385E02DFF
:101A3000C501099578018E0121E030E0A601B401CD
:101A4000C5010E947F0BD501ED91FC910688F789B5
:101A5000E02DC501DF91CF911F910F91FF90EF9085
:101A6000DF90CF90BF90AF909F908F900994DF91BF
:101A7000CF911F910F91FF90EF90DF90CF90BF908B
:101A8000AF909F908F9008958F929F92AF92BF9248
:101A9000CF92DF92EF92FF920F931F93CF93DF933A
:101AA0005C016B014A01E90157FD52C0DC011A9645
:101AB0008D919C91481759070CF04AC0209709F462
:101AC00047C037FF07C0C9010196C80ED91ED1957E
:101AD000C195D109F50180859185C816D906C4F54F
:101AE000A6014C0F5D1F9A012150310937FD30C00E
:101AF000D7FE03C0EA01D12CC12C281739071CF0EE
:101B0000EC01CC19DD09D501ED91FC910284F3853E
:101B1000E02DC5010995780101E010E09E01A401C6
:101B2000B601C5010E947F0BD501ED91FC9106889D
:101B3000F789E02DC501DF91CF911F910F91FF90A3
:101B4000EF90DF90CF90BF90AF909F908F900994CF
:101B5000DF91CF911F910F91FF90EF90DF90CF9089
:101B6000BF90AF909F908F900895EF92FF920F9348
:101B70001F93CF93DF9377FD32C0DC011896ED9170
:101B8000FC916E177F075CF52115310541F137FF98
:101B900007C0F90131964E0F5F1F3195219531092C
:101BA000DC011A96ED91FC914E175F07C4F4EA012F
:101BB000C20FD31FDE011197B7FD11C057FF03C03D
:101BC0009E0150E040E0AE17BF071CF09F01241BB0
:101BD000350B7801890121E030E00E947F0BDF9115
:101BE000CF911F910F91FF90EF900895EF92FF9288
:101BF0000F931F93CF93DF9357FD31C0DC011A96EB
:101C0000ED91FC914E175F0754F52115310539F11F
:101C100037FF07C0F90131966E0F7F1F319521956F
:101C20003109DC011896ED91FC916E177F07BCF429
:101C3000EB01C20FD31FDE011197B7FD10C077FF74
:101C400003C09E0170E060E0AE17BF071CF09F016B
:101C5000261B370B780101E010E00E947F0BDF911B
:101C6000CF911F910F91FF90EF9008958F929F92C7
:101C7000AF92BF92CF92DF92EF92FF920F931F939A
:101C8000CF93DF9347012115310509F44BC00115AE
:101C9000110509F447C037FF07C0F90131966E0FEF
:101CA0007F1F319521953109DC011896AD90BC90CC
:101CB0006A157B05BCF517FF07C0F80131964E0F7A
:101CC0005F1F119501951109DC011A96ED91FC91A8
:101CD0004E175F073CF56B01C20ED31EE60121973C
:101CE000D7FD20C07A01E00EF11ED7011197B7FD94
:101CF00019C077FF03C0960170E060E057FF03C092
:101D0000870150E040E0CA15DB051CF09501261B59
:101D1000370BAE17BF071CF08F01041B150B7401A6
:101D20000E947F0BDF91CF911F910F91FF90EF9059
:101D3000DF90CF90BF90AF909F908F900895EF92DB
:101D4000FF920F931F93CF93DF93EC0177FD22C097
:101D50008885998568177907ECF457FD1BC08A853B
:101D60009B8548175907B4F47901E881F98102A4E9
:101D7000F3A5E02D01E010E021E030E0CE0109956F
:101D8000B701CE01DF91CF911F910F91FF90EF909E
:101D90000C94230ADF91CF911F910F91FF90EF9048
:101DA00008950895FC0187A987FD06C0A38DB48D11
:101DB0009C9181A9892B8C9308958EBD00000DB450
:101DC00007FEFDCF8EB508958CBD9DBD0895FC0125
:101DD00025A9211104C081A192A10C94E40E0895BB
:101DE0000F931F93CF93DF931F92CDB7DEB78C0174
:101DF0006370DC0156966C935697623009F468C0A4
:101E0000633009F46AC0613009F456C088E48983FC
:101E100080EF90E019969C938E93189780E491E060
:101E20001B969C938E931A97C8010E94E70ED801C7
:101E3000D7968C91D79787FD09C05B96ED91FC9161
:101E40005C978081D2969C9189238083D8015D968E
:101E5000ED91FC915E978081D4969C91892380833B
:101E600066E3C8010E94680AD8015D96ED91FC9175
:101E70005E978081D3969C91D397892B8083D5964A
:101E80008C91823061F16981C8010E94680AD80191
:101E9000D7968C91D79787FD09C05B96ED91FC9101
:101EA0005C978081D1969C91892B80830F90DF91E4
:101EB000CF911F910F91089588E2898380E491E08A
:101EC000F8019187808780EF90E093878287ACCF7D
:101ED00088E8898380EF90E09DCF88EEEECFF8010F
:101EE00080A9882381F269817A81C8010E94230A2E
:101EF000CECFAF92BF92CF92DF92EF92FF920F932D
:101F00001F93CF93DF93EC01E62E8A01A22E0E944D
:101F1000E70E8FA987FD06C0EB8DFC8D80819AA905
:101F200089238083ED8DFE8D80819CA98923808308
:101F30006E2DCE010E94680AED8DFE8D80819BA9D9
:101F4000892B8083D12CC12CB12CCA14DB04E4F47E
:101F50008DA97801823079F488A9882361F0F8018D
:101F6000619171917F01CE010E94230AFFEFCF1A88
:101F7000DF0A8701EACFFFEFEF1AFF0AF801649149
:101F8000CE010E94680AF2CF8FA987FD06C0EB8DB3
:101F9000FC8D808199A9892B8083DF91CF911F913E
:101FA0000F91FF90EF90DF90CF90BF90AF9008958A
:101FB000611106C060E220E050E040E00C94790F2F
:101FC00061E2F9CFCF93DF93EC010E94E70E8FA976
:101FD00087FD06C0EB8DFC8D80819AA989238083C3
:101FE000DF91CF9108950895FC016370668B848121
:101FF000958126813781613039F0633029F09187EE
:102000008087338722870895318720879387828747
:1020100008952F923F924F925F926F927F928F928C
:102020009F92AF92BF92CF92DF92EF92FF920F9367
:102030001F93CF93DF93CDB7DEB76A970FB6F894AF
:10204000DEBF0FBECDBF9A8F898F7A8369834A0125
:10205000D22E18870F833701BC2CDC0159962D91A5
:102060003C915A972115310509F015C118968D91AB
:102070009C911997681779070CF0D7C11A968D9122
:102080009C91481759070CF0D0C14C2C512CB6E04C
:10209000CB9E600D711D11247C876B871616170669
:1020A0000CF0C3C1EA2DF0E0FA87E98793E0EE0F68
:1020B000FF1F9A95E1F7F88BEF87CF01840F951FEB
:1020C000181619060CF0B1C1A98DBA8D58968C91CD
:1020D000811104C0BFEABD1508F4D394A98DBA8D4F
:1020E000ED91FC9111970284F385E02DCD010995C6
:1020F000B5E0DB9EC0011124E981FA81FC83EB830A
:10210000312C212C9C0128593F4F388F2F8B4A2D81
:1021100050E05E8B4D8BEF89F88DE20DF31D4491FD
:102120009E828D82D12CC12C69817A81620D731DB2
:102130007A8B698B842F90E09C8B8B8BE98DFA8D49
:10214000A081B18140FF82C0F1E0BF126FC0AF1229
:102150006DC01C96ED91FC912F813885A4014C0D2A
:102160005D1D69897A89898D9A8D0995EB89FC892C
:10217000F595E7954E2F5FEFC51AD50A6D817E81E3
:102180008D899E89680F791F7E836D8398E0C916BB
:10219000D10481F6AFEF2A1A3A0AEB81FC81E40DF3
:1021A000F51DFC83EB83F5E02F16310409F0B3CF66
:1021B0002F81388526153705B9F0A98DBA8DED9197
:1021C000FC91B1E0BB1257C0AB1255C069817A8156
:1021D0006B5F7F4F0088F189E02D830128E030E0BC
:1021E000A401898D9A8D0995A98DBA8DED91FC91E7
:1021F00011970688F789E02DCD016A960FB6F894FD
:10220000DEBF0FBECDBFDF91CF911F910F91FF9029
:10221000EF90DF90CF90BF90AF909F908F907F9086
:102220006F905F904F903F902F9009941E96ED9184
:10223000FC91EF80F88409851A8592014D815E81B9
:102240006B817C81898D9A8D099590CF2F813885FE
:102250002615370509F48ACF31E0B31207C0A3125F
:1022600005C01C96ED91FC91930178CF1E96ED91DF
:10227000FC917301E0CF6B857C8564197509068438
:10228000F785E02D73010F8518899201A401898DCE
:102290009A8D0995A9CFF901349694913297459179
:1022A0005491D91AB7E0DB9E400D511D1124F9015C
:1022B000259134913C8B2B8BFA0125903490FA01B7
:1022C0003296749031963491398B3296649031966F
:1022D000449041E04C1518F04A1508F07FC0662D77
:1022E000062C000C770B7C836B83842D042C000C54
:1022F000990B9E838D83A98DBA8DED91FC911197D9
:102300000284F385E02DCD010995512CD12CC12CEF
:10231000EA2DF0E0FA87E9872B2D30E03C872B8708
:10232000A401440D511D47FC5A95588F4F8B69816C
:102330007A81660D711D67FC7A957E876D87798934
:10234000C71608F051CF2C2D30E04D815E81420F31
:10235000531FA985BA854A9FC0014B9F900D5A9F74
:10236000900D1124FC01E80DF91DF88BEF87852DE8
:10237000612C4F89588D420F531F5E8B4D8B671414
:1023800008F050C044244394480E877041F4C101C2
:102390000196EB89FC89E20DF31DD4901C01D7FE58
:1023A00019C0A98DBA8DED91FC91662D70E0B1E058
:1023B000BB1219C0AB1217C02D853E85620F731F6B
:1023C0000484F585E02D2F8138854D895E89898DBE
:1023D0009A8D0995DD0C6394842DD1CF1E821D82C8
:1023E0001C821B8288CF4B815C81640F751FAB857B
:1023F000BC856A9FC0016B9F900D7A9F900D112440
:1024000069817A81680F791F0684F785E02DEF8056
:10241000F88409851A859D014F855889898D9A8D83
:102420000995D8CF570CC3948ACF6A960FB6F89403
:10243000DEBF0FBECDBFDF91CF911F910F91FF90F7
:10244000EF90DF90CF90BF90AF909F908F907F9054
:102450006F905F904F903F902F9008958F929F9232
:10246000AF92CF92EF92FF920F931F93CF93DF9390
:10247000EC01262F898D9A8D009709F051C06A30A2
:10248000D1F41D861C868D8948E0849F900111241B
:102490008E859F85820F931F9F878E8781E090E0B6
:1024A000DF91CF911F910F91FF90EF90CF90AF9060
:1024B0009F908F9008956D3089F3CC88AD888F8977
:1024C0008823C1F08C859D8536E0C39E800D911DCB
:1024D0001124488559854817590764F44E855F854E
:1024E0001D861C8638E0A39EC0011124840F951F11
:1024F0009F878E87EA88FB88088919894E855F85C2
:102500006C857D85CE010E9409102C898C859D8566
:1025100046E0249F800D911D11249D878C87BECF9E
:102520006A3069F41D861C86FC013896E4912D8979
:102530008E859F85E29F800D911D1124ADCF6D305A
:1025400009F4ACCFFC0134963491631708F4A6CF9C
:102550003296E491E61708F4A1CFFC0132968590FB
:102560009490462F431B342F47E0349F800C911CDE
:102570001124F401329634913196E4913323A9F178
:10258000EE2399F1CC88F4013596E491AD884F891A
:10259000442301F10E2E000CFF0BE30FF11DCE9E24
:1025A000A001CF9E500D11246C857D85460F571FCD
:1025B00068857985641775076CF44E855F851D867F
:1025C0001C86FC013896E491AE9E400D511D1124ED
:1025D0005F874E87EA88FB88088919894E855F8561
:1025E0006C857D85CE010E940910F4013496E4913A
:1025F0002C898C859D85E29F800D911D11248DCFA6
:102600006F927F928F929F92AF92BF92CF92DF9202
:10261000EF92FF920F931F93CF93DF93EC016B0127
:102620005A0139014801E881F9810284F385E02DDE
:102630000995E881F9810288F389E02D87019301EA
:10264000A501B601CE010995A501480D591D4150BE
:102650005109E881F9810288F389E02D9301B601DF
:10266000CE010995E881F9810088F189E02D940176
:10267000A501B601CE010995C60CD71CB601615063
:102680007109E881F9810088F189E02D9401A501A3
:10269000CE010995E881F9810688F789E02DCE0100
:1026A000DF91CF911F910F91FF90EF90DF90CF902E
:1026B000BF90AF909F908F907F906F9009946F9292
:1026C0007F928F929F92AF92BF92CF92DF92EF92C2
:1026D000FF920F931F93CF93DF935C01EB016A018D
:1026E000490138018701DC01ED91FC916217730704
:1026F00019F5641675062CF0962D872D3A01C92E12
:10270000D82E9601261937092F5F3F4F048CF58D7F
:10271000E02DA301BE01C5010995DF91CF911F9165
:102720000F91FF90EF90DF90CF90BF90AF909F9070
:102730008F907F906F9008954615570591F4261756
:10274000370724F0892D4B01C22FD82F9E0128195D
:1027500039092F5F3F4F068CF78DE02DA601B4019C
:10276000DACF0284F385E02D0995D501ED91FC9136
:102770000488F589E02D83019401A601BE01C501FD
:102780000995D501ED91FC910688F789E02DC501E9
:10279000DF91CF911F910F91FF90EF90DF90CF903D
:1027A000BF90AF909F908F907F906F900994EF9221
:1027B000FF920F931F93DC011A960D911C911B97AA
:1027C00018962D913C911997ED91FC9100A0F1A1E3
:1027D000E02D7B0150E040E070E060E009951F9142
:1027E0000F91FF90EF9008954F925F926F927F92BA
:1027F0008F929F92AF92BF92CF92DF92EF92FF9211
:102800000F931F93CF93DF936C012B015A01390172
:102810004801DC01ED91FC910284F385E02D0995DE
:10282000E201640C751CD601ED91FC91C615D7052B
:102830005CF40088F189E02D87019401A501BE01B7
:10284000C60109952196EFCF0688F789E02DC601CC
:10285000DF91CF911F910F91FF90EF90DF90CF907C
:10286000BF90AF909F908F907F906F905F904F90B0
:1028700009948F929F92AF92BF92CF92DF92EF9284
:10288000FF920F931F93CF93DF93EC015B014A01FB
:102890006901E881F9810284F385E02D09959501AC
:1028A0002C0D3D1D21503109E881F9810488F589FD
:1028B000E02D78018401A401B501CE010995E881DC
:1028C000F9810688F789E02DCE01DF91CF911F9124
:1028D0000F91FF90EF90DF90CF90BF90AF909F90BF
:1028E0008F9009948F929F92AF92BF92CF92DF9276
:1028F000EF92FF920F931F93CF93DF93EC015B0155
:102900004A0169017801E881F9810284F385E02DAB
:102910000995C80CD91C860101501109E881F9817B
:102920000488F589E02D9501A401B501CE01099532
:10293000E881F9810688F789E02DCE01DF91CF91FA
:102940001F910F91FF90EF90DF90CF90BF90AF90CD
:102950009F908F900994EF92FF920F931F93DC0149
:10296000ED91FC9100A0F1A1E02D09951F910F912F
:10297000FF90EF9008950F931F93DC01ED91FC9170
:10298000068CF78DE02D09951F910F9108950F93F7
:102990001F93DC01ED91FC91048CF58DE02D0995E0
:1029A0001F910F910895DC01ED91FC910084F18558
:1029B000E02D09943F924F925F926F927F928F9297
:1029C0009F92AF92BF92CF92DF92EF92FF920F93BE
:1029D0001F93CF93DF935C017B014A0169013901A9
:1029E00087E0680E711C93E0759467949A95E1F7FF
:1029F0002B01400E511E10E000E0312CD0E0C0E071
:102A0000CE0187709927330C892B59F4FE0183E09E
:102A1000F595E7958A95E1F7E00FF11FE80DF91DAF
:102A2000349037FE0AC021E030E0A701B5016C0FF9
:102A30007D1F8AE293E00E94D3142196CC16DD0616
:102A4000F9F68FEFE81AF80A060D171DE414F504DD
:102A5000A9F6DF91CF911F910F91FF90EF90DF903A
:102A6000CF90BF90AF909F908F907F906F905F902E
:102A70004F903F9008952F923F924F925F926F92A6
:102A80007F928F929F92AF92BF92CF92DF92EF92FE
:102A9000FF920F931F93CF93DF9300D000D000D00D
:102AA000CDB7DEB73C016A013E832D83FC82EB8209
:102AB0005801A41AB50AB7FE03C0B194A194B10895
:102AC0008D809E80861A970A97FE03C09194819408
:102AD00091088A149B045CF0902F812F0D811E8138
:102AE0009D838E839C2D8D2D6B01692F782F0C1566
:102AF0001D055CF09D818E817E836D83692F782F0B
:102B0000902F812F8601C92ED82E1601201A310A46
:102B10002B012D813E81421A530A57FE03C0519466
:102B200041945108710137FE03C03FEFE31AF30AE5
:102B3000F594E7948D819E81861797075CF5A1E057
:102B4000B0E0BA83A983C016D1064CF1D301ED9150
:102B5000FC910484F585E02D2B813C81A8016D81D9
:102B60007E818A149B041CF04D815E81B801C301F3
:102B70000995E418F508F7FE0AC02D813E81898188
:102B80009A81280F391F3E832D83E20CF31C0F5FBF
:102B90001F4FD9CF2FEF3FEF3A832983D4CF26960B
:102BA0000FB6F894DEBF0FBECDBFDF91CF911F915E
:102BB0000F91FF90EF90DF90CF90BF90AF909F90DC
:102BC0008F907F906F905F904F903F902F900895DF
:102BD000089520915002260F3327331F21323105EB
:102BE000ECF420917402FC0190E080E0243069F064
:102BF00082E00895A09150022191AC01405D5D4FAB
:102C0000A40FB52FB11D2C930196861798F38091D0
:102C10005002680F6093500280E0089581E00895AB
:102C20001092740281E0809376021092750261E046
:102C300082E10E948E0661E083E10E948E06E9EB4C
:102C4000F0E080818E7F808380818D7F808388E427
:102C50008093B80085E48093BC000895CF93DF9300
:102C600091E090932F028823B9F0C091B800D091E1
:102C7000BA008091BC008A7B8093BC0060E082E156
:102C80000E948E0660E083E10E948E060E9410166C
:102C9000D093BA00C093B800DF91CF910895E0912E
:102CA000A00280919F02E81730F4F0E0E65FFD4F4C
:102CB000808190E008958FEF9FEF08959091A0029A
:102CC00080919F022FEF3FEF981748F4E92FF0E033
:102CD000E65FFD4F208130E09F5F9093A002C90125
:102CE000089580919F029091A002891B990B0895ED
:102CF000CF92DF92EF92FF920F931F93CF93DF93C8
:102D00007C01CB018A012091AD02222389F0EB01E5
:102D10006B01C40ED51ECC15DD0569F06991D70194
:102D2000ED91FC910190F081E02DC7010995F3CF61
:102D3000642F0E94E915C801DF91CF911F910F9177
:102D4000FF90EF90DF90CF900895CF93DF931F9285
:102D5000CDB7DEB769832091AD022223F9F020912F
:102D6000AA02203258F021E030E0FC0133832283B4
:102D700090E080E00F90DF91CF9108958091AB02B9
:102D8000E82FF0E0E651FE4F998190838F5F8093AA
:102D9000AB028093AA0281E090E0ECCF61E0CE012B
:102DA00001960E94E915F7CFCF92DF92EF92FF9242
:102DB0000F931F93CF93DF93D091AA0281E0D1327A
:102DC00008F09CC0C091AC020E94F8066B017C0127
:102DD0008091740281116CC082E08093740281E062
:102DE000809376028FEF8093730210929802D093B3
:102DF0009702AAEEB1E0E7E7F2E080E0D8138DC0D9
:102E00001092990280919902CC0FC82BC09399021D
:102E100080917502813009F084C0109275020E9481
:102E2000F8066B017C01809199028093BB00809130
:102E30002B0290912C02A0912D02B0912E02892B91
:102E40008A2B8B2BA1F00E94F80600912B02109187
:102E50002C0220912D0230912E026C197D098E09D1
:102E60009F09061717072807390708F442C0809101
:102E7000BC0083FDD8CF85EC8093BC000E94F8068F
:102E80006B017C0180917402823009F44CC0809106
:102E900073028F3F09F469C080917302803209F494
:102EA00066C080917302803309F463C084E026C059
:102EB00080912B0290912C02A0912D02B0912E02B4
:102EC000892B8A2B8B2B09F483CF0E94F806009163
:102ED0002B0210912C0220912D0230912E026C19A0
:102EE0007D098E099F09061717072807390708F07B
:102EF0006FCF80912A020E942E1685E01092AB02BD
:102F00001092AA021092AD02DF91CF911F910F9102
:102F1000FF90EF90DF90CF9008959D9191938F5FF8
:102F20006DCF85EEA9CF80912B0290912C02A091BC
:102F30002D02B0912E02892B8A2B8B2B09F4A2CF64
:102F40000E94F80600912B0210912C0220912D0274
:102F500030912E026C197D098E099F0906171707FB
:102F60002807390708F08ECFC4CF80E0C7CF82E0B2
:102F7000C5CF83E0C3CFEF92FF920F931F93CF9300
:102F8000DF937C01C62F80914703909148030097FF
:102F900009F459C020914B0331E03093AD022093E6
:102FA000AC021092AB021092AA02DC01ED91FC91EE
:102FB0000190F081E02D60E009958701EE24E39413
:102FC000F12CD1E0C1508091470390914803CF3F4D
:102FD00091F1B0E2EB16F104D8F00E94D416809182
:102FE00047039091480320914B03D093AD02209367
:102FF000AC021092AB021092AA02DC01ED91FC919E
:103000000190F081E02D60E00995EE24E394F12C2D
:103010008091470390914803F8016491DC01ED91A0
:10302000FC910190F081E02D0995BFEFEB1AFB0AAE
:103030000F5F1F4FC7CFDF91CF911F910F91FF906F
:10304000EF900C94D416E0915703F09158039081BF
:1030500080915D038095892380838701C15008F4A6
:1030600038C0F80184912091450330914603232B09
:1030700029F00E94DD0E0F5F1F4FF0CF28E030E0F7
:1030800040E8E0915303F091540390915B03582F73
:103090005423D9F05081952B9083E0915503F09102
:1030A0005603908150915C03952B9083E0915503DA
:1030B000F0915603508190915C03909595239083F5
:1030C000469521503109E9F6D6CF50819095952348
:1030D000E3CFDF91CF911F910F91FF90EF90089573
:1030E0001F93CF93DF93EC018D8D9E8D009721F17F
:1030F000162F29A131E03093AD022093AC0210923B
:10310000AB021092AA02DC01ED91FC910190F081DA
:10311000E02D60E009958D8D9E8DDC01ED91FC9197
:103120000190F081E02D612F09958D8D9E8DDF91AD
:10313000CF911F910C94D416ADA5BEA59C918BA9DF
:10314000809589238C938B8D9C8D892B31F0862FD4
:10315000DF91CF911F910C94DD0E28E030E080E8E4
:10316000A9A5BAA599A9462F4823C1F04C91942B43
:103170009C93ABA5BCA59C914AA9942B9C93ABA511
:10318000BCA54C919AA9909594239C938695215027
:10319000310931F7DF91CF911F9108954C919095AE
:1031A0009423E6CF1F93CF93DF93EC01162F8D8DE1
:1031B0009E8D892BB1F12DA93EA94FA958AD60E094
:1031C00074E284EF90E00E941323205131094109F9
:1031D000510956954795379527952093B80066EA8B
:1031E000111167EACE010E9470188D8D9E8D892B7A
:1031F00041F129AD3AAD4BAD5CAD60E074E284EFD6
:1032000090E00E941323205131094109510956953C
:103210004795379527952093B800DF91CF911F915F
:1032200008958B8D9C8D892B21F08EAD9FAD0E94D2
:10323000E40EEFA5F8A990818CA98095892380835D
:10324000CECFEFA5F8A980819CA9892B8083E5CFFB
:1032500090E080E008952091300330913103C9015E
:10326000079697FD079623E0959587952A95E1F7B0
:1032700020912E0330912F03829FA001839F500D38
:10328000929F500D112470E060E08091490390916D
:103290004A030C9483240E947E24CF92DF92EF9203
:1032A000FF920F931F93CF93DF93EC016A017B0191
:1032B000C114D104E104F10431F4C12C22E1D22E75
:1032C0002AE7E22EF12C8FA987FD07C061E00E945A
:1032D000BC0661E08FA90E948E0661E088AD0E9465
:1032E000BC0661E088AD0E948E068DA9811172C076
:1032F00040E052E16AE770E0C416D506E606F7063C
:1033000040F476956795579547958F5F8630A1F77E
:1033100087E0982F906A969599A3809581708AA3EB
:103320001BA21CA21DA21EA20E94DF098EA987FD5E
:1033300021C061E00E94BC0661E08EA90E948E0659
:1033400064E670E080E090E00E941D0760E08EA9D6
:103350000E948E0664E670E080E090E00E941D0707
:1033600061E08EA90E948E0668EC70E080E090E03B
:103370000E941D078EA987FF0DC020E050E040E0AD
:1033800061E0CE010E94790F66E970E080E090E094
:103390000E941D0708E715E0C8010196F801649135
:1033A000662309F463C00E5F1F4FFC01F490EF2CFD
:1033B000E894E7F82E2DA801CE010E94790F0E0D9A
:1033C000111DF7FEE9CF66E970E080E090E00E9411
:1033D0001D07E2CF03EE1AE0F12C8130B9F461E071
:1033E0008AA50E94BC0660E08AA50E948E0661E064
:1033F0008CA50E94BC0660E08CA50E948E068BA561
:1034000087FD94CF60E00E94BC0690CFF8018491C4
:10341000E82FF0E0EE0FFF1FE752F54F85919491F2
:103420002F8D38A12817390741F461E08F2D0E94B4
:10343000BC0660E08F2D0E948E06F3940F5F1F4F35
:10344000F4E1FF12E3CF61E08EA50E94BC0661E0CB
:103450008EA50E948E068FA587FD68CF61E00E9431
:10346000BC0661E08FA50E948E0660CF80EF90E0E1
:103470009987888780E491E09B878A87DF91CF9145
:103480001F910F91FF90EF90DF90CF90089585ED01
:103490008093BC0080912B0290912C02A0912D0270
:1034A000B0912E020796A11DB11D23E0B695A795F8
:1034B000979587952A95D1F72091BC0024FD03C0EC
:1034C00010927402089540912B0250912C02609149
:1034D0002D0270912E02452B462B472B69F3009746
:1034E000A105B10541F02AE22A95F1F700C0019744
:1034F000A109B109E1CF80912A020C942E161F92E6
:103500000F920FB60F9211242F933F938F939F9397
:10351000AF93BF938091A6029091A702A091A802B9
:10352000B091A9023091A10223E0230F2D3758F565
:103530000196A11DB11D2093A1028093A602909334
:10354000A702A093A802B093A9028091A202909131
:10355000A302A091A402B091A5020196A11DB11DE4
:103560008093A2029093A302A093A402B093A50219
:10357000BF91AF919F918F913F912F910F900FBE6F
:103580000F901F90189526E8230F0296A11DB11DDC
:10359000D2CF1F920F920FB60F9211242F933F9309
:1035A0004F935F936F937F938F939F93AF93BF934B
:1035B000EF93FF938091B900887F803609F44AC069
:1035C000F0F5883209F4A7C018F5803109F49BC0E2
:1035D000B8F4882309F4F9C0883009F494C0FF9145
:1035E000EF91BF91AF919F918F917F916F915F917B
:1035F0004F913F912F910F900FBE0F901F901895F4
:10360000883109F488C0803251F78093730214C066
:10361000803409F49DC040F48033B9F38833F9F65F
:103620008093730285ECB0C0803509F485C088357D
:1036300009F496C0883499F60E94471AD0CF883989
:1036400009F48CC038F5883729F050F4883611F029
:10365000803729F683E0809374021092720257C07B
:10366000883809F47BC0803919F0803809F0B7CF69
:1036700080917202803208F071C0E091720281E0A4
:103680008E0F809372028091BB00F0E0EE5AFD4FE6
:1036900080833DC0803B39F0E0F4803A09F479C082
:1036A000883A09F09CCF84E0809374021092510212
:1036B00010925002E0919D02F0919E020995809136
:1036C000500281110FC081E08093500210923002AD
:1036D00009C0803C09F4A6CF883C09F4A3CF883BFD
:1036E00009F07DCFE091510281E08E0F809351026D
:1036F000F0E0E05DFD4F80818093BB00909151022E
:103700008091500229C0809199028093BB0085EC82
:103710008093BC0064CF9091980280919702981793
:1037200058F5E091980281E08E0F80939802F0E0C6
:10373000E958FD4F8081E9CFE091980281E08E0F3A
:10374000809398028091BB00F0E0E958FD4F8083A0
:1037500090919802809197029817C8F285E8D8CF87
:10376000E091980281E08E0F809398028091BB00D7
:10377000F0E0E958FD4F80838091760281115CCFA3
:1037800081E08093750284EA8093BC0010927402F9
:1037900026CF85EC8093BC00109274028091720257
:1037A000803230F4E0917202F0E0EE5AFD4F108268
:1037B0006091720270E0E0919B02F0919C0282E5C0
:1037C00092E00995109272020ACF1092730234CFE0
:1037D000FB0101900020E9F73197AF01461B570B21
:1037E000DC01ED91FC910280F381E02D09940F93AF
:1037F0001F93CF93DF93EC010E94E81B8C016EE9CD
:1038000071E0CE010E94E81B800F911FDF91CF91E4
:103810001F910F910895109221031092200388EEBA
:1038200093E0A0E0B0E08093220390932303A09361
:103830002403B09325038AE291E090931F038093C1
:103840001E0310926D0310926C0320EF30E0309352
:103850006F0320936E0380E491E090937103809353
:1038600070033093730320937203909375038093D6
:1038700074031092800310927703109276031092D3
:1038800079031092780321E020937F0320937E0335
:103890008FEF9FEF90937D0380937C0390937B0346
:1038A00080937A0320938103109282031092840301
:1038B0001092830310929F0339E03093A00338E005
:1038C0003093A1033AE03093A2031092A403109224
:1038D000A3031092A6031092A5031092A7031092BF
:1038E000A8031092A9031092AA031092AB0310929E
:1038F000AC034EEA52E050938A0340938903EDEE05
:10390000FAE0E491F0E0EE0FFF1FE752F54F45912A
:1039100054915093880340938703EFECFAE034917D
:1039200030939D03EBEEFAE0E491F0E0EE0FFF1F21
:10393000E752F54F45915491509386034093850388
:10394000EDECFAE0E491E0939B03E095E0939C03B7
:10395000E32FE095E0939E0342E751E050936B0321
:1039600040936A0310922D0310922C0360E870E0DC
:1039700070932F0360932E0340E450E05093310383
:1039800040933003709333036093320350933503B5
:103990004093340310924003109237031092360381
:1039A000109239031092380320933F0320933E0373
:1039B00090933D0380933C0390933B0380933A03A1
:1039C0002093410310924203109244031092430348
:1039D00086E491E090932B0380932A031092460390
:1039E000109245038EE193E0909348038093470340
:1039F00010924A03109249038FEF80934E038093F5
:103A00004F0380935003809351038093520380E8C7
:103A10009AE1A6E0B0E080935F0390936003A093E7
:103A20006103B093620380EA96E8A1E0B0E080937E
:103A3000630390936403A0936503B093660380E5EA
:103A400080936803109269031092B1021092B5023C
:103A50001092B4021092B6028CE391E09093B002FF
:103A60008093AF02EBECF2E087E093E010821482E7
:103A70001382158236968E179F07C1F78CE091E06E
:103A8000909312038093110388E091E090931403C4
:103A90008093130384E0809315038093160380E1E1
:103AA00091E09093100380930F038AE090E090934D
:103AB00018038093170384EF91E090931A03809387
:103AC000190310921D0310921C0310920B03109205
:103AD0000C0310920D0310920E0310921B03089515
:103AE000789484B5826084BD84B5816084BD85B5D9
:103AF000826085BD85B5816085BD80916E008160E5
:103B000080936E001092810080918100826080938A
:103B1000810080918100816080938100809180008C
:103B20008160809380008091B10084608093B100B7
:103B30008091B00081608093B00080917A008460B1
:103B400080937A0080917A00826080937A008091DD
:103B50007A00816080937A0080917A0080688093F7
:103B60007A001092C1001092A00210929F0210924F
:103B7000AB021092AA020E9410168AE597E0909379
:103B80009E0280939D028BE597E090939C02809328
:103B90009B028091490390914A03892B11F5209152
:103BA000300330913103C901079697FD0796B3E0C2
:103BB00095958795BA95E1F720912E0330912F03C3
:103BC000AC01429FC001439F900D529F900D112464
:103BD0000E94592390934A0380934903892B09F447
:103BE000BEC20E942B192091300330913103809185
:103BF0002E0390912F03B901213231050CF4C9C174
:103C00006054710977FF02C06F5F7F4F75956795AC
:103C10008255910997FD019600E410E022E530E01D
:103C200049ED57E0959587950E94DA1482E08093DC
:103C30004C038091470390914803892B09F4BCC140
:103C40008CE380934B031092A00210929F0210927B
:103C5000AB021092AA020E9410168AE597E0909398
:103C60009E0280939D028BE597E090939C02809347
:103C70009B028091520387FD1EC061E00E94BC063A
:103C800061E0809152030E948E0661E070E080E066
:103C900090E00E941D0760E0809152030E948E0612
:103CA0006AE070E080E090E00E941D0761E0809192
:103CB00052030E948E068091470390914803892BFE
:103CC00009F407C220915F033091600340916103C2
:103CD0005091620360E074E284EF90E00E9413234D
:103CE0002051310941095109569547953795279536
:103CF0002093B80064E085EF95E00E94BB176091C7
:103D0000300361508AE293E00E94701864E081EF12
:103D100095E00E94BB1780914C0360E1813009F06F
:103D200064E18AE293E00E94701864E08DEE95E011
:103D30000E94BB178FE88093670380912E039091B8
:103D40002F038038910509F0DBC1809130039091F9
:103D500031038034910509F0E3C180914C03813037
:103D600009F0F1C18FE980936703C2E16AED8AE24D
:103D700093E00E9470186C2F8AE293E00E94701802
:103D800061E88AE293E00E947018609167038AE21A
:103D900093E00E94701869ED8AE293E00E94701827
:103DA00080914C0362E2813009F061EF8AE293E096
:103DB0000E94701866E087EE95E00E94BB17809124
:103DC000470390914803892B09F4BFC120916303F5
:103DD00030916403409165035091660360E074E2A2
:103DE00084EF90E00E9413232051310941095109C9
:103DF00056954795379527952093B8000E942B1923
:103E000082E080933E0380933F0381E090E09093B3
:103E10003D0380933C0390933B0380933A031092BD
:103E2000370310923603109239031092380361EA77
:103E300071E08AE293E00E94F71B80914703909122
:103E40004803892B09F48CC120915F0330916003F2
:103E5000409161035091620360E074E284EF90E06E
:103E60000E94132320513109410951095695479564
:103E7000379527952093B80064E089E99AE00E947D
:103E8000BB1780912E0390912F038034910509F088
:103E90007EC160E28AE293E00E94701860912E0376
:103EA000615E8AE293E00E947018209130033091A5
:103EB0003103C901079697FD0796F3E0959587951D
:103EC000FA95E1F720912E0330912F03829F800114
:103ED000839F100D929F100D1124C0914903D09122
:103EE0004A0380914703909148030C0F1D1F0097D0
:103EF00009F40AC220914B0331E03093AD022093C4
:103F0000AC021092AB021092AA02DC01ED91FC917E
:103F10000190F081E02D60E40995EE24E394F12C0A
:103F2000DD24D3948091470390914803C017D107B3
:103F300009F436C1B0E2EB16F104D8F00E94D416B1
:103F4000809147039091480320914B03D092AD029A
:103F50002093AC021092AB021092AA02DC01ED9108
:103F6000FC910190F081E02D60E40995EE24E3944A
:103F7000F12C80914703909148036991DC01ED9108
:103F8000FC910190F081E02D0995BFEFEB1AFB0A3F
:103F9000C9CF6052710977FF02C06F5F7F4F75957F
:103FA00067958357910997FD019600E210E023E79A
:103FB00030E049EF55E036CE61E0809150030E9439
:103FC000BC0661E0809151030E94BC0680915003C1
:103FD000082E000C990BFC01ED51F54FE491F0E037
:103FE000EE0FFF1FE752F54F2591349130935803A0
:103FF00020935703FC01EB53F54FE491E0935D03ED
:1040000080915103082E000C990BFC01ED51F54FE6
:10401000E491F0E0EE0FFF1FE752F54FA591B49148
:10402000B0935A03A0935903FC01EB53F54FE4916D
:10403000E0935E038C91E82BEC9380914503909183
:104040004603892B19F00E94DF0913CE61E08091AD
:104050004E030E94BC0661E080914F030E94BC06A3
:1040600080914E03082E000C990BFC01ED51F54F89
:10407000E491F0E0EE0FFF1FE752F54F25913491E8
:104080003093540320935303FC01EB53F54FE49119
:10409000E0935B0380914F03082E000C990BFC0109
:1040A000ED51F54FE491F0E0EE0FFF1FE752F54FB1
:1040B000A591B491B0935603A0935503FC01EB5323
:1040C000F54FE491E0935C038C91E095E823EC9349
:1040D000D0CD8091450390914603892B31F080919A
:1040E0006803909169030E94E40EE0915903F091F6
:1040F0005A03908180915E03809589238083FACD55
:104100008036910589F48091300390913103409776
:1041100039F480914C03813029F480E18093670366
:10412000C2E024CE8FEAFACF80349105C9F780919E
:10413000300390913103809799F780914C0381303F
:1041400011F480E110CE8FEC0ECEE0915903F09186
:104150005A03808190915E03892B80834FCEFFCFDD
:104160008091450390914603892B31F0809168033B
:10417000909169030E94E40EE0915903F0915A0373
:10418000908180915E0380958923808375CE60E065
:104190008AE293E00E94701860912E03615081CEF4
:1041A0000E94D4168091470390914803892B09F40B
:1041B000EDC02091630330916403409165035091F9
:1041C000660360E074E284EF90E00E9413232051C4
:1041D00031094109510956954795379527952093FF
:1041E000B80040E050E0BA018AE693E00E944D1921
:1041F00063E08AE693E00E94F00E70E060E08AE6F9
:1042000093E00E94D71310927703109276031092D6
:104210007903109278038FEF97E090937D0380935A
:104220007C0390937B0380937A0383E080937E03E7
:1042300080937F036AEA71E08AE693E00E94F71BAD
:1042400080EE9FEF90937D0380937C0390937B039C
:1042500080937A0382E080937E0380937F0367EBF1
:1042600071E08AE693E00E94F71B60ED71E08AE658
:1042700093E00E94F71B69ED71E08AE693E00E94EB
:10428000F71B812C912C5401839440E0242E40E0B4
:10429000342EC12C58EFD52EE1E0E0931B038FB7ED
:1042A000F8944091A6025091A7026091A8027091E3
:1042B000A9028FBF80910B0390910C03A0910D0375
:1042C000B0910E03481B590B6A0B7B0B80911703AF
:1042D00090911803B0E0A0E084179507A607B707F0
:1042E00008F062C1C0E080911503C81708F058C0FB
:1042F000E0911103F0911203EC0FF11D62E0808157
:104300000E94BC06CF5FEFCFE0915703F0915803B6
:10431000808190915D03892B80830C171D0709F420
:1043200041CF89912091450330914603232B19F009
:104330000E94DD0EF2CF28E030E040E8E091530328
:10434000F091540390915B03582F5423D9F050817E
:10435000952B9083E0915503F091560390815091F5
:104360005C03952B9083E0915503F09156035081A7
:1043700090915C0390959523908346952150310947
:10438000E9F6CBCF508190959523E3CFE091590387
:10439000F0915A03808190915E03892B808321CF15
:1043A000512C80911603581608F05FC0052D10E0BF
:1043B000E0911303F0911403E00FF11F61E080819D
:1043C0000E94BC06E0911303F0911403E00FF11F6B
:1043D00060E080810E948E06D501C401052C04C0D6
:1043E000880F991FAA1FBB1F0A94D2F73C017C01BA
:1043F000E094F094412C809115034816F8F4C42DF4
:10440000D0E0E0911103F0911203EC0FFD1F8081C9
:104410000E9465062496CC0FDD1FC155DD4F892B08
:1044200041F48881998186299729998388834394C7
:10443000E2CF888199818E219F21F7CFE0911303EC
:10444000F0911403E00FF11F61E080810E948E065D
:104450008091130390911403080F191F60E0D80195
:104460008C910E94BC0653949CCF0FEA12E0E801A5
:104470008F8D98A1892B31F41C8EEFEFFFEFFE8F0B
:10448000ED8F19A22696F2E0CB3EDF0789F7F12CDB
:1044900080911503F81608F053C0E12C6F2C712C95
:1044A000660C771CA30149545D4F3A012091160315
:1044B000E21608F043C0D3016D917C910E2C02C02E
:1044C000769567950A94E2F7F29E900111242E0DDD
:1044D000311DEFEAF2E080E0458D568D2417350757
:1044E00009F490C08F5F36968A30B1F760FF24C020
:1044F000EFEAF2E090E080E0448D411118C0E091D5
:104500000F03F0911003E20FF31F4081B6E0B89F54
:10451000F001B99FF00D1124E155FD4F448F368F06
:10452000258F10A2178E61E00E94CC0505C0019670
:1045300036968A30910501F7E394B8CFF394A8CF6B
:1045400080E0F80191A19111892F0A5F1F4FC017D8
:10455000D107B9F79FB7F8944091A6025091A702EE
:104560006091A8027091A9029FBF40930B035093E2
:104570000C0360930D0370930E038823A9F08091C0
:10458000D002882389F08091CE029091CF020197CA
:1045900059F4C091CB02C1110AC02114310409F4AD
:1045A0007BCE0E94000078CE10921B03F6CFF12C38
:1045B000E12C00E510E020E431E044E650E070E05A
:1045C00060E08AE693E00E943D0C1092770310921F
:1045D000760384E690E09093790380937803D092F9
:1045E0007D03C0927C03D0927B03C0927A03F8E0F3
:1045F000F0937E03F0937F036C2F8AE693E00E9492
:104600002E12CBCF617090CF86E491E090932B0374
:1046100080932A038091490390914A03009711F0F7
:104620000C94F5230895A1E21A2EAA1BBB1BFD01D1
:104630000DC0AA1FBB1FEE1FFF1FA217B307E40781
:10464000F50720F0A21BB30BE40BF50B661F771FD9
:10465000881F991F1A9469F76095709580959095B9
:104660009B01AC01BD01CF0108950E943D2333237E
:1046700012F48A1B9B0B0C944E23A29FB001B39F94
:10468000C001A39F700D811D1124911DB29F700D5B
:10469000811D1124911D08950E943D23B7FF0895A7
:1046A000821B930B0895EE0FFF1F0590F491E02DF0
:1046B00009940F931F93CF93DF938230910510F4E9
:1046C00082E090E0E091AF03F091B00330E020E0B1
:1046D000B0E0A0E0309799F42115310509F44AC003
:1046E000281B390B24303105D8F58A819B8161154F
:1046F000710589F1FB0193838283FE0111C0408122
:1047000051810281138148175907E0F04817590772
:1047100099F4109761F012960C93129713961C93CC
:104720003296CF01DF91CF911F910F9108950093A1
:10473000AF031093B003F4CF2115310551F04217A8
:10474000530738F0A901DB019A01BD01DF01F8012F
:10475000C1CFEF01F9CF9093B0038093AF03CDCFDA
:10476000FE01E20FF31F81939193225031093983A7
:104770002883D7CF2091AD033091AE03232B41F492
:1047800020912201309123013093AE032093AD0399
:1047900020912001309121012115310541F42DB7DF
:1047A0003EB74091240150912501241B350BE09127
:1047B000AD03F091AE03E217F307A0F42E1B3F0BFD
:1047C0002817390778F0AC014E5F5F4F2417350783
:1047D00048F04E0F5F1F5093AE034093AD0381939B
:1047E00091939FCFF0E0E0E09CCFCF93DF930097D1
:1047F000E9F0FC01329713821282A091AF03B091CD
:10480000B003ED0130E020E01097A1F42081318168
:10481000820F931F2091AD033091AE032817390703
:1048200009F061C0F093AE03E093AD03DF91CF9147
:104830000895EA01CE17DF07E8F54A815B819E0102
:1048400041155105B1F7E901FB83EA83499159917B
:10485000C40FD51FEC17FD0761F48081918102968A
:10486000840F951FE90199838883828193819B83BB
:104870008A83F0E0E0E012968D919C911397009767
:10488000B9F52D913C911197CD010296820F931F9E
:104890002091AD033091AE032817390739F63097D0
:1048A00051F51092B0031092AF03B093AE03A093F2
:1048B000AD03BCCFD383C28340815181840F951F48
:1048C000C817D90761F44E5F5F4F88819981480FFF
:1048D000591F518340838A819B8193838283211551
:1048E000310509F0B0CFF093B003E093AF039ECF52
:1048F000FD01DC01C0CF13821282D7CF81E090E0AE
:10490000F8940C948A24DC0101C06D93415050400E
:10491000E0F7089515E0CDE7D5E004C0FE010E9460
:0E49200053232196CE37D107C9F7F894FFCF65
:10492E00FFFFFFFFFFFFFFFF03021514070605043D
:10493E003132334334353654373839532A302350D5
:10494E000000B103800000000000A516781628199B
:10495E00A80571165E164F16000000004F0753078C
:10496E005707000000002E125C072819E8153009C1
:10497E00A805D314AB14C714BB143B15A805F40F2C
:10498E00D218A008E908F413D7135F130013000020
:10499E0000002E125C072819E8152F0BE20F9F0E50
:1049AE00360EB50DF60D3B15D20EF00ED80FD30CFC
:1049BE00440DC20CD7135F1300134D19AA0A0D0A2A
:1049CE00004E616E6F204F4B2100414D504C4946B9
:1049DE0049434153542100454C455641544F5220B2
:1049EE0053495354454D20556F50656F706C65009B
:1049FE0057656C636F6D65210053656C656374203C
:0A4A0E006120666C6F6F722E0000CD
:00000001FF
