:020000040000FA
:100000000C9417040C9448040C9448040C94480471
:100010000C9448040C9448040C9448040C94480430
:100020000C9448040C9448040C9448040C94480420
:100030000C9448040C94BE1E0C9448040C94480480
:100040000C9448040C9448040C9448040C94480400
:100050000C9448040C9448040C9448040C94741EAA
:100060000C9448040C94481F0C941E1F0C944804D4
:100070000C9448040C9448040C9448040C944804D0
:100080000C9448040C9448040C9448040C944804C0
:100090000C9448040C9448040C9448040C947E1F5F
:1000A0000C9448040C9448040C9448040C944804A0
:1000B0000C9448040C9448040C9448040C94480490
:1000C0000C9448040C9448040C9448040C94480480
:1000D0000C9448040C9448040C9448040C94480470
:1000E0000C9448040C940D060C946D0A0C94370C77
:1000F0000C948C0F0C9467100C94580E0C949E204A
:100100000C945D160C94F1050C9409170C94F505EC
:100110000C94DA0E0C94B1130C944A0A0C94E2106D
:100120000C94590A0C9483140C94EB050C94E2146F
:100130000C94E4050C94FF050C944B0F0C941706DB
:100140000C94C50C0C94DC050C9435100C94140A1A
:100150000C9403060C9416060C94000B0C94631A72
:100160000C946B110C94D8100C94B30A0C94690E77
:100170000C94E0050C945A150C9409060C94D605C1
:100180000C9411060C94CC0F0C94FB050C940A17DC
:100190000C947B0A0C941B060C94E80500000000EC
:1001A000003E5B4F5B3E3E6B4F6B3E1C3E7C3E1CFD
:1001B000183C7E3C181C577D571C1C5E7F5E1C0043
:1001C000183C1800FFE7C3E7FF0018241800FFE7FA
:1001D000DBE7FF30483A060E2629792926407F05BD
:1001E0000507407F05253F5A3CE73C5A7F3E1C1CD3
:1001F00008081C1C3E7F14227F22145F5F005F5F93
:1002000006097F017F006689956A6060606060947E
:10021000A2FFA29408047E040810207E2010080883
:100220002A1C08081C2A08081E101010100C1E0C8E
:100230001E0C30383E3830060E3E0E060000000020
:100240000000005F00000007000700147F147F1407
:10025000242A7F2A1223130864623649562050004C
:1002600008070300001C2241000041221C002A1C38
:100270007F1C2A08083E0808008070300008080823
:100280000808000060600020100804023E51494543
:100290003E00427F400072494949462141494D3361
:1002A0001814127F1027454545393C4A49493141C8
:1002B000211109073649494936464949291E000096
:1002C00014000000403400000008142241141414EB
:1002D0001414004122140802015909063E415D59D7
:1002E0004E7C1211127C7F494949363E41414122E0
:1002F0007F4141413E7F494949417F090909013E0A
:10030000414151737F0808087F00417F4100204030
:10031000413F017F081422417F404040407F021C42
:10032000027F7F0408107F3E4141413E7F09090959
:10033000063E4151215E7F09192946264949493225
:1003400003017F01033F4040403F1F2040201F3FEB
:100350004038403F63140814630304780403615970
:10036000494D43007F4141410204081020004141B2
:10037000417F04020102044040404040000307085E
:100380000020545478407F2844443838444444285A
:10039000384444287F385454541800087E09021801
:1003A000A4A49C787F0804047800447D4000204089
:1003B000403D007F1028440000417F40007C0478CD
:1003C00004787C080404783844444438FC18242415
:1003D0001818242418FC7C08040408485454542495
:1003E00004043F44243C4040207C1C2040201C3C12
:1003F0004030403C44281028444C9090907C446409
:10040000544C44000836410000007700000041369B
:10041000080002010204023C2623263C1EA1A16121
:10042000123A4040207A3854545559215555794153
:100430002254547842215554784020545579400C28
:100440001E5272123955555559395454545939550B
:100450005454580000457C410002457D420001454E
:100460007C407D1211127DF0282528F07C545545E2
:10047000002054547C547C0A097F4932494949324E
:100480003A4444443A324A4848303A4141217A3A5F
:1004900042402078009DA0A07D3D4242423D3D402B
:1004A00040403D3C24FF2424487E4943662B2FFCDA
:1004B0002F2BFF0929F620C0887E09032054547988
:1004C000410000447D413048484A32384040227A59
:1004D000007A0A0A727D0D19317D2629292F2826D6
:1004E0002929292630484D402038080808080808DE
:1004F0000808382F10C8ACBA2F102834FA00007B37
:10050000000008142A142222142A14085500550049
:1005100055AA55AA55AAFF55FF55FF000000FF0038
:10052000101010FF00141414FF001010FF00FF1033
:1005300010F010F0141414FC001414F700FF000065
:10054000FF00FF1414F404FC141417101F10101FE4
:10055000101F1414141F00101010F0000000001FD2
:10056000101010101F10101010F010000000FF10DD
:100570001010101010101010FF10000000FF1400D9
:1005800000FF00FF00001F10170000FC04F414140B
:100590001710171414F404F40000FF00F7141414D7
:1005A00014141414F700F7141414171410101F1057
:1005B0001F141414F4141010F010F000001F101F7A
:1005C0000000001F14000000FC140000F010F010E8
:1005D00010FF10FF141414FF141010101F0000005F
:1005E00000F010FFFFFFFFFFF0F0F0F0F0FFFFFF63
:1005F0000000000000FFFF0F0F0F0F0F38444438BA
:1006000044FC4A4A4A347E02020606027E027E0208
:1006100063554941633844443C04407E201E200613
:10062000027E020299A5E7A5991C2A492A1C4C7250
:1006300001724C304A4D4D303048784830BC625AD7
:10064000463D3E494949007E0101017E2A2A2A2A67
:100650002A44445F444440514A444040444A514043
:100660000000FF0103E080FF000008086B6B083604
:1006700012362436060F090F060000181800000075
:100680001010003040FF0101001F01011E00191D64
:100690001712003C3C3C3C0000000000EF030380CC
:1006A00002CF0300C130ED0464031281E80385002A
:1006B00078CB05392C003402F70120EA020000C093
:1006C0000123C10110C5023E28C701863601483703
:1006D00001003A0155B1020018B603088227F20161
:1006E00000260101E00F0F312B0C0E084EF13707E9
:1006F00010030E0900E10F000E1403110731C14869
:10070000080F0C31360F11802980000000210024D1
:100710000027002A002D00300033000101000004F2
:100720000107010A01000020002300260029002CF7
:10073000002F003200000100000301060109010042
:10074000000A0B02090C0D0E08070304010000004B
:100750000000000000000000000000000000000099
:100760000000000000000000000000121110000056
:100770000000000000000000000000000000000079
:100780000000000000020102102020080810204094
:100790001020408002010201080402010102040845
:1007A00010204080804020100804020180040201D3
:1007B000804020100804020108040201010204081C
:1007C0001020408001020408102040800000220018
:1007D000250028002B002E0031003400020100000B
:1007E000050108010B0105050505070508080808AE
:1007F000020202020A0A08080404040401010101B9
:1008000001010101030303030303030304070707B3
:100810000C0C0C0C0C0C0C0C020202020606060658
:10082000060606060B0B0B0B0B0B0B0B9E20112465
:100830001FBECFEFD1E2DEBFCDBF00E00CBF12E0A4
:10084000A0E0B2E0E6E4F3E500E00BBF02C00790F1
:100850000D92A83FB107D9F725E0A8EFB2E001C09B
:100860001D92AC36B207E1F714E0C7E1D4E000E036
:1008700006C021970109802FFE010E945B27C63127
:10088000D10780E00807A9F70E946B210C94A129E9
:100890000C9400002F923F924F925F926F927F9242
:1008A0008F929F92AF92BF92CF92DF92EF92FF9280
:1008B0000F931F93CF93DF93CDB7DEB76D970FB62E
:1008C000F894DEBF0FBECDBF7A8769875C874B8700
:1008D0003E872D87188B0F87FB0111821082FA014A
:1008E00011821082F80111821082F90111821082A6
:1008F00020903E0530903F0520913C052C83F090E0
:1009000039052F2D30E0388F2F8B46E0F49E900173
:1009100011243E832D83A0902D05B0902E05E090EC
:100920003A05E8E0EE9E6001112491012C5F3F4FF3
:100930003A8B298B2E5F3F4F3C8B2B8B24503109F8
:100940003A8F298F2A5F3F4F3B832A8398878F8373
:1009500044244A94542CAFEFBFEF8FEF9FE79C8F56
:100960008B8F0FEF1FE770E060E050E040E0EF8119
:10097000F8858191F887EF83882309F4C0C021149A
:10098000310409F487C08A3041F4EA81FB81849103
:100990008E9D600D711D1124E8CF8D3041F3E989E2
:1009A000FA899491EB89FC892491891700F328171F
:1009B000F0F2E98DFA8D25913491891BF7E08F9F34
:1009C000200D311D1124F9013296849189833196CD
:1009D00094919D8B319684918E8B319684912A5F70
:1009E0003F4FF901F491FD8F2C812223F1F03981E1
:1009F000632E712C680E711C87FD7A942F89388DB7
:100A0000629E4001639E900C729E900C1124840E95
:100A1000951EA814B9044CF4EA81FB8194919E9D23
:100A2000600D711D112450E040E02F2D382F32034E
:100A3000C0011124840F951F2E2D3D8D3203F0012E
:100A400011249F01260F371F801791070CF48C018A
:100A5000EB8DFC8D2E173F0714F43C8F2B8FF98103
:100A6000FF9D800D911D11240197A817B9070CF463
:100A7000DC018D898E9D200D311D112421503109FD
:100A8000421653060CF429019E899F9D400D511D6D
:100A900011246DCF8A3019F46C0D7D1D66CF8D3019
:100AA00009F465CF2C81222359F08D819E81840F1A
:100AB000951FA816B90624F46C0D7D1D50E040E08A
:100AC0002D813E81240F351FC9010197A817B90751
:100AD0000CF4DC01C601860F971F019748165906D2
:100AE0000CF42C01401751070CF48A018B8D9C8D5E
:100AF0006817790714F47C8F6B8FA90138CFA01782
:100B0000B1075CF0E985FA8511830083A01BB10B66
:100B10001196ED85FE85B183A0832B8D3C8D421609
:100B200053066CF0EB85FC8531832083421A530A0F
:100B3000FFEF4F1A5F0AEF85F889518240826D9668
:100B40000FB6F894DEBF0FBECDBFDF91CF911F91DE
:100B50000F91FF90EF90DF90CF90BF90AF909F905C
:100B60008F907F906F905F904F903F902F9008955F
:100B70008150823108F05AC0E82FF0E08827EC530A
:100B8000FA4F8F4F0C945B27E405E805D605DC058A
:100B9000E0051606EB05F105F505FB05FF05030667
:100BA00009060D061606110617061B068091800021
:100BB0008F77809380000895809180008F7DF9CF9A
:100BC00080918000877FF5CF84B58F7784BD0895AD
:100BD00084B58F7DFBCF8091B0008F778093B0007C
:100BE00008958091B0008F7DF9CF809190008F772C
:100BF000809390000895809190008F7DF9CF80912F
:100C00009000877FF5CF8091A0008F778093A00020
:100C100008958091A0008F7DF9CF8091A000877FFB
:100C2000F5CF809120018F778093200108958091E6
:100C300020018F7DF9CF80912001877FF5CFCF9361
:100C4000DF93282F30E0F901E15CF84F8491F9013E
:100C5000EA57F84FD491F901EA51F84FC491CC23E7
:100C6000A1F081110E94B805EC2FF0E0EE0FFF1FFC
:100C7000EB5DF84FA591B491EC91ED2381E090E00C
:100C800009F480E0DF91CF91089580E090E0FACF01
:100C90001F93CF93DF93282F30E0F901E15CF84FE9
:100CA0008491F901EA57F84FD491F901EA51F84FCC
:100CB000C491CC23A9F0162F81110E94B805EC2F06
:100CC000F0E0EE0FFF1FE453F84FA591B4918FB7FA
:100CD000F894EC91111108C0D095DE23DC938FBFFE
:100CE000DF91CF911F910895DE2BF8CFCF93DF9343
:100CF00090E0FC01EA57F84F24918A51984FFC018B
:100D000084918823C9F090E0880F991FFC01E55F6A
:100D1000F84FA591B491FC01E453F84FC591D491DB
:100D200061110DC09FB7F8948C91209582238C930C
:100D30008881282328839FBFDF91CF910895623057
:100D400051F49FB7F8943C91822F809583238C9324
:100D5000E8812E2BEFCF8FB7F894EC912E2B2C93AC
:100D60008FBFEACF8F929F92AF92BF92CF92DF92C6
:100D7000EF92FF92CF936C0180910902873069F066
:100D80008F3F09F477C0CF91FF90EF90DF90CF9025
:100D9000BF90AF909F908F900895E5E8F7E0C491E1
:100DA000C7FDF1CF61E087E00E947606CC2319F001
:100DB000C23009F0C8C1F12CE12C60E072E18AE791
:100DC00090E0A70196010E94E42649015A01BA0168
:100DD000A90141505109610971094F3F5105610550
:100DE000710509F00CF494C160E472E48FE090E0C6
:100DF000A70196010E94E426BA01A90141505109B8
:100E000061097109C23009F009C182E04F3F510503
:100E10006105710509F00CF446C160E970ED83E0ED
:100E200090E0A70196010E94E426BA01A901415071
:100E300051096109710983E04F3F51056105710551
:100E400009F00CF430C168E478EE81E090E0A7018D
:100E500096010E94E426BA01A90141505109610995
:100E600071094F3F51056105710511F00CF02CC15E
:100E700084E019C187E080930902E5E8F7E0C491B6
:100E80008C2FCF3F09F47FCFC23009F468C060F4E3
:100E9000CC2379F1C13009F444C087FD74CF61E0FF
:100EA00087E00E94760684CFC43009F499C008F424
:100EB00078C0C53091F710922001109221018091E5
:100EC00021018860809321018091210181608093BC
:100ED0002101EDEEF7E0E491F0E0EE0FFF1FE453A7
:100EE000F84F85919491EDE8F7E0E491E093670481
:100EF00059CF14BC15BC84B5826084BD85B58160B2
:100F000085BDEDEEF7E0E491F0E0EE0FFF1FE45356
:100F1000F84F85919491EDE8F7E0E491E0936E0449
:100F200041CF1092800010928100809181008860F2
:100F30008093810080918100816080938100EDEE3B
:100F4000F7E0E491F0E0EE0FFF1FE453F84F8591D6
:100F50009491EDE8F7E0E491E0936D0423CF1092D3
:100F6000B0001092B1008091B00082608093B00018
:100F70008091B10081608093B100EDEEF7E0E491E3
:100F8000F0E0EE0FFF1FE453F84F8591949190939A
:100F90006C0480936B04EDE8F7E0E491E0936A045D
:100FA00001CF109290001092910080919100886082
:100FB0008093910080919100816080939100EDEE8B
:100FC000F7E0E491F0E0EE0FFF1FE453F84F859156
:100FD0009491EDE8F7E0E491E0936904C3E0E2CE98
:100FE0001092A0001092A1008091A10088608093CF
:100FF000A1008091A10081608093A100EDEEF7E057
:10100000E491F0E0EE0FFF1FE453F84F85919491C7
:10101000EDE8F7E0E491E0936804C4CE4F3F51055A
:101020006105710509F00CF48CC068E478EE81E08C
:1010300090E0A70196010E94E426BA01A90141505F
:10104000510961097109CC2309F449C14F3F510588
:101050006105710509F00CF40BCF62E17AE780E0DD
:1010600090E0A70196010E94E426BA01A90141502F
:10107000510961097109CC2309F41AC186E04F3F77
:1010800051056105710579F070F0B501A4019AE090
:1010900075956795579547959A95D1F741505109A0
:1010A0006109710987E09091B100987F892B809345
:1010B000B100C23009F4E9C00CF0E0C0CC2379F1F2
:1010C000C13009F060CE6DC064E274EF80E090E062
:1010D000A70196010E94E426BA01A90141505109D5
:1010E0006109710985E04F3F510561057105D9F22C
:1010F000D0F262E17AE780E090E0A70196010E94D9
:10110000E426BA01A9014150510961097109B6CF1C
:1011100081E0C111C8CF95B5987F892B85BD47BDAA
:101120008FEF9FEFDC018093830490938404A0935E
:101130008504B093860480916E00826080936E0077
:1011400022CE82E0E6CFF12CE12C60E072E18AE76A
:1011500090E0A70196010E94E426BA01A90141503E
:1011600051096109710991E04115510581E0680754
:1011700071057CF068E478EE81E090E0A7019601CB
:101180000E94E426BA01A90141505109610971097F
:1011900093E0C130D9F480918100887F892B8093BE
:1011A000810050938900409388008FEF9FEFDC010E
:1011B00080937F0490938004A0938104B093820471
:1011C00080916F00826080936F00DDCDC330D9F4D1
:1011D00080919100887F892B809391005093990092
:1011E000409398008FEF9FEFDC01809377049093FA
:1011F0007804A0937904B0937A048091710082609E
:1012000080937100C0CDC430D9F48091A100887F53
:10121000892B8093A1005093A9004093A8008FEFE1
:101220009FEFDC018093730490937404A093750482
:10123000B093760480917200826080937200A3CD97
:10124000C53009F036CF80912101887F892B8093AA
:10125000210150932901409328018FEF9FEFDC017A
:1012600080936F0490937004A0937104B093720400
:101270008091730082608093730085CDC43059F2F1
:101280000CF4ACCFC53029F37ECD4093B3008FEF83
:101290009FEFDC0180937B0490937C04A0937D04FA
:1012A000B0937E04809170008260809370006BCD5B
:1012B00084E04F3F51056105710509F008F42BCF1B
:1012C000B501A4018AE075956795579547958A956C
:1012D000D1F7415051096109710985E01CCF83E0C4
:1012E0004F3F51056105710509F00CF414CFB5CEDF
:1012F0003FB7F8948091630490916404A0916504D1
:10130000B091660426B5A89B05C02F3F19F0019641
:10131000A11DB11D3FBFBA2FA92F982F8827BC014F
:10132000CD01620F711D811D911D42E0660F771F77
:10133000881F991F4A95D1F708958F929F92AF9277
:10134000BF92CF92DF92EF92FF924B015C010E941D
:1013500078096B017C010E9478096C197D098E095E
:101360009F09683E734081059105A8F321E0821A28
:101370009108A108B10888EEC80E83E0D81EE11CD0
:10138000F11C81149104A104B10429F7FF90EF909E
:10139000DF90CF90BF90AF909F908F9008959091E5
:1013A000090289130DC0E5E8F7E0E4919FEF9093FF
:1013B0000902E230E1F038F4EE2381F0E13089F007
:1013C00060E00C944806E43049F110F1E530C1F7D3
:1013D000909173009D7F90937300F2CF10926E00F6
:1013E000EFCF90916F009D7F90936F00E9CF909128
:1013F00070009D7F9093700091E09093B000909169
:10140000B100987F94609093B1001092B300D8CF50
:10141000909171009D7F90937100D2CF9091720056
:101420009D7F90937200CCCFAF92BF92CF92DF920C
:10143000EF92FF920F931F93CF93DF936C017B0189
:101440008B01040F151FEB015E01AE18BF08C0171A
:10145000D10759F06991D601ED91FC910190F0818D
:10146000E02DC6011995892B79F7C501DF91CF9140
:101470001F910F91FF90EF90DF90CF90BF90AF90B2
:101480000895FC01448155816081718185E295E078
:101490000C94140AFC01538D448D252F30E0842FC9
:1014A00090E0821B930B541710F0CF96089501978C
:1014B0000895FC01918D828D981761F0A28DAE0F79
:1014C000BF2FB11D5D968C91928D9F5F9F73928F00
:1014D00090E008958FEF9FEF0895FC01918D828D2C
:1014E000981731F0828DE80FF11D858D90E00895F9
:1014F0008FEF9FEF0895FC01918D228D892F90E051
:10150000805C9F4F821B91098F739927089587E80C
:1015100094E00E947B0A21E0892B09F420E0822FCD
:101520000895FC01A48DA80FB92FB11DA35ABF4F78
:101530002C91848D90E001968F739927848FA689D2
:10154000B7892C93A089B1898C91837080648C9326
:10155000938D848D981306C00288F389E02D8081D5
:101560008F7D80830895EF92FF920F931F93CF9307
:10157000DF93EC0181E0888F9B8D8C8D98131AC0CE
:10158000E889F989808185FF15C09FB7F894EE89B5
:10159000FF896083E889F989808183708064808312
:1015A0009FBF81E090E0DF91CF911F910F91FF905D
:1015B000EF900895F62E0B8D10E00F5F1F4F0F7305
:1015C0001127E02E8C8D8E110CC00FB607FCFACFC0
:1015D000E889F989808185FFF5CFCE010E94910AC3
:1015E000F1CFEB8DEC0FFD2FF11DE35AFF4FF08291
:1015F0009FB7F8940B8FEA89FB8980818062CFCFF7
:10160000CF93DF93EC01888D8823B9F0AA89BB8939
:10161000E889F9898C9185FD03C0808186FD0DC024
:101620000FB607FCF7CF8C9185FFF2CF808185FF45
:10163000EDCFCE010E94910AE9CFDF91CF910895BD
:1016400080E090E0892B29F00E94870A81110E9496
:10165000000080E090E0892B49F080E090E0892B49
:1016600029F00E94000081110E94000080E090E0BB
:10167000892B49F080E090E0892B29F00E9400003E
:1016800081110E94000080E090E0892B49F080E009
:1016900090E0892B29F00E94000081110C94000039
:1016A000089520912303260F3327331F213231055C
:1016B000ECF420914703FC0190E080E0243069F0D5
:1016C00082E00895A09123032191AC014D5F5C4F0E
:1016D000A40FB52FB11D2C930196861798F3809116
:1016E0002303680F6093230380E0089581E0089549
:1016F00008958FEF9FEF08958FEF9FEF08958091EA
:10170000FC0290E09195819591090895CF93DF9324
:10171000CB01EA01642F0E94510BCE01DF91CF91E2
:101720000895CF93DF931F92CDB7DEB7698361E051
:10173000CE0101960E94510B81E090E00F90DF9165
:10174000CF910895FC01A5A1B6A18C9192A5892302
:101750008C93A5A1B6A18C9191A5892B8C9308950A
:101760000F931F93CF93DF93EC018B018DA9811110
:101770000DC01EBD0DB407FEFDCF0EBD0DB407FE9E
:10178000FDCFDF91CF911F910F9108958130E9F442
:1017900080E1E9A1FAA1908117FF14C02DA1922B3D
:1017A0009083EBA1FCA190812FA1922B9083EBA1C0
:1017B000FCA1908128A592239083000F111F8150D6
:1017C00041F7DFCF2EA19223EBCFEF8DF8A110834D
:1017D000CE010E94A20BEF8DF8A10083CE01DF9114
:1017E000CF911F910F910C94A20BFC0185A981113F
:1017F00005C06EBD0DB407FEFDCF08958130E1F444
:1018000088E0A1A1B2A19C9167FF13C025A1922BF2
:101810009C93A3A1B4A19C9127A1922B9C93660FAA
:10182000A3A1B4A19C9120A592239C93815049F738
:10183000089526A19223ECCFA78DB0A16C93CF0180
:101840000C94A20BCF93DF93EC01ED8DFE8D808184
:101850009CA989238083CE010E94F50BED8DFE8D1E
:1018600080819BA9892B8083DF91CF910895AF92CE
:10187000BF92CF92DF92EF92FF920F931F93CF937D
:10188000DF93EC015B016A01215031097901E60E19
:10189000F71E01501109040F151F80910602909147
:1018A00007028617970739F4809104029091050288
:1018B0008E159F05A1F06AE2CE010E94220CB501AF
:1018C000CE010E94B00BB701CE010E94B00BB092C6
:1018D0000702A0920602F0920502E09204028091B3
:1018E0000202909103028C159D0539F4809100024B
:1018F0009091010280179107A1F06BE2CE010E9446
:10190000220CB601CE010E94B00BB801CE010E949C
:10191000B00BD0920302C092020210930102009316
:1019200000026CE2CE01DF91CF911F910F91FF90E9
:10193000EF90DF90CF90BF90AF900C94220CFC0101
:1019400085A9811104C091A182A19CBD8DBD08957E
:101950001F93CF93DF93EC01162FE881F981028466
:10196000F385E02D1995112371F06DADCE010E9424
:10197000220CE881F9810688F789E02DCE01DF91FC
:10198000CF911F9119946EADF1CFAF92BF92CF92CC
:10199000DF92EF92FF920F931F93CF93DF93EC01AF
:1019A00077FD38C088859985681779079CF557FDBC
:1019B00031C08A859B854817590764F569017A010A
:1019C0005B01E881F9810284F385E02DCE01199550
:1019D000E881F98102A4F3A5E02D01E010E021E007
:1019E00030E0A701B501CE011995B601CE010E94E4
:1019F000B00BE881F9810688F789E02DCE01DF91EF
:101A0000CF911F910F91FF90EF90DF90CF90BF90FB
:101A1000AF901994DF91CF911F910F91FF90EF90AC
:101A2000DF90CF90BF90AF9008958F929F92AF922A
:101A3000BF92CF92DF92EF92FF920F931F93CF93BB
:101A4000DF93EC0149015701E881F98102A4F3A574
:101A5000E02D19959401D8010E9463276B017C0148
:101A6000C114D104E104F10409F490C08DA98111DD
:101A700015C081E0C81AD108E108F1088FEFC81637
:101A8000D806E806F80609F481C0BEBC0DB407FE0E
:101A9000FDCFAEBC0DB407FEFDCFEBCF813009F01A
:101AA00045C081E0C81AD108E108F1088FEFC816D7
:101AB000D806E806F80609F469C09B2D88E0E9A17C
:101AC000FAA1208197FF2CC03DA1232B2083EBA1FD
:101AD000FCA120813FA1232B2083EBA1FCA120812D
:101AE00038A523232083990F815049F79A2D88E048
:101AF000E9A1FAA1208197FF16C03DA1232B2083E5
:101B0000EBA1FCA120813FA1232B2083EBA1FCA111
:101B1000208138A523232083990F815049F7C1CF15
:101B20003EA12323D3CF3EA12323E9CFBA1016C071
:101B3000CC0CDD1CEE1CFF1CEF8DF8A1B08281E007
:101B4000C81AD108E108F1088FEFC816D806E806D0
:101B5000F806E1F0CE010E94A20BF1CF81E0C81A95
:101B6000D108E108F1088FEFC816D806E806F80694
:101B700069F0EF8DF8A1B082CE010E94A20BEF8D2B
:101B8000F8A1A082CE010E94A20BE8CFDF91CF91F5
:101B90001F910F91FF90EF90DF90CF90BF90AF908B
:101BA0009F908F9008958F929F92AF92BF92CF9205
:101BB000DF92EF92FF920F931F93CF93DF934C012D
:101BC000EB016A01590137FF07C0C9010196C80F2F
:101BD000D91FB194A194B108F401A085B185CA17A9
:101BE000DB070CF058C017FF07C0C8010196C80EEC
:101BF000D91E119501951109F40182859385C816A6
:101C0000D9060CF048C0FE01EA0DFB1DAF014150A2
:101C1000510957FD40C0B601600F711F9B01215053
:101C2000310937FD38C0D7FF03C05F01D0E0C0E005
:101C3000D7FE03C08B01D12CC12C4A175B071CF0C7
:101C40005D01AC1ABD0A281739071CF08C010C196C
:101C50001D09D401ED91FC910284F385E02DC401AE
:101C600019959501A601BE01C4010E94150DD4016C
:101C7000ED91FC910688F789E02DC401DF91CF91A9
:101C80001F910F91FF90EF90DF90CF90BF90AF909A
:101C90009F908F901994DF91CF911F910F91FF909A
:101CA000EF90DF90CF90BF90AF909F908F9008956E
:101CB000EF92FF920F931F932115310529F0011523
:101CC000110511F00E94D30D1F910F91FF90EF901D
:101CD00008958F929F92AF92BF92CF92DF92EF9230
:101CE000FF920F931F93CF93DF935C014B016A0127
:101CF000E90177FD52C0DC0118968D919C9168171F
:101D000079070CF04AC0209709F447C037FF07C095
:101D1000C9010196C80ED91ED195C195D109F50109
:101D200082859385C816D906C4F5A6014C0F5D1FA0
:101D30009A012150310937FD30C0D7FE03C0EA01B6
:101D4000D12CC12C281739071CF0EC01CC19DD0966
:101D5000D501ED91FC910284F385E02DC501199523
:101D600078018E0121E030E0A601B401C5010E9496
:101D7000150DD501ED91FC910688F789E02DC5017F
:101D8000DF91CF911F910F91FF90EF90DF90CF9057
:101D9000BF90AF909F908F901994DF91CF911F913A
:101DA0000F91FF90EF90DF90CF90BF90AF909F90FA
:101DB0008F9008958F929F92AF92BF92CF92DF92B1
:101DC000EF92FF920F931F93CF93DF935C016B0110
:101DD0004A01E90157FD52C0DC011A968D919C9190
:101DE000481759070CF04AC0209709F447C037FF3D
:101DF00007C0C9010196C80ED91ED195C195D10958
:101E0000F50180859185C816D906C4F5A6014C0F49
:101E10005D1F9A012150310937FD30C0D7FE03C044
:101E2000EA01D12CC12C281739071CF0EC01CC1980
:101E3000DD09D501ED91FC910284F385E02DC5010A
:101E40001995780101E010E09E01A401B601C501D9
:101E50000E94150DD501ED91FC910688F789E02DC2
:101E6000C501DF91CF911F910F91FF90EF90DF900F
:101E7000CF90BF90AF909F908F901994DF91CF91AA
:101E80001F910F91FF90EF90DF90CF90BF90AF9098
:101E90009F908F900895EF92FF920F931F93CF938F
:101EA000DF9377FD32C0DC011896ED91FC916E173F
:101EB0007F075CF52115310541F137FF07C0F901B6
:101EC00031964E0F5F1F319521953109DC011A962D
:101ED000ED91FC914E175F07C4F4EA01C20FD31FC6
:101EE000DE011197B7FD11C057FF03C09E0150E0FE
:101EF00040E0AE17BF071CF09F01241B350B780193
:101F0000890121E030E00E94150DDF91CF911F91F2
:101F10000F91FF90EF900895EF92FF920F931F9310
:101F2000CF93DF9357FD31C0DC011A96ED91FC9100
:101F30004E175F0754F52115310539F137FF07C0FA
:101F4000F90131966E0F7F1F319521953109DC0122
:101F50001896ED91FC916E177F07BCF4EB01C20F50
:101F6000D31FDE011197B7FD10C077FF03C09E019C
:101F700070E060E0AE17BF071CF09F01261B370B17
:101F8000780101E010E00E94150DDF91CF911F91C3
:101F90000F91FF90EF9008958F929F92AF92BF9212
:101FA000CF92DF92EF92FF920F931F93CF93DF9325
:101FB00047012115310509F44BC00115110509F43C
:101FC00047C037FF07C0F90131966E0F7F1F31956B
:101FD00021953109DC011896AD90BC906A157B05FE
:101FE000BCF517FF07C0F80131964E0F5F1F119522
:101FF00001951109DC011A96ED91FC914E175F07CE
:102000003CF56B01C20ED31EE6012197D7FD20C01F
:102010007A01E00EF11ED7011197B7FD19C077FFC5
:1020200003C0960170E060E057FF03C0870150E0F5
:1020300040E0CA15DB051CF09501261B370BAE17D7
:10204000BF071CF08F01041B150B74010E94150DB6
:10205000DF91CF911F910F91FF90EF90DF90CF9084
:10206000BF90AF909F908F900895EF92FF920F9343
:102070001F93CF93DF93EC0177FD22C0888599856C
:1020800068177907ECF457FD1BC08A859B854817B4
:102090005907B4F47901E881F98102A4F3A5E02D90
:1020A00001E010E021E030E0CE011995B701CE014A
:1020B000DF91CF911F910F91FF90EF900C94B00B97
:1020C000DF91CF911F910F91FF90EF900895CF93E3
:1020D000DF93EC010E949F0C8FA987FD06C0EB8D5A
:1020E000FC8D80819AA989238083DF91CF91089507
:1020F0000895AF92BF92CF92DF92EF92FF920F932B
:102100001F93CF93DF93EC01E62E8A01A22E0E944B
:102110009F0C8FA987FD06C0EB8DFC8D80819AA94D
:1021200089238083ED8DFE8D80819CA98923808306
:102130006E2DCE010E94F50BED8DFE8D80819BA949
:10214000892B8083D12CC12CB12CCA14DB04E4F47C
:102150008DA97801823079F488A9882361F0F8018B
:10216000619171917F01CE010E94B00BFFEFCF1AF8
:10217000DF0A8701EACFFFEFEF1AFF0AF801649147
:10218000CE010E94F50BF2CF8FA987FD06C0EB8D23
:10219000FC8D808199A9892B8083DF91CF911F913C
:1021A0000F91FF90EF90DF90CF90BF90AF90089588
:1021B000611106C060E220E050E040E00C9479102C
:1021C00061E2F9CF0F931F93CF93DF931F92CDB7A7
:1021D000DEB78C016370DC0156966C9356976230C3
:1021E00009F468C0633009F46AC0613009F456C06C
:1021F00088E4898380EF90E019969C938E931897DA
:1022000080E491E01B969C938E931A97C8010E94DC
:102210009F0CD801D7968C91D79787FD09C05B9604
:10222000ED91FC915C978081D2969C91892380836B
:10223000D8015D96ED91FC915E978081D4969C913A
:102240008923808366E3C8010E94F50BD8015D965F
:10225000ED91FC915E978081D3969C91D397892BC9
:102260008083D5968C91823061F16981C8010E948A
:10227000F50BD801D7968C91D79787FD09C05B964F
:10228000ED91FC915C978081D1969C91892B808304
:102290000F90DF91CF911F910F91089588E289836C
:1022A00080E491E0F8019187808780EF90E0938748
:1022B0008287ACCF88E8898380EF90E09DCF88EE5D
:1022C000EECFF80180A9882381F269817A81C80163
:1022D0000E94B00BCECFFC0187A987FD06C0A38D5D
:1022E000B48D9C9181A9892B8C9308950895FC014C
:1022F0006370668B8481958126813781613039F0E6
:10230000633029F09187808733872287089531874A
:1023100020879387828708952F923F924F925F92F2
:102320006F927F928F929F92AF92BF92CF92DF92E5
:10233000EF92FF920F931F93CF93DF93CDB7DEB74A
:102340006A970FB6F894DEBF0FBECDBF9A8F898F04
:102350007A8369834A01D22E18870F833701BC2CF8
:10236000DC0159962D913C915A972115310509F0C0
:1023700015C118968D919C911997681779070CF0E3
:10238000D7C11A968D919C91481759070CF0D0C16E
:102390004C2C512CB6E0CB9E600D711D11247C8716
:1023A0006B87161617060CF0C3C1EA2DF0E0FA870A
:1023B000E98793E0EE0FFF1F9A95E1F7F88BEF871F
:1023C000CF01840F951F181619060CF0B1C1A98D05
:1023D000BA8D58968C91811104C0BFEABD1508F4DE
:1023E000D394A98DBA8DED91FC9111970284F38558
:1023F000E02DCD011995B5E0DB9EC0011124E981E6
:10240000FA81FC83EB83312C212C9C0124563E4F16
:10241000388F2F8B4A2D50E05E8B4D8BEF89F88DD6
:10242000E20DF31D44919E828D82D12CC12C6981D5
:102430007A81620D731D7A8B698B842F90E09C8B5F
:102440008B8BE98DFA8DA081B18140FF82C0F1E0D4
:10245000BF126FC0AF126DC01C96ED91FC912F8121
:102460003885A4014C0D5D1D69897A89898D9A8D05
:102470001995EB89FC89F595E7954E2F5FEFC51A05
:10248000D50A6D817E818D899E89680F791F7E8333
:102490006D8398E0C916D10481F6AFEF2A1A3A0A83
:1024A000EB81FC81E40DF51DFC83EB83F5E02F1639
:1024B000310409F0B3CF2F81388526153705B9F0DF
:1024C000A98DBA8DED91FC91B1E0BB1257C0AB1252
:1024D00055C069817A816B5F7F4F0088F189E02D5B
:1024E000830128E030E0A401898D9A8D1995A98D8A
:1024F000BA8DED91FC9111970688F789E02DCD01F9
:102500006A960FB6F894DEBF0FBECDBFDF91CF91B4
:102510001F910F91FF90EF90DF90CF90BF90AF9001
:102520009F908F907F906F905F904F903F902F90F3
:1025300019941E96ED91FC91EF80F88409851A8517
:1025400092014D815E816B817C81898D9A8D199577
:1025500090CF2F8138852615370509F48ACF31E0D1
:10256000B31207C0A31205C01C96ED91FC91930114
:1025700078CF1E96ED91FC917301E0CF6B857C8541
:10258000641975090684F785E02D73010F85188994
:102590009201A401898D9A8D1995A9CFF9013496DC
:1025A0009491329745915491D91AB7E0DB9E400D32
:1025B000511D1124F901259134913C8B2B8BFA018B
:1025C00025903490FA013296749031963491398B7B
:1025D000329664903196449041E04C1518F04A15BB
:1025E00008F07FC0662D062C000C770B7C836B8374
:1025F000842D042C000C990B9E838D83A98DBA8D9C
:10260000ED91FC9111970284F385E02DCD01199590
:10261000512CD12CC12CEA2DF0E0FA87E9872B2D23
:1026200030E03C872B87A401440D511D47FC5A958F
:10263000588F4F8B69817A81660D711D67FC7A9581
:102640007E876D877989C71608F051CF2C2D30E031
:102650004D815E81420F531FA985BA854A9FC001F3
:102660004B9F900D5A9F900D1124FC01E80DF91D10
:10267000F88BEF87852D612C4F89588D420F531FA2
:102680005E8B4D8B671408F050C044244394480E71
:10269000877041F4C1010196EB89FC89E20DF31DBD
:1026A000D4901C01D7FE19C0A98DBA8DED91FC9173
:1026B000662D70E0B1E0BB1219C0AB1217C02D85BA
:1026C0003E85620F731F0484F585E02D2F813885C8
:1026D0004D895E89898D9A8D1995DD0C6394842DC1
:1026E000D1CF1E821D821C821B8288CF4B815C81D0
:1026F000640F751FAB85BC856A9FC0016B9F900DF1
:102700007A9F900D112469817A81680F791F068460
:10271000F785E02DEF80F88409851A859D014F85A6
:102720005889898D9A8D1995D8CF570CC3948ACF23
:102730006A960FB6F894DEBF0FBECDBFDF91CF9182
:102740001F910F91FF90EF90DF90CF90BF90AF90CF
:102750009F908F907F906F905F904F903F902F90C1
:1027600008958F929F92AF92CF92EF92FF920F9324
:102770001F93CF93DF93EC01262F898D9A8D0097BD
:1027800009F051C06A30D1F41D861C868D8948E05D
:10279000849F900111248E859F85820F931F9F87B0
:1027A0008E8781E090E0DF91CF911F910F91FF9094
:1027B000EF90CF90AF909F908F9008956D3089F3F8
:1027C000CC88AD888F898823C1F08C859D8536E0C3
:1027D000C39E800D911D11244885598548175907BE
:1027E00064F44E855F851D861C8638E0A39EC0017B
:1027F0001124840F951F9F878E87EA88FB8808899C
:1028000019894E855F856C857D85CE010E948C116E
:102810002C898C859D8546E0249F800D911D112477
:102820009D878C87BECF6A3069F41D861C86FC01AB
:102830003896E4912D898E859F85E29F800D911DAC
:102840001124ADCF6D3009F4ACCFFC013496349136
:10285000631708F4A6CF3296E491E61708F4A1CFE7
:10286000FC01329685909490462F431B342F47E00D
:10287000349F800C911C1124F401329634913196CE
:10288000E4913323A9F1EE2399F1CC88F401359634
:10289000E491AD884F89442301F10E2E000CFF0B0B
:1028A000E30FF11DCE9EA001CF9E500D11246C852B
:1028B0007D85460F571F68857985641775076CF409
:1028C0004E855F851D861C86FC013896E491AE9E80
:1028D000400D511D11245F874E87EA88FB880889C7
:1028E00019894E855F856C857D85CE010E948C118E
:1028F000F4013496E4912C898C859D85E29F800DAE
:10290000911D11248DCF6F927F928F929F92AF92E3
:10291000BF92CF92DF92EF92FF920F931F93CF93CC
:10292000DF93EC016B015A0139014801E881F9811B
:102930000284F385E02D1995E881F9810288F389F5
:10294000E02D87019301A501B601CE011995A501DE
:10295000480D591D41505109E881F9810288F389D8
:10296000E02D9301B601CE011995E881F981008827
:10297000F189E02D9401A501B601CE011995C60C8F
:10298000D71CB60161507109E881F9810088F1898D
:10299000E02D9401A501CE011995E881F981068801
:1029A000F789E02DCE01DF91CF911F910F91FF901C
:1029B000EF90DF90CF90BF90AF909F908F907F90DF
:1029C0006F9019946F927F928F929F92AF92BF9265
:1029D000CF92DF92EF92FF920F931F93CF93DF93EB
:1029E0005C01EB016A01490138018701DC01ED91CD
:1029F000FC916217730719F5641675062CF0962D75
:102A0000872D3A01C92ED82E9601261937092F5F36
:102A10003F4F048CF58DE02DA301BE01C501199532
:102A2000DF91CF911F910F91FF90EF90DF90CF90AA
:102A3000BF90AF909F908F907F906F9008954615B4
:102A4000570591F42617370724F0892D4B01C22F23
:102A5000D82F9E01281939092F5F3F4F068CF78D1B
:102A6000E02DA601B401DACF0284F385E02D19959B
:102A7000D501ED91FC910488F589E02D8301940145
:102A8000A601BE01C5011995D501ED91FC910688FD
:102A9000F789E02DC501DF91CF911F910F91FF9034
:102AA000EF90DF90CF90BF90AF909F908F907F90EE
:102AB0006F901994EF92FF920F931F93DC011A9677
:102AC0000D911C911B9718962D913C911997ED91A2
:102AD000FC9100A0F1A1E02D7B0150E040E070E00E
:102AE00060E019951F910F91FF90EF9008954F921C
:102AF0005F926F927F928F929F92AF92BF92CF928E
:102B0000DF92EF92FF920F931F93CF93DF936C01AD
:102B10002B015A0139014801DC01ED91FC9102843D
:102B2000F385E02D1995E201640C751CD601ED9139
:102B3000FC91C615D7055CF40088F189E02D87016A
:102B40009401A501BE01C60119952196EFCF068813
:102B5000F789E02DC601DF91CF911F910F91FF9072
:102B6000EF90DF90CF90BF90AF909F908F907F902D
:102B70006F905F904F9019948F929F92AF92BF92F7
:102B8000CF92DF92EF92FF920F931F93CF93DF9339
:102B9000EC015B014A016901E881F9810284F38556
:102BA000E02D199595012C0D3D1D21503109E8812D
:102BB000F9810488F589E02D78018401A401B5012B
:102BC000CE011995E881F9810688F789E02DCE01BB
:102BD000DF91CF911F910F91FF90EF90DF90CF90F9
:102BE000BF90AF909F908F9019948F929F92AF92C9
:102BF000BF92CF92DF92EF92FF920F931F93CF93EA
:102C0000DF93EC015B014A0169017801E881F981F8
:102C10000284F385E02D1995C80CD91C860101505A
:102C20001109E881F9810488F589E02D9501A40155
:102C3000B501CE011995E881F9810688F789E02D63
:102C4000CE01DF91CF911F910F91FF90EF90DF9018
:102C5000CF90BF90AF909F908F901994EF92FF927A
:102C60000F931F93DC01ED91FC9100A0F1A1E02DE9
:102C700019951F910F91FF90EF9008950F931F9357
:102C8000DC01ED91FC91068CF78DE02D19951F91DB
:102C90000F9108950F931F93DC01ED91FC91048C2B
:102CA000F58DE02D19951F910F910895DC01ED919F
:102CB000FC910084F185E02D19942F923F924F9260
:102CC0005F926F927F928F929F92AF92BF92CF92BC
:102CD000DF92EF92FF920F931F93CF93DF9300D079
:102CE00000D0CDB7DEB73C016A013E832D83FC8264
:102CF000EB825801A41AB50AB7FE03C0B194A1949F
:102D0000B1088D809E80861A970A97FE03C0919421
:102D1000819491088A149B045CF0902F812F0D817F
:102D20001E819D838E839C2D8D2D6B01692F782FA5
:102D30000C151D055CF09D818E817E836D83692F4E
:102D4000782F902F812F8601C92ED82E1601201A98
:102D5000310A2B012D813E81421A530A57FE03C0CE
:102D6000519441945108710137FE03C03FEFE31ABB
:102D7000F30AF594E7948D819E81861797075CF599
:102D8000A1E0B0E0BA83A983C016D1064CF1D3010B
:102D9000ED91FC910484F585E02D2B813C81A80107
:102DA0006D817E818A149B041CF04D815E81B80187
:102DB000C3011995E418F508F7FE0AC02D813E817C
:102DC00089819A81280F391F3E832D83E20CF31CE1
:102DD0000F5F1F4FD9CF2FEF3FEF3A832983D4CF17
:102DE00026960FB6F894DEBF0FBECDBFDF91CF9110
:102DF0001F910F91FF90EF90DF90CF90BF90AF9019
:102E00009F908F907F906F905F904F903F902F900A
:102E10000895089590E080E008950C94B2062F92F2
:102E20003F924F925F926F927F928F929F92AF925A
:102E3000BF92CF92DF92EF92FF920F931F93CF93A7
:102E4000DF93382E80914E04E0914F04E37024E02C
:102E5000829FC0011124E80FF92FF11DEE0FFF1F13
:102E6000EC5EFD4F40805180912C812CB12CA12C27
:102E70002EE0222E712C612CC301880D991D40E09B
:102E800050E802C0569547958A95E2F7CA01842119
:102E90009521892B09F44BC0809150049301280F90
:102EA000311D87FD3A952A30310508F040C08091E8
:102EB0005104A501480F511D87FD5A954431510514
:102EC000B0F5229EE001239ED00D11242091FA023C
:102ED0003091FB02C20FD31F249E6001259ED00CAF
:102EE00011248091F8029091F902C80ED91EA60112
:102EF0004F5F5F4FBE016F5F7F4F3320F1F1F12CC9
:102F0000E12C0CE010E02CE030E085E295E00E943E
:102F1000580EE0906E03F0906F030EE010E02EE08C
:102F200030E0A601BE0185E295E00E9483145FEFC8
:102F3000651A750A84E06816710409F09DCF2FEFB9
:102F4000A21AB20A34E0830E911C44E0A416B10424
:102F500009F090CFDF91CF911F910F91FF90EF90EB
:102F6000DF90CF90BF90AF909F908F907F906F90A9
:102F70005F904F903F902F900895E0914E04F0E0C5
:102F8000EE0FFF1FE25BFD4FE080F1800CE010E0F0
:102F90002CE030E085E295E00E94580EF12CE12C07
:102FA000BCCFAF92BF92CF92DF92EF92FF920F937E
:102FB0001F93CF93DF93E22FE37024E0429FA001A1
:102FC0001124E40FF52FF11DEE0FFF1FEC5EFD4FF6
:102FD000C081D1819B0170E060E0AC0140595C4F41
:102FE0007A011AE0C12C40E8D42E129FF001139F01
:102FF000F00D1124EE0DFF1D50E040E0DA01A60FA8
:10300000B71F560102C0B694A794AA95E2F7D5015E
:10301000AC23BD23AB2BA1F0011102C037FD10C0C2
:10302000DA01A80FB91F1A9718F52431310504F5F4
:1030300037FD06C0DF01A40FB51FAC91A11118C068
:103040004F5F5F4F44305105C9F62F5F3F4F6C5FB4
:103050007F4F6031710549F680E0DF91CF911F917C
:103060000F91FF90EF90DF90CF90BF90AF900895B9
:1030700081E0F3CFCF92DF92EF92FF920F931F93F5
:10308000CF93DF938A30910508F047C06431710512
:1030900008F043C09C019EE0929FE001939FD00DF9
:1030A00011244091FA025091FB02C40FD51F969F44
:1030B0006001979FD00C11248091F8029091F90241
:1030C000C80ED91E8AE0869FF001879FF00D11245B
:1030D000E059FC4FE20FF31FE081A6014F5F5F4F05
:1030E000BE016F5F7F4FE11121C0F12CE12C0CE09C
:1030F00010E02CE030E085E295E00E94580EE09070
:103100006E03F0906F030EE010E02EE030E0A601B9
:10311000BE0185E295E00E948314DF91CF911F915B
:103120000F91FF90EF90DF90CF900895F0E0EE0FB9
:10313000FF1FE45BFD4FE080F1800CE010E02CE02D
:1031400030E085E295E00E94580EF12CE12CDBCFB7
:10315000EF92FF920F931F93CF93DF934091F8026A
:103160005091F902425051096091FA027091FB02AC
:1031700062507109F12CE12C0CE111E020E930E002
:1031800085E295E00E94580ED0E0C0E010E000E03B
:10319000BE01C8010E943A180F5F1F4F0A30110587
:1031A000B9F72196C431D10589F7DF91CF911F91ED
:1031B0000F91FF90EF90089582E390E09093FB02CF
:1031C0008093FA0284E190E09093F9028093F802F0
:1031D000089587E00C94CF098F929F92AF92BF928F
:1031E0000F931F93CF93DF93CDB7DEB7A1970FB6A1
:1031F000F894DEBF0FBECDBF19A2423008F44AE0FA
:103200008E010F5D1F4F842E912CB12CA12CA50196
:1032100094010E941627E62FB901CA01EA3044F54D
:10322000E05DD801EE938D01232B242B252B79F71C
:1032300090E080E0109769F0FD0101900020E9F72F
:103240003197AF014A1B5B0BBD0185E295E00E94FF
:10325000140AA1960FB6F894DEBF0FBECDBFDF9162
:10326000CF911F910F91BF90AF909F908F90089535
:10327000E95CD7CF0E948C29FC0180819181009765
:1032800011F00C9422280895EF92FF920F931F9350
:10329000CF93DF93EC017B01198218821B821A8283
:1032A0001D821C82FB0101900020E9F731978F01FC
:1032B000061B170BB8016F5F7F4F90E080E00E9404
:1032C000AB280097B9F0998388831B830A832C81EC
:1032D0003D81232B11F4FC0110821D830C83B70167
:1032E00088819981DF91CF911F910F91FF90EF908D
:1032F0000C949A2988819981009711F00E942228C4
:10330000198218821D821C821B821A82DF91CF9142
:103310001F910F91FF90EF900895EF92FF920F93FE
:103320001F93CF93DF93CDB7DEB764970FB6F894B2
:10333000DEBF0FBECDBFF12CE12C00E510E020EF89
:1033400030E044E650E070E060E085E295E00E9405
:10335000D30D83E08093390580933A0580E098EFA0
:103360009093380580933705909336058093350503
:103370006EEA72E0CE0101960E9444198D819E8111
:10338000892B81F08E010D5E1F4F9E012F5E3F4FF6
:10339000AE01415F5F4FBE01635F7F4F89819A81BC
:1033A0000E944A0429893A8980EF90E0821B930B9E
:1033B00096958795909332058093310588E790E044
:1033C0009093340580933305CE0101960E94410A03
:1033D00081E08093390580933A0580916E03909146
:1033E0006F0390933805809337059093360580934B
:1033F000350568EB72E0CE0107960E9444198B8573
:103400009C85892B81F08E010D5E1F4F9E012F5EE2
:103410003F4FAE01415F5F4FBE01635F7F4F8F81C2
:1034200098850E944A0429893A8980EF90E0821B9E
:10343000930B96958795909332058093310580EA9A
:1034400090E09093340580933305CE0107960E9457
:10345000410ACE0107960E943C19CE0101960E94B6
:103460003C1964960FB6F894DEBF0FBECDBFDF9156
:10347000CF911F910F91FF90EF9008950F930E94AD
:103480008C2627E030E040E050E00E94E426462F02
:1034900060934E0410924F0483E0809350048EEFAB
:1034A0008093510401E020E06EEF7FEF83E090E035
:1034B0000E94D117882329F010925D040F910C947B
:1034C0008D190F910895CF92DF92EF92FF920F9393
:1034D0001F93CF93DF93EC016A017B01C114D104E8
:1034E000E104F10431F4C12C42E1D42E4AE7E42E88
:1034F000F12C8FA987FD07C061E00E94760661E08C
:103500008FA90E94480661E088AD0E94760661E0BE
:1035100088AD0E9448068DA98111A3C040E052E108
:103520006AE770E0C416D506E606F70640F476951D
:103530006795579547958F5F8630A1F787E0982F5D
:10354000906A969599A3809581708AA31BA21CA26C
:103550001DA21EA21FB7F89480916D03811127C090
:10356000EBE1F8E08491EBEBF7E09491E82FF0E0E9
:10357000EE0FFF1FE55FF84FA591B491EC91E923A1
:1035800021F461E085E30E94480661E085E30E9442
:1035900076068CB580618CBD8CB580648CBD61E095
:1035A00084E30E94760661E083E30E9476068091C0
:1035B0006D038F5F80936D031FBF8EA987FD21C0B0
:1035C00061E00E94760661E08EA90E94480664E6EA
:1035D00070E080E090E00E949D0960E08EA90E946A
:1035E000480664E670E080E090E00E949D0961E09A
:1035F0008EA90E94480668EC70E080E090E00E948E
:103600009D098EA987FF0DC020E050E040E061E0F9
:10361000CE010E94791066E970E080E090E00E949F
:103620009D090CE916E0C8010196F8016491662332
:1036300009F463C00E5F1F4FFC01F490EF2CE89477
:10364000E7F82E2DA801CE010E9479100E0D111D54
:10365000F7FEE9CF66E970E080E090E00E949D0906
:10366000E2CF06EE17E0F12C8130B9F461E08AA5D3
:103670000E94760660E08AA50E94480661E08CA55B
:103680000E94760660E08CA50E9448068BA587FD07
:1036900094CF60E00E94760690CFF8018491E82FE5
:1036A000F0E0EE0FFF1FE453F84F859194912F8DBA
:1036B00038A12817390741F461E08F2D0E94760662
:1036C00060E08F2D0E944806F3940F5F1F4FF6E4D1
:1036D000FF12E3CF61E08EA50E94760661E08EA521
:1036E0000E9448068FA587FD68CF61E00E9476069C
:1036F00061E08FA50E94480660CF80EF90E0998737
:10370000888780E491E09B878A87DF91CF911F9122
:103710000F91FF90EF90DF90CF9008951F93CF937C
:10372000DF9385ED8093BC008091FF0290910003B0
:10373000A0910103B09102030796A11DB11D23E0E2
:10374000B695A795979587952A95D1F72091BC00B6
:1037500024FD03C01092470352C04091FF025091D4
:1037600000036091010370910203452B462B472B08
:1037700069F30097A105B10541F02AE22A95F1F716
:1037800000C00197A109B109E1CF8091FE02C1E01B
:10379000C093FD02882399F1D091B8001091BA002E
:1037A0008091BC008A7B8093BC0060E084E10E9431
:1037B000480660E085E10E94480610924703C093E6
:1037C00049031092480361E084E10E94480661E0E9
:1037D00085E10E9448068091B9008E7F8093B900F0
:1037E0008091B9008D7F8093B90088E48093B80000
:1037F00085E48093BC001093BA00D093B800DF91A9
:10380000CF911F910895CF92DF92EF92FF920F9385
:103810001F93F12CE12C04E110E020EF30E050E0A8
:1038200040E070E060E085E295E00E94D30D81E029
:103830008093390580933A0580916E0390916F03D0
:103840009093360580933505109238051092370510
:1038500086E090E0909332058093310584E090E01B
:10386000909334058093330547E050E06EEC72E0AE
:1038700085E295E00E94140AC0904404D09045046B
:103880000D2C000CEE08FF084AE0C701B601F7FE58
:103890000DC06DE285E295E00E94B113662777279F
:1038A000CB016C197D098E099F094AE01F910F9188
:1038B000FF90EF90DF90CF900C94EC182F923F92F6
:1038C0004F925F926F927F928F929F92AF92BF9230
:1038D000CF92DF92EF92FF920F931F93CF93DF93DC
:1038E000CDB7DEB72E970FB6F894DEBF0FBECDBFB3
:1038F00080914E04E0914F04E37024E0829FC00168
:103900001124E80FF92FF11DEE0FFF1FEC5EFD4FA4
:10391000E080F180B12CA12C10E000E0C12C30E857
:10392000D32E4AE0942E1A82198289819A818A0DB7
:103930009B1D960102C0369527958A95E2F7C9012D
:103940008E219F21892B09F443C080915004298145
:103950003A81280F311D87FD3A95C9012091510404
:10396000B801620F711D27FD7A9577FF1CC0109278
:103970005D042E960FB6F894DEBF0FBECDBFDF916B
:10398000CF911F910F91FF90EF90DF90CF90BF905C
:10399000AF909F908F907F906F905F904F903F90EF
:1039A0002F900C948D198A30910590F46431710533
:1039B0007CF4969EF001979EF00D1124E059FC4F87
:1039C000E80FF91F20914E042F5F20830E943A18C0
:1039D00089819A8101969A838983049709F0A5CFFA
:1039E0000F5F1F4F94E0A90EB11C0430110509F0C0
:1039F0009ACF0E94031C312C212C23E130E03E871A
:103A00002D879BE0492E512C612C712C4AE02D858D
:103A10003E85429FC001439F900D11249C01205977
:103A20003C4F3E832D8390E080E0ED81FE81E80FE6
:103A3000F91F2081222309F4F7C001968A309105ED
:103A4000A1F74EE02D853E85429FC001439F900D1A
:103A500011249C838B83B12CA12C6501C094D0943C
:103A600081E0C822DD24D194C194D108912C812C0D
:103A70004091F8025091F9022B813C81420F531F73
:103A80004F5F5F4F6091FA027091FB02680D791DE4
:103A90006F5F7F4F76010CE010E02CE030E085E2B4
:103AA00095E00E94580E3EE0830E911C4CE884166F
:103AB0009104F1F662E370E080E090E00E949D09DD
:103AC0008FEFA81AB80A94E0A916B10431F62CE1D8
:103AD00030E03A8329830E948C262AE030E040E0DF
:103AE00050E00E94E4264EE0469F9001479F300D33
:103AF00011246091FA027091FB02C901860F971F91
:103B000098878F830E948C264B015C01C090F8023D
:103B1000D090F9022B813C81C20ED31E0E948C26CC
:103B200069877A878B879C870E948C2627E030E004
:103B300040E050E00E94E4266F5F7F4F8F4F9F4F21
:103B4000FB01EE0FFF1FE45BFD4FE080F180698514
:103B50007A858B859C85A30192010E94E4266F5F84
:103B60007F4F8F4F9F4FC60ED71EC501B401A301D3
:103B700092010E94E4266F5F7F4F8F4F9F4F2F81EE
:103B80003885620F731F02E010E022E030E0A601EA
:103B900085E295E00E94D30D89819A8101979A83ED
:103BA0008983892B09F097CF8D819E814D855E8514
:103BB0001416150694F430E020E0FC01E20FF31F28
:103BC000DF011A976C9160832F5F3F4F2A303105D8
:103BD000A1F7415051090A97EBCFE0E7F3E01192CA
:103BE0002AE733E02E173F07D1F710E000E0F12C71
:103BF000E12CB801C7010E943A183FEFE31AF30A1B
:103C00004AE0E416F104A9F70F5F1F4F8D859E85EA
:103C10008017910764F79FEF291A390A2D853E8591
:103C20002F5F3F4F3E872D878D859E8501979E870D
:103C30008D87019609F0EACE21143104F1F084E673
:103C4000829D9001839D300D1124809144049091B8
:103C50004504820F931F909345048093440480E2AF
:103C600093E00E940D1768E770E080E090E00E940A
:103C70009D090E94E9180E94031C80915D0488231D
:103C8000D1F02E960FB6F894DEBF0FBECDBFDF91F8
:103C9000CF911F910F91FF90EF90DF90CF90BF9049
:103CA000AF909F908F907F906F905F904F903F90DC
:103CB0002F900C943E1A2E960FB6F894DEBF0FBECE
:103CC000CDBFDF91CF911F910F91FF90EF90DF90CB
:103CD000CF90BF90AF909F908F907F906F905F90AC
:103CE0004F903F902F9008951F920F920FB60F9212
:103CF00011242F933F938F939F93AF93BF93809102
:103D00005F0490916004A0916104B09162043091CD
:103D10005E0423E0230F2D3758F50196A11DB11D38
:103D200020935E0480935F0490936004A0936104E9
:103D3000B09362048091630490916404A09165043F
:103D4000B09166040196A11DB11D80936304909308
:103D50006404A0936504B0936604BF91AF919F91F2
:103D60008F913F912F910F900FBE0F901F9018953C
:103D700026E8230F0296A11DB11DD2CF1F920F92EC
:103D80000FB60F9211240BB60F922F933F934F93C0
:103D90005F936F937F938F939F93AF93BF93EF93B3
:103DA000FF9380917B0490917C04A0917D04B0915D
:103DB0007E04892B8A2B8B2BE1F190916A04E09190
:103DC0006B04F0916C0480818927808380917B044F
:103DD00090917C04A0917D04B0917E041816190680
:103DE0001A061B069CF480917B0490917C04A091A0
:103DF0007D04B0917E040197A109B10980937B04F1
:103E000090937C04A0937D04B0937E04FF91EF9186
:103E1000BF91AF919F918F917F916F915F914F91E2
:103E20003F912F910F900BBE0F900FBE0F901F90E0
:103E30001895809109020E94CF09E8CF1F920F9236
:103E40000FB60F9211240BB60F922F933F934F93FF
:103E50005F936F937F938F939F93AF93BF93EF93F2
:103E6000FF9387E894E00E94910AFF91EF91BF9140
:103E7000AF919F918F917F916F915F914F913F9102
:103E80002F910F900BBE0F900FBE0F901F901895A3
:103E90001F920F920FB60F9211240BB60F922F9311
:103EA0008F939F93EF93FF93E0919704F091980481
:103EB0008081E0919D04F0919E0482FD1DC090815F
:103EC0008091A0048F5F8F732091A104821741F02D
:103ED000E091A004F0E0E957FB4F958F8093A00498
:103EE000FF91EF919F918F912F910F900BBE0F90AB
:103EF0000FBE0F901F9018958081F2CF1F920F92E6
:103F00000FB60F9211240BB60F922F933F934F933E
:103F10005F936F937F938F939F93AF93BF93EF9331
:103F2000FF938091B900887F803609F44DC008F076
:103F300040C0883209F4A7C028F5803109F49BC03D
:103F4000C8F4882309F4F7C0883009F494C0FF91BD
:103F5000EF91BF91AF919F918F917F916F915F9101
:103F60004F913F912F910F900BBE0F900FBE0F906E
:103F70001F901895883109F486C0803241F78093EC
:103F8000460314C0803409F49BC040F48033B9F375
:103F90008833E9F68093460385ECAEC0803509F49A
:103FA00083C0883509F494C0883489F60E948E1B3A
:103FB000CECF883909F48AC038F5883729F050F413
:103FC000883611F0803719F683E08093470310920A
:103FD000450355C0883809F479C0803919F0803814
:103FE00009F0B5CF80914503803208F06FC0E091B1
:103FF000450381E08E0F809345038091BB00F0E084
:10400000EB5DFC4F80833BC0803B39F0D0F4803ABD
:1040100009F477C0883A09F09ACF84E08093470387
:104020001092240310922303F0E0E0E019958091B0
:10403000230381110FC081E08093230310920303B7
:1040400009C0803C09F4A8CF883C09F4A5CF883B7F
:1040500009F07DCFE091240381E08E0F809324034B
:10406000F0E0ED5FFC4F80818093BB0090912403D2
:104070008091230329C080916C038093BB0085EC61
:104080008093BC0064CF90916B0380916A03981772
:1040900058F5E0916B0381E08E0F80936B03F0E0A5
:1040A000E65BFC4F8081E9CFE0916B0381E08E0FEE
:1040B00080936B038091BB00F0E0E65BFC4F808354
:1040C00090916B0380916A039817C8F285E8D8CF66
:1040D000E0916B0381E08E0F80936B038091BB00B6
:1040E000F0E0E65BFC4F80838091490381115ECF55
:1040F00081E08093480384EA8093BC0010924703D8
:1041000026CF85EC8093BC00109247038091450335
:10411000803230F4E0914503F0E0EB5DFC4F10821B
:104120006091450370E085E293E0F0E0E0E01995EE
:10413000109245030CCF1092460338CFE7E8F4E025
:104140001382128288EE93E0A0E0B0E0848395832E
:10415000A683B78380E792E09183808385EC90E02B
:104160009587848784EC90E09787868780EC90E041
:10417000918B808B81EC90E0938B828B82EC90E032
:10418000958B848B86EC90E0978B868B118E128EAC
:10419000138E148EA5E2B5E013961C921E92129710
:1041A00020EF30E015963C932E93149780E491E035
:1041B00017969C938E93169719963C932E93189767
:1041C0001B969C938E931A9756961C9256971D9603
:1041D0001C921E921C971F961C921E921E9781E0A5
:1041E00055968C93559754968C9354972FEF3FEF99
:1041F00053963C932E93529751963C932E935097FF
:1042000057968C93579758961C9258975A961C928B
:104210001E925997D5961C92D59788E0D6968C9386
:10422000D6978AE0D7968C93D79789E0D8968C93C7
:10423000D897DA961C921E92D997DC961C921E9201
:10424000DB97DD961C92DD97DE961C92DE9710922E
:10425000640510926505109266051092670584E268
:1042600095E090969C938E935F97EFEEF7E0E49144
:10427000F0E0EE0FFF1FE453F84F859194915E96A6
:104280009C938E935D97EFE8F7E08491D3968C939F
:10429000D397E0EFF7E0E491F0E0EE0FFF1FE45377
:1042A000F84F259134915C963C932E935B97E0E90F
:1042B000F7E0E491D196EC93D197E095D296EC9308
:1042C000D297E82FE095D496EC93D49782E892E0C9
:1042D0008D939C930895CF93DF93CDB7DEB7689706
:1042E0000FB6F894DEBF0FBECDBF789484B5826060
:1042F00084BD84B5816084BD85B5826085BD85B58A
:10430000816085BD80916E00816080936E00109207
:104310008100809181008260809381008091810082
:104320008160809381008091800081608093800013
:104330008091B10084608093B1008091B000816071
:104340008093B00080919100826080939100809171
:1043500091008160809391008091900081608093B2
:1043600090008091A10082608093A1008091A100C3
:1043700081608093A1008091A00081608093A00063
:1043800080912101826080932101809121018160CF
:104390008093210180912001816080932001809190
:1043A0007A00846080937A0080917A0082608093A2
:1043B0007A0080917A00816080937A0080917A00FF
:1043C000806880937A001092C100E0919704F09188
:1043D000980482E08083E0919304F0919404108229
:1043E000E0919504F091960480E1808310929F04FF
:1043F000E0919B04F0919C0486E08083E091990415
:10440000F0919A04808180618083E0919904F09119
:104410009A04808188608083E0919904F0919A04E5
:10442000808180688083E0919904F0919A04808172
:104430008F7D808380917B00877F80937B0080E4E9
:1044400080937C0080917A00806480937A008091D0
:104450007A0086FDFCCF6091780070917900072E7C
:10446000000C880B990B611571058105910511F000
:104470000E94DB2662E083E20E94760662E08FE122
:104480000E94760662E085E20E94760662E089E29A
:104490000E94760662E087E20E94760661E087E08D
:1044A0000E94760640E050E0BA0185E295E00E9465
:1044B000631A60E085E295E00E94E21080E194E8F2
:1044C00090936F0380936E030E94DC1870E060E0AD
:1044D00085E295E00E945A1583E080933905809328
:1044E0003A058FEF9FEF90933805809337059093AF
:1044F00036058093350566ED72E0CE0107960E9481
:1045000044198B859C85892B81F08E01035F1F4F99
:104510009E01215F3F4FAE014F5E5F4FBE016D5E5A
:104520007F4F8F8198850E944A042F85388980EFBC
:1045300090E0821B930B969587959093320580931C
:10454000310580E590E09093340580933305CE01EA
:1045500007960E94410A82E08093390580933A05CC
:104560006DED72E0CE0101960E9444198D819E810D
:10457000892B81F08E01035F1F4F9E01215F3F4F0A
:10458000AE014F5E5F4FBE016D5E7F4F89819A81A4
:104590000E944A042F85388980EF90E0821B930B9C
:1045A0009695879590933205809331058CE890E03D
:1045B0009093340580933305CE0101960E94410A01
:1045C000AEE1CA2ED12CB7E04B2E512C612C712CB0
:1045D0000E948C266D8B7E8B8F8B988F0E948C26F1
:1045E0004B015C010E948C26A30192010E94E426EB
:1045F0006F5F7F4F8F4F9F4F660F771F645B7D4FBD
:10460000FB01E080F180C501B40120E431E040E02D
:1046100050E00E94E4264B016D897E898F89988D38
:1046200020EF30E040E050E00E94E42602E010E09D
:1046300022E030E0A40185E295E00E94D30DF1E094
:10464000CF1AD10829F6CE0101960E943C19CE015D
:1046500007960E943C1940EE242E33243A9457E0EA
:10466000452E512C612C712C8FB7F89480905F04EB
:1046700090906004A0906104B09062048FBF80911C
:104680000802882309F444C080915D04882309F45A
:104690003FC080915C0481113BC08091580490918F
:1046A0005904A0915A04B0915B04A5019401281B00
:1046B000390B4A0B5B0BDA01C9018E359140A1051C
:1046C000B10530F1E0905604F0905704C70168E05E
:1046D00070E00E944727FC01EE0FFF1FE45AFD4FD8
:1046E000808191810E94B206809258049092590470
:1046F000A0925A04B0925B044FEFE41AF40A58E017
:10470000E516F1040CF07BC0F0925704E0925604D9
:104710008FB7F894C0905F04D0906004E09061047B
:10472000F09062048FBF87E20E941F06892B09F078
:10473000CFC08091380490913904A0913A04B0918F
:104740003B04A7019601281B390B4A0B5B0BDA01CE
:10475000C90189379105A105B10508F4B9C0C09216
:104760003804D0923904E0923A04F0923B048091EC
:104770005D04811149C080E793E030E020E0FC0156
:10478000E20FF31F10822F5F3F4F2A303105B9F738
:104790000A9648E354E04817590779F71092450400
:1047A0001092440451E050935D040E94DC1870E0C4
:1047B00060E085E295E00E945A150E94A8180E94C8
:1047C000031C0E943E1A2FB7F89480915F049091C9
:1047D0006004A0916104B09162042FBF80933C04F7
:1047E00090933D04A0933E04B0933F0410925C0468
:1047F00088EE93E00E940D170E94E91869C010929C
:1048000057041092560484CF80915C0491E089276C
:1048100080935C04882309F4EAC1F12CE12C08E2BE
:1048200010E020EF30E04CE850E070E060E085E21E
:1048300095E00E94D30DE3E0E0933905E0933A055B
:104840003092380520923705309236052092350592
:1048500061EF72E0CE0101960E9444198D819E8124
:10486000892B81F08E01095F1F4F9E01235F3F4F0F
:10487000AE01415F5F4FBE016F5E7F4F89819A81BC
:104880000E944A042D853E8580EF90E0821B930BA9
:1048900096958795909332058093310526E930E00F
:1048A0003093340520933305CE0101960E94410ACE
:1048B00080E293E00E940D1768E770E080E090E0EE
:1048C0000E949D090E94E918CE0101960E943C19A0
:1048D00080915C04811188C18BE20E941F06892BA4
:1048E00051F48091080231E08327809308028111FE
:1048F00002C00E94E91880915D04882309F495C1E3
:1049000083E20E941F06892B09F048C0809152045F
:1049100090915304A0915404B0915504A5019401C1
:10492000281B390B4A0B5B0BDA01C901893791054A
:10493000A105B10598F18092520490925304A0927F
:104940005404B092550460915104062E000C770B6C
:1049500080915004082E000C990B00E020914F0428
:1049600040914E0401970E94D117811117C081E038
:104970000E940F178091500481508093500480E072
:104980000E940F1780E991E00E940D176CE370E020
:1049900080E090E00E949D090E94E9188FE10E944A
:1049A0001F06892B09F048C080914A0490914B045E
:1049B000A0914C04B0914D04A5019401281B390B22
:1049C0004A0B5B0BDA01C90189379105A105B105D5
:1049D00098F180924A0490924B04A0924C04B092B9
:1049E0004D0460915104062E000C770B8091500409
:1049F000082E000C990B00E020914F0440914E04CA
:104A000001960E94D117811117C081E00E940F17F3
:104A1000809150048F5F8093500480E00E940F17B4
:104A200080E991E00E940D176CE370E080E090E077
:104A30000E949D090E94E91885E20E941F06892BA9
:104A400009F046C08091460490914704A091480423
:104A5000B0914904A5019401281B390B4A0B5B0B4B
:104A6000DA01C90189379105A105B10588F1809264
:104A7000460490924704A0924804B0924904609181
:104A80005104062E000C770B6F5F7F4F809150040E
:104A900000E020914F0440914E04082E000C990B29
:104AA0000E94D1178111B5C081E00E940F1780913B
:104AB00051048F5F8093510480E00E940F17809112
:104AC00044049091450401969093450480934404D6
:104AD00089E20E941F06892B09F047C0809140049B
:104AE00090914104A0914204B0914304A501940126
:104AF000281B390B4A0B5B0BDA01C9018937910579
:104B0000A105B10590F18092400490924104A092D9
:104B10004204B092430410914F041F5F13706091E0
:104B20005104062E000C770B8091500400E0212FD9
:104B300040914E04082E000C990B0E94D117811150
:104B400014C081E00E940F1710934F0480E00E9470
:104B50000F1788E592E00E940D1760E570E080E095
:104B600090E00E949D090E94E91880913C04909178
:104B70003D04A0913E04B0913F04A5019401281B7F
:104B8000390B4A0B5B0BDA01C90188359240A1054C
:104B9000B10550F180923C0490923D04A0923E04F5
:104BA000B0923F0460915104062E000C770B6F5FAA
:104BB0007F4F8091500400E020914F0440914E04BB
:104BC000082E000C990B0E94D117811128C081E09A
:104BD0000E940F17809151048F5F8093510480E0F1
:104BE0000E940F170E94031C0E94200B3DCD0E94C3
:104BF000031C0E94A81880E00E940F1780EB94E02D
:104C00000E940D1768E770E080E090E00E949D0927
:104C1000F3CD81E00E940F170E945E1C59CF81E006
:104C20000E940F170E945E1CDDCFC501B40128EE63
:104C300033E040E050E00E9416276832710581059C
:104C4000910590F6CA01B901A30192010E941627AD
:104C50006F5F7F4F8F4F9F4F660F771F645B7D4F56
:104C6000FB01E080F1800AE010E020EF30E050E04E
:104C700040E070E060E085E295E00E94D30DB4CFA3
:104C80008F929F92AF92BF92CF92DF92EF92FF925C
:104C9000CF93DF93EC01688179818A819B816115D3
:104CA00071058105910521F464E279ED8BE597E0CA
:104CB0002DE133EF41E050E00E94E42649015A0122
:104CC0009B01AC01A7EAB1E40E9403276B017C01C0
:104CD000ACEEB4EFA50194010E941127C60ED71EB9
:104CE000E81EF91EF7FE06C081E0C81AD108E108E7
:104CF00080E8F80AC882D982EA82FB82C701B6013D
:104D00009F77DF91CF91FF90EF90DF90CF90BF9092
:104D1000AF909F908F9008958F929F92AF92BF9285
:104D2000CF92DF92EF92FF9260910A0270910B0294
:104D300080910C0290910D0261157105810591051C
:104D400021F464E279ED8BE597E02DE133EF41E06A
:104D500050E00E94E42649015A019B01AC01A7EAF8
:104D6000B1E40E9403276B017C01ACEEB4EFA50116
:104D700094010E941127C60ED71EE81EF91EF7FEE9
:104D800006C081E0C81AD108E10880E8F80AC0929C
:104D90000A02D0920B02E0920C02F0920D02C701BF
:104DA000B6019F77FF90EF90DF90CF90BF90AF90CC
:104DB0009F908F90089560930A0270930B028093E6
:104DC0000C0290930D020895052E97FB1EF400949B
:104DD0000E94FB2657FD07D00E94162707FC03D030
:104DE0004EF40C94FB2650954095309521953F4FFD
:104DF0004F4F5F4F089590958095709561957F4FC7
:104E00008F4F9F4F08950E943827A59F900DB49F04
:104E1000900DA49F800D911D11240895B7FF0C944F
:104E200003270E940327821B930B0895A1E21A2EE9
:104E3000AA1BBB1BFD010DC0AA1FBB1FEE1FFF1F3E
:104E4000A217B307E407F50720F0A21BB30BE40B8E
:104E5000F50B661F771F881F991F1A9469F76095D5
:104E60007095809590959B01AC01BD01CF0108958F
:104E7000A29FB001B39FC001A39F700D811D11249B
:104E8000911DB29F700D811D1124911D089597FBF6
:104E9000072E16F4009407D077FD09D00E947227E0
:104EA00007FC05D03EF4909581959F4F089570952D
:104EB00061957F4F0895EE0FFF1F881F8BBF0790EE
:104EC000F691E02D19940E943827332312F48A1B9F
:104ED0009B0B0C946D270E943827B7FF0895821B07
:104EE000930B0895AA1BBB1B51E107C0AA1FBB1F50
:104EF000A617B70710F0A61BB70B881F991F5A9566
:104F0000A9F780959095BC01CD0108950F931F934B
:104F1000CF93DF938230910510F482E090E0E0912E
:104F20006A05F0916B0530E020E0B0E0A0E030973A
:104F300099F42115310509F44AC0281B390B243096
:104F40003105D8F58A819B816115710589F1FB01D5
:104F500093838283FE0111C04081518102811381BC
:104F600048175907E0F04817590799F4109761F06E
:104F700012960C93129713961C933296CF01DF91E1
:104F8000CF911F910F91089500936A0510936B05BF
:104F9000F4CF2115310551F04217530738F0A9011C
:104FA000DB019A01BD01DF01F801C1CFEF01F9CFAB
:104FB00090936B0580936A05CDCFFE01E20FF31F3E
:104FC000819391932250310939832883D7CF20913F
:104FD000680530916905232B41F42091100230912E
:104FE0001102309369052093680520910E023091DB
:104FF0000F022115310541F42DB73EB74091120241
:1050000050911302241B350BE0916805F09169055E
:10501000E217F307A0F42E1B3F0B2817390778F08F
:10502000AC014E5F5F4F2417350748F04E0F5F1FEE
:105030005093690540936805819391939FCFF0E069
:10504000E0E09CCFCF93DF930097E9F0FC0132972B
:1050500013821282A0916A05B0916B05ED0130E0D8
:1050600020E01097A1F420813181820F931F2091BD
:105070006805309169052817390709F061C0F09378
:105080006905E0936805DF91CF910895EA01CE1795
:10509000DF07E8F54A815B819E0141155105B1F7B3
:1050A000E901FB83EA8349915991C40FD51FEC179D
:1050B000FD0761F4808191810296840F951FE901BB
:1050C00099838883828193819B838A83F0E0E0E0E7
:1050D00012968D919C9113970097B9F52D913C9163
:1050E0001197CD010296820F931F20916805309190
:1050F00069052817390739F6309751F510926B0575
:1051000010926A05B0936905A0936805BCCFD3835C
:10511000C28340815181840F951FC817D90761F45C
:105120004E5F5F4F88819981480F591F518340839B
:105130008A819B81938382832115310509F0B0CF49
:10514000F0936B05E0936A059ECFFD01DC01C0CFB3
:1051500013821282D7CF4F925F926F927F928F927B
:105160009F92AF92BF92CF92DF92EF92FF920F93F6
:105170001F93CF93DF938C01009799F4CB01DF91BC
:10518000CF911F910F91FF90EF90DF90CF90BF9044
:10519000AF909F908F907F906F905F904F900C9406
:1051A0008627FC01E60FF71F9C0122503109E21708
:1051B000F30708F4AEC0D901CD91DC911197C61761
:1051C000D70720F1C530D10578F0CE0104978617B6
:1051D000970750F0C61BD70B2297C193D1936D93BD
:1051E0007C93CF010E942228C801DF91CF911F91AB
:1051F0000F91FF90EF90DF90CF90BF90AF909F9076
:105200008F907F906F905F904F9008955B01AC1AE4
:10521000BD0A4C018C0E9D1EA0916A05B0916B05D4
:10522000512C412CF12CE12C109731F5809168051F
:10523000909169058815990509F05CC046165706D6
:1052400008F058C080910E0290910F02009741F42F
:105250008DB79EB74091120250911302841B950B9B
:10526000E817F90708F055C0F0936905E093680561
:10527000F90171836083B8CF8D919C91119712963B
:105280006C90129713967C901397A815B90559F551
:105290006C0142E0C40ED11CCA14DB0420F1AC0145
:1052A0004A195B09DA011296159780F062827382BF
:1052B00051834083D9016D937C93E114F10471F023
:1052C000D7011396FC93EE9312978ECF22968C0FF4
:1052D0009D1FF90191838083F301EFCFF0936B055C
:1052E000E0936A0581CF4816590608F42C017D0128
:1052F000D3019ACFCB010E9486277C01009749F009
:10530000AE01B8010E949129C8010E94222887019C
:105310006BCF10E000E068CF81E090E0F8940C944F
:10532000A129FB01DC0102C001900D9241505040C7
:10533000D8F70895FB01DC0101900D920020E1F700
:105340000895F894FFCFFFFFFFFFFFFFFFFF01FF6E
:105350000100000000006C058000000F2222F00018
:105360004444008E4064200EC044002E6044800EF1
:1053700040C40066006600660066006C2046C006F9
:10538000408C004E4046400E404C00C64026600C0B
:10539000804CFFFFFF071F0020FDE0FFE0071FF824
:1053A00000F8060126014A015D018801B801EE01FD
:1053B0000B0200000000B30A140A4A0A000B7B0A21
:1053C000590A6D0A00000000B113140A0A170917E0
:1053D000C50C67103510CC0F4B0F8C0F5D166B1181
:1053E000E210D810690EDA0E580E5A15E214831422
:1053F000631A370C47414D45204F564552005072B5
:1054000065737320504C415920746F20726573741A
:105410006172740053636F72653A200054455452B0
:10542000495300507265737320504C415920746F7A
:0E54300020737461727400504155534544005E
:020000040003F7
:10E000000D9489F10D94B2F10D94B2F10D94B2F129
:10E010000D94B2F10D94B2F10D94B2F10D94B2F1F0
:10E020000D94B2F10D94B2F10D94B2F10D94B2F1E0
:10E030000D94B2F10D94B2F10D94B2F10D94B2F1D0
:10E040000D94B2F10D94B2F10D94B2F10D94B2F1C0
:10E050000D94B2F10D94B2F10D94B2F10D94B2F1B0
:10E060000D94B2F10D94B2F10D94B2F10D94B2F1A0
:10E070000D94B2F10D94B2F10D94B2F10D94B2F190
:10E080000D94B2F10D94B2F10D94B2F10D94B2F180
:10E090000D94B2F10D94B2F10D94B2F10D94B2F170
:10E0A0000D94B2F10D94B2F10D94B2F10D94B2F160
:10E0B0000D94B2F10D94B2F10D94B2F10D94B2F150
:10E0C0000D94B2F10D94B2F10D94B2F10D94B2F140
:10E0D0000D94B2F10D94B2F10D94B2F10D94B2F130
:10E0E0000D94B2F141546D656761323536300041AF
:10E0F000726475696E6F206578706C6F72657220DE
:10E1000073746B3530305632206279204D4C530099
:10E11000426F6F746C6F616465723E004875683F52
:10E1200000436F6D70696C6564206F6E203D200048
:10E130004350552054797065202020203D20005FF9
:10E140005F4156525F415243485F5F3D2000415658
:10E1500052204C696243205665723D20004743437C
:10E160002056657273696F6E203D20004350552024
:10E1700049442020202020203D20004C6F7720663D
:10E18000757365202020203D20004869676820665F
:10E190007573652020203D200045787420667573D6
:10E1A00065202020203D20004C6F636B2066757336
:10E1B000652020203D20004D617220203720323024
:10E1C000313300312E362E3800342E332E350056A2
:10E1D00023202020414444522020206F7020636F70
:10E1E00064652020202020696E73747275637469E1
:10E1F0006F6E2061646472202020496E74657272B3
:10E20000757074006E6F20766563746F7200726A49
:10E210006D702020006A6D70200057686174207056
:10E220006F72743A00506F7274206E6F7420737541
:10E2300070706F72746564004D7573742062652030
:10E2400061206C6574746572002000577269747483
:10E25000696E672045450052656164696E672045B7
:10E26000450045452065727220636E743D00504F35
:10E27000525400303D5A65726F2061646472003FF1
:10E280003D43505520737461747300403D454550C3
:10E29000524F4D207465737400423D426C696E6B41
:10E2A000204C454400453D44756D70204545505215
:10E2B0004F4D00463D44756D7020464C415348001B
:10E2C000483D48656C70004C3D4C69737420492F83
:10E2D0004F20506F72747300513D51756974005234
:10E2E0003D44756D702052414D00563D73686F7707
:10E2F00020696E7465727275707420566563746FF0
:10E30000727300593D506F727420626C696E6B00BD
:10E310002A0011241FBECFEFD1E2DEBFCDBF01E046
:10E320000CBF12E0A0E0B2E0EEE1FDEF03E00BBFB6
:10E3300002C007900D92A030B107D9F712E0A0E01B
:10E34000B2E001C01D92AE30B107E1F70F9460F367
:10E350000D948DFE01E20EBF0FEF0DBF11241FBE05
:10E360000D9460F30D9400F020E030E040ED57E0B4
:10E3700005C0FA013197F1F72F5F3F4F2817390792
:10E38000C0F308959C01260F311DC901A0E0B0E043
:10E390002F5F3F4FABBFFC018791882361F08093D3
:10E3A000C6008091C00086FFFCCF8091C0008064D1
:10E3B0008093C000EACF08958DE08093C6008091DD
:10E3C000C00086FFFCCF8091C00080648093C000B5
:10E3D0008AE08093C6008091C00086FFFCCF8091C8
:10E3E000C00080648093C00008950F94C2F10F9420
:10E3F000DCF10895FC019081992359F09093C600B7
:10E400008091C00086FFFCCF8091C0008064809323
:10E41000C0003196992379F70895282F982F929567
:10E420009F70892F805D8A3308F0895F8093C600D2
:10E430008091C00086FFFCCF8091C00080648093F3
:10E44000C000822F8F70982F905D9A3308F0995FEB
:10E450009093C6008091C00086FFFCCF8091C000E1
:10E4600080648093C00008959C01FB01853691056E
:10E470001CF46330710594F0C90164E670E00F94F8
:10E480002EFE605D7F4F6093C6008091C00086FFC6
:10E49000FCCF8091C00080648093C0002B30310598
:10E4A00014F43297B4F0C90164E670E00F942EFEC4
:10E4B0006AE070E00F942EFE605D7F4F6093C600AF
:10E4C0008091C00086FFFCCF8091C0008064809363
:10E4D000C000C9016AE070E00F942EFEC0968093E0
:10E4E000C6008091C00086FFFCCF8091C000806490
:10E4F0008093C00008951F93182F8EE692EE60E07F
:10E500000F94C2F11093C6008091C00086FFFCCF2B
:10E510008091C00080648093C0000F94DCF11F9153
:10E5200008952F923F924F925F926F927F928F92B7
:10E530009F92AF92BF92CF92DF92EF92FF920F9392
:10E540001F93DF93CF93CDB7DEB762970FB6F894E2
:10E55000DEBF0FBECDBF382E622ECA01DB015C01CB
:10E560006D01772420E2222E2E010894411C511CBB
:10E570008BC081E0A81680E0B80681E0C80680E084
:10E58000D80628F0C601AA27BB270F940DF2BB2797
:10E59000AD2D9C2D8B2D0F940DF28A2D0F940DF225
:10E5A0002092C6008091C00086FFFCCF8091C00001
:10E5B00080648093C0009DE29093C6008091C0006B
:10E5C00086FFFCCF8091C00080648093C0002092C1
:10E5D000C6008091C00086FFFCCF8091C00080649F
:10E5E0008093C00019828601750188249924A1E0D6
:10E5F0003A1651F03A1620F0B2E03B1661F409C029
:10E600000BBFF701779007C0C7010F9477FE782EF4
:10E6100002C0F7017080872D0F940DF22092C60082
:10E620008091C00086FFFCCF8091C0008064809301
:10E63000C000872D8052F401EF70F0708F3520F408
:10E64000E40DF51D708204C0E40DF51D8EE280839B
:10E650000894E11CF11C011D111D0894811C911CE2
:10E6600090E18916910409F0C2CF80E190E0A0E02A
:10E67000B0E0A80EB91ECA1EDB1E198AC2010F9493
:10E68000FAF10F94DCF16A94662009F072CF629679
