:100000000C942D010C945E010C945E010C945E0125
:100010000C945E010C945E010C945E010C945E01E4
:100020000C945E010C945E010C945E010C945E01D4
:100030000C945E010C945E010C945E010C945E01C4
:100040000C945E010C945E010C945E010C945E01B4
:100050000C945E010C945E010C945E010C94F80209
:100060000C945E010C945E010C945E010C945E0194
:100070000C945E010C945E010C945E010C945E0184
:100080000C945E010C945E010C945E010C945E0174
:100090000C945E010C945E010C945E010C945E0164
:1000A0000C945E010C945E010C945E010C945E0154
:1000B0000C945E010C945E010C945E010C945E0144
:1000C0000C945E010C945E010C945E010C945E0134
:1000D0000C945E010C945E010C945E010C945E0124
:1000E0000C945E010C9411020C941F020C942602D5
:1000F0000C943E020C941B020C943A020C94F502F0
:100100000C9417020C942C020C9452020C942A05A5
:100110000C9423020C9456020C9451020C94440249
:100120000C944C020C94ED020C9430020C94F102ED
:100130000C9448020C943602000021002400270091
:100140002A002D00300033000101000004010701E6
:100150000A0100002200250028002B002E0031009B
:10016000340002010000050108010B01000020001D
:100170002300260029002C002F003200000100007F
:10018000030106010901050505050705080808081A
:10019000020202020A0A080804040404010101011F
:1001A000010101010303030303030303040707071A
:1001B0000C0C0C0C0C0C0C0C0202020206060606BF
:1001C000060606060B0B0B0B0B0B0B0B010210208C
:1001D000200808102040102040800201020108047D
:1001E0000201010204081020408080402010080411
:1001F000020180040201804020100804020108046A
:1002000002010102040810204080010204081020AD
:10021000408000000A0B02090C0D0E0807030401C0
:1002200000000000000000000000000000000000CE
:10023000000000000000000000000000000012119B
:10024000100000000000000000000000000000009E
:1002500000000000000000002A0511241FBECFEF9F
:10026000D1E2DEBFCDBF00E00CBF12E0A0E0B2E003
:10027000E0E0FBE000E00BBF02C007900D92AE3162
:10028000B107D9F722E0AEE1B2E001C01D92A63974
:10029000B207E1F711E0CDE2D1E000E006C021971E
:1002A0000109802FFE010E947605CC32D10780E043
:1002B0000807A9F70E9442030C947E050C940000E5
:1002C00096E0899FD0011124A95DBD4F90967C9343
:1002D0006E935F9791E091969C939197E091940231
:1002E000F091950290919302992339F0309751F053
:1002F000811108C0809143021994309719F05C96DF
:100300008C91FACF0895CF92DF92EF92FF920F93E4
:100310001F9396E0899FF0011124E95DFD4F11A222
:10032000278D30A12130310551F178F0223031058F
:1003300009F451C02330310509F452C01F910F91C7
:10034000FF90EF90DF90CF9008956623B9F361E0BE
:1003500070E00E9460012FB7F89480912302909181
:100360002402A0912502B09126022FBF80937F0224
:1003700090938002A0938102B0938202DFCF9FB757
:10038000F894C0902302D0902402E0902502F090CF
:1003900026029FBF00917F0210918002209181026E
:1003A00030918202C01AD10AE20AF30A0091910246
:1003B0001091920230E020E00C151D052E053F053E
:1003C00050F462E070E01F910F91FF90EF90DF908A
:1003D000CF900C9460016111B1CF63E070E0F3CF76
:1003E00070E060E0F0CF8150823108F05AC0E82F11
:1003F000F0E08827E150FE4F8F4F0C9476051F02E6
:100400002302110217021B02510226022C023002A3
:1004100036023A023E024402480251024C025202A3
:100420005602809180008F7780938000089580919C
:1004300080008F7DF9CF80918000877FF5CF84B5D4
:100440008F7784BD089584B58F7DFBCF8091B000F8
:100450008F778093B00008958091B0008F7DF9CFA1
:10046000809190008F778093900008958091900004
:100470008F7DF9CF80919000877FF5CF8091A0008C
:100480008F778093A00008958091A0008F7DF9CF91
:100490008091A000877FF5CF809120018F77809396
:1004A00020010895809120018F7DF9CF8091200156
:1004B000877FF5CFCF93DF93282F30E0F901EE5EF1
:1004C000FD4F8491F901E453FE4FD491F901EA57AD
:1004D000FE4FC491CC23A1F081110E94F301EC2FB7
:1004E000F0E0EE0FFF1FE459FE4FA591B491EC919F
:1004F000ED2381E090E009F480E0DF91CF91089551
:1005000080E090E0FACF1F93CF93DF93282F30E065
:10051000F901EE5EFD4F8491F901E453FE4FD49151
:10052000F901EA57FE4FC491CC23A9F0162F81118F
:100530000E94F301EC2FF0E0EE0FFF1FEE5AFE4F8A
:10054000A591B4918FB7F894EC91111108C0D09592
:10055000DE23DC938FBFDF91CF911F910895DE2BB7
:10056000F8CFCF93DF9390E0FC01E453FE4F24914A
:100570008A579E4FFC0184918823C9F090E0880F30
:10058000991FFC01E85CFE4FA591B491FC01EE5A65
:10059000FE4FC591D49161110DC09FB7F8948C9115
:1005A000209582238C938881282328839FBFDF9105
:1005B000CF910895623051F49FB7F8943C91822F07
:1005C000809583238C93E8812E2BEFCF8FB7F894FF
:1005D000EC912E2B2C938FBFEACF862F642F0C9497
:1005E000B102862F642F0C948302862F0C945A023A
:1005F0001F920F920FB60F9211242F933F938F9358
:100600009F93AF93BF938091230290912402A09176
:100610002502B09126023091220223E0230F2D37CC
:1006200058F50196A11DB11D20932202809323024B
:1006300090932402A0932502B093260280911E027B
:1006400090911F02A0912002B09121020196A11D5C
:10065000B11D80931E0290931F02A0932002B093BD
:100660002102BF91AF919F918F913F912F910F9058
:100670000FBE0F901F90189526E8230F0296A11D1C
:10068000B11DD2CF789484B5826084BD84B5816079
:1006900084BD85B5826085BD85B5816085BD80914D
:1006A0006E00816080936E001092810080918100C5
:1006B00082608093810080918100816080938100BD
:1006C000809180008160809380008091B10084607F
:1006D0008093B1008091B00081608093B0008091E0
:1006E000910082608093910080919100816080935D
:1006F0009100809190008160809390008091A10092
:1007000082608093A1008091A10081608093A1000C
:100710008091A00081608093A0008091210182607F
:10072000809321018091210181608093210180913A
:10073000200181608093200180917A008460809301
:100740007A0080917A00826080937A0080917A00AA
:10075000816080937A0080917A00806880937A002B
:100760001092C10061E089E00E94B10261E08AE07C
:100770000E94B10261E08BE00E94B102812C912CB9
:100780005401839444244A94542C60E0662E60E023
:10079000762E51E0509393028FB7F8944091230244
:1007A0005091240260912502709126028FBF8091A2
:1007B000830290918402A0918502B0918602481B29
:1007C000590B6A0B7B0B80918F0290919002B0E0E5
:1007D000A0E084179507A607B70708F013C1C0E08B
:1007E00080918D02C81760F4E0918902F0918A022D
:1007F000EC0FF11D62E080810E94B102CF5FF0CF6B
:10080000312C80918E02381608F05FC0032D10E065
:10081000E0918B02F0918C02E00FF11F61E080818A
:100820000E94B102E0918B02F0918C02E00FF11F67
:1008300060E080810E948302D501C401032C04C0C2
:10084000880F991FAA1FBB1F0A94D2F76C017C0165
:10085000E094F094212C80918D022816F8F4C22D9A
:10086000D0E0E0918902F0918A02EC0FFD1F8081B7
:100870000E945A022496CC0FDD1FC95DDD4F892BE3
:1008800041F4888199818C299D29998388832394B7
:10089000E2CF888199818E219F21F7CFE0918B0251
:1008A000F0918C02E00FF11F61E080810E948302D1
:1008B00080918B0290918C02080F191F60E0F80163
:1008C00080810E94B10233949CCF07E212E0E801DC
:1008D0008F8D98A1892B21F41C8E5E8E4D8E19A2CE
:1008E0002696F2E0C336DF0799F7D12C80918D026E
:1008F000D81608F053C0C12CED2CF12CEE0CFF1CC7
:10090000C701815D9D4F7C0120918E02C21608F0C7
:1009100043C0F701608171810C2C02C07695679508
:100920000A94E2F7D29E900111242C0D311DE7E2CA
:10093000F2E080E0458D568D2417350709F488C014
:100940008F5F36968A30B1F760FF24C0E7E2F2E0AD
:1009500090E080E0448D411118C0E0918702F09151
:100960008802E20FF31F408156E0589FF001599F23
:10097000F00D1124E95DFD4F448F368F258F10A2B5
:10098000178E61E00E94830105C0019636968A3079
:10099000910501F7C394B8CFD394A8CF80E0F801B4
:1009A00091A19111892F0A5F1F4FC017D107B9F785
:1009B0009FB7F89440912302509124026091250240
:1009C000709126029FBF40938302509384026093EC
:1009D0008502709386028823A9F0809148028823BB
:1009E00089F08091460290914702019759F4C09195
:1009F0004302C1110AC06114710409F4CACE0E94F5
:100A00000000C7CE10929302F6CF80ED8C0F8A3093
:100A1000E0F40C2E000CDD0BE097C830D1055CF73C
:100A20006C2F617089E00E948302BE017595679505
:100A300061708AE00E948302BE0175956795759585
:100A400067958BE00E948302D6CFD0E0C0E0E8CF6C
:100A5000617098CF1092290210922D0210922C02F0
:100A600010922E0287E192E0909328028093270251
:100A7000E3E4F2E01082148213821582369682E05B
:100A8000EF37F807B9F783E092E090938A028093FA
:100A9000890280E092E090938C0280938B0284E044
:100AA00080938D0283E080938E0287E092E09093A2
:100AB0008802809387028AE090E09093900280936E
:100AC0008F0284EF91E090939202809391021092B2
:100AD0009502109294021092830210928402109256
:100AE000850210928602109293020895EE0FFF1F66
:100AF000881F8BBF0790F691E02D1994F894FFCFD3
:100B000006070802030405313233343536373839E5
:0E0B10002A302300000000ED02F102F5020081
:00000001FF
