:020000040000FA
:100000000C94EC050C9414060C9414060C94140631
:100010000C9414060C9414060C9414060C941406F8
:100020000C9414060C9414060C9414060C941406E8
:100030000C9414060C9414060C9414060C941406D8
:100040000C94591A0C9414060C94C91A0C94A31A03
:100050000C9414060C9414060C9414060C941406B8
:100060000C94FB1A0C9414064E414E494E495459B7
:10007000494E46CDCCCC3D0AD7233C17B7D1387773
:10008000CC2B329595E6241FB14F0A000020410089
:1000900000C84200401C4620BCBE4CCA1B0E5AAED3
:1000A000C59D7400407A10F35A00A0724E180900E2
:1000B00010A5D4E80000E87648170000E40B5402CD
:1000C0000000CA9A3B000000E1F505000080969808
:1000D00000000040420F000000A086010000001058
:1000E0002700000000E8030000000064000000009A
:1000F000000A00000000000100000000002C76D87B
:1001000088DC674F0823DFC1DFAE59E1B1B796E560
:10011000E3E453C63AE651997696E8E6C28426EBC4
:10012000898C9B62ED407C6FFCEFBC9C9F40F2BAD7
:10013000A56FA5F490055A2AF75C936B6CF9676D6F
:10014000C11BFCE0E40D47FEF520E6B500D0ED90C4
:100150002E0300943577050080841E080000204E91
:100160000A000000C80C333333330F986E1283112A
:1001700041EF8D2114893BE65516CFFEE6DB18D101
:10018000844B381BF77C1D901DA4BBE424203284D3
:10019000725E228100C9F124ECA1E53D2700000038
:1001A00000003E5B4F5B3E3E6B4F6B3E1C3E7C3E19
:1001B0001C183C7E3C181C577D571C1C5E7F5E1C27
:1001C00000183C1800FFE7C3E7FF0018241800FFE1
:1001D000E7DBE7FF30483A060E2629792926407FDB
:1001E000050507407F05253F5A3CE73C5A7F3E1CEA
:1001F0001C08081C1C3E7F14227F22145F5F005FD6
:100200005F06097F017F006689956A6060606060B3
:1002100094A2FFA29408047E040810207E201008F7
:10022000082A1C08081C2A08081E101010100C1E92
:100230000C1E0C30383E3830060E3E0E0600000014
:10024000000000005F00000007000700147F147F1B
:1002500014242A7F2A122313086462364956205038
:100260000008070300001C2241000041221C002A54
:100270001C7F1C2A08083E0808008070300008080F
:10028000080808000060600020100804023E514980
:10029000453E00427F400072494949462141494D4F
:1002A000331814127F1027454545393C4A494931D6
:1002B00041211109073649494936464949291E0055
:1002C00000140000004034000000081422411414FF
:1002D000141414004122140802015909063E415D1C
:1002E000594E7C1211127C7F494949363E414141A9
:1002F000227F4141413E7F494949417F0909090126
:100300003E414151737F0808087F00417F41002032
:1003100040413F017F081422417F404040407F021E
:100320001C027F7F0408107F3E4141413E7F090946
:1003300009063E4151215E7F09192946264949494E
:100340003203017F01033F4040403F1F2040201FF8
:100350003F4038403F63140814630304780403618A
:1003600059494D43007F414141020408102000419A
:1003700041417F0402010204404040404000030725
:10038000080020545478407F28444438384444447A
:1003900028384444287F385454541800087E0902F1
:1003A00018A4A49C787F0804047800447D400020B1
:1003B00040403D007F1028440000417F40007C0405
:1003C0007804787C080404783844444438FC1824C1
:1003D000241818242418FC7C080404084854545495
:1003E0002404043F44243C4040207C1C2040201C2A
:1003F0003C4030403C44281028444C9090907C4431
:1004000064544C440008364100000077000000416D
:1004100036080002010204023C2623263C1EA1A14C
:1004200061123A4040207A38545455592155557933
:1004300041225454784221555478402054557940F3
:100440000C1E527212395555555939545454593954
:10045000555454580000457C410002457D4200013E
:10046000457C407D1211127DF0282528F07C5455E2
:1004700045002054547C547C0A097F49324949493B
:10048000323A4444443A324A4848303A4141217A67
:100490003A42402078009DA0A07D3D4242423D3D31
:1004A0004040403D3C24FF2424487E4943662B2F96
:1004B000FC2F2BFF0929F620C0887E090320545405
:1004C00079410000447D413048484A32384040225A
:1004D0007A007A0A0A727D0D19317D2629292F2882
:1004E000262929292630484D4020380808080808C0
:1004F000080808382F10C8ACBA2F102834FA0000AA
:100500007B000008142A142222142A1408550055CE
:100510000055AA55AA55AAFF55FF55FF000000FF38
:1005200000101010FF00141414FF001010FF00FF43
:100530001010F010F0141414FC001414F700FF0055
:1005400000FF00FF1414F404FC141417101F101003
:100550001F101F1414141F00101010F000000000D2
:100560001F101010101F10101010F010000000FFCE
:10057000101010101010101010FF10000000FF14C9
:100580000000FF00FF00001F10170000FC04F4141F
:10059000141710171414F404F40000FF00F71414D7
:1005A0001414141414F700F7141414171410101F53
:1005B000101F141414F4141010F010F000001F1089
:1005C0001F0000001F14000000FC140000F010F0D9
:1005D0001010FF10FF141414FF141010101F00004F
:1005E0000000F010FFFFFFFFFFF0F0F0F0F0FFFF62
:1005F000FF0000000000FFFF0F0F0F0F0F384444F3
:100600003844FC4A4A4A347E02020606027E027ED2
:100610000263554941633844443C04407E201E2017
:1006200006027E020299A5E7A5991C2A492A1C4CBC
:100630007201724C304A4D4D303048784830BC62BF
:100640005A463D3E494949007E0101017E2A2A2A37
:100650002A2A44445F444440514A444040444A5159
:10066000400000FF0103E080FF000008086B6B08FA
:100670003612362436060F090F060000181800003F
:10068000001010003040FF0101001F01011E001981
:100690001D1712003C3C3C3C000000000000010320
:1006A000070F1F3F7F0080C0E0F0F8FCFEDB40A496
:1006B000A62EAF2000A1C8D300408DAED580A800E3
:1006C00000600000000000000000000000000000CA
:1006D000E00000000000000000000000000001E059
:1006E0000000000000000000000000000001F00019
:1006F00000000000000000000000000003F0000007
:10070000000000000000000000000007F0000000F2
:100710000000000000000000000007F800000000DA
:100720000000000000000000000FF800000003C0FF
:10073000007E000001E0007F0FF800000003C00011
:10074000FE000001E000FFEFF800000003C000FE23
:10075000000001E000FFFFF800000003C000F0000F
:1007600000000F007FFE7FC0000003C000F000000B
:10077000000F003FFE7FF83FF1FBCFFCFEF3BC3DD6
:10078000EFE01FFE7FFF7FFBFFDFFEFEFFBC3DEFC4
:10079000E01FC6FFFF7FFBFFDFFEFEFFBC3DEFE07B
:1007A0000FE3C7FE787BC3DE1EF0FFBC3DEF000702
:1007B000FF87FC787BC3DE1EF0F83C3DEF0001FFB5
:1007C000FFF0007BC3C01EF0F03C3DEF0001F37F63
:1007D000E03FFBC3CFFEF0F03C3DEF0003E33F8082
:1007E0007FFBC3DFFEF0F03C3DEF0007E73C007805
:1007F0007BC3DE1EF0F03C3DEF0007FFBE00787BC0
:10080000C3DE1EF0F03C3DEF0007FFFE00787BC327
:10081000DE1EF0F03C3DEF000FFFFE007FFBFFDF30
:10082000FEF0F03FFDEFE00FFFFF007FFBFFDFFE7C
:10083000F0F03FFDEFE00FF9FF003E79F9CF9EF0B9
:10084000F01F3DE7E01FF1FF000000000000000086
:10085000000000001F80FF007FFFFFFFFFFFFFFF82
:10086000FFFFE01C007F007FFFFFFFFEB46D888D5F
:1008700018E000001F007FFFFFFFFE95AD7DB577FC
:10088000E000000F007FFFFFFFFEA5AD9D8D19E08A
:10089000000006007FFFFFFFFEB5ADEDB57EE00076
:1008A00000000000018000000000000000000003C4
:1008B0008000000000000000000007C000000000F1
:1008C000000000000007C000000000000000000061
:1008D0000FC00000000000000000001FE00000004A
:1008E0000000000000001FE0000000000000000009
:1008F000003FE00000000000000000003FF00000AA
:10090000000000000000007FF00000000000000078
:100910001FF87FF0000000000000003FFE7FF000A5
:100920000000000000003FFF7FF00000000000001A
:10093000001FFFFBE0000000000000000FFFF9FFB8
:10094000C00000000000000FFFF9FFF800000000E9
:10095000000007FFF1FFFF00000000000003FC7330
:10096000FFFF80000000000001FE3FFFFF8000004D
:1009700000000000FF1E0FFF000000000000007FCD
:10098000FE1FFC000000000000003FFFFFF8000019
:1009900000000000000FDFFFE0000000000000008A
:1009A0001F19FFC0000000000000003F3CFF0000D6
:1009B0000000000000007E7CF80000000000000045
:1009C000007FFE7C0000000000000000FFFFFC0034
:1009D00000000000000000FFFFFE0000000000001B
:1009E0000000FFFFFE0000000000000001FFEFFE1E
:1009F0000000000000000001FFCFFE00000000002A
:100A0000000003FF07FE0000000000000003FC07D9
:100A1000FE0000000000000003F003FE00000000E4
:100A2000000000018000FE00000000000000000047
:100A3000007E000000000000000000003E000000FA
:100A4000000000000000000C000000000000078013
:100A500000FC000003C0000000078001FC00000350
:100A6000C0000000078001FC000003C00000000778
:100A70008001E00000001E000000078001E000008F
:100A8000001E007FE3F79FF9FDE7787BDFC0FFF7EB
:100A9000FFBFFDFDFF787BDFC0FFF7FFBFFDFDFF60
:100AA000787BDFC0F0F787BC3DE1FF787BDE00F0AC
:100AB000F787BC3DE1F0787BDE0000F787803DE101
:100AC000E0787BDE007FF7879FFDE1E0787BDE004A
:100AD000FFF787BFFDE1E0787BDE00F0F787BC3DE4
:100AE000E1E0787BDE00F0F787BC3DE1E0787BDE7B
:100AF00000F0F787BC3DE1E0787BDE00FFF7FFBF49
:100B0000FDE1E07FFBDFC0FFF7FFBFFDE1E07FFB22
:100B1000DFC07CF3F39F3DE1E03E7BCFC0000000EF
:100B20000000000000000000FFFFFFFFFFFFFFFFCD
:100B3000FFFFC0FFFFFFFFFD68DB111A31C0FFFFA1
:100B4000FFFFFD2B5AFB6AEFC0FFFFFFFFFD4B5B72
:100B50003B1A33C0FFFFFFFFFD6B5BDB6AFDC05339
:100B600053443133303620646973706C6179206688
:100B700061696C65640000000000240027002A0001
:100B800000000000250028002B00000000002300CA
:100B900026002900040404040404040402020202DE
:100BA0000202030303030303010204081020408030
:100BB00001020408102001020408102000000008AF
:100BC0000002010000030407000000000000000014
:100BD0002200FF211A1C082311241FBECFEFD8E0EA
:100BE000DEBFCDBF23E0A8E8B1E001C01D92A03C6C
:100BF000B207E1F711E0A0E0B1E0E0EFF6E502C0F6
:100C000005900D92A838B107D9F715E0CBEED5E0E5
:100C100004C02197FE010E945E29CA3ED107C9F790
:100C20000E94341D0C946B2B0C9400002F923F9269
:100C30004F925F926F927F928F929F92AF92BF92EC
:100C4000CF92DF92EF92FF920F931F93CF93DF9398
:100C500000D000D000D01F92CDB7DEB7FC01448198
:100C60005581452B09F4BFC0A0919303B091940323
:100C70000091910310918E03A12EB12CF6E01F9FDD
:100C80004001112420918203309183033F832E83FE
:100C90009D012C5F3F4F3B832A832E5F3F4F3D8357
:100CA0002C831D0132E0230E311C3D0148E0640E0F
:100CB000711CFC01E080F18090E080E02FEF3FEFBD
:100CC0006FEF7FE7F701D1907F01DD2009F484C049
:100CD000109709F45EC0FAE0DF1205C0F3018491B9
:100CE00090E080E0EFCFFDE0DF1661F3EA81FB8169
:100CF000C490EC81FD814491DC1420F34D1510F378
:100D0000F10145915491DC18F7E0DF9E400D511D33
:100D10001124FA01329654903196E491FA013496F6
:100D200044903196D490D9823196E4910023C9F051
:100D3000C52CD12C4981C40ED11C47FDDA94CA9C24
:100D4000A001CB9C500DDA9C500D1124480F591F67
:100D5000EE81FF81E417F50724F4F301849190E01C
:100D600080E049814103F0011124E80FF91FE617E3
:100D7000F7070CF4BF01519EE00DF11D11243197CE
:100D80002E173F070CF49F01419E800D911D1124E9
:100D900099CFEAE0DE1609F4A3CFFDE0DF1609F4EF
:100DA00091CF002351F0A401480F591FEE81FF811C
:100DB000E417F50714F490E080E0A401480F591FF0
:100DC000FA0131972E173F070CF49F0186179707FA
:100DD0000CF4BC01CA0176CF261737071CF1261B7D
:100DE000370B2F5F3F4F80E890E0821B930B969567
:100DF000879527960FB6F894DEBF0FBECDBFDF9163
:100E0000CF911F910F91FF90EF90DF90CF90BF9007
:100E1000AF909F908F907F906F905F904F903F909A
:100E20002F90089530E020E0DECF089596E0899F6E
:100E3000D0011124A150BD4F90967C936E935F9783
:100E400091E091969C939197E0916C03F0916D03E2
:100E500090916B03992339F0309751F0811108C0BC
:100E600080911B030994309719F05C968C91FACF0E
:100E70000895CF92DF92EF92FF920F931F9396E027
:100E8000899FF0011124E150FD4F11A2278D30A15F
:100E90002130310551F178F02230310509F451C08B
:100EA0002330310509F452C01F910F91FF90EF904C
:100EB000DF90CF9008956623B9F361E070E00E945F
:100EC00016072FB7F8948091540290915502A09183
:100ED0005602B09157022FBF809357039093580347
:100EE000A0935903B0935A03DFCF9FB7F894C090F3
:100EF0005402D0905502E0905602F09057029FBFE6
:100F000000915703109158032091590330915A03CF
:100F1000C01AD10AE20AF30A0091690310916A0328
:100F200030E020E00C151D052E053F0550F462E071
:100F300070E01F910F91FF90EF90DF90CF900C9495
:100F400016076111B1CF63E070E0F3CF70E060E0AD
:100F5000F0CF833081F028F4813099F08230A9F00D
:100F600008958730A9F08830C9F08430B1F48091B9
:100F700080008F7D03C0809180008F7780938000F8
:100F8000089584B58F7784BD089584B58F7DFBCF98
:100F90008091B0008F778093B00008958091B00069
:100FA0008F7DF9CFCF93DF93282F30E0F901E45400
:100FB000F44F8491F901E855F44FD491F901EC56BE
:100FC000F44FC491CC23A1F081110E94A907EC2F0A
:100FD000F0E0EE0FFF1FE657F44FA591B491EC91AE
:100FE000ED2381E090E009F480E0DF91CF91089556
:100FF00080E090E0FACF1F93CF93DF93282F30E06B
:10100000F901E454F44F8491F901E855F44FD49177
:10101000F901EC56F44FC491CC23A9F0162F81119D
:101020000E94A907EC2FF0E0EE0FFF1FE058F44FED
:10103000A591B4918FB7F894EC91111108C0D09597
:10104000DE23DC938FBFDF91CF911F910895DE2BBC
:10105000F8CFCF93DF9390E0FC01E855F44F249153
:101060008C56944FFC0184918823C9F090E0880F3E
:10107000991FFC01EA58F44FA591B491FC01E05886
:10108000F44FC591D49161110DC09FB7F8948C9124
:10109000209582238C938881282328839FBFDF910A
:1010A000CF910895623051F49FB7F8943C91822F0C
:1010B000809583238C93E8812E2BEFCF8FB7F89404
:1010C000EC912E2B2C938FBFEACF3FB7F8948091F1
:1010D000500290915102A0915202B091530226B554
:1010E000A89B05C02F3F19F00196A11DB11D3FBF60
:1010F000BA2FA92F982F8827BC01CD01620F711D2F
:10110000811D911D42E0660F771F881F991F4A9528
:10111000D1F708958F929F92AF92BF92CF92DF92B4
:10112000EF92FF924B015C010E9465086B017C010C
:101130000E9465086C197D098E099F09683E7340FD
:1011400081059105A8F321E0821A9108A108B10850
:1011500088EEC80E83E0D81EE11CF11C81149104B6
:10116000A104B10429F7FF90EF90DF90CF90BF90DA
:10117000AF909F908F900895862F642F0C9429082C
:10118000862F642F0C94FB07862F0C94D2070895AA
:1011900008950895AF92BF92CF92DF92EF92FF929F
:1011A0000F931F93CF93DF936C017B018B01040F8F
:1011B000151FEB015E01AE18BF08C017D10759F02B
:1011C0006991D601ED91FC910190F081E02DC6016D
:1011D0000995892B79F7C501DF91CF911F910F9167
:1011E000FF90EF90DF90CF90BF90AF900895FC01FB
:1011F000538D448D252F30E0842F90E0821B930B7C
:10120000541710F0CF96089501970895FC01918D21
:10121000828D981761F0A28DAE0FBF2FB11D5D9624
:101220008C91928D9F5F9F73928F90E008958FEFC6
:101230009FEF0895FC01918D828D981731F0828D7A
:10124000E80FF11D858D90E008958FEF9FEF0895D1
:10125000FC01918D228D892F90E0805C9F4F821B35
:1012600091098F73992708958CE592E00E942809CF
:1012700021E0892B09F420E0822F089580E090E09E
:10128000892B29F00E94340981110C9400000895E3
:10129000FC01A48DA80FB92FB11DA35ABF4F2C91EB
:1012A000848D90E001968F739927848FA689B789E2
:1012B0002C93A089B1898C91837080648C93938DD9
:1012C000848D981306C00288F389E02D80818F7D7C
:1012D00080830895EF92FF920F931F93CF93DF9334
:1012E000EC0181E0888F9B8D8C8D98131AC0E88962
:1012F000F989808185FF15C09FB7F894EE89FF8931
:101300006083E889F98980818370806480839FBFCE
:1013100081E090E0DF91CF911F910F91FF90EF90CE
:101320000895F62E0B8D10E00F5F1F4F0F731127DE
:10133000E02E8C8D8E110CC00FB607FCFACFE88919
:10134000F989808185FFF5CFCE010E944809F1CF50
:10135000EB8DEC0FFD2FF11DE35AFF4FF0829FB78D
:10136000F8940B8FEA89FB8980818062CFCFCF937D
:10137000DF93EC01888D8823B9F0AA89BB89E889BD
:10138000F9898C9185FD03C0808186FD0DC00FB663
:1013900007FCF7CF8C9185FFF2CF808185FFEDCFE1
:1013A000CE010E944809E9CFDF91CF910895EF92D5
:1013B000FF920F931F93CF93DF93EC01EC80FD809E
:1013C0006E157F050CF070C057FF04C0240F351F49
:1013D00050E040E08E819F81FA01E20FF31F8E17EB
:1013E0009F071CF49C01241B350B121613060CF0EE
:1013F0005BC0922F842F8695869586958E9DD00111
:101400008F9DB00D11246A0F7B1FAF8DB8A1A60F61
:10141000B71F477049F188E0841B482F682F70E0A0
:10142000FB01EB55F94FE491281708F063C0621BEC
:1014300071092FEF30E002C0359527956A95E2F7E4
:10144000E2230130110539F0B0F10230110561F5E8
:101450008C91E82702C08C91E82BEC93941720F133
:101460002C813D81A20FB31FE92FE41BE83078F0F7
:101470000230110521F58E2F9C9190959C932C8123
:101480003D81A20FB31F88508830B0F7E770EE237C
:1014900059F0F0E0E356F94FE49101301105F9F00D
:1014A00010F10230110519F1DF91CF911F910F91C9
:1014B000FF90EF900895E0958C91E823CECF81E0E6
:1014C0000115110509F480E081959E2F8C932C81E4
:1014D0003D81A20FB31F98509830C0F7D7CF8C91A1
:1014E000E82BEC93E1CFE0958C91E823FACF8C9137
:1014F000E827F7CF0130110509F4ADCFE0F2023053
:10150000110509F4A5CFAE0DBF1DAECF0F931F93EC
:10151000CF93DF9377FF04C0260F371F70E060E0A2
:10152000DC011496CD91DC91FB01E20FF31FCE1785
:10153000DF071CF49E01261B370B121613064CF511
:10154000FA0157FD3796A3E0F595E795AA95E1F7DF
:10155000EC9FD001ED9FB00DFC9FB00D11246A0FE0
:101560007B1FDC015F96ED91FC91E60FF71F477042
:10157000552781E090E001C0880F4A95EAF7482F8F
:101580000130110559F0A8F02E0F3F1F0230110550
:10159000E1F0DF91CF911F910F9108952E0F3F1F22
:1015A000E217F307B1F38191DF011197842B8C933C
:1015B000F7CF80952E0F3F1FE217F30751F391915C
:1015C000DF01119798239C93F7CFE217F30709F3F4
:1015D0008191DF01119784278C93F7CF0F931F938D
:1015E000FA01DC0156964C9156974230E9F04330AF
:1015F000A1F1413061F514964D915C91DA01AE1B79
:10160000BF0BFD01E21BF30B77FD0BC0DC0116964F
:101610004D915C916417750724F4AB01BF010E94E2
:10162000860A1F910F91089514964D915C91DA01ED
:10163000A61BB70BBD0161507109DC0116964D91D7
:101640005C91DA01AE1BBF0BFD01E21BF30B77FDD2
:10165000E8CFAF010E94D709E4CF16964D915C9177
:10166000DA01A61BB70BBD0161507109CDCF0F93F5
:101670001F93FA01DC0156964C9156974230A9F01F
:10168000433091F1413019F514964D915C91DA0196
:10169000AE1BBF0BFD013197F7FD04C0AB01BF01CD
:1016A0000E94D7091F910F91089514964D915C9156
:1016B000DA01A61BB70BBD01DC0116964D915C91BA
:1016C000DA01AE1BBF0BFD013197621B730BF7FDF7
:1016D000E9CFDC0116964D915C91E417F50714F7FC
:1016E000AF010E94860ADECF16964D915C91DA0119
:1016F000A61BB70BBD01621B730BCECFFC0177FDA0
:1017000064C080859185681779070CF05EC057FD2D
:101710005CC082859385481759070CF056C08689AE
:101720008230B1F0833029F1813041F48481958198
:10173000841B950BAB01BC0161507109213031054F
:1017400009F108F443C02230310509F463C008955B
:1017500084819581DC01A61BB70BBD016150710925
:1017600086819781DC01A41BB50BAD014150510965
:10177000E5CF86819781861B970BBA01AC0141505A
:101780005109DCCFCA0157FD0796A3E095958795CF
:10179000AA95E1F7A481B5818A9F90018B9F300DB6
:1017A0009A9F300D1124620F731F078CF0A1E02D5A
:1017B000E60FF71F4770552721E030E001C0220FE8
:1017C0004A95EAF78081822B80830895CA0157FDEC
:1017D000079633E0959587953A95E1F7A481B58111
:1017E0008A9F90018B9F300D9A9F300D1124620FBC
:1017F000731F078CF0A1E02DE60FF71F47705527E8
:1018000081E090E001C0880F4A95EAF780959081C9
:101810008923DACFCA0157FD079623E0959587956E
:101820002A95E1F7A481B5818A9F90018B9F300DA5
:101830009A9F300D1124620F731F078CF0A1E02DC9
:10184000E60FF71F4770552721E030E001C0220F57
:101850004A95EAF780818227B7CF08958EBD0000B0
:101860000DB407FEFDCF8EB508958CBD9DBD0895C6
:101870000895FC016370668B848195812681378190
:10188000613039F0633029F0918780873387228770
:101890000895318720879387828708952F923F92FA
:1018A0004F925F926F927F928F929F92AF92BF9270
:1018B000CF92DF92EF92FF920F931F93CF93DF931C
:1018C000CDB7DEB76A970FB6F894DEBF0FBECDBFB7
:1018D0009A8F898F7A8369834A01D22E18870F8362
:1018E0003701BC2CDC0159962D913C915A9721155A
:1018F000310509F015C118968D919C9119976817BB
:1019000079070CF0D7C11A968D919C914817590709
:101910000CF0D0C14C2C512CB6E0CB9E600D711D4B
:1019200011247C876B87161617060CF0C3C1EA2DAD
:10193000F0E0FA87E98793E0EE0FFF1F9A95E1F751
:10194000F88BEF87CF01840F951F181619060CF03E
:10195000B1C1A98DBA8D58968C91811104C0BFEA8E
:10196000BD1508F4D394A98DBA8DED91FC91119712
:101970000284F385E02DCD010995B5E0DB9EC00121
:101980001124E981FA81FC83EB83312C212C9C0109
:1019900023563E4F388F2F8B4A2D50E05E8B4D8B58
:1019A000EF89F88DE20DF31D44919E828D82D12C3A
:1019B000C12C69817A81620D731D7A8B698B842FAA
:1019C00090E09C8B8B8BE98DFA8DA081B18140FFDB
:1019D00082C0F1E0BF126FC0AF126DC01C96ED91D6
:1019E000FC912F813885A4014C0D5D1D69897A8990
:1019F000898D9A8D0995EB89FC89F595E7954E2F90
:101A00005FEFC51AD50A6D817E818D899E89680F29
:101A1000791F7E836D8398E0C916D10481F6AFEFFC
:101A20002A1A3A0AEB81FC81E40DF51DFC83EB8355
:101A3000F5E02F16310409F0B3CF2F813885261534
:101A40003705B9F0A98DBA8DED91FC91B1E0BB12CB
:101A500057C0AB1255C069817A816B5F7F4F008898
:101A6000F189E02D830128E030E0A401898D9A8D71
:101A70000995A98DBA8DED91FC9111970688F7898A
:101A8000E02DCD016A960FB6F894DEBF0FBECDBF34
:101A9000DF91CF911F910F91FF90EF90DF90CF904A
:101AA000BF90AF909F908F907F906F905F904F907E
:101AB0003F902F9009941E96ED91FC91EF80F88451
:101AC00009851A8592014D815E816B817C81898DAA
:101AD0009A8D099590CF2F8138852615370509F401
:101AE0008ACF31E0B31207C0A31205C01C96ED9156
:101AF000FC91930178CF1E96ED91FC917301E0CF9C
:101B00006B857C85641975090684F785E02D730162
:101B10000F8518899201A401898D9A8D0995A9CF05
:101B2000F90134969491329745915491D91AB7E0BE
:101B3000DB9E400D511D1124F901259134913C8B00
:101B40002B8BFA0125903490FA01329674903196DD
:101B50003491398B329664903196449041E04C1523
:101B600018F04A1508F07FC0662D062C000C770B84
:101B70007C836B83842D042C000C990B9E838D83B6
:101B8000A98DBA8DED91FC9111970284F385E02D1A
:101B9000CD010995512CD12CC12CEA2DF0E0FA870A
:101BA000E9872B2D30E03C872B87A401440D511D84
:101BB00047FC5A95588F4F8B69817A81660D711D4C
:101BC00067FC7A957E876D877989C71608F051CFB3
:101BD0002C2D30E04D815E81420F531FA985BA85BF
:101BE0004A9FC0014B9F900D5A9F900D1124FC01FC
:101BF000E80DF91DF88BEF87852D612C4F89588DE5
:101C0000420F531F5E8B4D8B671408F050C0442465
:101C10004394480E877041F4C1010196EB89FC8919
:101C2000E20DF31DD4901C01D7FE19C0A98DBA8D09
:101C3000ED91FC91662D70E0B1E0BB1219C0AB12C2
:101C400017C02D853E85620F731F0484F585E02D36
:101C50002F8138854D895E89898D9A8D0995DD0C96
:101C60006394842DD1CF1E821D821C821B8288CF5B
:101C70004B815C81640F751FAB85BC856A9FC00179
:101C80006B9F900D7A9F900D112469817A81680F66
:101C9000791F0684F785E02DEF80F88409851A8581
:101CA0009D014F855889898D9A8D0995D8CF570CFC
:101CB000C3948ACF6A960FB6F894DEBF0FBECDBF2D
:101CC000DF91CF911F910F91FF90EF90DF90CF9018
:101CD000BF90AF909F908F907F906F905F904F904C
:101CE0003F902F9008958F929F92AF92CF92EF9254
:101CF000FF920F931F93CF93DF93EC01262F898DD3
:101D00009A8D009709F051C06A30D1F41D861C8667
:101D10008D8948E0849F900111248E859F85820FD4
:101D2000931F9F878E8781E090E0DF91CF911F9175
:101D30000F91FF90EF90CF90AF909F908F9008956C
:101D40006D3089F3CC88AD888F898823C1F08C856C
:101D50009D8536E0C39E800D911D112448855985CF
:101D60004817590764F44E855F851D861C8638E048
:101D7000A39EC0011124840F951F9F878E87EA8838
:101D8000FB88088919894E855F856C857D85CE0124
:101D90000E944E0C2C898C859D8546E0249F800DE9
:101DA000911D11249D878C87BECF6A3069F41D86F2
:101DB0001C86FC013896E4912D898E859F85E29FD3
:101DC000800D911D1124ADCF6D3009F4ACCFFC0115
:101DD00034963491631708F4A6CF3296E491E6174F
:101DE00008F4A1CFFC01329685909490462F431BB6
:101DF000342F47E0349F800C911C1124F40132965B
:101E000034913196E4913323A9F1EE2399F1CC88F2
:101E1000F4013596E491AD884F89442301F10E2EEB
:101E2000000CFF0BE30FF11DCE9EA001CF9E500DC5
:101E300011246C857D85460F571F68857985641749
:101E400075076CF44E855F851D861C86FC013896EF
:101E5000E491AE9E400D511D11245F874E87EA88A4
:101E6000FB88088919894E855F856C857D85CE0143
:101E70000E944E0CF4013496E4912C898C859D854A
:101E8000E29F800D911D11248DCF6F927F928F92D2
:101E90009F92AF92BF92CF92DF92EF92FF920F93F9
:101EA0001F93CF93DF93EC016B015A013901480175
:101EB000E881F9810284F385E02D0995E881F981B3
:101EC0000288F389E02D87019301A501B601CE01B7
:101ED0000995A501480D591D41505109E881F98125
:101EE0000288F389E02D9301B601CE010995E881BE
:101EF000F9810088F189E02D9401A501B601CE0198
:101F00000995C60CD71CB60161507109E881F981A9
:101F10000088F189E02D9401A501CE010995E881A1
:101F2000F9810688F789E02DCE01DF91CF911F91CD
:101F30000F91FF90EF90DF90CF90BF90AF909F9068
:101F40008F907F906F9009946F927F928F929F9263
:101F5000AF92BF92CF92DF92EF92FF920F931F93B7
:101F6000CF93DF935C01EB016A01490138018701DE
:101F7000DC01ED91FC916217730719F56416750683
:101F80002CF0962D872D3A01C92ED82E96012619B0
:101F900037092F5F3F4F048CF58DE02DA301BE0163
:101FA000C5010995DF91CF911F910F91FF90EF909F
:101FB000DF90CF90BF90AF909F908F907F906F9069
:101FC00008954615570591F42617370724F0892DF3
:101FD0004B01C22FD82F9E01281939092F5F3F4F7F
:101FE000068CF78DE02DA601B401DACF0284F385CB
:101FF000E02D0995D501ED91FC910488F589E02D3E
:1020000083019401A601BE01C5010995D501ED9199
:10201000FC910688F789E02DC501DF91CF911F91D2
:102020000F91FF90EF90DF90CF90BF90AF909F9077
:102030008F907F906F900994EF92FF920F931F9370
:10204000DC011A960D911C911B9718962D913C91CD
:102050001997ED91FC9100A0F1A1E02D7B0150E0DA
:1020600040E070E060E009951F910F91FF90EF90C4
:1020700008954F925F926F927F928F929F92AF924C
:10208000BF92CF92DF92EF92FF920F931F93CF9365
:10209000DF936C012B015A0139014801DC01ED91FC
:1020A000FC910284F385E02D0995E201640C751C16
:1020B000D601ED91FC91C615D7055CF40088F18935
:1020C000E02D87019401A501BE01C6010995219665
:1020D000EFCF0688F789E02DC601DF91CF911F91E0
:1020E0000F91FF90EF90DF90CF90BF90AF909F90B7
:1020F0008F907F906F905F904F9009948F929F92F6
:10210000AF92BF92CF92DF92EF92FF920F931F9305
:10211000CF93DF93EC015B014A016901E881F9810A
:102120000284F385E02D099595012C0D3D1D21506C
:102130003109E881F9810488F589E02D780184016D
:10214000A401B501CE010995E881F9810688F789D6
:10215000E02DCE01DF91CF911F910F91FF90EF9075
:10216000DF90CF90BF90AF909F908F9009948F9207
:102170009F92AF92BF92CF92DF92EF92FF920F9316
:102180001F93CF93DF93EC015B014A016901780152
:10219000E881F9810284F385E02D0995C80CD91CEA
:1021A000860101501109E881F9810488F589E02D43
:1021B0009501A401B501CE010995E881F981068850
:1021C000F789E02DCE01DF91CF911F910F91FF9004
:1021D000EF90DF90CF90BF90AF909F908F90099439
:1021E000EF92FF920F931F93DC01ED91FC9100A001
:1021F000F1A1E02D09951F910F91FF90EF900895A7
:102200000F931F93DC01ED91FC91068CF78DE02D6F
:1022100009951F910F9108950F931F93DC01ED9184
:10222000FC91048CF58DE02D09951F910F91089577
:10223000DC01ED91FC910084F185E02D09943F9241
:102240004F925F926F927F928F929F92AF92BF92C6
:10225000CF92DF92EF92FF920F931F93CF93DF9372
:102260005C017B014A016901390187E0680E711C3C
:1022700093E0759467949A95E1F72B01400E511EF7
:1022800010E000E0312CD0E0C0E0CE01877099274B
:10229000330C892B59F4FE0183E0F595E7958A9577
:1022A000E1F7E00FF11FE80DF91D349037FE0AC089
:1022B00021E030E0A701B5016C0F7D1F8AE793E0B4
:1022C0000E9418112196CC16DD06F9F68FEFE81A58
:1022D000F80A060D171DE414F504A9F6DF91CF9155
:1022E0001F910F91FF90EF90DF90CF90BF90AF9034
:1022F0009F908F907F906F905F904F903F90089548
:102300002F923F924F925F926F927F928F929F9205
:10231000AF92BF92CF92DF92EF92FF920F931F93F3
:10232000CF93DF9300D000D000D0CDB7DEB73C0113
:102330006A013E832D83FC82EB825801A41AB50A00
:10234000B7FE03C0B194A194B1088D809E80861A17
:10235000970A97FE03C09194819491088A149B0474
:102360005CF0902F812F0D811E819D838E839C2D8B
:102370008D2D6B01692F782F0C151D055CF09D814B
:102380008E817E836D83692F782F902F812F860118
:10239000C92ED82E1601201A310A2B012D813E811B
:1023A000421A530A57FE03C05194419451087101D7
:1023B00037FE03C03FEFE31AF30AF594E7948D81EB
:1023C0009E81861797075CF5A1E0B0E0BA83A983E8
:1023D000C016D1064CF1D301ED91FC910484F58532
:1023E000E02D2B813C81A8016D817E818A149B04A4
:1023F0001CF04D815E81B801C3010995E418F50810
:10240000F7FE0AC02D813E8189819A81280F391FEC
:102410003E832D83E20CF31C0F5F1F4FD9CF2FEFAC
:102420003FEF3A832983D4CF26960FB6F894DEBFC8
:102430000FBECDBFDF91CF911F910F91FF90EF9015
:10244000DF90CF90BF90AF909F908F907F906F90D4
:102450005F904F903F902F9008952091EE01260FAE
:102460003327331F21323105ECF420911202FC0195
:1024700090E080E0243069F082E00895A091EE01C0
:102480002191AC0142535E4FA40FB52FB11D2C9387
:102490000196861798F38091EE01680F6093EE0124
:1024A00080E0089581E008951092120281E0809307
:1024B00014021092130261E082E10E94FB0761E0C6
:1024C00083E10E94FB07E9EBF0E080818E7F80834F
:1024D00080818D7F808388E48093B80085E4809339
:1024E000BC000895CF93DF9391E09093CD018823B2
:1024F000B9F0C091B800D091BA008091BC008A7B3D
:102500008093BC0060E082E10E94FB0760E083E111
:102510000E94FB070E945412D093BA00C093B800E7
:10252000DF91CF910895E0913E0280913D02E8173E
:1025300030F4F0E0E855FE4F808190E008958FEF91
:102540009FEF089590913E0280913D022FEF3FEF63
:10255000981748F4E92FF0E0E855FE4F208130E06D
:102560009F5F90933E02C901089580913D02909132
:102570003E02891B990B0895CF92DF92EF92FF9252
:102580000F931F93CF93DF937C01CB018A0120919E
:102590005B02222389F0EB016B01C40ED51ECC1522
:1025A000DD0569F06991D701ED91FC910190F08111
:1025B000E02DC7010995F3CF642F0E942D12C801A9
:1025C000DF91CF911F910F91FF90EF90DF90CF900F
:1025D0000895CF93DF931F92CDB7DEB76983209123
:1025E0005B022223F9F020915802203258F021E0BA
:1025F00030E0FC013383228390E080E00F90DF9194
:10260000CF91089580915902E82FF0E0E857FE4FEE
:10261000998190838F5F809359028093580281E063
:1026200090E0ECCF61E0CE0101960E942D12F7CF31
:10263000CF92DF92EF92FF920F931F93CF93DF938E
:10264000D091580281E0D13208F09CC0C0915A026A
:102650000E9465086B017C018091120281116CC09F
:1026600082E08093120281E0809314028FEF8093C6
:10267000110210923602D0933502A8E8B1E0E5E1EC
:10268000F2E080E0D8138DC01092370280913702BB
:10269000CC0FC82BC093370280911302813009F010
:1026A00084C0109213020E9465086B017C01809126
:1026B00037028093BB008091C9019091CA01A0911B
:1026C000CB01B091CC01892B8A2B8B2BA1F00E94DE
:1026D00065080091C9011091CA012091CB01309188
:1026E000CC016C197D098E099F0906171707280769
:1026F000390708F442C08091BC0083FDD8CF85EC37
:102700008093BC000E9465086B017C0180911202DD
:10271000823009F44CC0809111028F3F09F469C0E6
:1027200080911102803209F466C0809111028033D9
:1027300009F463C084E026C08091C9019091CA0168
:10274000A091CB01B091CC01892B8A2B8B2B09F462
:1027500083CF0E9465080091C9011091CA012091A0
:10276000CB013091CC016C197D098E099F090617A8
:1027700017072807390708F06FCF8091C8010E941A
:10278000721285E0109259021092580210925B0268
:10279000DF91CF911F910F91FF90EF90DF90CF903D
:1027A00008959D9191938F5F6DCF85EEA9CF809114
:1027B000C9019091CA01A091CB01B091CC01892BA4
:1027C0008A2B8B2B09F4A2CF0E9465080091C901C6
:1027D0001091CA012091CB013091CC016C197D0977
:1027E0008E099F09061717072807390708F08ECFAB
:1027F000C4CF80E0C7CF82E0C5CF83E0C3CFEF92E4
:10280000FF920F931F93CF93DF937C01C62F80918C
:10281000970390919803009709F459C020919B0366
:1028200031E030935B0220935A02109259021092C9
:102830005802DC01ED91FC910190F081E02D60E007
:1028400009958701EE24E394F12CD1E0C1508091E9
:10285000970390919803CF3F91F1B0E2EB16F1040A
:10286000D8F00E94181380919703909198032091BB
:102870009B03D0935B0220935A021092590210924C
:102880005802DC01ED91FC910190F081E02D60E0B7
:102890000995EE24E394F12C80919703909198038D
:1028A000F8016491DC01ED91FC910190F081E02D43
:1028B0000995BFEFEB1AFB0A0F5F1F4FC7CFDF91E0
:1028C000CF911F910F91FF90EF900C941813E0910E
:1028D000A703F091A80390818091AD03809589238F
:1028E00080838701C15008F438C0F8018491209199
:1028F000950330919603232B29F00E942E0C0F5F35
:102900001F4FF0CF28E030E040E8E091A303F091C2
:10291000A4039091AB03582F5423D9F05081952BE9
:102920009083E091A503F091A60390815091AC03B0
:10293000952B9083E091A503F091A603508190918F
:10294000AC03909595239083469521503109E9F683
:10295000D6CF508190959523E3CFDF91CF911F91F2
:102960000F91FF90EF9008951F93CF93DF93EC01A9
:102970008D8D9E8D009721F1162F29A131E0309386
:102980005B0220935A021092590210925802DC0105
:10299000ED91FC910190F081E02D60E009958D8D25
:1029A0009E8DDC01ED91FC910190F081E02D612F75
:1029B00009958D8D9E8DDF91CF911F910C941813E9
:1029C000ADA5BEA59C918BA9809589238C938B8DF9
:1029D0009C8D892B31F0862FDF91CF911F910C9424
:1029E0002E0C28E030E080E8A9A5BAA599A9462FC9
:1029F0004823C1F04C91942B9C93ABA5BCA59C9112
:102A00004AA9942B9C93ABA5BCA54C919AA99095EF
:102A100094239C9386952150310931F7DF91CF9112
:102A20001F9108954C9190959423E6CFDF92EF92F9
:102A3000FF920F931F93CF93DF9380919703909111
:102A40009803892B09F4A5C02091AF033091B003FE
:102A50004091B1035091B20360E074E284EF90E0E2
:102A60000E943C2920513109410951095695479549
:102A7000379527952093B80064E080ED9BE00E9495
:102A8000FF1380917E0390917F038034910509F0BC
:102A900097C060E28AE793E00E94B41460917E03DD
:102AA000615E8AE793E00E94B41420918003309124
:102AB0008103C901079697FD079633E095958795A1
:102AC0003A95E1F720917E0330917F03829F800148
:102AD000839F100D929F100D1124C0919903D091E6
:102AE0009A0380919703909198030C0F1D1F0097F4
:102AF00009F498C020919B0331E030935B0220934E
:102B00005A021092590210925802DC01ED91FC9188
:102B10000190F081E02D60E40995EE24E394F12C1E
:102B2000DD24D39480919703909198030C171D078F
:102B300009F44FC0B0E2EB16F104D8F00E9418136C
:102B4000809197039091980320919B03D0925B0210
:102B500020935A021092590210925802DC01ED9112
:102B6000FC910190F081E02D60E40995EE24E3945E
:102B7000F12C80919703909198036991DC01ED917C
:102B8000FC910190F081E02D0995BFEFEB1AFB0A53
:102B9000C9CF8091950390919603892B31F0809154
:102BA000B8039091B9030E94350CE091A903F0910C
:102BB000AA0390818091AE038095892380835CCFA6
:102BC00060E08AE793E00E94B41460917E03615054
:102BD00068CF0E9418138091970390919803892BD6
:102BE00009F461C02091B3033091B4034091B5035F
:102BF0005091B60360E074E284EF90E00E943C29BB
:102C00002051310941095109569547953795279526
:102C10002093B800DF91CF911F910F91FF90EF901B
:102C2000DF900895E091A703F091A803808190912F
:102C3000AD03892B80830C171D0769F289912091C0
:102C4000950330919603232B19F00E942E0CF3CF9D
:102C500028E030E040E8E091A303F091A4039091D4
:102C6000AB03582F5423D9F05081952B9083E091DA
:102C7000A503F091A60390815091AC03952B90830E
:102C8000E091A503F091A60350819091AC0390953B
:102C900095239083469521503109E9F6CCCF508198
:102CA00090959523E3CFE091A903F091AA03808149
:102CB0009091AE03892B8083ADCF1F93CF93DF9389
:102CC000EC01162F8D8D9E8D892BB1F12DA93EA97A
:102CD0004FA958AD60E074E284EF90E00E943C2977
:102CE0002051310941095109569547953795279546
:102CF0002093B80066EA111167EACE010E94B4146D
:102D00008D8D9E8D892B41F129AD3AAD4BAD5CADDA
:102D100060E074E284EF90E00E943C292051310988
:102D20004109510956954795379527952093B80045
:102D3000DF91CF911F9108958B8D9C8D892B21F070
:102D40008EAD9FAD0E94350CEFA5F8A990818CA99E
:102D5000809589238083CECFEFA5F8A980819CA997
:102D6000892B8083E5CF90E080E008952091800357
:102D700030918103C901079697FD079623E0959549
:102D800087952A95E1F720917E0330917F03829FFA
:102D9000A001839F500D929F500D112470E060E0C0
:102DA0008091990390919A030C94542B0E94462B86
:102DB000FB0101900020E9F73197AF01461B570B4B
:102DC000DC01ED91FC910280F381E02D0994CF9319
:102DD000DF93FC0144815581608171818AE793E032
:102DE0000E94CA08EC016DE771E08AE793E00E9457
:102DF000D8168C0F9D1FDF91CF910895FC0124817F
:102E00003581232B39F421E0FB018081882349F0AF
:102E100020E007C0808191810E945B2B21E0892BFB
:102E2000B9F7822F08950F931F93CF93DF938C01EF
:102E3000EB01FC01808191810097E1F0688179814B
:102E400061157105A9F0428153812C813D814217A2
:102E5000530770F00E94642B8C819D81F80195834B
:102E600084831D821C82DF91CF911F910F91089561
:102E70000E94002A88819981F801918380838A8148
:102E80009B81938382838C819D8195838483198226
:102E900018821B821A82E5CFCF93DF93EC018881E1
:102EA0009981009711F00E94002A198218821D82D0
:102EB0001C821B821A82DF91CF910895FC018081D0
:102EC0009181009711F00C94002A08950F931F939D
:102ED000CF93DF93EC0188819981009759F02A8183
:102EE0003B812617370730F081E0DF91CF911F91AA
:102EF0000F9108958B016F5F7F4F0E94892A009781
:102F000059F0998388831B830A832C813D81232B6D
:102F100059F7FC011082E8CF80E0E7CFEF92FF92F3
:102F20000F931F93CF93DF936115710541F480E0F8
:102F3000DF91CF911F910F91FF90EF900895411570
:102F40005105B1F07B01EC010C811D81040F151FAF
:102F5000B8010E946617882351F3288139818C813A
:102F60009D81B701820F931F0E94642B1D830C83E8
:102F700081E0DECFEF92FF920F931F93CF93DF9309
:102F8000EC017B018A01BA010E94661781110BC016
:102F9000CE010E944C17CE01DF91CF911F910F916E
:102FA000FF90EF9008951D830C83B701888199816C
:102FB0000E94642BF0CFFB0101900020E9F73197CC
:102FC000AF01461B570B0C94BA17EF92FF920F9369
:102FD0001F93CF93DF93CDB7DEB7A1970FB6F894C9
:102FE000DEBF0FBECDBF7C01CB01BA01F70111825C
:102FF000108213821282158214828E010F5F1F4F7E
:1030000022E044E00E941B23009789F0BC01C70125
:103010000E94DB17A1960FB6F894DEBF0FBECDBF9E
:10302000DF91CF911F910F91FF90EF900895C7010D
:103030000E944C17EFCFCF93DF93EC01FB01861773
:10304000970749F0608171816115710541F04481F4
:1030500055810E94BA17CE01DF91CF9108950E9449
:103060004C17F9CFFC011182108213821282158253
:1030700014820C941B18FC0111821082138212829C
:1030800015821482FB0101900020E9F73197AF010E
:10309000461B570B0C94BA170F931F93CF93DF93D4
:1030A000CDB7DEB76E970FB6F894DEBF0FBECDBFBB
:1030B0000E94B6166FE771E0CE010D960E943B1894
:1030C0006FE771E0CE0143960E943B186FE771E015
:1030D000CE0149960E943B188091400281115CC14B
:1030E00080913F02811158C169EF72E0CE010D96C7
:1030F0000E941B1880914002882309F447C08091E8
:1031000041021A8219821C821B821E821D828F83B9
:103110001886BE01695F7F4FCE0101960E94DB17C2
:10312000BE016F5F7F4FCE0107960E94321841E0CB
:1031300050E060E871E0CE0107960E948E17811181
:1031400004C0CE0107960E944C174091FD02509199
:10315000FE026091F9027091FA02CE0107960E9478
:103160008E17811104C0CE0107960E944C17BE0134
:10317000695F7F4FCE0143960E941B18CE010796D0
:103180000E945E17CE0101960E945E1780913F0259
:103190008823B9F040914202509143026091440269
:1031A00070914502CE0101960E94E517BE016F5F46
:1031B0007F4FCE0149960E941317CE0101960E94BF
:1031C0005E17BE016D5E7F4FCE0107960E943218DA
:1031D000BE01635F7F4FCE0101960E9432182B859E
:1031E0003C858D819E81821793070CF4C90111E003
:1031F00008970CF412E0CE0101960E945E17CE01F2
:1032000007960E945E176FE771E0CE010D960E944F
:10321000FE16811121C010938E0310938F03BE01FF
:10322000635F7F4FCE0101960E943218CE01019656
:103230000E941606909387038093860384E090E0B3
:103240009093890380938803CE0101960E945E17B4
:10325000CE010D960E94E7166FE771E0CE0143960E
:103260000E94FE16811121C010938E0310938F03CC
:10327000BE016D5E7F4FCE0101960E943218CE01D5
:1032800001960E941606909387038093860388E137
:1032900090E09093890380938803CE0101960E9469
:1032A0005E17CE0143960E94E7168091400281117D
:1032B00004C080913F02882361F001E010E02CE619
:1032C00030E048E250E06AE070E08AE793E00E9474
:1032D000370B6FE771E0CE0149960E94FE1681110F
:1032E00042C06FE771E0CE0107960E943B18BE0115
:1032F000675E7F4FCE0101960E9432182B853C8578
:103300008D819E81821793070CF4C90111E0089703
:103310000CF412E0CE0101960E945E17CE010796D2
:103320000E945E1710938E0310938F03BE01675E99
:103330007F4FCE0101960E943218CE0101960E9465
:10334000160690938703809386038EE290E0909315
:10335000890380938803CE0101960E945E17CE01F7
:1033600049960E94E7160E941615CE0149960E94C2
:103370005E17CE0143960E945E17CE010D960E9405
:103380005E176E960FB6F894DEBF0FBECDBFDF910D
:10339000CF911F910F91089540914A0250914B0295
:1033A00060914C0270914D02CE0101960E94E5178A
:1033B000BE016F5F7F4FCE010D960E941317CE01A5
:1033C00001960E945E1796CE0F931F93CF93DF93C3
:1033D00000D000D000D0CDB7DEB70E94B6160AE705
:1033E00013E082E0F801848B858B62E871E0CE0106
:1033F00001960E943B18CE0101960E941606F80124
:103400009587848784E190E097878687CE0101962F
:103410000E945E1762E871E0C8010E94D8166DE74D
:1034200071E0C8010E94D8160E94161526960FB6A4
:10343000F894DEBF0FBECDBFDF91CF911F910F91EA
:10344000089585ED8093BC008091C9019091CA01D7
:10345000A091CB01B091CC010796A11DB11D23E035
:10346000B695A795979587952A95D1F72091BC0099
:1034700024FD03C01092120208954091C901509199
:10348000CA016091CB017091CC01452B462B472B93
:1034900069F30097A105B10541F02AE22A95F1F7F9
:1034A00000C00197A109B109E1CF8091C8010C9436
:1034B00072121F920F920FB60F9211242F933F9307
:1034C0008F939F93AF93BF93809154029091550235
:1034D000A0915602B091570230914F0223E0230F82
:1034E0002D3758F50196A11DB11D20934F028093F1
:1034F000540290935502A0935602B09357028091C4
:10350000500290915102A0915202B0915302019643
:10351000A11DB11D8093500290935102A0935202BD
:10352000B0935302BF91AF919F918F913F912F9193
:103530000F900FBE0F901F90189526E8230F02964C
:10354000A11DB11DD2CF1F920F920FB60F92112461
:103550002F933F934F935F936F937F938F939F939B
:10356000AF93BF93EF93FF938CE592E00E944809DD
:10357000FF91EF91BF91AF919F918F917F916F914B
:103580005F914F913F912F910F900FBE0F901F9021
:1035900018951F920F920FB60F9211242F938F93AD
:1035A0009F93EF93FF93E0916C02F0916D02808105
:1035B000E0917202F091730282FD1BC090818091B4
:1035C00075028F5F8F7320917602821741F0E09130
:1035D0007502F0E0E45AFD4F958F80937502FF91DC
:1035E000EF919F918F912F910F900FBE0F901F9091
:1035F00018958081F4CF1F920F920FB60F9211246D
:103600002F933F934F935F936F937F938F939F93EA
:10361000AF93BF93EF93FF938091B900887F80367B
:1036200009F44AC0F0F5883209F4A7C018F58031D2
:1036300009F49BC0B8F4882309F4F9C0883009F470
:1036400094C0FF91EF91BF91AF919F918F917F9126
:103650006F915F914F913F912F910F900FBE0F90FF
:103660001F901895883109F488C0803251F78093F3
:10367000110214C0803409F49DC040F48033B9F3C2
:103680008833F9F68093110285ECB0C0803509F4D7
:1036900085C0883509F496C0883499F60E94211AAD
:1036A000D0CF883909F48CC038F5883729F050F428
:1036B000883611F0803729F683E080931202109249
:1036C000100257C0883809F47BC0803919F080385F
:1036D00009F0B7CF80911002803208F071C0E091FC
:1036E000100281E08E0F809310028091BB00F0E009
:1036F000E051FE4F80833DC0803B39F0E0F4803ADA
:1037000009F479C0883A09F09CCF84E080931202D2
:103710001092EF011092EE01E0913B02F0913C0219
:1037200009958091EE0181110FC081E08093EE0137
:103730001092CE0109C0803C09F4A6CF883C09F460
:10374000A3CF883B09F07DCFE091EF0181E08E0FA0
:103750008093EF01F0E0E253FE4F80818093BB0045
:103760009091EF018091EE0129C080913702809302
:10377000BB0085EC8093BC0064CF909136028091B1
:103780003502981758F5E091360281E08E0F80934C
:103790003602F0E0EB5EFD4F8081E9CFE09136022A
:1037A00081E08E0F809336028091BB00F0E0EB5EEB
:1037B000FD4F808390913602809135029817C8F2B0
:1037C00085E8D8CFE091360281E08E0F80933602F3
:1037D0008091BB00F0E0EB5EFD4F8083809114028E
:1037E00081115CCF81E08093130284EA8093BC0056
:1037F0001092120226CF85EC8093BC001092120228
:1038000080911002803230F4E0911002F0E0E0513B
:10381000FE4F10826091100270E0E0913902F09149
:103820003A0280EF91E00995109210020ACF1092AF
:10383000110234CF10925F0210925E0288EE93E084
:10384000A0E0B0E08093600290936102A0936202D6
:10385000B093630223E131E030935D0220935C0278
:1038600025EC30E0309369022093680224EC30E0CC
:1038700030936B0220936A0220EC30E030936D02AB
:1038800020936C0221EC30E030936F0220936E02A3
:1038900022EC30E0309371022093700226EC30E08D
:1038A0003093730220937202109275021092760286
:1038B00010927702109278021092710310927003A6
:1038C0008093720390937303A0937403B093750372
:1038D00085E291E090936F0380936E0310927D03D5
:1038E00010927C0320E830E030937F0320937E0326
:1038F00080E490E09093810380938003309383036E
:103900002093820390938503809384031092900305
:1039100010928703109286031092890310928803F5
:1039200081E080938F0380938E032FEF3FEF3093DE
:103930008D0320938C0330938B0320938A03809311
:10394000910310929203109294031092930381E4D6
:1039500091E090937B0380937A03109296031092E8
:1039600095038EE693E090939803809397031092CB
:103970009A03109299038FEF80939E0380939F0385
:103980008093A0038093A1038093A20380E89AE12F
:10399000A6E0B0E08093AF039093B003A093B1038F
:1039A000B093B20380EA96E8A1E0B0E08093B3035D
:1039B0009093B403A093B503B093B60380E58093CE
:1039C000B8031092B90310920103109205031092EC
:1039D00004031092060387E391E090930003809321
:1039E000FF02EBE1F3E01082148213821582369617
:1039F00083E0E735F807B9F784E091E0909362033C
:103A00008093610380E091E090936403809363036B
:103A100085E08093650384E08093660389E691E006
:103A20009093600380935F038AE090E09093680333
:103A30008093670384EF91E090936A038093690316
:103A400010926D0310926C0310925B0310925C0352
:103A500010925D0310925E0310926B0366E871E0B2
:103A600089EF92E00C943B18CF93DF93CDB7DEB78C
:103A700028970FB6F894DEBF0FBECDBF789484B5FB
:103A8000826084BD84B5816084BD85B5826085BD5A
:103A900085B5816085BD80916E00816080936E00E8
:103AA00010928100809181008260809381008091DA
:103AB000810081608093810080918000816080938B
:103AC00080008091B10084608093B1008091B0004B
:103AD00081608093B00080917A00846080937A0046
:103AE00080917A00826080937A0080917A00816070
:103AF00080937A0080917A00806880937A00109297
:103B0000C100E0916C02F0916D0282E08083E0914F
:103B10006802F09169021082E0916A02F0916B02F2
:103B20008FEC808310927402E0917002F091710228
:103B300086E08083E0916E02F0916F028081806167
:103B40008083E0916E02F0916F02808188608083B3
:103B5000E0916E02F0916F02808180688083E09135
:103B60006E02F0916F0280818F7D80838091990336
:103B700090919A03892B11F10E94B616209180032F
:103B80003091810380917E0390917F032132310532
:103B90000CF04BC0B9016052710977FF02C06F5F32
:103BA0007F4F759567958357910997FD019600E2C0
:103BB00010E023E730E04FEB56E04AC0209180034D
:103BC00030918103C901079697FD0796B3E095955B
:103BD0008795BA95E1F720917E0330917F03AC0180
:103BE000429FC001439F900D529F900D11240E944F
:103BF000642990939A0380939903892B09F0BCCF91
:103C00000FE51BE0F8016491662341F08CE592E03A
:103C10000E946A090F5F1F4F892BA1F76DE771E0C2
:103C20008CE592E00E94D816FFCFB901605471096B
:103C300077FF02C06F5F7F4F759567958255910939
:103C400097FD019600E410E022E530E04FE958E0EE
:103C5000959587950E941F1182E080939C03809127
:103C6000970390919803892B09F42AC18CE38093E0
:103C70009B0310923E0210923D0210925902109244
:103C800058020E94541287EC98E090933C02809373
:103C90003B0288EC98E090933A028093390280913D
:103CA000A20387FD1EC061E00E94290861E08091A7
:103CB000A2030E94FB0761E070E080E090E00E94B8
:103CC0008A0860E08091A2030E94FB076AE070E02E
:103CD00080E090E00E948A0861E08091A2030E9447
:103CE000FB078091970390919803892B09F4A7C152
:103CF0002091AF033091B0034091B1035091B203D2
:103D000060E074E284EF90E00E943C292051310988
:103D10004109510956954795379527952093B80045
:103D200064E08BEB96E00E94FF136091800361508A
:103D30008AE793E00E94B41464E087EB96E00E9467
:103D4000FF1380919C0360E1813009F064E18AE710
:103D500093E00E94B41464E083EB96E00E94FF13AA
:103D60008FE88093B70380917E0390917F03803822
:103D7000910509F07BC1809180039091810380348B
:103D8000910509F083C180919C03813009F091C1B4
:103D90008FE98093B70312E16AED8AE793E00E940E
:103DA000B414612F8AE793E00E94B41461E88AE7B3
:103DB00093E00E94B4146091B7038AE793E00E94F5
:103DC000B41469ED8AE793E00E94B41480919C03D7
:103DD00062E2813009F061EF8AE793E00E94B41457
:103DE00066E08DEA96E00E94FF1380919703909120
:103DF0009803892B09F45FC12091B3033091B40378
:103E00004091B5035091B60360E074E284EF90E016
:103E10000E943C2920513109410951095695479585
:103E2000379527952093B8000E94B61681E090E060
:103E300090938D0380938C0390938B0380938A03DC
:103E40000E94E419412C512C3201439446E0242E67
:103E5000F1E0F0936B038FB7F894409154025091C6
:103E6000550260915602709157028FBF80915B039B
:103E700090915C03A0915D03B0915E03481B590BC8
:103E80006A0B7B0B8091670390916803B0E0A0E020
:103E900084179507A607B70708F027C210E080919E
:103EA0006503181708F011C1E0916103F0916203F6
:103EB000E10FF11D62E080810E9429081F5FEFCFB2
:103EC00061E08091A0030E94290861E08091A10334
:103ED0000E9429088091A003082E000C990BFC0178
:103EE000EC56F44FE491F0E0EE0FFF1FE058F44F72
:103EF000259134913093A8032093A703FC01E85542
:103F0000F44FE491E093AD038091A103082E000CDF
:103F1000990BFC01EC56F44FE491F0E0EE0FFF1F1B
:103F2000E058F44FA591B491B093AA03A093A903CC
:103F3000FC01E855F44FE491E093AE038C91E82B3B
:103F4000EC938091950390919603892B09F434C0EA
:103F50001FB7F89480913802811127C0EEE9FBE089
:103F60008491E2EBFBE09491E82FF0E0EE0FFF1F6D
:103F7000EA58F44FA591B491EC91E92321F461E062
:103F80008AE00E94FB0761E08AE00E9429088CB564
:103F900080618CBD8CB580648CBD61E08DE00E9439
:103FA000290861E08BE00E942908809138028F5F28
:103FB000809338021FBF73CE61E080919E030E9400
:103FC000290861E080919F030E94290880919E0347
:103FD000082E000C990BFC01EC56F44FE491F0E034
:103FE000EE0FFF1FE058F44F259134913093A40356
:103FF0002093A303FC01E855F44FE491E093AB0355
:1040000080919F03082E000C990BFC01EC56F44F95
:10401000E491F0E0EE0FFF1FE058F44FA591B4914A
:10402000B093A603A093A503FC01E855F44FE491D7
:10403000E093AC038C91E095E823EC9330CE809133
:10404000950390919603892B31F08091B80390915C
:10405000B9030E94350CE091A903F091AA03908165
:104060008091AE038095892380835ACE8036910556
:1040700089F48091800390918103409739F4809175
:104080009C03813029F480E18093B70312E084CE51
:104090008FEAFACF80349105C9F78091800390911F
:1040A0008103809799F780919C03813011F480E11E
:1040B00070CE8FEC6ECEE091A903F091AA038081BF
:1040C0009091AE03892B8083AFCEF12C8091660353
:1040D000F81608F061C0CF2CD12CE0916303F09169
:1040E0006403EC0DFD1D61E080810E942908E091D0
:1040F0006303F0916403EC0DFD1D60E080810E947C
:10410000FB07D301C2010F2C04C0880F991FAA1FFF
:10411000BB1F0A94D2F74C015C01A094B094312CDF
:1041200080916503381608F5032D10E0E0916103D6
:10413000F0916203E00FF11F80810E94D2070C5FB3
:104140001F4F000F111FF801E150FD4F892B41F463
:104150008081918188299929918380833394E0CF4C
:10416000808191818A219B21F7CFE0916303F091B7
:104170006403EC0DFD1D61E080810E94FB078091CE
:10418000630390916403C80ED91E60E0F60180813C
:104190000E942908F3949ACF9FEFC92E92E0D92E5E
:1041A0008601F801878D90A1892B31F4148E4FEF91
:1041B0005FEF568F458F11A20A5F1F4F53E00B33FD
:1041C000150779F7F12C80916503F81608F052C0B5
:1041D000B12C8F2C912C880C991CC401895F9C4FA9
:1041E0004C0120916603B21608F042C0F4016081D0
:1041F00071810B2C02C0769567950A94E2F7F29EC6
:10420000900111242B0D311DEFEFF2E080E0458D80
:10421000568D2417350709F4F9C18F5F36968A3019
:10422000B1F760FF23C0EFEFF2E090E080E0448D53
:10423000411117C0E0915F03F0916003E20FF31F9B
:104240004081289EF001299EF00D1124E150FD4F80
:10425000448F368F258F10A2178E61E00E94390798
:1042600005C0019636968A30910509F7B394B9CF07
:10427000F394A9CF80E0F60191A19111892FF6E086
:10428000CF0ED11C0C151D05B1F79FB7F8944091C6
:1042900054025091550260915602709157029FBF8F
:1042A00040935B0350935C0360935D0370935E03E4
:1042B0008823D9F0809120038823B9F080911E03D0
:1042C00090911F03019789F410911B03111110C0E5
:1042D000E0E0F0E0EF2B09F4BBCD0E943409882325
:1042E00009F4B6CD0E940000B3CD10926B03F0CF5D
:1042F000612F8CE592E00E946A096DE771E08CE520
:1043000092E00E94D81680914E021035B1F541E03E
:10431000842780934E02882369F166E871E089EF73
:1043200092E00E94DB1710924A0210924B02109208
:104330004C0210924D0210924602109247021092C7
:1043400048021092490210924202109243021092C7
:1043500044021092450210924102109240021092C3
:104360003F020E944C186CE271E080E090E00E94F5
:104370008A08AECF0E94E419F6CF882309F4A8CFAB
:10438000133439F566E871E089EF92E00E94DB179B
:1043900010924A0210924B0210924C0210924D025F
:1043A000109246021092470210924802109249025F
:1043B000109242021092430210924402109245025F
:1043C000109241021092400210923F020E944C183B
:1043D0007FCF812F8D7F8D3221F086ED810F82304E
:1043E00088F566E871E089EF92E00E94FE1681117F
:1043F00020C08091F9029091FA020097B1F00E94DA
:10440000392360934A0270934B0280934C0290933D
:104410004D021093410251E05093400266E871E072
:1044200089EF92E00E94DB17CFCF60E070E0CB0114
:10443000E8CF10924A0210924B0210924C02109256
:104440004D02E7CF1D3309F08BC0809141028823D4
:1044500009F4BCCF80914002882309F4B7CF809142
:10446000F9029091FA02812C912C5401009721F0CD
:104470000E9439234B015C018092460290924702D0
:10448000A0924802B0924902809141028B3241F1E0
:1044900064F48A3209F453C060914A0270914B026D
:1044A00080914C0290914D0227C08D3289F18F325C
:1044B00099F720E030E0A901C501B4010E94E5268A
:1044C000882309F449C0A501940160914A027091C2
:1044D0004B0280914C0290914D020E94CA280CC060
:1044E00020914A0230914B0240914C0250914D0272
:1044F000C501B4010E945E2860934202709343029A
:10450000809344029093450281E080933F025ECF06
:10451000C0904A02D0904B02E0904C02F0904D02C5
:10452000A7019601C501B4010E94E5261816A4F062
:10453000A5019401C701B6010E945D28DDCF20913D
:104540004A0230914B0240914C0250914D02C501FC
:10455000B4010E944B27D0CF60E070E0CB01CCCFFC
:1045600080913F028823E1F066E871E089EF92E0F4
:104570000E94DB178091420290914302A091440275
:10458000B091450280934A0290934B02A0934C0253
:10459000B0934D02109241021092400210923F02DD
:1045A0008091FD029091FE020D9708F00FCF66E812
:1045B00071E089EF92E00E94FE168823D9F01A82FA
:1045C00019821C821B821E821D821F831886BE01D7
:1045D000695F7F4FCE0101960E94DB17BE016F5FBE
:1045E0007F4F89EF92E00E941317CE0101960E943F
:1045F0005E17ECCE19831A8241E050E0BE016F5F76
:104600007F4F89EF92E00E948E17E0CE617026CE38
:1046100089EF92E00E945E1781E491E090937B0322
:1046200080937A038091990390919A03009711F0F7
:104630000C94002A0895EF920F931F93CF93DF936A
:10464000E80134E047FD34E1042E000C550B57FF20
:1046500003C0519541955109E32E022F242FAE013D
:104660000E943D23CE01DF91CF911F910F91EF90DA
:104670000895662777270C949C24A9E0B0E0E3E432
:10468000F3E20C941D286A01F22EB02E102FFBE3EA
:10469000AF2EA01608F41BE31F5F012F27E0AE0129
:1046A0004F5F5F4F0E94EC25BC018981982F997064
:1046B000913009F43FC09BE2E1FC04C09E2D917053
:1046C000E0FC3AC05E2D5071E82FE87083FF46C0D1
:1046D00084E0911101C083E0EF2DE81B8F1508F0F5
:1046E000E0E0D6018E2F20E2552351F1992329F0E5
:1046F000D6019C93C60101966C0196012D5F3F4F38
:10470000E2FE24C08EE4D6018C9391E411969C9332
:10471000119712968C93D9018E2F90E281111BC0B4
:10472000E20FF32FF11D10828EEF9FEF2996ECE040
:104730000C9439289DE2C6CF90E2C4CF2D938150CE
:104740008111FCCFCE0ED11CE0E0D0CF8EE6D60199
:104750008C9391E6DBCF9D938150E0CF482F44703E
:1047600082FF3DC084E0911101C083E08F1510F4F9
:10477000EF2DE81BD6018E2F20E2552309F1992356
:1047800029F0D6019C93C60101966C0196012D5F1C
:104790003F4FE2FE1BC089E4D6018C938EE4119654
:1047A0008C93119786E412968C93D9018E2F90E208
:1047B000882309F4B5CF9D938150FACF2D93815072
:1047C0008111FCCFCE0ED11CE0E0D9CF89E6D60115
:1047D0008C938EE611968C93119786E6E4CF9B011D
:1047E00077FF02C030E020E0A1E0B0E0911102C00C
:1047F000B0E0A0E0F9013196AE0FBF1F8B2C912CD9
:10480000BB2009F461C05401EFEFAE1ABE0AAA0D35
:10481000BB1DFA161B0619F014F04F2D4A1B51113F
:1048200088C0E3FC59C07601A42FB0E2A1114FC0AB
:10483000C40ED11C992309F45BC040E0D601119647
:10484000F60190836D01552309F448C0012F060F2E
:104850009A81582F507184FF03C0913309F401509D
:1048600010160CF047C0093008F008E0EEE2FE2E0A
:104870005B01A01AB10885019194819491082F3FA2
:10488000320729F4D601FC92F60131966F016217C6
:10489000730794F1021713077CF5DB01A21BB30B1E
:1048A000AA24A394B12CAC0EBD1EAA0DBB1D11965B
:1048B0008C9121503109D601119628153905F4F053
:1048C000F60180836D01DBCFB12CA12CA0CFF701C5
:1048D000B1937F01A150AACF9111B0CFD601942FEF
:1048E00050E302C05D9391509111FCCFC40ED11CD6
:1048F00040E0ACCF01E0BACF80E3DBCF62177307B3
:1049000031F4963388F4953311F4552369F0F601A8
:104910008083FD01842F90E2811108C0A40FB11D96
:104920001C9290E080E002CF81E3F1CF919381501F
:10493000F3CF911183CF8ACFB0E0A0E0E2EAF4E2B6
:104940000C941D285C017B016115710519F0DB01D8
:104950008D939C9385010F5F1F4FF501D0818D2FA3
:1049600090E00E94C4266C01892BB9F5DD32B9F5BF
:104970000F5F1F4FD5011196DC91C1E05801F1E0A6
:10498000AF1AB10843E050E060E770E0C5010E9453
:10499000CD26892B69F5680182E0C80ED11C45E05F
:1049A00050E06BE670E0C6010E94CD26892B21F411
:1049B000680197E0C90ED11CE114F10419F0D70188
:1049C000CD92DC9260E070E080E89FEFC111FFC003
:1049D00060E070E080E89FE7FAC05801BBCFDB32AF
:1049E00029F485010E5F1F4FF501D181C0E0C6CFCC
:1049F00043E050E068E670E0C5010E94CD26892BB7
:104A0000E9F0F80110E000E020E030E0A9015F01EA
:104A1000B0ED8B2E8D0E89E08815C8F19C2E689420
:104A200091F88C2F8870C2FF16C0811102C00F5FF1
:104A30001F4F3196D501DC91C92DE9CFE114F10466
:104A400029F00E5F1F4FF7011183008360E070E0D3
:104A500080EC9FE7BCC0882311F001501109A5E04C
:104A6000B0E00E940C289B01AC01220F331F441FB1
:104A7000551F280D311D411D511D283999E9390750
:104A8000490799E15907A8F2C6609C2ED2CFAEEF34
:104A90008A1206C0C3FD3CC09C2E689493F8C9CF0F
:104AA000DF7DD534A9F580818D3239F4C061DF0115
:104AB0001296818162E070E006C0DF018B32C1F3A3
:104AC000119661E070E080535D01A61AB70A8A3042
:104AD000F8F4E0E8CE16ECE0DE065CF4B601660F12
:104AE000771F660F771FC60ED71ECC0CDD1CC80EB5
:104AF000D11C5D01FFEFAF1ABF0A8C9180538A3041
:104B0000A8F1C4FF03C0D194C194D1080C0D1D1DA0
:104B1000C1FF09C0E114F10431F081E0A81AB10825
:104B2000D701AD92BC92CA01B9010E94EA26C370B6
:104B3000C33009F490584B015C0120E030E0A9013A
:104B40000E94E526882309F440C0CFE9D0E017FF92
:104B500005C0119501951109C7E8D0E06E01B8E1D3
:104B6000CB1AD10880E2E82EF12C0FC0D501B1CFCD
:104B7000FE0125913591459154910E191F09C501EA
:104B8000B4010E944B274B015C01D501C4010E15F5
:104B90001F0574F72497F594E794CC16DD06A9F762
:104BA0008A2F880F8B2F881F8F3F49F020E030E03D
:104BB000A901C501B4010E94E526811106C082E267
:104BC00090E09093BB038093BA03C501B401CDB7C5
:104BD000DEB7ECE00C943928283008F027E03327C2
:104BE000DA01990F311D87FD91600096610571050D
:104BF00039F432602E5F3D9330E32A95E1F7089552
:104C00009F3F30F080387105610509F03C5F3C5FE3
:104C10003D93913008F08068911DDF93CF931F93EF
:104C20000F93FF92EF92192F987F9695E92F969503
:104C30009695E90FFF27E350FF4F99273327EE247E
:104C4000FF24A701E70105900894079428F4360F84
:104C5000E71EF81E491F511D660F771F881F991FF9
:104C60000694A1F70590079428F4E70EF81E491F53
:104C7000561FC11D770F881F991F661F0694A1F745
:104C80000590079428F4F80E491F561FC71FD11D21
:104C9000880F991F661F771F0694A1F70590079448
:104CA00020F4490F561FC71FD81F990F661F771F83
:104CB000881F0694A9F784911095177041F0D69536
:104CC000C79557954795F794E7941A95C1F7E3EA86
:104CD000F0E0689415901591359165919591059046
:104CE0007FE27395E118F10A430B560BC90BD0090B
:104CF000C0F7E10CF11E431F561FC91FD01D7EF4E3
:104D0000703311F48A95E6CFE894015030F0080F23
:104D10000AF40027021708F4202F2395022F7A3374
:104D200028F079E37D932A95E9F710C07D932A95C1
:104D300089F6069497956795379517951794E11816
:104D4000F10A430B560BC90BD00998F023957E91BD
:104D500073957A3308F070E37C932013B8F77E9153
:104D600070617D9330F0839571E37D9370E32A95B4
:104D7000E1F71124EF90FF900F911F91CF91DF91F8
:104D8000992787FD9095089591110C94B82780324A
:104D900019F089508550C8F70895FB01DC01415096
:104DA000504088F08D9181341CF08B350CF4805E7E
:104DB000659161341CF06B350CF4605E861B6111EB
:104DC00071F3990B0895881BFCCF0E94272708F4E4
:104DD00081E00895E89409C097FB3EF49095809592
:104DE000709561957F4F8F4F9F4F9923A9F0F92FB1
:104DF00096E9BB279395F695879577956795B7952F
:104E0000F111F8CFFAF4BB0F11F460FF1BC06F5F14
:104E10007F4F8F4F9F4F16C0882311F096E911C026
:104E2000772321F09EE8872F762F05C0662371F047
:104E300096E8862F70E060E02AF09A95660F771F5B
:104E4000881FDAF7880F9695879597F90895990F37
:104E50000008550FAA0BE0E8FEEF16161706E80744
:104E6000F907C0F012161306E407F50798F0621B65
:104E7000730B840B950B39F40A2661F0232B242B3A
:104E8000252B21F408950A2609F4A140A6958FEF59
:104E9000811D811D08950E945E270C94D2270E94D7
:104EA000C42738F00E94CB2720F0952311F00C94F2
:104EB000BB270C94C12711240C9406280E94E327D9
:104EC00070F3959FC1F3950F50E0551F629FF0015D
:104ED000729FBB27F00DB11D639FAA27F00DB11D76
:104EE000AA1F649F6627B00DA11D661F829F2227FF
:104EF000B00DA11D621F739FB00DA11D621F839F86
:104F0000A00D611D221F749F3327A00D611D231F5B
:104F1000849F600D211D822F762F6A2F11249F57A9
:104F200050409AF0F1F088234AF0EE0FFF1FBB1FAC
:104F3000661F771F881F91505040A9F79E3F51056B
:104F400080F00C94BB270C9406285F3FE4F3983E56
:104F5000D4F3869577956795B795F795E7959F5F15
:104F6000C1F7FE2B880F911D9695879597F90895A7
:104F700099278827089597F99F6780E870E060E097
:104F800008959FEF80EC089500240A9416161706E2
:104F900018060906089500240A941216130614062A
:104FA00005060895092E0394000C11F4882352F08D
:104FB000BB0F40F4BF2B11F460FF04C06F5F7F4F45
:104FC0008F4F9F4F089557FD9058440F551F59F02C
:104FD0005F3F71F04795880F97FB991F61F09F3FE6
:104FE00079F087950895121613061406551FF2CF0F
:104FF0004695F1DF08C0161617061806991FF1CF5F
:1050000086957105610508940895E894BB27662785
:105010007727CB0197F908950E944E28A59F900D00
:10502000B49F900DA49F800D911D112408952F927F
:105030003F924F925F926F927F928F929F92AF9228
:10504000BF92CF92DF92EF92FF920F931F93CF9375
:10505000DF93CDB7DEB7CA1BDB0B0FB6F894DEBF0C
:105060000FBECDBF09942A88398848885F846E8432
:105070007D848C849B84AA84B984C884DF80EE807C
:10508000FD800C811B81AA81B981CE0FD11D0FB685
:10509000F894DEBF0FBECDBFED010895A29FB00111
:1050A000B39FC001A39F700D811D1124911DB29F5C
:1050B000700D811D1124911D08955058BB27AA27FA
:1050C0000E9475280C94D2270E94C42738F00E94B1
:1050D000CB2720F039F49F3F19F426F40C94C12714
:1050E0000EF4E095E7FB0C94BB27E92F0E94E32721
:1050F00058F3BA17620773078407950720F079F40D
:10510000A6F50C9405280EF4E0950B2EBA2FA02DD1
:105110000B01B90190010C01CA01A0011124FF2764
:10512000591B99F0593F50F4503E68F11A16F0405F
:10513000A22F232F342F4427585FF3CF469537955E
:105140002795A795F0405395C9F77EF41F16BA0B23
:10515000620B730B840BBAF09150A1F0FF0FBB1FD1
:10516000661F771F881FC2F70EC0BA0F621F731F1A
:10517000841F48F4879577956795B795F7959E3F77
:1051800008F0B0CF9395880F08F09927EE0F979508
:10519000879508950E94DE280C94D2270E94CB2781
:1051A00058F00E94C42740F029F45F3F29F00C9486
:1051B000BB2751110C9406280C94C1270E94E327A9
:1051C00068F39923B1F3552391F3951B550BBB2736
:1051D000AA2762177307840738F09F5F5F4F220F7B
:1051E000331F441FAA1FA9F335D00E2E3AF0E0E872
:1051F00032D091505040E695001CCAF72BD0FE2FBC
:1052000029D0660F771F881FBB1F2617370748074F
:10521000AB07B0E809F0BB0B802DBF01FF27935807
:105220005F4F3AF09E3F510578F00C94BB270C94E9
:1052300006285F3FE4F3983ED4F38695779567950B
:10524000B795F7959F5FC9F7880F911D969587953C
:1052500097F90895E1E0660F771F881FBB1F62175B
:1052600073078407BA0720F0621B730B840BBA0B19
:10527000EE1F88F7E0950895A1E21A2EAA1BBB1B2A
:10528000FD010DC0AA1FBB1FEE1FFF1FA217B30712
:10529000E407F50720F0A21BB30BE40BF50B661F28
:1052A000771F881F991F1A9469F7609570958095EC
:1052B00090959B01AC01BD01CF010895EE0FFF1F3A
:1052C0000590F491E02D09940F931F93CF93DF93F2
:1052D0008230910510F482E090E0E091BE03F091FD
:1052E000BF0330E020E0B0E0A0E0309799F4211552
:1052F000310509F44AC0281B390B24303105D8F593
:105300008A819B816115710589F1FB0193838283F9
:10531000FE0111C040815181028113814817590754
:10532000E0F04817590799F4109761F012960C9322
:10533000129713961C933296CF01DF91CF911F9154
:105340000F9108950093BE031093BF03F4CF21156E
:10535000310551F04217530738F0A901DB019A01DA
:10536000BD01DF01F801C1CFEF01F9CF9093BF0379
:105370008093BE03CDCFFE01E20FF31F8193919383
:105380002250310939832883D7CF2091BC03309133
:10539000BD03232B41F420910B0130910C0130937C
:1053A000BD032093BC032091090130910A0121150E
:1053B000310541F42DB73EB740910D0150910E01DA
:1053C000241B350BE091BC03F091BD03E217F307FA
:1053D000A0F42E1B3F0B2817390778F0AC014E5F65
:1053E0005F4F2417350748F04E0F5F1F5093BD03E2
:1053F0004093BC03819391939FCFF0E0E0E09CCF7A
:10540000CF93DF930097E9F0FC0132971382128269
:10541000A091BE03B091BF03ED0130E020E01097F2
:10542000A1F420813181820F931F2091BC03309120
:10543000BD032817390709F061C0F093BD03E0935D
:10544000BC03DF91CF910895EA01CE17DF07E8F59D
:105450004A815B819E0141155105B1F7E901FB834A
:10546000EA8349915991C40FD51FEC17FD0761F4E8
:10547000808191810296840F951FE9019983888329
:10548000828193819B838A83F0E0E0E012968D9184
:105490009C9113970097B9F52D913C911197CD01EF
:1054A0000296820F931F2091BC033091BD032817F1
:1054B000390739F6309751F51092BF031092BE03A9
:1054C000B093BD03A093BC03BCCFD383C283408100
:1054D0005181840F951FC817D90761F44E5F5F4F44
:1054E00088819981480F591F518340838A819B810C
:1054F000938382832115310509F0B0CFF093BF0368
:10550000E093BE039ECFFD01DC01C0CF1382128267
:10551000D7CFB0E0A0E0EFE8FAE20C9419288C01B4
:10552000009751F4CB010E9464298C01C801CDB7CA
:10553000DEB7E0E10C943528FC01E60FF71F9C0173
:1055400022503109E217F30708F49DC0D901CD912B
:10555000DC911197C617D70798F0C530D10530F305
:10556000CE0104978617970708F3C61BD70B22971F
:10557000C193D1936D937C93CF010E94002AD6CF23
:105580005B01AC1ABD0A4C018C0E9D1EA091BE039E
:10559000B091BF03512C412CF12CE12C109731F527
:1055A0008091BC039091BD038815990509F05CC0FA
:1055B0004616570608F058C08091090190910A01DB
:1055C000009741F48DB79EB740910D0150910E01A7
:1055D000841B950BE817F90708F055C0F093BD033D
:1055E000E093BC03F90171836083A0CF8D919C91FE
:1055F000119712966C90129713967C901397A8159A
:10560000B90559F56C0142E0C40ED11CCA14DB0483
:1056100020F1AC014A195B09DA011296159780F066
:105620006282738251834083D9016D937C93E1142C
:10563000F10471F0D7011396FC93EE93129776CF95
:1056400022968C0F9D1FF90191838083F301EFCF88
:10565000F093BF03E093BE0369CF4816590608F4E0
:105660002C017D01D3019ACFCB010E9464297C01DA
:10567000009749F0AE01B8010E944B2BC8010E946F
:10568000002A870153CF10E000E050CF81E090E086
:10569000F8940C946B2BFB01DC0102C001900D927D
:1056A00041505040D8F70895DC0101C06D9341503E
:1056B0005040E0F70895FB01DC018D9101908019C5
:1056C0000110D9F3990B0895FB01DC0101900D92B3
:1056D0000020E1F7089515E0CBEED5E004C0FE010F
:1056E0000E945E292196CC3ED107C9F7F894FFCFDE
:1056F0000708090A02030405060000C00380000031
:105700000000006A09CA08F708B709280906091A3B
:105710000900000000E912BC12B3161507B512A269
:1057200012931200000000BC08C008C4080000006A
:1057300000730ECA08B316C9087E0B15071811F0BE
:10574000100C11001180111507390C5D16EE0A3787
:105750000B39101C10A40F450F5043282937383936
:105760002B3435362D3132332A302E3D2F0D0A00A1
:0857700020004F464600300006
:107E0000112484B714BE81FFF0D085E080938100F7
:107E100082E08093C00088E18093C10086E0809377
:107E2000C20080E18093C4008EE0C9D0259A86E02C
:107E300020E33CEF91E0309385002093840096BBD3
:107E4000B09BFECF1D9AA8958150A9F7CC24DD24C4
:107E500088248394B5E0AB2EA1E19A2EF3E0BF2EE7
:107E6000A2D0813461F49FD0082FAFD0023811F036
:107E7000013811F484E001C083E08DD089C08234E0
:107E800011F484E103C0853419F485E0A6D080C0E4
:107E9000853579F488D0E82EFF2485D0082F10E0AE
:107EA000102F00270E291F29000F111F8ED06801E7
:107EB0006FC0863521F484E090D080E0DECF843638
:107EC00009F040C070D06FD0082F6DD080E0C81688
:107ED00080E7D80618F4F601B7BEE895C0E0D1E017
:107EE00062D089930C17E1F7F0E0CF16F0E7DF06D8
:107EF00018F0F601B7BEE89568D007B600FCFDCFD4
:107F0000A601A0E0B1E02C9130E011968C91119780
:107F100090E0982F8827822B932B1296FA010C0160
:107F200087BEE89511244E5F5F4FF1E0A038BF0790
:107F300051F7F601A7BEE89507B600FCFDCF97BE46
:107F4000E89526C08437B1F42ED02DD0F82E2BD052
:107F50003CD0F601EF2C8F010F5F1F4F84911BD097
:107F6000EA94F801C1F70894C11CD11CFA94CF0C13
:107F7000D11C0EC0853739F428D08EE10CD085E9AC
:107F80000AD08FE07ACF813511F488E018D01DD067
:107F900080E101D065CF982F8091C00085FFFCCF94
:107FA0009093C60008958091C00087FFFCCF809118
:107FB000C00084FD01C0A8958091C6000895E0E648
:107FC000F0E098E1908380830895EDDF803219F02E
:107FD00088E0F5DFFFCF84E1DECF1F93182FE3DFCA
:107FE0001150E9F7F2DF1F91089580E0E8DFEE27F6
:047FF000FF270994CA
:027FFE00040479
:00000001FF
