:100000000C946F050C9497050C9497050C94970528
:100010000C9497050C9497050C9497050C949705F0
:100020000C9497050C9497050C9497050C949705E0
:100030000C9497050C9497050C9497050C949705D0
:100040000C94A31D0C9497050C94131E0C94ED1D99
:100050000C9497050C9497050C9497050C949705B0
:100060000C94451E0C9497054E414E494E495459E7
:10007000494E46CDCCCC3D0AD7233C17B7D1387773
:10008000CC2B329595E6241FB14F0A000020410089
:1000900000C84200401C4620BCBE4CCA1B0E5AAED3
:1000A000C59D7400000000003E5B4F5B3E3E6B4F01
:1000B0006B3E1C3E7C3E1C183C7E3C181C577D57FA
:1000C0001C1C5E7F5E1C00183C1800FFE7C3E7FFA6
:1000D0000018241800FFE7DBE7FF30483A060E2639
:1000E00029792926407F050507407F05253F5A3C91
:1000F000E73C5A7F3E1C1C08081C1C3E7F14227FD4
:1001000022145F5F005F5F06097F017F00668995AB
:100110006A606060606094A2FFA29408047E040894
:1001200010207E201008082A1C08081C2A08081E17
:10013000101010100C1E0C1E0C30383E3830060EFD
:100140003E0E06000000000000005F0000000700F7
:100150000700147F147F14242A7F2A1223130864B3
:100160006236495620500008070300001C22410057
:100170000041221C002A1C7F1C2A08083E08080097
:100180008070300008080808080000606000201037
:100190000804023E5149453E00427F4000724949F1
:1001A00049462141494D331814127F1027454545D2
:1001B000393C4A49493141211109073649494936F3
:1001C000464949291E000014000000403400000088
:1001D00008142241141414141400412214080201BA
:1001E0005909063E415D594E7C1211127C7F4949E6
:1001F00049363E414141227F4141413E7F49494983
:10020000417F090909013E414151737F0808087F78
:1002100000417F41002040413F017F081422417F7F
:10022000404040407F021C027F7F0408107F3E4117
:1002300041413E7F090909063E4151215E7F09196E
:100240002946264949493203017F01033F40404086
:100250003F1F2040201F3F4038403F631408146375
:1002600003047804036159494D43007F4141410231
:1002700004081020004141417F0402010204404073
:10028000404040000307080020545478407F284431
:1002900044383844444428384444287F385454541B
:1002A0001800087E090218A4A49C787F080404782A
:1002B00000447D40002040403D007F102844000065
:1002C000417F40007C047804787C0804047838443A
:1002D000444438FC1824241818242418FC7C0804EE
:1002E0000408485454542404043F44243C4040200F
:1002F0007C1C2040201C3C4030403C4428102844BA
:100300004C9090907C4464544C440008364100006A
:1003100000770000004136080002010204023C267A
:1003200023263C1EA1A161123A4040207A38545441
:1003300055592155557941225454784221555478C4
:100340004020545579400C1E52721239555555595A
:10035000395454545939555454580000457C41007F
:1003600002457D420001457C407D1211127DF0283E
:100370002528F07C545545002054547C547C0A09AF
:100380007F4932494949323A4444443A324A48481A
:10039000303A4141217A3A42402078009DA0A07D28
:1003A0003D4242423D3D4040403D3C24FF242448E4
:1003B0007E4943662B2FFC2F2BFF0929F620C0888E
:1003C0007E090320545479410000447D413048485F
:1003D0004A32384040227A007A0A0A727D0D193179
:1003E0007D2629292F28262929292630484D4020D5
:1003F000380808080808080808382F10C8ACBA2FB1
:10040000102834FA00007B000008142A1422221459
:100410002A14085500550055AA55AA55AAFF55FF9C
:1004200055FF000000FF00101010FF00141414FF0F
:10043000001010FF00FF1010F010F0141414FC0056
:100440001414F700FF0000FF00FF1414F404FC1460
:100450001417101F10101F101F1414141F00101059
:1004600010F0000000001F101010101F10101010CE
:10047000F010000000FF101010101010101010FFEE
:1004800010000000FF140000FF00FF00001F101705
:100490000000FC04F414141710171414F404F400EE
:1004A00000FF00F714141414141414F700F71414B4
:1004B00014171410101F101F141414F4141010F03B
:1004C00010F000001F101F0000001F14000000FCAF
:1004D000140000F010F01010FF10FF141414FF149B
:1004E0001010101F00000000F010FFFFFFFFFFF0D2
:1004F000F0F0F0F0FFFFFF0000000000FFFF0F0F23
:100500000F0F0F3844443844FC4A4A4A347E0202F2
:100510000606027E027E0263554941633844443C2C
:1005200004407E201E2006027E020299A5E7A599BE
:100530001C2A492A1C4C7201724C304A4D4D3030F5
:1005400048784830BC625A463D3E494949007E01E0
:1005500001017E2A2A2A2A2A44445F444440514AFF
:10056000444040444A51400000FF0103E080FF0046
:100570000008086B6B083612362436060F090F0682
:10058000000018180000001010003040FF010100AA
:100590001F01011E00191D1712003C3C3C3C0000CD
:1005A000000000000103070F1F3F7F0080C0E0F044
:1005B000F8FCFEDB40A4A62EAF2000A1C8D300406B
:1005C0008DAED580A8000060000000000000000093
:1005D000000000000000E00000000000000000003B
:1005E0000000000001E0000000000000000000002A
:1005F00000000001F000000000000000000000000A
:10060000000003F0000000000000000000000000F7
:100610000007F000000000000000000000000000E3
:1006200007F8000000000000000000000000000FBC
:10063000F800000003C0007E000001E0007F0FF81A
:1006400000000003C000FE000001E000FFEFF80022
:10065000000003C000FE000001E000FFFFF8000002
:100660000003C000F00000000F007FFE7FC000000C
:1006700003C000F00000000F003FFE7FF83FF1FBD9
:10068000CFFCFEF3BC3DEFE01FFE7FFF7FFBFFDFF3
:10069000FEFEFFBC3DEFE01FC6FFFF7FFBFFDFFE5E
:1006A000FEFFBC3DEFE00FE3C7FE787BC3DE1EF02C
:1006B000FFBC3DEF0007FF87FC787BC3DE1EF0F830
:1006C0003C3DEF0001FFFFF0007BC3C01EF0F03C9B
:1006D0003DEF0001F37FE03FFBC3CFFEF0F03C3D78
:1006E000EF0003E33F807FFBC3DFFEF0F03C3DEF14
:1006F0000007E73C00787BC3DE1EF0F03C3DEF00D6
:1007000007FFBE00787BC3DE1EF0F03C3DEF000724
:10071000FFFE00787BC3DE1EF0F03C3DEF000FFFD4
:10072000FE007FFBFFDFFEF0F03FFDEFE00FFFFF7D
:10073000007FFBFFDFFEF0F03FFDEFE00FF9FF0071
:100740003E79F9CF9EF0F01F3DE7E01FF1FF00007A
:10075000000000000000000000001F80FF007FFF7D
:10076000FFFFFFFFFFFFFFFFE01C007F007FFFFF99
:10077000FFFEB46D888D18E000001F007FFFFFFFB3
:10078000FE95AD7DB577E000000F007FFFFFFFFE17
:10079000A5AD9D8D19E0000006007FFFFFFFFEB5AF
:1007A000ADEDB57EE000000000000180000000001B
:1007B00000000000000380000000000000000000B6
:1007C00007C000000000000000000007C00000009B
:1007D0000000000000000FC000000000000000004A
:1007E000001FE00000000000000000001FE000000B
:1007F000000000000000003FE000000000000000DA
:1008000000003FF00000000000000000007FF0004A
:100810000000000000001FF87FF000000000000052
:10082000003FFE7FF0000000000000003FFF7FF06F
:10083000000000000000001FFFFBE00000000000BF
:1008400000000FFFF9FFC00000000000000FFFF9DB
:10085000FFF800000000000007FFF1FFFF000000AC
:1008600000000003FC73FFFF80000000000001FE99
:100870003FFFFF80000000000000FF1E0FFF000090
:1008800000000000007FFE1FFC00000000000000D0
:100890003FFFFFF8000000000000000FDFFFE00056
:1008A0000000000000001F19FFC000000000000051
:1008B000003F3CFF00000000000000007E7CF800CC
:1008C000000000000000007FFE7C0000000000002F
:1008D0000000FFFFFC0000000000000000FFFFFE22
:1008E0000000000000000000FFFFFE00000000000C
:1008F000000001FFEFFE0000000000000001FFCF3C
:10090000FE0000000000000003FF07FE00000000E2
:1009100000000003FC07FE0000000000000003F0E0
:1009200003FE00000000000000018000FE00000047
:10093000000000000000007E000000000000000039
:1009400000003E000000000000000000000C00005D
:1009500000000000078000FC000003C0000000074A
:100960008001FC000003C0000000078001FC0000C3
:1009700003C0000000078001E00000001E0000002E
:10098000078001E00000001E007FE3F79FF9FDE70C
:10099000787BDFC0FFF7FFBFFDFDFF787BDFC0FF87
:1009A000F7FFBFFDFDFF787BDFC0F0F787BC3DE1BF
:1009B000FF787BDE00F0F787BC3DE1F0787BDE005E
:1009C00000F787803DE1E0787BDE007FF7879FFDC1
:1009D000E1E0787BDE00FFF787BFFDE1E0787BDEBA
:1009E00000F0F787BC3DE1E0787BDE00F0F787BCE4
:1009F0003DE1E0787BDE00F0F787BC3DE1E0787B0D
:100A0000DE00FFF7FFBFFDE1E07FFBDFC0FFF7FF88
:100A1000BFFDE1E07FFBDFC07CF3F39F3DE1E03E03
:100A20007BCFC00000000000000000000000FFFFBE
:100A3000FFFFFFFFFFFFFFFFC0FFFFFFFFFD68DBC2
:100A4000111A31C0FFFFFFFFFD2B5AFB6AEFC0FFF9
:100A5000FFFFFFFD4B5B3B1A33C0FFFFFFFFFD6B4A
:100A60005BDB6AFDC0535344313330362064697315
:100A7000706C6179206661696C656400000000003B
:100A8000240027002A0000000000250028002B0079
:100A900000000000230026002900040404040404CC
:100AA000040402020202020203030303030301021D
:100AB00004081020408001020408102001020408EC
:100AC00010200000000800020100000304070000DD
:100AD0000000000000002200FF21641F31281124C3
:100AE0001FBECFEFD8E0DEBFCDBF24E0A4E8B2E068
:100AF00001C01D92AE3BB207E1F712E0A0E0B1E009
:100B0000E4EFFDE502C005900D92A438B107D9F7D6
:100B100015E0CEE6D5E004C02197FE010E94E02C4E
:100B2000CD36D107C9F70E947E200C94ED2E0C948F
:100B30000000089596E0899FD0011124A350BC4F76
:100B400090967C936E935F9791E091969C9391978A
:100B5000E0916A04F0916B0490916904992339F053
:100B6000309751F0811108C0809119040994309791
:100B700019F05C968C91FACF0895CF92DF92EF92A4
:100B8000FF920F931F9396E0899FF0011124E35089
:100B9000FC4F11A2278D30A12130310551F178F0A1
:100BA0002230310509F451C02330310509F452C017
:100BB0001F910F91FF90EF90DF90CF9008956623E3
:100BC000B9F361E070E00E949A052FB7F894809124
:100BD000520390915303A0915403B09155032FBF3A
:100BE0008093550490935604A0935704B0935804EF
:100BF000DFCF9FB7F894C0905203D0905303E0909A
:100C00005403F09055039FBF009155041091560472
:100C10002091570430915804C01AD10AE20AF30A0D
:100C2000009167041091680430E020E00C151D0568
:100C30002E053F0550F462E070E01F910F91FF9088
:100C4000EF90DF90CF900C949A056111B1CF63E0E3
:100C500070E0F3CF70E060E0F0CF833081F028F4F3
:100C6000813099F08230A9F008958730A9F088305A
:100C7000C9F08430B1F4809180008F7D03C08091F1
:100C800080008F7780938000089584B58F7784BD2E
:100C9000089584B58F7DFBCF8091B0008F778093CE
:100CA000B00008958091B0008F7DF9CFCF93DF938E
:100CB000282F30E0F901EE53F54F8491F901E25508
:100CC000F54FD491F901E656F54FC491CC23A1F02C
:100CD00081110E942D06EC2FF0E0EE0FFF1FE05770
:100CE000F54FA591B491EC91ED2381E090E009F4EA
:100CF00080E0DF91CF91089580E090E0FACF1F93DC
:100D0000CF93DF93282F30E0F901EE53F54F849114
:100D1000F901E255F54FD491F901E656F54FC4912A
:100D2000CC23A9F0162F81110E942D06EC2FF0E0A4
:100D3000EE0FFF1FEA57F54FA591B4918FB7F894C6
:100D4000EC91111108C0D095DE23DC938FBFDF91A9
:100D5000CF911F910895DE2BF8CFCF93DF9390E0D2
:100D6000FC01E255F54F24918656954FFC01849184
:100D70008823C9F090E0880F991FFC01E458F54FD3
:100D8000A591B491FC01EA57F54FC591D491611139
:100D90000DC09FB7F8948C91209582238C93888105
:100DA000282328839FBFDF91CF910895623051F4AB
:100DB0009FB7F8943C91822F809583238C93E88190
:100DC0002E2BEFCF8FB7F894EC912E2B2C938FBF57
:100DD000EACF3FB7F89480914E0390914F03A091D2
:100DE0005003B091510326B5A89B05C02F3F19F0C1
:100DF0000196A11DB11D3FBFBA2FA92F982F88279B
:100E0000BC01CD01620F711D811D911D42E0660F75
:100E1000771F881F991F4A95D1F708958F929F9247
:100E2000AF92BF92CF92DF92EF92FF924B015C01A3
:100E30000E94E9066B017C010E94E9066C197D099C
:100E40008E099F09683E734081059105A8F321E052
:100E5000821A9108A108B10888EEC80E83E0D81E56
:100E6000E11CF11C81149104A104B10429F7FF9045
:100E7000EF90DF90CF90BF90AF909F908F900895AC
:100E8000862F642F0C94AD06862F642F0C947F065A
:100E9000862F0C94560608950895FC01248135810F
:100EA0006217730748F480819181009729F0860FBB
:100EB000971FFC018081089580E008950895AF9206
:100EC000BF92CF92DF92EF92FF920F931F93CF9337
:100ED000DF936C017B018B01040F151FEB015E0199
:100EE000AE18BF08C017D10759F06991D601ED912E
:100EF000FC910190F081E02DC6010995892B79F7CD
:100F0000C501DF91CF911F910F91FF90EF90DF907E
:100F1000CF90BF90AF900895FC01538D448D252F45
:100F200030E0842F90E0821B930B541710F0CF9683
:100F3000089501970895FC01918D828D981761F0B5
:100F4000A28DAE0FBF2FB11D5D968C91928D9F5FCC
:100F50009F73928F90E008958FEF9FEF0895FC01AB
:100F6000918D828D981731F0828DE80FF11D858D5E
:100F700090E008958FEF9FEF0895FC01918D228DF1
:100F8000892F90E0805C9F4F821B91098F73992776
:100F900008958AE593E00E94BD0721E0892B09F4BA
:100FA00020E0822F089580E090E0892B29F00E94B4
:100FB000C90781110C9400000895FC01A48DA80FAD
:100FC000B92FB11DA35ABF4F2C91848D90E001968B
:100FD0008F739927848FA689B7892C93A089B189AB
:100FE0008C91837080648C93938D848D981306C04C
:100FF0000288F389E02D80818F7D80830895EF92B0
:10100000FF920F931F93CF93DF93EC0181E0888FC2
:101010009B8D8C8D98131AC0E889F989808185FF92
:1010200015C09FB7F894EE89FF896083E889F98934
:1010300080818370806480839FBF81E090E0DF9136
:10104000CF911F910F91FF90EF900895F62E0B8D89
:1010500010E00F5F1F4F0F731127E02E8C8D8E1144
:101060000CC00FB607FCFACFE889F989808185FFAB
:10107000F5CFCE010E94DD07F1CFEB8DEC0FFD2FF8
:10108000F11DE35AFF4FF0829FB7F8940B8FEA8966
:10109000FB8980818062CFCFCF93DF93EC01888D75
:1010A0008823B9F0AA89BB89E889F9898C9185FDE3
:1010B00003C0808186FD0DC00FB607FCF7CF8C9171
:1010C00085FFF2CF808185FFEDCFCE010E94DD0745
:1010D000E9CFDF91CF910895EF92FF920F931F9385
:1010E000CF93DF93EC01EC80FD806E157F050CF053
:1010F00070C057FF04C0240F351F50E040E08E81C0
:101100009F81FA01E20FF31F8E179F071CF49C01C9
:10111000241B350B121613060CF05BC0922F842F84
:101120008695869586958E9DD0018F9DB00D112454
:101130006A0F7B1FAF8DB8A1A60FB71F477049F18B
:1011400088E0841B482F682F70E0FB01E555FA4FBB
:10115000E491281708F063C0621B71092FEF30E09B
:1011600002C0359527956A95E2F7E2230130110513
:1011700039F0B0F10230110561F58C91E82702C019
:101180008C91E82BEC93941720F12C813D81A20FD8
:10119000B31FE92FE41BE83078F00230110521F588
:1011A0008E2F9C9190959C932C813D81A20FB31F13
:1011B00088508830B0F7E770EE2359F0F0E0ED5535
:1011C000FA4FE49101301105F9F010F102301105E8
:1011D00019F1DF91CF911F910F91FF90EF9008953A
:1011E000E0958C91E823CECF81E00115110509F43B
:1011F00080E081959E2F8C932C813D81A20FB31F9F
:1012000098509830C0F7D7CF8C91E82BEC93E1CF72
:10121000E0958C91E823FACF8C91E827F7CF013045
:10122000110509F4ADCFE0F20230110509F4A5CFA4
:10123000AE0DBF1DAECF0F931F93CF93DF9377FFFC
:1012400004C0260F371F70E060E0DC011496CD91DA
:10125000DC91FB01E20FF31FCE17DF071CF49E01A8
:10126000261B370B121613064CF5FA0157FD37965D
:10127000A3E0F595E795AA95E1F7EC9FD001ED9FE6
:10128000B00DFC9FB00D11246A0F7B1FDC015F962F
:10129000ED91FC91E60FF71F4770552781E090E034
:1012A00001C0880F4A95EAF7482F0130110559F01F
:1012B000A8F02E0F3F1F02301105E1F0DF91CF9112
:1012C0001F910F9108952E0F3F1FE217F307B1F3FF
:1012D0008191DF011197842B8C93F7CF80952E0F8E
:1012E0003F1FE217F30751F39191DF011197982304
:1012F0009C93F7CFE217F30709F38191DF01119770
:1013000084278C93F7CF0F931F93FA01DC01569635
:101310004C9156974230E9F04330A1F1413061F5EC
:1013200014964D915C91DA01AE1BBF0BFD01E21BDF
:10133000F30B77FD0BC0DC0116964D915C916417A1
:10134000750724F4AB01BF010E941B091F910F9187
:10135000089514964D915C91DA01A61BB70BBD015F
:1013600061507109DC0116964D915C91DA01AE1B5A
:10137000BF0BFD01E21BF30B77FDE8CFAF010E942D
:101380006C08E4CF16964D915C91DA01A61BB70B61
:10139000BD0161507109CDCF0F931F93FA01DC019C
:1013A00056964C9156974230A9F0433091F1413016
:1013B00019F514964D915C91DA01AE1BBF0BFD013E
:1013C0003197F7FD04C0AB01BF010E946C081F916B
:1013D0000F91089514964D915C91DA01A61BB70BFD
:1013E000BD01DC0116964D915C91DA01AE1BBF0B7D
:1013F000FD013197621B730BF7FDE9CFDC011696F7
:101400004D915C91E417F50714F7AF010E941B0999
:10141000DECF16964D915C91DA01A61BB70BBD018C
:10142000621B730BCECFFC0177FD64C08085918574
:10143000681779070CF05EC057FD5CC08285938504
:10144000481759070CF056C086898230B1F08330B6
:1014500029F1813041F484819581841B950BAB0186
:10146000BC01615071092130310509F108F443C014
:101470002230310509F463C0089584819581DC012F
:10148000A61BB70BBD016150710986819781DC01F4
:10149000A41BB50BAD0141505109E5CF8681978161
:1014A000861B970BBA01AC0141505109DCCFCA0130
:1014B00057FD0796A3E095958795AA95E1F7A48136
:1014C000B5818A9F90018B9F300D9A9F300D11241A
:1014D000620F731F078CF0A1E02DE60FF71F477016
:1014E000552721E030E001C0220F4A95EAF78081BC
:1014F000822B80830895CA0157FD079633E09595A6
:1015000087953A95E1F7A481B5818A9F90018B9FD9
:10151000300D9A9F300D1124620F731F078CF0A1BC
:10152000E02DE60FF71F4770552781E090E001C0DE
:10153000880F4A95EAF7809590818923DACFCA010E
:1015400057FD079623E0959587952A95E1F7A481A5
:10155000B5818A9F90018B9F300D9A9F300D112489
:10156000620F731F078CF0A1E02DE60FF71F477085
:10157000552721E030E001C0220F4A95EAF780812B
:101580008227B7CF08958EBD00000DB407FEFDCFB2
:101590008EB508958CBD9DBD08950895FC016370BE
:1015A000668B8481958126813781613039F0633083
:1015B00029F0918780873387228708953187208794
:1015C0009387828708952F923F924F925F926F92F6
:1015D0007F928F929F92AF92BF92CF92DF92EF92C3
:1015E000FF920F931F93CF93DF93CDB7DEB76A9728
:1015F0000FB6F894DEBF0FBECDBF9A8F898F7A8366
:1016000069834A01D22E18870F833701BC2CDC0175
:1016100059962D913C915A972115310509F015C124
:1016200018968D919C911997681779070CF0D7C17E
:101630001A968D919C91481759070CF0D0C14C2CEB
:10164000512CB6E0CB9E600D711D11247C876B87F9
:10165000161617060CF0C3C1EA2DF0E0FA87E987E9
:1016600093E0EE0FFF1F9A95E1F7F88BEF87CF011C
:10167000840F951F181619060CF0B1C1A98DBA8DEB
:1016800058968C91811104C0BFEABD1508F4D3941B
:10169000A98DBA8DED91FC9111970284F385E02D0F
:1016A000CD010995B5E0DB9EC0011124E981FA81E5
:1016B000FC83EB83312C212C9C012D553F4F388F1F
:1016C0002F8B4A2D50E05E8B4D8BEF89F88DE20D0C
:1016D000F31D44919E828D82D12CC12C69817A8127
:1016E000620D731D7A8B698B842F90E09C8B8B8BA2
:1016F000E98DFA8DA081B18140FF82C0F1E0BF1277
:101700006FC0AF126DC01C96ED91FC912F81388592
:10171000A4014C0D5D1D69897A89898D9A8D099581
:10172000EB89FC89F595E7954E2F5FEFC51AD50A31
:101730006D817E818D899E89680F791F7E836D837F
:1017400098E0C916D10481F6AFEF2A1A3A0AEB8164
:10175000FC81E40DF51DFC83EB83F5E02F163104CD
:1017600009F0B3CF2F81388526153705B9F0A98D3B
:10177000BA8DED91FC91B1E0BB1257C0AB1255C0D0
:1017800069817A816B5F7F4F0088F189E02D830149
:1017900028E030E0A401898D9A8D0995A98DBA8D34
:1017A000ED91FC9111970688F789E02DCD016A969D
:1017B0000FB6F894DEBF0FBECDBFDF91CF911F9162
:1017C0000F91FF90EF90DF90CF90BF90AF909F90E0
:1017D0008F907F906F905F904F903F902F900994E3
:1017E0001E96ED91FC91EF80F88409851A8592018F
:1017F0004D815E816B817C81898D9A8D099590CF19
:101800002F8138852615370509F48ACF31E0B312C8
:1018100007C0A31205C01C96ED91FC91930178CFEF
:101820001E96ED91FC917301E0CF6B857C85641968
:1018300075090684F785E02D73010F8518899201DB
:10184000A401898D9A8D0995A9CFF90134969491B7
:10185000329745915491D91AB7E0DB9E400D511D46
:101860001124F901259134913C8B2B8BFA012590A1
:101870003490FA013296749031963491398B3296C5
:1018800064903196449041E04C1518F04A1508F0E8
:101890007FC0662D062C000C770B7C836B83842D18
:1018A000042C000C990B9E838D83A98DBA8DED912C
:1018B000FC9111970284F385E02DCD010995512CFF
:1018C000D12CC12CEA2DF0E0FA87E9872B2D30E0EE
:1018D0003C872B87A401440D511D47FC5A95588F16
:1018E0004F8B69817A81660D711D67FC7A957E87C1
:1018F0006D877989C71608F051CF2C2D30E04D81C6
:101900005E81420F531FA985BA854A9FC0014B9F34
:10191000900D5A9F900D1124FC01E80DF91DF88BD4
:10192000EF87852D612C4F89588D420F531F5E8B99
:101930004D8B671408F050C044244394480E8770C0
:1019400041F4C1010196EB89FC89E20DF31DD490AD
:101950001C01D7FE19C0A98DBA8DED91FC91662DA1
:1019600070E0B1E0BB1219C0AB1217C02D853E85E7
:10197000620F731F0484F585E02D2F8138854D8912
:101980005E89898D9A8D0995DD0C6394842DD1CF64
:101990001E821D821C821B8288CF4B815C81640F5A
:1019A000751FAB85BC856A9FC0016B9F900D7A9FA8
:1019B000900D112469817A81680F791F0684F7855B
:1019C000E02DEF80F88409851A859D014F8558899F
:1019D000898D9A8D0995D8CF570CC3948ACF6A9672
:1019E0000FB6F894DEBF0FBECDBFDF91CF911F9130
:1019F0000F91FF90EF90DF90CF90BF90AF909F90AE
:101A00008F907F906F905F904F903F902F900895B0
:101A10008F929F92AF92CF92EF92FF920F931F936C
:101A2000CF93DF93EC01262F898D9A8D009709F0D3
:101A300051C06A30D1F41D861C868D8948E0849F90
:101A4000900111248E859F85820F931F9F878E871B
:101A500081E090E0DF91CF911F910F91FF90EF9087
:101A6000CF90AF909F908F9008956D3089F3CC8880
:101A7000AD888F898823C1F08C859D8536E0C39E13
:101A8000800D911D1124488559854817590764F424
:101A90004E855F851D861C8638E0A39EC0011124FB
:101AA000840F951F9F878E87EA88FB88088919898C
:101AB0004E855F856C857D85CE010E94E30A2C8969
:101AC0008C859D8546E0249F800D911D11249D8766
:101AD0008C87BECF6A3069F41D861C86FC0138965F
:101AE000E4912D898E859F85E29F800D911D1124A3
:101AF000ADCF6D3009F4ACCFFC013496349163174F
:101B000008F4A6CF3296E491E61708F4A1CFFC01C1
:101B1000329685909490462F431B342F47E0349F94
:101B2000800C911C1124F401329634913196E49189
:101B30003323A9F1EE2399F1CC88F4013596E49191
:101B4000AD884F89442301F10E2E000CFF0BE30FEB
:101B5000F11DCE9EA001CF9E500D11246C857D8578
:101B6000460F571F68857985641775076CF44E8595
:101B70005F851D861C86FC013896E491AE9E400D63
:101B8000511D11245F874E87EA88FB8808891989CF
:101B90004E855F856C857D85CE010E94E30AF40148
:101BA0003496E4912C898C859D85E29F800D911D52
:101BB00011248DCF6F927F928F929F92AF92BF929E
:101BC000CF92DF92EF92FF920F931F93CF93DF9309
:101BD000EC016B015A0139014801E881F981028465
:101BE000F385E02D0995E881F9810288F389E02DDC
:101BF00087019301A501B601CE010995A501480D04
:101C0000591D41505109E881F9810288F389E02D7D
:101C10009301B601CE010995E881F9810088F18927
:101C2000E02D9401A501B601CE010995C60CD71C83
:101C3000B60161507109E881F9810088F189E02DD0
:101C40009401A501CE010995E881F9810688F789FB
:101C5000E02DCE01DF91CF911F910F91FF90EF907A
:101C6000DF90CF90BF90AF909F908F907F906F90BC
:101C700009946F927F928F929F92AF92BF92CF9270
:101C8000DF92EF92FF920F931F93CF93DF935C014C
:101C9000EB016A01490138018701DC01ED91FC91FA
:101CA0006217730719F5641675062CF0962D872DAB
:101CB0003A01C92ED82E9601261937092F5F3F4FBA
:101CC000048CF58DE02DA301BE01C5010995DF91BE
:101CD000CF911F910F91FF90EF90DF90CF90BF9029
:101CE000AF909F908F907F906F9008954615570505
:101CF00091F42617370724F0892D4B01C22FD82FD6
:101D00009E01281939092F5F3F4F068CF78DE02D72
:101D1000A601B401DACF0284F385E02D0995D5013F
:101D2000ED91FC910488F589E02D83019401A601D1
:101D3000BE01C5010995D501ED91FC910688F78991
:101D4000E02DC501DF91CF911F910F91FF90EF9092
:101D5000DF90CF90BF90AF909F908F907F906F90CB
:101D60000994EF92FF920F931F93DC011A960D9145
:101D70001C911B9718962D913C911997ED91FC9110
:101D800000A0F1A1E02D7B0150E040E070E060E0B8
:101D900009951F910F91FF90EF9008954F925F92D8
:101DA0006F927F928F929F92AF92BF92CF92DF926B
:101DB000EF92FF920F931F93CF93DF936C012B0150
:101DC0005A0139014801DC01ED91FC910284F3854F
:101DD000E02D0995E201640C751CD601ED91FC9192
:101DE000C615D7055CF40088F189E02D87019401C0
:101DF000A501BE01C60109952196EFCF0688F78996
:101E0000E02DC601DF91CF911F910F91FF90EF90D0
:101E1000DF90CF90BF90AF909F908F907F906F900A
:101E20005F904F9009948F929F92AF92BF92CF9202
:101E3000DF92EF92FF920F931F93CF93DF93EC010A
:101E40005B014A016901E881F9810284F385E02D93
:101E5000099595012C0D3D1D21503109E881F9812D
:101E60000488F589E02D78018401A401B501CE0133
:101E70000995E881F9810688F789E02DCE01DF9187
:101E8000CF911F910F91FF90EF90DF90CF90BF9077
:101E9000AF909F908F9009948F929F92AF92BF9234
:101EA000CF92DF92EF92FF920F931F93CF93DF9326
:101EB000EC015B014A0169017801E881F981028442
:101EC000F385E02D0995C80CD91C86010150110934
:101ED000E881F9810488F589E02D9501A401B50117
:101EE000CE010995E881F9810688F789E02DCE01B8
:101EF000DF91CF911F910F91FF90EF90DF90CF90E6
:101F0000BF90AF909F908F900994EF92FF920F93A4
:101F10001F93DC01ED91FC9100A0F1A1E02D09954A
:101F20001F910F91FF90EF9008950F931F93DC0185
:101F3000ED91FC91068CF78DE02D09951F910F9185
:101F400008950F931F93DC01ED91FC91048CF58DA6
:101F5000E02D09951F910F910895DC01ED91FC9101
:101F60000084F185E02D09943F924F925F926F9229
:101F70007F928F929F92AF92BF92CF92DF92EF9219
:101F8000FF920F931F93CF93DF935C017B014A0174
:101F90006901390187E0680E711C93E075946794BC
:101FA0009A95E1F72B01400E511E10E000E0312C14
:101FB000D0E0C0E0CE0187709927330C892B59F40B
:101FC000FE0183E0F595E7958A95E1F7E00FF11FB3
:101FD000E80DF91D349037FE0AC021E030E0A7017A
:101FE000B5016C0F7D1F88E794E00E94AD0F21962C
:101FF000CC16DD06F9F68FEFE81AF80A060D171D64
:10200000E414F504A9F6DF91CF911F910F91FF9091
:10201000EF90DF90CF90BF90AF909F908F907F9088
:102020006F905F904F903F9008952F923F924F9204
:102030005F926F927F928F929F92AF92BF92CF9258
:10204000DF92EF92FF920F931F93CF93DF9300D015
:1020500000D000D0CDB7DEB73C016A013E832D83AE
:10206000FC82EB825801A41AB50AB7FE03C0B194F2
:10207000A194B1088D809E80861A970A97FE03C0AE
:102080009194819491088A149B045CF0902F812F85
:102090000D811E819D838E839C2D8D2D6B01692F5B
:1020A000782F0C151D055CF09D818E817E836D83DC
:1020B000692F782F902F812F8601C92ED82E1601D7
:1020C000201A310A2B012D813E81421A530A57FEF4
:1020D00003C0519441945108710137FE03C03FEF92
:1020E000E31AF30AF594E7948D819E81861797078A
:1020F0005CF5A1E0B0E0BA83A983C016D1064CF12B
:10210000D301ED91FC910484F585E02D2B813C8178
:10211000A8016D817E818A149B041CF04D815E8133
:10212000B801C3010995E418F508F7FE0AC02D812E
:102130003E8189819A81280F391F3E832D83E20CCD
:10214000F31C0F5F1F4FD9CF2FEF3FEF3A83298347
:10215000D4CF26960FB6F894DEBF0FBECDBFDF9169
:10216000CF911F910F91FF90EF90DF90CF90BF9094
:10217000AF909F908F907F906F905F904F903F9027
:102180002F9008952091EA02260F3327331F213222
:102190003105ECF420910E03FC0190E080E0243046
:1021A00069F082E00895A091EA022191AC014653C2
:1021B0005D4FA40FB52FB11D2C930196861798F390
:1021C0008091EA02680F6093EA0280E0089581E05E
:1021D000089510920E0381E08093100310920F0374
:1021E00061E082E10E947F0661E083E10E947F0658
:1021F000E9EBF0E080818E7F808380818D7F80831A
:1022000088E48093B80085E48093BC000895CF9360
:10221000DF9391E09093C9028823B9F0C091B80090
:10222000D091BA008091BC008A7B8093BC0060E0B2
:1022300082E10E947F0660E083E10E947F060E94A7
:10224000E910D093BA00C093B800DF91CF91089500
:10225000E0913A0380913903E81730F4F0E0EC554F
:10226000FD4F808190E008958FEF9FEF089590914A
:102270003A03809139032FEF3FEF981748F4E92F85
:10228000F0E0EC55FD4F208130E09F5F90933A03E2
:10229000C90108958091390390913A03891B990BE4
:1022A0000895CF92DF92EF92FF920F931F93CF93F7
:1022B000DF937C01CB018A0120915903222389F00D
:1022C000EB016B01C40ED51ECC15DD0569F06991DB
:1022D000D701ED91FC910190F081E02DC7010995A6
:1022E000F3CF642F0E94C210C801DF91CF911F91DC
:1022F0000F91FF90EF90DF90CF900895CF93DF93F1
:102300001F92CDB7DEB76983209159032223F9F0DC
:1023100020915603203258F021E030E0FC01338355
:10232000228390E080E00F90DF91CF91089580911B
:102330005703E82FF0E0EC57FD4F998190838F5FB2
:10234000809357038093560381E090E0ECCF61E0E7
:10235000CE0101960E94C210F7CFCF92DF92EF928A
:10236000FF920F931F93CF93DF93D091560381E099
:10237000D13208F09CC0C09158030E94E9066B015D
:102380007C0180910E0381116CC082E080930E036A
:1023900081E0809310038FEF80930D03109232033E
:1023A000D0933103A4E8B2E0E1E1F3E080E0D81398
:1023B0008DC01092330380913303CC0FC82BC09390
:1023C000330380910F03813009F084C010920F0312
:1023D0000E94E9066B017C01809133038093BB006E
:1023E0008091C5029091C602A091C702B091C80227
:1023F000892B8A2B8B2BA1F00E94E9060091C50244
:102400001091C6022091C7023091C8026C197D0953
:102410008E099F09061717072807390708F442C0D5
:102420008091BC0083FDD8CF85EC8093BC000E94D6
:10243000E9066B017C0180910E03823009F44CC0E7
:1024400080910D038F3F09F469C080910D038032A4
:1024500009F466C080910D03803309F463C084E001
:1024600026C08091C5029091C602A091C702B0918A
:10247000C802892B8A2B8B2B09F483CF0E94E90693
:102480000091C5021091C6022091C7023091C80286
:102490006C197D098E099F09061717072807390748
:1024A00008F06FCF8091C4020E94071185E010925E
:1024B00057031092560310925903DF91CF911F9149
:1024C0000F91FF90EF90DF90CF9008959D919193A1
:1024D0008F5F6DCF85EEA9CF8091C5029091C60226
:1024E000A091C702B091C802892B8A2B8B2B09F4CB
:1024F000A2CF0E94E9060091C5021091C602209168
:10250000C7023091C8026C197D098E099F09061710
:1025100017072807390708F08ECFC4CF80E0C7CF50
:1025200082E0C5CF83E0C3CFEF92FF920F931F935A
:10253000CF93DF937C01C62F8091950490919604F0
:10254000009709F459C02091990431E03093590360
:10255000209358031092570310925603DC01ED911B
:10256000FC910190F081E02D60E009958701EE2457
:10257000E394F12CD1E0C1508091950490919604A0
:10258000CF3F91F1B0E2EB16F104D8F00E94AD110B
:10259000809195049091960420919904D0935903C9
:1025A000209358031092570310925603DC01ED91CB
:1025B000FC910190F081E02D60E00995EE24E39418
:1025C000F12C8091950490919604F8016491DC01BE
:1025D000ED91FC910190F081E02D0995BFEFEB1A90
:1025E000FB0A0F5F1F4FC7CFDF91CF911F910F9154
:1025F000FF90EF900C94AD11E091A504F091A6042A
:1026000090818091AB048095892380838701C1509C
:1026100008F438C0F8018491209193043091940417
:10262000232B29F00E94C30A0F5F1F4FF0CF28E031
:1026300030E040E8E091A104F091A2049091A90457
:10264000582F5423D9F05081952B9083E091A30407
:10265000F091A40490815091AA04952B9083E0916D
:10266000A304F091A40450819091AA04909595231D
:102670009083469521503109E9F6D6CF5081909547
:102680009523E3CFDF91CF911F910F91FF90EF90B2
:1026900008951F93CF93DF93EC018D8D9E8D00974E
:1026A00021F1162F29A131E03093590320935803CB
:1026B0001092570310925603DC01ED91FC910190AA
:1026C000F081E02D60E009958D8D9E8DDC01ED910E
:1026D000FC910190F081E02D612F09958D8D9E8DEB
:1026E000DF91CF911F910C94AD11ADA5BEA59C912A
:1026F0008BA9809589238C938B8D9C8D892B31F0B0
:10270000862FDF91CF911F910C94C30A28E030E00F
:1027100080E8A9A5BAA599A9462F4823C1F04C91F4
:10272000942B9C93ABA5BCA59C914AA9942B9C93FC
:10273000ABA5BCA54C919AA9909594239C938695A2
:102740002150310931F7DF91CF911F9108954C91BC
:1027500090959423E6CFDF92EF92FF920F931F9311
:10276000CF93DF938091950490919604892B09F47F
:10277000A5C02091AD043091AE044091AF045091BA
:10278000B00460E074E284EF90E00E94B62C205127
:102790003109410951095695479537952795209359
:1027A000B80064E086ED9AE00E94941280917C0467
:1027B00090917D048034910509F097C060E288E72C
:1027C00094E00E94491360917C04615E88E794E084
:1027D0000E94491320917E0430917F04C90107961D
:1027E00097FD079633E0959587953A95E1F7209107
:1027F0007C0430917D04829F8001839F100D929F05
:10280000100D1124C0919704D091980480919504E3
:10281000909196040C0F1D1F009709F498C0209109
:10282000990431E0309359032093580310925703D1
:1028300010925603DC01ED91FC910190F081E02DA6
:1028400060E40995EE24E394F12CDD24D394809187
:102850009504909196040C171D0709F44FC0B0E23F
:10286000EB16F104D8F00E94AD118091950490917F
:10287000960420919904D092590320935803109202
:10288000570310925603DC01ED91FC910190F08109
:10289000E02D60E40995EE24E394F12C80919504F9
:1028A000909196046991DC01ED91FC910190F08189
:1028B000E02D0995BFEFEB1AFB0AC9CF8091930475
:1028C00090919404892B31F08091B6049091B704D3
:1028D0000E94CA0AE091A704F091A8049081809117
:1028E000AC048095892380835CCF60E088E794E026
:1028F0000E94491360917C04615068CF0E94AD1121
:102900008091950490919604892B09F461C02091DF
:10291000B1043091B2044091B3045091B40460E02A
:1029200074E284EF90E00E94B62C205131094109F5
:10293000510956954795379527952093B800DF9113
:10294000CF911F910F91FF90EF90DF900895E0914C
:10295000A504F091A60480819091AB04892B80831B
:102960000C171D0769F2899120919304309194040A
:10297000232B19F00E94C30AF3CF28E030E040E88F
:10298000E091A104F091A2049091A904582F54233E
:10299000D9F05081952B9083E091A304F091A40489
:1029A00090815091AA04952B9083E091A304F0911B
:1029B000A40450819091AA04909595239083469504
:1029C00021503109E9F6CCCF508190959523E3CF82
:1029D000E091A704F091A80480819091AC04892B28
:1029E0008083ADCF1F93CF93DF93EC01162F8D8D96
:1029F0009E8D892BB1F12DA93EA94FA958AD60E05C
:102A000074E284EF90E00E94B62C20513109410914
:102A1000510956954795379527952093B80066EA52
:102A2000111167EACE010E9449138D8D9E8D892B6D
:102A300041F129AD3AAD4BAD5CAD60E074E284EF9D
:102A400090E00E94B62C2051310941095109569558
:102A50004795379527952093B800DF91CF911F9127
:102A600008958B8D9C8D892B21F08EAD9FAD0E949A
:102A7000CA0AEFA5F8A990818CA980958923808343
:102A8000CECFEFA5F8A980819CA9892B8083E5CFC3
:102A900090E080E0089520917E0430917F04C90188
:102AA000079697FD079623E0959587952A95E1F778
:102AB00020917C0430917D04829FA001839F500D62
:102AC000929F500D112470E060E0809197049091E6
:102AD00098040C94D62EFB0101900020E9F7319761
:102AE000AF01461B570BDC01ED91FC910280F38195
:102AF000E02D09948F929F92AF92BF920F931F93F4
:102B0000CF93DF93CDB7DEB7A1970FB6F894DEBFB2
:102B10000FBECDBF19A2423008F44AE08E010F5D0E
:102B20001F4F842E912CB12CA12CA50194010E9441
:102B3000B62CE62FB901CA01EA3004F5E05DD801F0
:102B4000EE938D01232B242B252B79F790E080E049
:102B5000109729F0BD018AE593E00E946B15A196BC
:102B60000FB6F894DEBF0FBECDBFDF91CF911F919E
:102B70000F91BF90AF909F908F900895E95CDFCF49
:102B8000BC018AE593E00C946B154F925F926F92B3
:102B90007F928F929F92AF92BF92CF92DF92EF92ED
:102BA000FF920F931F93CF936B017C01742EAC01A6
:102BB0009B010E94B12C69E871E0811126C0460199
:102BC0005701E894B7F82FEF3FEF4FE75FE7C501F4
:102BD000B4010E94B12C81110CC02FEF3FEF4FE7E1
:102BE0005FE7C501B4010E941F2A6DE871E0181665
:102BF00064F02FEF3FEF4FE75FE4C701B6010E949B
:102C0000AC2C1816ACF461E971E08AE593E0CF9141
:102C10001F910F91FF90EF90DF90CF90BF90AF90FA
:102C20009F908F907F906F905F904F900C946B155A
:102C30002FEF3FEF4FE75FECC701B6010E941F2A5D
:102C400087FDE1CF20E030E0A901C701B6010E9475
:102C50001F2A10E000E087FF0AC06DE28AE593E0DA
:102C60000E94FF078C01F7FAF094F7F8F094C0E0A7
:102C700060E070E080E09FE37C1641F020E030E00F
:102C800040E251E40E94042CCF5FF6CFA7019601E9
:102C90000E94982B2B013C010E947D2C4B015C0172
:102CA0004AE00E947A157C01E00EF11ECC23C1F1AE
:102CB000C501B4010E94242A9B01AC01C301B201E9
:102CC0000E94972B4B015C016EE28AE593E00E9423
:102CD000FF07E80EF91EC15018F120E030E040E295
:102CE00051E4C501B4010E94852A2B013C010E94D8
:102CF0007D2C4B01B12CA12C4AE0C501B4010E94EE
:102D00007A15E80EF91EC501B4010E94242A9B0120
:102D1000AC01C301B2010E94972B4B015C01DBCFD8
:102D2000C701CF911F910F91FF90EF90DF90CF904F
:102D3000BF90AF909F908F907F906F905F904F90DB
:102D40000895CF93DF9342E00E94C515EC0165E939
:102D500071E08AE593E00E946B158C0F9D1FDF9157
:102D6000CF9108950F931F93CF93DF93EC01FB0155
:102D70004481558160817181E881F9810280F3810C
:102D8000E02D09958C0165E971E0CE010E946B157B
:102D9000800F911FDF91CF911F910F9108950E9495
:102DA000C82EFC0124813581232B39F421E0FB015D
:102DB0008081882349F020E007C0808191810E94B2
:102DC000DD2E21E0892BB9F7822F08950E94D116BC
:102DD00091E0811190E0892F08950F931F93CF9375
:102DE000DF938C01EB01FC01808191810097E1F080
:102DF0006881798161157105A9F0428153812C8127
:102E00003D814217530770F00E94E62E8C819D8110
:102E1000F801958384831D821C82DF91CF911F91DD
:102E20000F9108950E94822D88819981F8019183E4
:102E300080838A819B81938382838C819D8195830A
:102E40008483198218821B821A82E5CFCF93DF9385
:102E5000EC0188819981009711F00E94822D1982DE
:102E600018821D821C821B821A82DF91CF910895E5
:102E7000FC0180819181009711F00C94822D0895BE
:102E80000F931F93CF93DF93EC0188819981009773
:102E900059F02A813B812617370730F081E0DF9116
:102EA000CF911F910F9108958B016F5F7F4F0E940B
:102EB0000B2E009759F0998388831B830A832C81FA
:102EC0003D81232B59F7FC011082E8CF80E0E7CF4A
:102ED000EF92FF920F931F93CF93DF9361157105CC
:102EE00041F480E0DF91CF911F910F91FF90EF901F
:102EF000089541155105B1F07B01EC010C811D8154
:102F0000040F151FB8010E944017882351F3288130
:102F100039818C819D81B701820F931F0E94E62E1B
:102F20001D830C8381E0DECFCF93DF93EC0141E082
:102F300050E065E372E00E946817811103C0CE0182
:102F40000E942617CE01DF91CF910895CF93DF9392
:102F5000EC01FB0144815581608171810E946817F9
:102F6000811103C0CE010E942617CE01DF91CF91BF
:102F70000895EF92FF920F931F93CF93DF93EC018D
:102F80007B018A01BA010E94401781110BC0CE015A
:102F90000E942617CE01DF91CF911F910F91FF90D4
:102FA000EF9008951D830C83B701888199810E9459
:102FB000E62EF0CFFB0101900020E9F73197AF0139
:102FC000461B570B0C94B9170F931F93CF93DF93A6
:102FD000CDB7DEB7A2970FB6F894DEBF0FBECDBF58
:102FE0008C01CB01BA01F801118210821382128286
:102FF000158214822AE0AE014F5F5F4F0E94532872
:10300000BE016F5F7F4FC8010E94DA17A2960FB60C
:10301000F894DEBF0FBECDBFDF91CF911F910F910E
:103020000895CF93DF9300D0CDB7DEB7FC011182B6
:103030001082138212821582148269831A82BE0161
:103040006F5F7F4F0E94DA170F900F90DF91CF9143
:103050000895CF93DF93EC01FB018617970749F0A2
:10306000608171816115710541F0448155810E9433
:10307000B917CE01DF91CF9108950E942617F9CF9D
:10308000FC011182108213821282158214820C9428
:103090002918FC0111821082138212821582148277
:1030A000FB0101900020E9F73197AF01461B570B58
:1030B0000C94B9172F923F924F925F926F927F922A
:1030C0008F929F92AF92BF92CF92DF92EF92FF9238
:1030D0000F931F93CF93DF93CDB7DEB728970FB62B
:1030E000F894DEBF0FBECDBF0E944B1582E0F82ED4
:1030F000F0928C04F0928D0468E971E0CE010196A3
:103100000E944918F0928C04F0928D048D819E816A
:10311000892B09F4AEC00091910410919204209182
:103120008F042F83C0908004D0908104180134E074
:10313000230E311C280186E0480E511C4801E2E0B4
:103140008E0E911C7801F8E0EF0EF11CA980BA8078
:1031500090E080E06FEF7FEFAFEFBFE7F5012191E7
:103160005F01222309F47BC00115110509F456C043
:103170002A3029F4F701849190E080E0EFCF2D30E0
:1031800069F3F1013491F2014491231738F34217A6
:1031900028F3F40165907490231BF7E02F9F600CD7
:1031A000711C1124F301329624913196E491F301BC
:1031B000349634913887319644913196E491042EB7
:1031C000000C550B30E0EF81EE2371F0FA01E20FB5
:1031D000F31FEE0FFF1FE80FF91FCE16DF0624F4D2
:1031E000F701849190E080E0440F551F480F591F6C
:1031F0004A175B070CF4DA01220F331F240F351F27
:1032000021503109621773070CF4B9012885E22FA8
:10321000F0E0EE0FFF1F8E0F9F1FA0CF2A3009F4A2
:10322000ABCF2D3009F49ACF3F81332341F09C017D
:10323000245F3F4FC216D30614F490E080E0AC0147
:10324000445F5F4F9C01255F3F4F621773070CF48B
:10325000B9018A179B070CF4DC01CA017FCF10E08B
:1032600000E06A177B072CF06A1B7B0B8B010F5F5A
:103270001F4F80E890E0801B910B96958795909367
:1032800085048093840484E190E090938704809384
:103290008604CE0101960E94381768E971E088E73C
:1032A00094E00E946B1565E971E088E794E00E9464
:1032B0006B150E94AB1328960FB6F894DEBF0FBEB5
:1032C000CDBFDF91CF911F910F91FF90EF90DF90D5
:1032D000CF90BF90AF909F908F907F906F905F90B6
:1032E0004F903F902F90089585ED8093BC00809182
:1032F000C5029091C602A091C702B091C80207967C
:10330000A11DB11D23E0B695A795979587952A95A0
:10331000D1F72091BC0024FD03C010920E03089544
:103320004091C5025091C6026091C7027091C802D7
:10333000452B462B472B69F30097A105B10541F0BA
:103340002AE22A95F1F700C00197A109B109E1CF5E
:103350008091C4020C940711CF92DF92EF92FF92FA
:103360000F931F93CF93DF93CDB7DEB76E970FB652
:10337000F894DEBF0FBECDBF8C01CB01BA010E9415
:10338000762C6B017C0180913B0390913C03823051
:10339000910509F457C08330910509F492C0019753
:1033A00009F009C1C114D104E104F104A9F46CE9E4
:1033B00071E0C8010E944918C8016E960FB6F894D2
:1033C000DEBF0FBECDBFDF91CF911F910F91FF9058
:1033D000EF90DF90CF90089567E971E0CE014996B4
:1033E0000E9449181C141D041E041F040CF0D1C0B7
:1033F000B701A6014170552766277727CE0143966E
:103400000E94E417BE016D5E7F4FCE0101960E94BF
:103410004018BE01675E7F4FCE0101960E94A6173D
:10342000BC01CE0149960E942918CE0101960E9446
:103430003817CE0143960E943817F594E794D79435
:10344000C794D0CFC114D104E104F10409F4AFCF83
:1034500067E971E0CE0149960E9449181C141D04C9
:103460001E041F040CF095C0B701A6014770552734
:1034700066277727CE0143960E94E417BE016D5E52
:103480007F4FCE0101960E944018BE01675E7F4FBC
:10349000CE0101960E94A617BC01CE0149960E945A
:1034A0002918CE0101960E943817CE0143960E943A
:1034B000381793E0F594E794D794C7949A95D1F789
:1034C000CDCFC114D104E104F10409F470CF67E950
:1034D00071E0CE0149960E9449181C141D041E0477
:1034E0001F040CF056C0D701C6018F709927AA2778
:1034F000BB278A309105B4F51C8A1B8A1E8A1D8A57
:10350000188E1F8A4AE0BE016F5F7F4F0E944828D5
:10351000BE016F5F7F4FCE0143960E94DA17BE0156
:103520006D5E7F4FCE0101960E944018BE01675E1E
:103530007F4FCE0101960E94A617BC01CE0149968D
:103540000E942918CE0101960E943817CE01439699
:103550000E94381784E0F594E794D794C7948A952D
:10356000D1F7BBCF67E3680FCE0101960E94111817
:10357000BE01675E7F4FCE0101960E94A617BC0177
:10358000CE0149960E942918CE0101960E94381753
:10359000E1CFF80111821082138212821582148207
:1035A000BE01675E7F4FC8010E94ED16CE014996AD
:1035B0000E94381701CFB701A601C8010E94E41785
:1035C000FBCE0F931F93CF93DF93CDB7DEB7A497B6
:1035D0000FB6F894DEBF0FBECDBF0E944B1581E041
:1035E00080938C0480938D0485E090E09093850413
:1035F0008093840482E090E0909387048093860413
:1036000080913B0390913C0366EA71E08230910522
:1036100059F06AEA71E08330910531F06EE971E0AA
:10362000019711F462EA71E0CE0101960E944918F7
:10363000BE016F5F7F4F88E794E00E94B216CE0113
:1036400001960E94381767E971E0CE0143960E9407
:10365000491867E971E0CE0149960E94491867E967
:1036600071E0CE014F960E9449188EEA91E00E94C7
:10367000C015609148037091490380914A0390916D
:103680004B0342E00E94C5158CEC91E00E94C015EE
:1036900060913D0370E090E080E04AE00E947A157E
:1036A00080EE91E00E94C01560914003709141034B
:1036B00080914203909143030E94A11680913E03A2
:1036C000811105C080913D03882309F403C1409115
:1036D00048035091490360914A0370914B03CE0116
:1036E00001960E94AC19BE016F5F7F4FCE014396D9
:1036F0000E94ED16CE0101960E94381780913E037C
:10370000882309F4EEC060913F03CE0101960E9428
:103710001118BE016F5F7F4FCE0107960E944018BF
:10372000CE0107960E94941767EF73E00E94A617D8
:10373000BC01CE0149960E942918CE0107960E942D
:103740003817CE0101960E94381780913D038823D7
:1037500011F14091400350914103609142037091F7
:103760004303CE0101960E94AC19BE016F5F7F4FEB
:10377000CE014F960E94ED16CE0101960E94381799
:103780008FEE91E00E94C015BE01615E7F4F8AE519
:1037900093E00E94B21667E971E0CE0143960E9461
:1037A000E6168823F1F085E090E0909385048093FD
:1037B00084048FE090E09093870480938604BE0198
:1037C0006D5E7F4F88E794E00E94B2168DEF91E026
:1037D0000E94C015BE016D5E7F4F8AE593E00E9496
:1037E000B21667E971E0CE0149960E94E616882379
:1037F000F1F085E090E0909385048093840489E162
:1038000090E09093870480938604BE01675E7F4FAB
:1038100088E794E00E94B21688E092E00E94C0150A
:10382000BE01675E7F4F8AE593E00E94B2168091E9
:103830003E03811104C080913D03882361F001E0C3
:1038400010E02CE630E048E250E06AE070E088E703
:1038500094E00E94CC0967E971E0CE014F960E9486
:10386000E6168823F1F085E090E09093850480933C
:1038700084048EE290E09093870480938604BE01D6
:10388000615E7F4F88E794E00E94B21686E192E085
:103890000E94C015BE01615E7F4F8AE593E00E94E1
:1038A000B2160E94AB13CE014F960E943817CE017C
:1038B00049960E943817CE0143960E943817A49665
:1038C0000FB6F894DEBF0FBECDBFDF91CF911F9131
:1038D0000F91089567EF73E0CE0143960E94291877
:1038E0000DCF80913D03882309F42FCF40914403ED
:1038F000509145036091460370914703CE010D96A8
:103900000E94AC1960913F03CE0101960E941118EC
:10391000BE016F5F7F4FCE0107960E944018CE0117
:1039200007960E949417BE01635F7F4F0E94A617FF
:10393000BC01CE0149960E942918CE0107960E942B
:103940003817CE0101960E943817CE010D96FBCE96
:103950008F929F92AF92BF92CF92DF92EF92FF929F
:103960000F931F93CF93DF9300D000D000D0CDB73B
:10397000DEB78C0167E971E00E94D1168111DFC0CA
:103980006CE971E0C8010E94D1168111D8C0809104
:103990003B0390913C038130910591F030F08230EF
:1039A0009105C1F1039709F465C0F8018081918107
:1039B000009709F4C4C00E9444286B017C01AAC08E
:1039C000B801CE0101960E9440180D811E81015060
:1039D0001109812C912C54018394C12CD12C760196
:1039E00017FD8EC0B801CE0101960E944D078133AC
:1039F00059F4C80CD91CEA1CFB1C880C991CAA1C85
:103A0000BB1C01501109ECCF8033B9F3C12CD12C70
:103A100076017CC0B801CE0101960E9440180D814C
:103A20001E8101501109812C912C54018394C12CC9
:103A3000D12C760117FD64C0B801CE0101960E9419
:103A40004D07A82F880FBB0BD097A830B105F0F613
:103A5000A50194010E94D82CC60ED71EE81EF91E9F
:103A600023E0880C991CAA1CBB1C2A95D1F7015095
:103A70001109E0CFB801CE0101960E9440180D81D6
:103A80001E8101501109812C912C54018394C12C69
:103A9000D12C760117FD34C0B801CE0101960E94E9
:103AA0004D07A82F80ED8A0F8A30B0F40A2E000C43
:103AB000BB0BD097A50194010E94D82CC60ED71E2F
:103AC000E81EF91E84E0880C991CAA1CBB1C8A9570
:103AD000D1F701501109DECF8FEB8A0F863028F421
:103AE0000A2E000CBB0BD797E5CF8FE98A0F8630E3
:103AF00008F08CCF0A2E000CBB0BA755B109DACF0A
:103B0000C701B6010E94262A6B017C01CE010196F5
:103B10000E943817C701B60126960FB6F894DEBF8B
:103B20000FBECDBFDF91CF911F910F91FF90EF900E
:103B3000DF90CF90BF90AF909F908F900895C12C51
:103B4000D12C7601E7CF1F920F920FB60F9211245E
:103B50002F933F938F939F93AF93BF938091520383
:103B600090915303A0915403B091550330914D03AC
:103B700023E0230F2D3758F50196A11DB11D209389
:103B80004D038093520390935303A0935403B09337
:103B9000550380914E0390914F03A0915003B09133
:103BA00051030196A11DB11D80934E0390934F03C5
:103BB000A0935003B0935103BF91AF919F918F9108
:103BC0003F912F910F900FBE0F901F90189526E8F0
:103BD000230F0296A11DB11DD2CF1F920F920FB6D7
:103BE0000F9211242F933F934F935F936F937F9383
:103BF0008F939F93AF93BF93EF93FF938AE593E0E7
:103C00000E94DD07FF91EF91BF91AF919F918F913E
:103C10007F916F915F914F913F912F910F900FBEC8
:103C20000F901F9018951F920F920FB60F921124AC
:103C30002F938F939F93EF93FF93E0916A03F091FB
:103C40006B038081E0917003F091710382FD1BC0D2
:103C50009081809173038F5F8F732091740382171B
:103C600041F0E0917303F0E0E65AFC4F958F8093AA
:103C70007303FF91EF919F918F912F910F900FBE42
:103C80000F901F9018958081F4CF1F920F920FB65E
:103C90000F9211242F933F934F935F936F937F93D2
:103CA0008F939F93AF93BF93EF93FF938091B9004E
:103CB000887F803609F44AC0F0F5883209F4A7C03D
:103CC00018F5803109F49BC0B8F4882309F4F9C0D1
:103CD000883009F494C0FF91EF91BF91AF919F910B
:103CE0008F917F916F915F914F913F912F910F90A5
:103CF0000FBE0F901F901895883109F488C080324C
:103D000051F780930D0314C0803409F49DC040F432
:103D10008033B9F38833F9F680930D0385ECB0C096
:103D2000803509F485C0883509F496C0883499F641
:103D30000E947419D0CF883909F48CC038F58837BF
:103D400029F050F4883611F0803729F683E080930B
:103D50000E0310920C0357C0883809F47BC08039D9
:103D600019F0803809F0B7CF80910C03803208F049
:103D700071C0E0910C0381E08E0F80930C03809161
:103D8000BB00F0E0E451FD4F80833DC0803B39F043
:103D9000E0F4803A09F479C0883A09F09CCF84E0D5
:103DA00080930E031092EB021092EA02E091370327
:103DB000F091380309958091EA0281110FC081E0EA
:103DC0008093EA021092CA0209C0803C09F4A6CF8F
:103DD000883C09F4A3CF883B09F07DCFE091EB024A
:103DE00081E08E0F8093EB02F0E0E653FD4F80817F
:103DF0008093BB009091EB028091EA0229C08091F0
:103E000033038093BB0085EC8093BC0064CF90911A
:103E1000320380913103981758F5E091320381E025
:103E20008E0F80933203F0E0EF5EFC4F8081E9CF8C
:103E3000E091320381E08E0F809332038091BB00CA
:103E4000F0E0EF5EFC4F808390913203809131036C
:103E50009817C8F285E8D8CFE091320381E08E0F41
:103E6000809332038091BB00F0E0EF5EFC4F8083D3
:103E70008091100381115CCF81E080930F0384EA6D
:103E80008093BC0010920E0326CF85EC8093BC007B
:103E900010920E0380910C03803230F4E0910C03F9
:103EA000F0E0E451FD4F108260910C0370E0E0916E
:103EB0003503F09136038CEE92E0099510920C03D5
:103EC0000ACF10920D0334CF10925D0310925C0361
:103ED00088EE93E0A0E0B0E080935E0390935F03F0
:103EE000A0936003B093610325E131E030935B035D
:103EF00020935A0325EC30E0309367032093660348
:103F000024EC30E0309369032093680320EC30E028
:103F100030936B0320936A0321EC30E030936D0300
:103F200020936C0322EC30E030936F0320936E03F8
:103F300026EC30E0309371032093700310927303EA
:103F400010927403109275031092760310926F040E
:103F500010926E048093700490937104A093720485
:103F6000B093730487E291E090936D0480936C04A6
:103F700010927B0410927A0420E830E030937D04A4
:103F800020937C0480E490E090937F0480937E04EF
:103F9000309381042093800490938304809382045F
:103FA00010928E041092850410928404109287045B
:103FB0001092860481E080938D0480938C042FEF0F
:103FC0003FEF30938B0420938A043093890420932D
:103FD000880480938F04109290041092920410929F
:103FE000910483E491E09093790480937804109293
:103FF0009404109293048CE694E09093960480933A
:10400000950410929804109297048FEF80939C046B
:1040100080939D0480939E0480939F048093A004CA
:1040200080E89AE1A6E0B0E08093AD049093AE04FE
:10403000A093AF04B093B00480EA96E8A1E0B0E0AA
:104040008093B1049093B204A093B304B093B404EA
:1040500080E58093B6041092B7041092FF0310928B
:104060000304109202041092040489E391E09093F7
:10407000FE038093FD03E9E1F4E0108214821382D1
:104080001582369684E0E535F807B9F785E091E0CA
:104090009093600480935F0480E091E090936204C9
:1040A0008093610486E08093630485E080936404D8
:1040B0008BE691E090935E0480935D048AE090E04B
:1040C000909366048093650484EF91E09093680474
:1040D0008093670410926B0410926A041092590442
:1040E00010925A0410925B0410925C0410926904BE
:1040F0006CE971E087EF93E00C944918CF93DF935C
:10410000CDB7DEB72C970FB6F894DEBF0FBECDBF8C
:10411000789484B5826084BD84B5816084BD85B5A2
:10412000826085BD85B5816085BD80916E008160AE
:1041300080936E0010928100809181008260809354
:104140008100809181008160809381008091800056
:104150008160809380008091B10084608093B10081
:104160008091B00081608093B00080917A0084607B
:1041700080937A0080917A00826080937A008091A7
:104180007A00816080937A0080917A0080688093C1
:104190007A001092C100E0916A03F0916B0382E013
:1041A0008083E0916603F09167031082E0916803D9
:1041B000F09169038FEC808310927203E0916E039B
:1041C000F0916F0386E08083E0916C03F0916D03C2
:1041D000808180618083E0916C03F0916D03808128
:1041E00088608083E0916C03F0916D03808180682A
:1041F0008083E0916C03F0916D0380818F7D8083DB
:104200008091970490919804892B11F10E944B158D
:1042100020917E0430917F0480917C0490917D04F4
:10422000213231050CF04BC0B9016052710977FFA2
:1042300002C06F5F7F4F759567958357910997FD12
:10424000019600E210E023E730E045EC55E04AC07B
:1042500020917E0430917F04C901079697FD07964F
:10426000B3E095958795BA95E1F720917C0430915C
:104270007D04AC01429FC001439F900D529F900D61
:1042800011240E94E62C9093980480939704892B24
:1042900009F0BCCF05E61AE0F8016491662341F00D
:1042A0008AE593E00E94FF070F5F1F4F892BA1F75C
:1042B00065E971E08AE593E00E946B15FFCFB901D3
:1042C0006054710977FF02C06F5F7F4F75956795E6
:1042D0008255910997FD019600E410E022E530E057
:1042E00045EA57E0959587950E94B40F82E0809348
:1042F0009A048091950490919604892B09F42AC11F
:104300008CE38093990410923A031092390310922F
:104310005703109256030E94E9108BE497E09093A4
:104320003803809337038CE497E0909336038093AF
:1043300035038091A00487FD1EC061E00E94AD0698
:1043400061E08091A0040E947F0661E070E080E05F
:1043500090E00E940E0760E08091A0040E947F061A
:104360006AE070E080E090E00E940E0761E08091DA
:10437000A0040E947F068091950490919604892B59
:1043800009F4A7C12091AD043091AE044091AF046F
:104390005091B00460E074E284EF90E00E94B62C8B
:1043A000205131094109510956954795379527956F
:1043B0002093B80064E081EC95E00E949412609133
:1043C0007E04615088E794E00E94491364E08DEB1D
:1043D00095E00E94941280919A0460E1813009F086
:1043E00064E188E794E00E94491364E089EB95E07A
:1043F0000E9494128FE88093B50480917C04909180
:104400007D048038910509F07BC180917E049091F4
:104410007F048034910509F083C180919A04813032
:1044200009F091C18FE98093B50412E16AED88E744
:1044300094E00E944913612F88E794E00E94491399
:1044400061E888E794E00E9449136091B50488E729
:1044500094E00E94491369ED88E794E00E944913B3
:1044600080919A0462E2813009F061EF88E794E07C
:104470000E94491366E083EB95E00E9494128091BC
:10448000950490919604892B09F45FC12091B104A1
:104490003091B2044091B3045091B40460E074E2EE
:1044A00084EF90E00E94B62C205131094109510956
:1044B00056954795379527952093B8000E944B1540
:1044C00081E090E090938B0480938A049093890418
:1044D000809388040E945A18412C512C3201439435
:1044E00036E0232E81E0809369048FB7F8944091E1
:1044F00052035091530360915403709155038FBF41
:104500008091590490915A04A0915B04B0915C048D
:10451000481B590B6A0B7B0B8091650490916604D4
:10452000B0E0A0E084179507A607B70708F027C2F8
:1045300010E080916304181708F011C1E0915F0446
:10454000F0916004E10FF11D62E080810E94AD06F0
:104550001F5FEFCF61E080919E040E94AD0661E095
:1045600080919F040E94AD0680919E04082E000C4D
:10457000990BFC01E656F54FE491F0E0EE0FFF1FBA
:10458000EA57F54F259134913093A6042093A50462
:10459000FC01E255F54FE491E093AB0480919F0458
:1045A000082E000C990BFC01E656F54FE491F0E063
:1045B000EE0FFF1FEA57F54FA591B491B093A804F1
:1045C000A093A704FC01E255F54FE491E093AC04FD
:1045D0008C91E82BEC938091930490919404892B17
:1045E00009F434C01FB7F89480913403811127C0B7
:1045F000E4EAFAE08491E8EBFAE09491E82FF0E045
:10460000EE0FFF1FE458F54FA591B491EC91E9230B
:1046100021F461E08AE00E947F0661E08AE00E9466
:10462000AD068CB580618CBD8CB580648CBD61E0BD
:104630008DE00E94AD0661E08BE00E94AD068091A6
:1046400034038F5F809334031FBF73CE61E080918A
:104650009C040E94AD0661E080919D040E94AD061D
:1046600080919C04082E000C990BFC01E656F54F36
:10467000E491F0E0EE0FFF1FEA57F54F25913491DA
:104680003093A2042093A104FC01E255F54FE4917C
:10469000E093A90480919D04082E000C990BFC0165
:1046A000E656F54FE491F0E0EE0FFF1FEA57F54FA5
:1046B000A591B491B093A404A093A304FC01E25586
:1046C000F54FE491E093AA048C91E095E823EC93F4
:1046D00030CE8091930490919404892B31F0809195
:1046E000B6049091B7040E94CA0AE091A704F09121
:1046F000A80490818091AC048095892380835ACE50
:104700008036910589F480917E0490917F044097D2
:1047100039F480919A04813029F480E18093B504C2
:1047200012E084CE8FEAFACF80349105C9F78091E8
:104730007E0490917F04809799F780919A0481304C
:1047400011F480E170CE8FEC6ECEE091A704F09171
:10475000A80480819091AC04892B8083AFCE812CFA
:1047600080916404881608F061C0E82CF12CE09177
:104770006104F0916204EE0DFF1D61E080810E94F2
:10478000AD06E0916104F0916204EE0DFF1D60E062
:1047900080810E947F06D301C201082C04C0880FCB
:1047A000991FAA1FBB1F0A94D2F75C016C01C09429
:1047B000D094312C80916304381608F5032D10E055
:1047C000E0915F04F0916004E00FF11F80810E948E
:1047D00056060C5F1F4F000F111FF801E350FC4FEE
:1047E000892B41F4808191818A299B29918380833F
:1047F0003394E0CF808191818C219D21F7CFE0918E
:104800006104F0916204EE0DFF1D61E080810E9461
:104810007F068091610490916204E80EF91E60E0C9
:10482000F70180810E94AD0683949ACF9DEFE92E17
:1048300093E0F92E8701F801878D90A1892B31F43F
:10484000148E4FEF5FEF568F458F11A20A5F1F4FF7
:1048500054E00933150779F7B12C80916304B81639
:1048600008F052C0A12CCB2CD12CCC0CDD1CC601E5
:104870008B5F9B4F6C0120916404A21608F042C02C
:10488000F601608171810A2C02C0769567950A94C1
:10489000E2F7B29E900111242A0D311DEDEFF3E0F5
:1048A00080E0458D568D2417350709F4C7C38F5F07
:1048B00036968A30B1F760FF23C0EDEFF3E090E069
:1048C00080E0448D411117C0E0915D04F0915E04D9
:1048D000E20FF31F4081289EF001299EF00D112464
:1048E000E350FC4F448F368F258F10A2178E61E066
:1048F0000E94BD0505C0019636968A30910509F7DC
:10490000A394B9CFB394A9CF80E0F70191A19111FD
:10491000892FF6E0EF0EF11C0E151F05B1F79FB7BA
:10492000F894409152035091530360915403709155
:1049300055039FBF4093590450935A0460935B04FE
:1049400070935C048823D9F080911E048823B9F009
:1049500080911C0490911D04019789F4B090190472
:10496000B11010C080E090E0892B09F4BBCD0E940B
:10497000C907882309F4B4CD0E940000B1CD10927C
:104980006904F0CF89E292E00E94C0156B2D8AE5A0
:1049900093E00E94FF0765E971E08AE593E00E94D9
:1049A0006B1580904C0340E5B4123AC081E0882634
:1049B00080924C03882089F16CE971E087EF93E0E5
:1049C0000E94DA17109248031092490310924A038A
:1049D00010924B0310924403109245031092460329
:1049E0001092470310924003109241031092420329
:1049F0001092430310923F0310923E0310923D0326
:104A000010923C0310923B030E94E11A6CE271E0A9
:104A100080E090E00E940E07A5CF0E945A18F6CFC2
:104A2000882009F49FCF5FE4B51629F08B2D8F7E87
:104A3000883409F0B9C067E971E087EF93E00E941C
:104A4000E6168823C1F16CE971E087EF93E00E94DC
:104A5000E616882381F167EF73E0CE0101960E948C
:104A60004018CE0101960E94A81C6B017C01CE016A
:104A700001960E94381788E5B8123FC080913B0329
:104A800090913C03019709F049C010923C031092A9
:104A90003B0380913D03882309F447C0C092400343
:104AA000D0924103E0924203F09243030E94E11A44
:104AB0000E94E11A57CF80913D03882349F0C090AE
:104AC0004003D0904103E0904203F0904303D3CFE2
:104AD000C0904803D0904903E0904A03F0904B0304
:104AE00020E030E0A901C701B6010E941F2A811110
:104AF000C2CFC12CD12C7601BECF9FE4B912A0C287
:104B000080913B0390913C03029709F4BECF42E0B1
:104B100050E050933C0340933B03BBCFE1E0F0E017
:104B2000F0933C03E0933B03B4CF80913E03882392
:104B300049F0C0924803D0924903E0924A03F092B0
:104B40004B03B4CF67E971E087EF93E00E94E6166C
:104B5000882341F06CE971E087EF93E00E94E6164C
:104B6000811110C020E030E0A901609148037091EC
:104B7000490380914A0390914B030E941F2A81119F
:104B8000D8CF94CFB701A601CE0101960E94AC19EF
:104B9000BE016F5F7F4F87EF93E00E94ED16CE015D
:104BA00001960E94381782CF93E4B91225C06CE9B0
:104BB00071E087EF93E00E94DA1710924803109299
:104BC000490310924A0310924B031092440310922F
:104BD000450310924603109247031092400310922F
:104BE0004103109242031092430310923F0310922C
:104BF0003E0310923D035CCFECE4BE1207C06CE9AB
:104C000071E087EF93E00E94DA17F3CF8B2D8D7F51
:104C10008D3229F086ED8B0D823008F059C067E99E
:104C200071E087EF93E00E94E6168823D1F16CE9EA
:104C300071E087EF93E00E94E616882391F167EF19
:104C400073E0CE0101960E944018CE0101960E94A9
:104C5000A81C609348037093490380934A03909380
:104C60004B03CE0101960E94381787E392E00E9421
:104C7000C015609148037091490380914A03909157
:104C80004B030E94A116B0923F0381E080933E0344
:104C900010923D036CE971E087EF93E00E94DA1710
:104CA00007CF80913D03882371F380914003909159
:104CB0004103A0914203B091430380934803909332
:104CC0004903A0934A03B0934B038CE492E0CFCF07
:104CD000FDE3BF12B8C080913F03882309F4E8CEFA
:104CE00080913E038823B1F067EF73E0CE01019617
:104CF0000E944018CE0101960E94A81C60934403B4
:104D0000709345038093460390934703CE01019629
:104D10000E94381780913F038B3289F164F48A3204
:104D200009F47AC0609148037091490380914A0365
:104D300090914B0336C08D3209F44FC08F3291F7FA
:104D4000C0904403D0904503E0904603F0904703A1
:104D500020E030E0A901C701B6010E941F2A882384
:104D600009F46DC0A7019601609148037091490351
:104D700080914A0390914B030E94042C12C0209111
:104D8000440330914503409146035091470360919D
:104D900048037091490380914A0390914B030E940C
:104DA000982B609340037093410380934203909348
:104DB000430381E080933D0310923E0380E792E03D
:104DC0000E94C0156091400370914103809142039D
:104DD000909143030E94A1166BCEC0904803D090DF
:104DE0004903E0904A03F0904B0380904403909075
:104DF0004503A0904603B0904703A5019401C70165
:104E0000B6010E94AC2C87FD1AC0A5019401C70110
:104E1000B6010E94972BC5CF2091440330914503E2
:104E200040914603509147036091480370914903B4
:104E300080914A0390914B030E94852AB2CF60E093
:104E400070E0CB01AECF00913B0310913C034EE2EA
:104E5000B4122AC00115110509F084CDA0903D03BC
:104E6000AA2009F448C06B2DCE0101960E941118AA
:104E7000BE016F5F7F4F87EF93E00E94ED16CE017A
:104E800001960E9438178091400390914103A091B0
:104E90004203B09143038093480390934903A09346
:104EA0004A03B0934B03A1CE80ED8B0D8A30C0F442
:104EB0008B2D0B2C000C990BC0970130110549F07C
:104EC00068F20230110541F00330110509F04ACDB6
:104ED000C5CF029718F246CD089708F4BFCF42CD50
:104EE0000330110509F03ECD8B2D8F7D8154863026
:104EF00008F038CDB3CF8091FB039091FC030D9760
:104F000008F0D6CD6CE971E087EF93E00E94D116EE
:104F1000882389F06B2DCE0101960E941118BE01E5
:104F20006F5F7F4F87EF93E00E94ED16CE010196F1
:104F30000E943817BDCD67EF73E0CE0101960E9445
:104F40004018BF82188641E050E0BE01695F7F4F84
:104F5000CE0101960E946817811104C0CE0101960E
:104F60000E942617BE016F5F7F4FCE0107960E94F9
:104F70004018CE0101960E943817BE01695F7F4F2D
:104F8000CE0101960E94401867E971E0CE010196BA
:104F90000E94D11681113CC0ED80FE80D12CC12C25
:104FA000CE14DF0409F448C0B601CE0101960E9478
:104FB0004D078E3239F40115110551F55FEFC51A11
:104FC000D50AEECF90ED980F9A3068F4082E000CB9
:104FD000990BC09701301105C9F00230110571F726
:104FE000089764F315C09FEB980F963028F4082EAD
:104FF000000C990BC797EECF9FE9980F963040F4BD
:10500000082E000C990B87559109E4CF0297B4F252
:10501000CE0101960E943817AA2059F0B9821A824F
:1050200041E050E0BE016F5F7F4F87EF93E00E9449
:105030006817CE0107967CCFA82CEACF617058CCB8
:1050400098E4B91226CD80913B0390913C030397DD
:1050500009F41BCD83E090E090933C0380933B03E5
:1050600018CD87EF93E00E94381783E491E0909386
:105070007904809378048091970490919804009724
:1050800011F00C94822D0895662777270C949E28A2
:10509000BB274A3031F4992322F4BDE290958195E3
:1050A0009F4F0C948528BB272A3051F4992342F452
:1050B000BDE290958095709561957F4F8F4F9F4F82
:1050C0000C946328BB27FA01A62F6217710581058E
:1050D0009105330B30FB66F0AA27660F771F881FF8
:1050E000991FAA1FA21710F0A21B63953850A9F7A9
:1050F000A05DAA3308F0A95DA19336F7B111B19371
:105100001082CA010C940F2ABB27FB015527AA273E
:10511000880F991FAA1FA41710F0A41B8395505144
:10512000B9F7A05DAA3308F0A95DA193009779F7BC
:10513000B111B1931192CB010C940F2AB0E0A0E011
:10514000E4EAF8E20C94572B5C017B0161157105D0
:1051500019F0DB018D939C9385010F5F1F4FF501C3
:10516000D0818D2F90E00E94EE296C01892BB9F53A
:10517000DD32B9F50F5F1F4FD5011196DC91C1E00B
:105180005801F1E0AF1AB10843E050E060E770E089
:10519000C5010E94F729892B69F5680182E0C80ED4
:1051A000D11C45E050E06BE670E0C6010E94F72993
:1051B000892B21F4680197E0C90ED11CE114F10498
:1051C00019F0D701CD92DC9260E070E080E89FEFAB
:1051D000C111FFC060E070E080E89FE7FAC05801AD
:1051E000BBCFDB3229F485010E5F1F4FF501D18162
:1051F000C0E0C6CF43E050E068E670E0C5010E9421
:10520000F729892BE9F0F80110E000E020E030E018
:10521000A9015F01B0ED8B2E8D0E89E08815C8F1D4
:105220009C2E689491F88C2F8870C2FF16C0811153
:1052300002C00F5F1F4F3196D501DC91C92DE9CF18
:10524000E114F10429F00E5F1F4FF7011183008371
:1052500060E070E080EC9FE7BCC0882311F0015053
:105260001109A5E0B0E00E94462B9B01AC01220F82
:10527000331F441F551F280D311D411D511D283955
:1052800099E93907490799E15907A8F2C6609C2EA8
:10529000D2CFAEEF8A1206C0C3FD3CC09C2E6894EC
:1052A00093F8C9CFDF7DD534A9F580818D3239F4EB
:1052B000C061DF011296818162E070E006C0DF010B
:1052C0008B32C1F3119661E070E080535D01A61A44
:1052D000B70A8A30F8F4E0E8CE16ECE0DE065CF4BB
:1052E000B601660F771F660F771FC60ED71ECC0C50
:1052F000DD1CC80ED11C5D01FFEFAF1ABF0A8C91F7
:1053000080538A30A8F1C4FF03C0D194C194D1085E
:105310000C0D1D1DC1FF09C0E114F10431F081E045
:10532000A81AB108D701AD92BC92CA01B9010E9476
:10533000242AC370C33009F490584B015C0120E06B
:1053400030E0A9010E941F2A882309F440C0CFE958
:10535000D0E017FF05C0119501951109C7E8D0E00D
:105360006E01B8E1CB1AD10880E2E82EF12C0FC013
:10537000D501B1CFFE0125913591459154910E197A
:105380001F09C501B4010E94852A4B015C01D501AA
:10539000C4010E151F0574F72497F594E794CC16F5
:1053A000DD06A9F78A2F880F8B2F881F8F3F49F0C2
:1053B00020E030E0A901C501B4010E941F2A81113B
:1053C00006C082E290E09093B9048093B804C501CE
:1053D000B401CDB7DEB7ECE00C94732B91110C94B3
:1053E000F22A803219F089508550C8F70895FB01E0
:1053F000DC014150504088F08D9181341CF08B3598
:105400000CF4805E659161341CF06B350CF4605EC9
:10541000861B611171F3990B0895881BFCCFDC0189
:10542000FC01672F71917723E1F7329704C07C91DB
:105430006D9370836291AE17BF07C8F308950E9401
:10544000612A08F481E00895E89409C097FB3EF4CE
:1054500090958095709561957F4F8F4F9F4F9923C1
:10546000A9F0F92F96E9BB279395F695879577953F
:105470006795B795F111F8CFFAF4BB0F11F460FFFF
:105480001BC06F5F7F4F8F4F9F4F16C0882311F057
:1054900096E911C0772321F09EE8872F762F05C06B
:1054A000662371F096E8862F70E060E02AF09A9506
:1054B000660F771F881FDAF7880F9695879597F9FB
:1054C0000895990F0008550FAA0BE0E8FEEF161695
:1054D0001706E807F907C0F012161306E407F507E8
:1054E00098F0621B730B840B950B39F40A2661F05C
:1054F000232B242B252B21F408950A2609F4A140FF
:10550000A6958FEF811D811D08950E94982A0C9405
:105510000C2B0E94FE2A38F00E94052B20F09523C8
:1055200011F00C94F52A0C94FB2A11240C94402BB6
:105530000E941D2B70F3959FC1F3950F50E0551FEE
:10554000629FF001729FBB27F00DB11D639FAA27D8
:10555000F00DB11DAA1F649F6627B00DA11D661F27
:10556000829F2227B00DA11D621F739FB00DA11D48
:10557000621F839FA00D611D221F749F3327A00D02
:10558000611D231F849F600D211D822F762F6A2F9E
:1055900011249F5750409AF0F1F088234AF0EE0F03
:1055A000FF1FBB1F661F771F881F91505040A9F730
:1055B0009E3F510580F00C94F52A0C94402B5F3FE0
:1055C000E4F3983ED4F3869577956795B795F7956C
:1055D000E7959F5FC1F7FE2B880F911D96958795E4
:1055E00097F9089599278827089597F99F6780E884
:1055F00070E060E008959FEF80EC089500240A9425
:105600001616170618060906089500240A9412169D
:105610001306140605060895092E0394000C11F4D0
:10562000882352F0BB0F40F4BF2B11F460FF04C07D
:105630006F5F7F4F8F4F9F4F089557FD9058440FD6
:10564000551F59F05F3F71F04795880F97FB991FE1
:1056500061F09F3F79F0879508951216130614069E
:10566000551FF2CF4695F1DF08C01616170618062B
:10567000991FF1CF86957105610508940895E89406
:10568000BB2766277727CB0197F908950E94882BBF
:10569000A59F900DB49F900DA49F800D911D112486
:1056A00008952F923F924F925F926F927F928F92C6
:1056B0009F92AF92BF92CF92DF92EF92FF920F93A1
:1056C0001F93CF93DF93CDB7DEB7CA1BDB0B0FB6AB
:1056D000F894DEBF0FBECDBF09942A883988488868
:1056E0005F846E847D848C849B84AA84B984C884FE
:1056F000DF80EE80FD800C811B81AA81B981CE0FF5
:10570000D11D0FB6F894DEBF0FBECDBFED010895D9
:10571000A29FB001B39FC001A39F700D811D1124F2
:10572000911DB29F700D811D1124911D0895505837
:10573000BB27AA270E94AF2B0C940C2B0E94FE2A99
:1057400038F00E94052B20F039F49F3F19F426F41D
:105750000C94FB2A0EF4E095E7FB0C94F52AE92F54
:105760000E941D2B58F3BA17620773078407950729
:1057700020F079F4A6F50C943F2B0EF4E0950B2E57
:10578000BA2FA02D0B01B90190010C01CA01A00193
:105790001124FF27591B99F0593F50F4503E68F1EE
:1057A0001A16F040A22F232F342F4427585FF3CF2F
:1057B000469537952795A795F0405395C9F77EF400
:1057C0001F16BA0B620B730B840BBAF09150A1F049
:1057D000FF0FBB1F661F771F881FC2F70EC0BA0FCF
:1057E000621F731F841F48F4879577956795B79557
:1057F000F7959E3F08F0B0CF9395880F08F0992752
:10580000EE0F9795879508950E94182C0C940C2BF9
:105810000E94052B58F00E94FE2A40F029F45F3FB9
:1058200029F00C94F52A51110C94402B0C94FB2A6E
:105830000E941D2B68F39923B1F3552391F3951B17
:10584000550BBB27AA2762177307840738F09F5FA1
:105850005F4F220F331F441FAA1FA9F335D00E2E0E
:105860003AF0E0E832D091505040E695001CCAF77B
:105870002BD0FE2F29D0660F771F881FBB1F26173E
:1058800037074807AB07B0E809F0BB0B802DBF0115
:10589000FF2793585F4F3AF09E3F510578F00C94E4
:1058A000F52A0C94402B5F3FE4F3983ED4F38695A1
:1058B00077956795B795F7959F5FC9F7880F911D05
:1058C0009695879597F90895E1E0660F771F881FF1
:1058D000BB1F621773078407BA0720F0621B730BA4
:1058E000840BBA0BEE1F88F7E09508950E947D2C7B
:1058F0006894B1110C94402B08950E94252B88F0D8
:105900009F5798F0B92F9927B751B0F0E1F0660F83
:10591000771F881F991F1AF0BA95C9F714C0B130C4
:1059200091F00E943F2BB1E008950C943F2B672F1C
:10593000782F8827B85F39F0B93FCCF386957795F3
:105940006795B395D9F73EF49095809570956195DC
:105950007F4F8F4F9F4F08950E94612A08F48FEF69
:1059600008950E94612A880B990B0895A1E21A2ECE
:10597000AA1BBB1BFD010DC0AA1FBB1FEE1FFF1FF3
:10598000A217B307E407F50720F0A21BB30BE40B43
:10599000F50B661F771F881F991F1A9469F760958A
:1059A0007095809590959B01AC01BD01CF01089544
:1059B000B7FF0C94462B0E94462B821B930B089535
:1059C000EE0FFF1F0590F491E02D09940F931F93A4
:1059D000CF93DF938230910510F482E090E0E09164
:1059E000BC04F091BD0430E020E0B0E0A0E03097CE
:1059F00099F42115310509F44AC0281B390B2430CC
:105A00003105D8F58A819B816115710589F1FB010A
:105A100093838283FE0111C04081518102811381F1
:105A200048175907E0F04817590799F4109761F0A3
:105A300012960C93129713961C933296CF01DF9116
:105A4000CF911F910F9108950093BC041093BD0452
:105A5000F4CF2115310551F04217530738F0A90151
:105A6000DB019A01BD01DF01F801C1CFEF01F9CFE0
:105A70009093BD048093BC04CDCFFE01E20FF31FD1
:105A8000819391932250310939832883D7CF209174
:105A9000BA043091BB04232B41F420910D013091C5
:105AA0000E013093BB042093BA0420910B01309176
:105AB0000C012115310541F42DB73EB740910F017E
:105AC00050911001241B350BE091BA04F091BB04F6
:105AD000E217F307A0F42E1B3F0B2817390778F0C5
