:100000000C9449010C947A010C947A010C947A01B5
:100010000C947A010C947A010C947A010C947A0174
:100020000C947A010C947A010C947A010C947A0164
:100030000C947A010C947A010C947A010C947A0154
:100040000C947A010C947A010C947A010C947A0144
:100050000C947A010C947A010C947A010C94D704D4
:100060000C947A010C944B050C9421050C947A01A4
:100070000C947A010C947A010C947A010C947A0114
:100080000C947A010C947A010C947A010C947A0104
:100090000C947A010C947A010C947A010C947A01F4
:1000A0000C947A010C947A010C947A010C947A01E4
:1000B0000C947A010C947A010C947A010C947A01D4
:1000C0000C947A010C947A010C947A010C947A01C4
:1000D0000C947A010C947A010C947A010C947A01B4
:1000E0000C947A010C9469040C94A8010C945803A4
:1000F0000C949F040C94B5010C94DF010C945704EC
:100100000C94CD010C943D040C947B040C94BF0121
:100110000C94C2020C94C3010C9427040C94C701E4
:100120000C94D5010C940B040C94DB010C94DA01B3
:100130000C94A0010C94FE020C9444070C94EF0262
:100140000C94A4010C94D1010C94AC010C949A0170
:100150000C94AF010C9412030C94A7040C9420038C
:100160000C94A1040C94A5030C94B9010C9489047B
:1001700000002100240027002A002D003000330059
:1001800001010000040107010A010000220025000E
:1001900028002B002E003100340002010000050170
:1001A00008010B01000020002300260029002C007C
:1001B0002F003200000100000301060109010505BE
:1001C0000505070508080808020202020A0A0808CD
:1001D00004040404010101010101010103030303FB
:1001E00003030303040707070C0C0C0C0C0C0C0C8A
:1001F0000202020206060606060606060B0B0B0B9B
:100200000B0B0B0B010210202008081020401020BF
:1002100040800201020108040201010204081020CA
:1002200040808040201008040201800402018040C8
:100230002010080402010804020101020408102031
:100240004080010204081020408000000A0B0209CF
:100250000C0D0E0807030401000000000000000060
:10026000000000000000000000000000000000008E
:10027000000000000000121110000000000000004B
:10028000000000000000000000000000000000006E
:10029000440711241FBECFEFD1E2DEBFCDBF00E087
:1002A0000CBF12E0A0E0B2E0EAE3FFE000E00BBF29
:1002B00002C007900D92AA35B107D9F723E0AAE54D
:1002C000B2E001C01D92A230B207E1F711E0C9E42B
:1002D000D1E000E006C021970109802FFE010E94B5
:1002E0009307C834D10780E00807A9F70E94810569
:1002F0000C949B070C9400008150823108F05AC086
:10030000E82FF0E08827E857FE4F8F4F0C949307B3
:10031000A801AC019A01A001A401DA01AF01B50165
:10032000B901BF01C301C701CD01D101DA01D50176
:10033000DB01DF01809180008F778093800008953A
:10034000809180008F7DF9CF80918000877FF5CFED
:1003500084B58F7784BD089584B58F7DFBCF809160
:10036000B0008F778093B00008958091B0008F7DAA
:10037000F9CF809190008F778093900008958091BD
:1003800090008F7DF9CF80919000877FF5CF80918D
:10039000A0008F778093A00008958091A0008F7DAA
:1003A000F9CF8091A000877FF5CF809120018F77D2
:1003B000809320010895809120018F7DF9CF809155
:1003C0002001877FF5CFCF93DF93282F30E0F9010D
:1003D000E65BFD4F8491F901EC5FFD4FD491F9018B
:1003E000E254FE4FC491CC23A1F081110E947C0104
:1003F000EC2FF0E0EE0FFF1FEC55FE4FA591B491EE
:10040000EC91ED2381E090E009F480E0DF91CF9161
:10041000089580E090E0FACF1F93CF93DF93282FC9
:1004200030E0F901E65BFD4F8491F901EC5FFD4F8F
:10043000D491F901E254FE4FC491CC23A9F0162FB8
:1004400081110E947C01EC2FF0E0EE0FFF1FE657B8
:10045000FE4FA591B4918FB7F894EC91111108C09B
:10046000D095DE23DC938FBFDF91CF911F9108954C
:10047000DE2BF8CFCF93DF9390E0FC01EC5FFD4FD4
:10048000249182549E4FFC0184918823D1F090E006
:10049000880F991FFC01E059FE4FA591B491FC0112
:1004A000E657FE4FC591D491623071F49FB7F8942E
:1004B0003C91822F809583238C93E8812E2B288377
:1004C0009FBFDF91CF9108958FB7F894EC912E2BB9
:1004D0002C938FBFF6CF3FB7F89480916102909133
:1004E0006202A0916302B091640226B5A89B05C088
:1004F0002F3F19F00196A11DB11D3FBFBA2FA92FA3
:10050000982F8827BC01CD01620F711D811D911D9F
:1005100042E0660F771F881F991F4A95D1F708950B
:100520008F929F92AF92BF92CF92DF92EF92FF9203
:100530004B015C010E946B026B017C010E946B020B
:100540006C197D098E099F09683E734081059105EC
:10055000A8F321E0821A9108A108B10888EEC80E1C
:1005600083E0D81EE11CF11C81149104A104B104A4
:1005700029F7FF90EF90DF90CF90BF90AF909F90C2
:100580008F900895AF92BF92CF92DF92EF92FF9239
:100590000F931F93CF93DF936C017B018B01040FAB
:1005A000151FEB015E01AE18BF08C017D10759F047
:1005B0006991D601ED91FC910190F081E02DC60189
:1005C0001995892B79F7C501DF91CF911F910F9173
:1005D000FF90EF90DF90CF90BF90AF900895FC0117
:1005E000538D448D252F30E0842F90E0821B930B98
:1005F000541710F0CF96089501970895FC01918D3E
:10060000828D981761F0A28DAE0FBF2FB11D5D9640
:100610008C91928D9F5F9F73928F90E008958FEFE2
:100620009FEF0895FC01918D828D981731F0828D96
:10063000E80FF11D858D90E008958FEF9FEF0895ED
:10064000FC01918D228D892F90E0805C9F4F821B51
:1006500091098F739927089585E692E00E942003FF
:1006600021E0892B09F420E0822F0895FC01A48D5C
:10067000A80FB92FB11DA35ABF4F2C91848D90E0C4
:1006800001968F739927848FA689B7892C93A089A7
:10069000B1898C91837080648C93938D848D981331
:1006A00006C00288F389E02D80818F7D80830895C4
:1006B000EF92FF920F931F93CF93DF93EC0181E0B2
:1006C000888F9B8D8C8D98131AC0E889F989808159
:1006D00085FF15C09FB7F894EE89FF896083E8898C
:1006E000F98980818370806480839FBF81E090E07E
:1006F000DF91CF911F910F91FF90EF900895F62E0B
:100700000B8D10E00F5F1F4F0F731127E02E8C8DA4
:100710008E110CC00FB607FCFACFE889F9898081E9
:1007200085FFF5CFCE010E943603F1CFEB8DEC0FA4
:10073000FD2FF11DE35AFF4FF0829FB7F8940B8F06
:10074000EA89FB8980818062CFCFCF93DF93EC0170
:10075000888D8823B9F0AA89BB89E889F9898C91A9
:1007600085FD03C0808186FD0DC00FB607FCF7CF65
:100770008C9185FFF2CF808185FFEDCFCE010E9465
:100780003603E9CFDF91CF91089580E090E0892B87
:1007900029F00E942C0381110E94000080E090E06B
:1007A000892B49F080E090E0892B29F00E9400001D
:1007B00081110E94000080E090E0892B49F080E0E8
:1007C00090E0892B29F00E94000081110E94000016
:1007D00080E090E0892B49F080E090E0892B29F0BF
:1007E0000E94000081110C94000008958A30910548
:1007F00008F0B3C0FC018827EF5FFB4F8F4F0C94CC
:1008000093070B0427043D04570469047B048904FF
:100810009F04A104A70461E08FE10E940C0261E043
:1008200081E20E940C0261E083E20E940C0261E01E
:1008300085E20E940C0261E087E20E940C0261E006
:1008400089E20E940C0260E08BE20C940C0260E0F2
:100850008FE10E940C0261E081E20E940C0261E0E3
:1008600083E20E940C0260E085E20E940C0260E0DC
:1008700087E20E940C0260E0E3CF61E08FE10E941A
:100880000C0261E081E20E940C0260E083E20E94BF
:100890000C0261E085E20E940C0261E087E20E94A6
:1008A0000C0260E089E20E940C0261E0CDCF61E0C1
:1008B0008FE10E940C0261E081E20E940C0261E083
:1008C00083E20E940C0261E085E20E940C0260E07B
:1008D000E5CF60E08FE10E940C0261E081E20E94BE
:1008E0000C0261E083E20E940C0260E085E20E945B
:1008F0000C0260E01FC061E08FE10E940C0260E02A
:1009000081E20E940C0261E083E20E940C0261E03D
:10091000EDCF61E08FE10E940C0260E081E20E9475
:100920000C0261E083E20E940C0261E085E20E9419
:100930000C0261E087E20E940C0261E0B3CF61E04B
:1009400087CF61E08FE10E940C0261E0E7CF61E0B8
:100950008FE10E940C0261E0D3CF0895CF93DF9323
:1009600060E084E30E940C02CBE1D3E0CE0101976A
:10097000F1F761E084E30E940C022197F1F760E057
:1009800084E30E940C028BE891E00197F1F7DF917C
:10099000CF910895FC0101900020E9F73197AF0154
:1009A000481B590BBC0185E692E00C94C2021F92D1
:1009B0000F920FB60F9211242F933F938F939F9313
:1009C000AF93BF9380915D0290915E02A0915F0210
:1009D000B091600230915C0223E0230F2D3758F56F
:1009E0000196A11DB11D20935C0280935D0290933E
:1009F0005E02A0935F02B0936002809161029091C9
:100A00006202A0916302B09164020196A11DB11D22
:100A10008093610290936202A0936302B093640298
:100A2000BF91AF919F918F913F912F910F900FBEEA
:100A30000F901F90189526E8230F0296A11DB11D57
:100A4000D2CF1F920F920FB60F9211240BB60F92B6
:100A50002F933F934F935F936F937F938F939F93C6
:100A6000AF93BF93EF93FF9385E692E00E94360326
:100A7000FF91EF91BF91AF919F918F917F916F9176
:100A80005F914F913F912F910F900BBE0F900FBE32
:100A90000F901F9018951F920F920FB60F9211246E
:100AA0000BB60F922F938F939F93EF93FF93E09149
:100AB0007502F09176028081E0917B02F0917C02D8
:100AC00082FD1DC0908180917E028F5F8F73209187
:100AD0007F02821741F0E0917E02F0E0EB59FD4F7A
:100AE000958F80937E02FF91EF919F918F912F912F
:100AF0000F900BBE0F900FBE0F901F901895808126
:100B0000F2CFCF93DF93CDB7DEB7A1970FB6F894AE
:100B1000DEBF0FBECDBF789484B5826084BD84B53E
:100B2000816084BD85B5826085BD85B5816085BDE8
:100B300080916E00816080936E00109281008091A0
:100B40008100826080938100809181008160809328
:100B50008100809180008160809380008091B1004D
:100B600084608093B1008091B00081608093B00078
:100B700080919100826080939100809191008160CA
:100B8000809391008091900081608093900080918B
:100B9000A10082608093A1008091A1008160809378
:100BA000A1008091A00081608093A000809121012C
:100BB00082608093210180912101816080932101D5
:100BC0008091200181608093200180917A0084606F
:100BD00080937A0080917A00826080937A0080917D
:100BE0007A00816080937A0080917A008068809397
:100BF0007A001092C10061E08FE10E943A0261E048
:100C000081E20E943A0261E083E20E943A0261E0DE
:100C100085E20E943A0261E087E20E943A0261E0C6
:100C200089E20E943A0261E08BE20E943A0261E0AE
:100C300084E30E943A0260E084E30E940C0262E0D6
:100C400082E00E943A0261E083E00E943A0260E0A2
:100C500083E00E940C026AE070E080E090E00E9475
:100C6000900262E083E00E943A0210925B021092CE
:100C70005A0290E080E00E94F6030E94AE04E091E8
:100C80007502F091760282E08083E0917102F0912A
:100C900072021082E0917302F09174028FEC8083F3
:100CA00010927D02E0917902F0917A0286E08083D1
:100CB000E0917702F0917802808180618083E091F9
:100CC0007702F0917802808188608083E0917702DA
:100CD000F0917802808180688083E0917702F091C2
:100CE000780280818F7D808382E192E00E94CA0435
:100CF00086E392E00E94CA0483E00E94E301892B0C
:100D000029F564E170E080E090E00E94900283E0C9
:100D10000E94E301892BD1F489E392E00E94CA0486
:100D200086E392E00E94CA0483E00E94E301892BDB
:100D300039F46AE070E080E090E00E949002F4CF25
:100D40006EE170E080E090E00E94900282E00E94FC
:100D5000E301892B09F08FC064E170E080E090E04E
:100D60000E94900282E00E94E301892B09F083C077
:100D700080915A0290915B0201968A3091050CF0A5
:100D800054C090935B0280935A0280915A029091D2
:100D90005B020E94F6030E94AE048EE492E00E9481
:100DA000CA04C0905A02D0905B020D2C000CEE08D1
:100DB000FF08F7FE3FC06DE285E692E00E9458030F
:100DC00022273327A9012C193D094E095F0919A2D1
:100DD000CE0181967C019AE0892E912CA12CB12C18
:100DE000CA01B901A50194010E947107605DF70174
:100DF00062937F01211531054105510589F7E11401
:100E0000F10419F0C7010E94CA0486E392E00E942F
:100E1000CA0482E00E94E301892B39F56AE070E0A0
:100E200080E090E00E949002F4CF10925B0210925A
:100E30005A02ABCFA701960119A2CE0181967C017F
:100E40008AE0882E912CA12CB12CCA01B901A501F0
:100E500094010E947107605DF70162937F01211583
:100E600031054105510589F7CACF64E170E080E0A2
:100E700090E00E94900265E070E080E090E00E94C7
:100E800090020E94C50338CFE5E6F2E01382128299
:100E900088EE93E0A0E0B0E084839583A683B783D7
:100EA00084E092E09183808385EC90E0958784874D
:100EB00084EC90E09787868780EC90E0918B808B24
:100EC00081EC90E0938B828B82EC90E0958B848B0D
:100ED00086EC90E0978B868B118E128E138E148E7B
:100EE0000895A1E21A2EAA1BBB1BFD010DC0AA1F6B
:100EF000BB1FEE1FFF1FA217B307E407F50720F083
:100F0000A21BB30BE40BF50B661F771F881F991FFD
:100F10001A9469F760957095809590959B01AC0146
:100F2000BD01CF010895EE0FFF1F881F8BBF0790F3
:0A0F3000F691E02D1994F894FFCF1C
:100F3A00000000005803C202EF02A5032003FE02CC
:100F4A00120353797374656D2073746172746564E6
:100F5A002028434C4541522075736573206275748D
:100F6A00746F6E292E000D0A0052455345542062B3
:100F7A007574746F6E20707265737365640044696A
:0A0F8A0073706C617965643A200011
:00000001FF
