:100000000C949B060C94CC060C94CC060C94CC0659
:100010000C94CC060C94CC060C94CC060C94CC0618
:100020000C94CC060C94CC060C94CC060C94CC0608
:100030000C94CC060C94FE240C94CC060C94CC06A8
:100040000C94CC060C94CC060C94CC060C94CC06E8
:100050000C94CC060C94CC060C94CC060C94B424D2
:100060000C94CC060C94CC060C94CC060C94CC06C8
:100070000C94CC060C94CC060C94CC060C94CC06B8
:100080000C94CC060C94CC060C94CC060C94CC06A8
:100090000C94CC060C94CC060C94CC060C949D25A8
:1000A0000C94CC060C94CC060C94CC060C94CC0688
:1000B0000C94CC060C94CC060C94CC060C94CC0678
:1000C0000C94CC060C94CC060C94CC060C94CC0668
:1000D0000C94CC060C94CC060C94CC060C94CC0658
:1000E0000C94CC060C948C210C9439130C948D0D2B
:1000F0000C947B1A0C941F1D0C945F080C94771BB6
:100100000C9484080C948C1C0C941D210C944F1B93
:100110000C94B1080C940C2F0C948A130C94FE0BC5
:100120000C94D30F0C944F120C9493080C948E14CF
:100130000C946C130C944E0F0C94A3080C947C1428
:100140000C94E1100C94031A0C94AB080C94440D1D
:100150000C94D40D0C94D0120C94BE080C94981AE4
:100160000C9452110C94FF0B0C945F1B0C946B1BA2
:100170000C94FD1C0C94C3080C94DF1B0C94931C72
:100180000C94BF080C94A7080C94A4190C94261D79
:100190000C9490120C9490080C948F1C0C948B1C53
:1001A0000C940C1D0C94C7200C948C080C94C31157
:1001B0000C94C8160C94B5080C9488080C94000C88
:1001C0000C94D5260C94531D0C94B9080C949D08DE
:1001D0000C9472140C9499080C947E080000000092
:1001E000003E5B4F5B3E3E6B4F6B3E1C3E7C3E1CBD
:1001F000183C7E3C181C577D571C1C5E7F5E1C0003
:10020000183C1800FFE7C3E7FF0018241800FFE7B9
:10021000DBE7FF30483A060E2629792926407F057C
:100220000507407F05253F5A3CE73C5A7F3E1C1C92
:1002300008081C1C3E7F14227F22145F5F005F5F52
:1002400006097F017F006689956A6060606060943E
:10025000A2FFA29408047E040810207E2010080843
:100260002A1C08081C2A08081E101010100C1E0C4E
:100270001E0C30383E3830060E3E0E0600000000E0
:100280000000005F00000007000700147F147F14C7
:10029000242A7F2A1223130864623649562050000C
:1002A00008070300001C2241000041221C002A1CF8
:1002B0007F1C2A08083E08080080703000080808E3
:1002C0000808000060600020100804023E51494503
:1002D0003E00427F400072494949462141494D3321
:1002E0001814127F1027454545393C4A4949314188
:1002F000211109073649494936464949291E000056
:1003000014000000403400000008142241141414AA
:100310001414004122140802015909063E415D5996
:100320004E7C1211127C7F494949363E414141229F
:100330007F4141413E7F494949417F090909013EC9
:10034000414151737F0808087F00417F41002040F0
:10035000413F017F081422417F404040407F021C02
:10036000027F7F0408107F3E4141413E7F09090919
:10037000063E4151215E7F091929462649494932E5
:1003800003017F01033F4040403F1F2040201F3FAB
:100390004038403F63140814630304780403615930
:1003A000494D43007F414141020408102000414172
:1003B000417F04020102044040404040000307081E
:1003C0000020545478407F2844443838444444281A
:1003D000384444287F385454541800087E090218C1
:1003E000A4A49C787F0804047800447D4000204049
:1003F000403D007F1028440000417F40007C04788D
:1004000004787C080404783844444438FC182424D4
:100410001818242418FC7C08040408485454542454
:1004200004043F44243C4040207C1C2040201C3CD1
:100430004030403C44281028444C9090907C4464C8
:10044000544C44000836410000007700000041365B
:10045000080002010204023C2623263C1EA1A161E1
:10046000123A4040207A3854545559215555794113
:100470002254547842215554784020545579400CE8
:100480001E527212395555555939545454593955CB
:100490005454580000457C410002457D420001450E
:1004A0007C407D1211127DF0282528F07C545545A2
:1004B000002054547C547C0A097F4932494949320E
:1004C0003A4444443A324A4848303A4141217A3A1F
:1004D00042402078009DA0A07D3D4242423D3D40EB
:1004E00040403D3C24FF2424487E4943662B2FFC9A
:1004F0002F2BFF0929F620C0887E09032054547948
:10050000410000447D413048484A32384040227A18
:10051000007A0A0A727D0D19317D2629292F282695
:100520002929292630484D4020380808080808089D
:100530000808382F10C8ACBA2F102834FA00007BF6
:10054000000008142A142222142A14085500550009
:1005500055AA55AA55AAFF55FF55FF000000FF00F8
:10056000101010FF00141414FF001010FF00FF10F3
:1005700010F010F0141414FC001414F700FF000025
:10058000FF00FF1414F404FC141417101F10101FA4
:10059000101F1414141F00101010F0000000001F92
:1005A000101010101F10101010F010000000FF109D
:1005B0001010101010101010FF10000000FF140099
:1005C00000FF00FF00001F10170000FC04F41414CB
:1005D0001710171414F404F40000FF00F714141497
:1005E00014141414F700F7141414171410101F1017
:1005F0001F141414F4141010F010F000001F101F3A
:100600000000001F14000000FC140000F010F010A7
:1006100010FF10FF141414FF141010101F0000001E
:1006200000F010FFFFFFFFFFF0F0F0F0F0FFFFFF22
:100630000000000000FFFF0F0F0F0F0F3844443879
:1006400044FC4A4A4A347E02020606027E027E02C8
:1006500063554941633844443C04407E201E2006D3
:10066000027E020299A5E7A5991C2A492A1C4C7210
:1006700001724C304A4D4D303048784830BC625A97
:10068000463D3E494949007E0101017E2A2A2A2A27
:100690002A44445F444440514A444040444A514003
:1006A0000000FF0103E080FF000008086B6B0836C4
:1006B00012362436060F090F060000181800000035
:1006C0001010003040FF0101001F01011E00191D24
:1006D0001712003C3C3C3C000000000000010307F6
:1006E0000F1F3F7F0080C0E0F0F8FCFEEF030380A7
:1006F00002CF0300C130ED0464031281E8038500DA
:1007000078CB05392C003402F70120EA020000C042
:100710000123C10110C5023E28C7018636014837B2
:1007200001003A0155B1020018B603088227F20110
:1007300000260101E00F0F312B0C0E084EF1370798
:1007400010030E0900E10F000E1403110731C14818
:10075000080F0C31360F1180298000DB40A4A62E33
:10076000AF2000A1C8D300408DAED580A8000060A6
:100770000000000000000000000000000000E00099
:1007800000000000000000000000000001E0000088
:10079000000000000000000000000001F000000068
:1007A0000000000000000000000003F00000000056
:1007B00000000000000000000007F0000000000042
:1007C000000000000000000007F80000000000002A
:1007D000000000000000000FF800000003C0007ED1
:1007E000000001E0007F0FF800000003C000FE00E1
:1007F0000001E000FFEFF800000003C000FE000071
:1008000001E000FFFFF800000003C000F00000005E
:100810000F007FFE7FC0000003C000F00000000F4B
:10082000003FFE7FF83FF1FBCFFCFEF3BC3DEFE065
:100830001FFE7FFF7FFBFFDFFEFEFFBC3DEFE01FE3
:10084000C6FFFF7FFBFFDFFEFEFFBC3DEFE00FE3D7
:10085000C7FE787BC3DE1EF0FFBC3DEF0007FF87BD
:10086000FC787BC3DE1EF0F83C3DEF0001FFFFF09B
:10087000007BC3C01EF0F03C3DEF0001F37FE03F82
:10088000FBC3CFFEF0F03C3DEF0003E33F807FFB76
:10089000C3DFFEF0F03C3DEF0007E73C00787BC390
:1008A000DE1EF0F03C3DEF0007FFBE00787BC3DEAC
:1008B0001EF0F03C3DEF0007FFFE00787BC3DE1E1C
:1008C000F0F03C3DEF000FFFFE007FFBFFDFFEF08E
:1008D000F03FFDEFE00FFFFF007FFBFFDFFEF0F0DA
:1008E0003FFDEFE00FF9FF003E79F9CF9EF0F01FDA
:1008F0003DE7E01FF1FF00000000000000000000E5
:1009000000001F80FF007FFFFFFFFFFFFFFFFFFFD3
:10091000E01C007F007FFFFFFFFEB46D888D18E0B4
:1009200000001F007FFFFFFFFE95AD7DB577E00063
:10093000000F007FFFFFFFFEA5AD9D8D19E00000B9
:1009400006007FFFFFFFFEB5ADEDB57EE0000000C5
:100950000000018000000000000000000003800093
:10096000000000000000000007C0000000000000C0
:1009700000000007C00000000000000000000FC0E1
:100980000000000000000000001FE0000000000068
:10099000000000001FE00000000000000000003F19
:1009A000E00000000000000000003FF00000000038
:1009B00000000000007FF0000000000000001FF8B1
:1009C0007FF0000000000000003FFE7FF00000000C
:1009D000000000003FFF7FF0000000000000001F4B
:1009E000FFFBE0000000000000000FFFF9FFC00067
:1009F00000000000000FFFF9FFF8000000000000F9
:100A000007FFF1FFFF00000000000003FC73FFFF81
:100A100080000000000001FE3FFFFF80000000009A
:100A20000000FF1E0FFF000000000000007FFE1FFF
:100A3000FC000000000000003FFFFFF80000000085
:100A40000000000FDFFFE0000000000000001F19A1
:100A5000FFC0000000000000003F3CFF000000005D
:100A6000000000007E7CF800000000000000007F15
:100A7000FE7C0000000000000000FFFFFC00000002
:100A80000000000000FFFFFE00000000000000006A
:100A9000FFFFFE0000000000000001FFEFFE00006D
:100AA000000000000001FFCFFE0000000000000079
:100AB00003FF07FE0000000000000003FC07FE002B
:100AC00000000000000003F003FE00000000000032
:100AD00000018000FE000000000000000000007E19
:100AE000000000000000000000003E0000000000C8
:100AF00000000000000C000000000000078000FC67
:100B0000000003C0000000078001FC000003C000DB
:100B10000000078001FC000003C000000007800106
:100B2000E00000001E000000078001E00000001E41
:100B3000007FE3F79FF9FDE7787BDFC0FFF7FFBF9A
:100B4000FDFDFF787BDFC0FFF7FFBFFDFDFF787B7A
:100B5000DFC0F0F787BC3DE1FF787BDE00F0F78770
:100B6000BC3DE1F0787BDE0000F787803DE1E07876
:100B70007BDE007FF7879FFDE1E0787BDE00FFF7FB
:100B800087BFFDE1E0787BDE00F0F787BC3DE1E068
:100B9000787BDE00F0F787BC3DE1E0787BDE00F09B
:100BA000F787BC3DE1E0787BDE00FFF7FFBFFDE1AA
:100BB000E07FFBDFC0FFF7FFBFFDE1E07FFBDFC0B1
:100BC0007CF3F39F3DE1E03E7BCFC00000000000DE
:100BD000000000000000FFFFFFFFFFFFFFFFFFFF1F
:100BE000C0FFFFFFFFFD68DB111A31C0FFFFFFFFF1
:100BF000FD2B5AFB6AEFC0FFFFFFFFFD4B5B3B1A6B
:100C000033C0FFFFFFFFFD6B5BDB6AFDC00000210F
:100C100000240027002A002D0030003300010100CD
:100C200000040107010A010000200023002600291A
:100C3000002C002F00320000010000030106010912
:100C40000100000A0B02090C0D0E08070304010045
:100C50000000000000000000000000000000000094
:100C60000000000000000000000000000012111051
:100C70000000000000000000000000000000000074
:100C8000000000000000002200FF210201021020ED
:100C900020080810204010204080020102010804B2
:100CA0000201010204081020408080402010080446
:100CB000020180040201804020100804020108049F
:100CC00002010102040810204080010204081020E3
:100CD000408000002200250028002B002E0031005B
:100CE000340002010000050108010B01050505059E
:100CF000070508080808020202020A0A0808040494
:100D000004040101010101010101030303030303C1
:100D10000303040707070C0C0C0C0C0C0C0C020250
:100D2000020206060606060606060B0B0B0B0B0B4D
:100D30000B0BD5260C2F11241FBECFEFD1E2DEBF47
:100D4000CDBF00E00CBF12E0A0E0B2E0E4EAFAE6BA
:100D500000E00BBF02C007900D92A83FB107D9F782
:100D600025E0A8EFB2E001C01D92AD30B207E1F777
:100D700016E0CAE9D6E000E006C021970109802FFD
:100D8000FE010E94FF30C939D10780E00807A9F7AA
:100D90000E943A280C9440350C9400002F923F9208
:100DA0004F925F926F927F928F929F92AF92BF927B
:100DB000CF92DF92EF92FF920F931F93CF93DF9327
:100DC000CDB7DEB76D970FB6F894DEBF0FBECDBFBF
:100DD0007A8769875C874B873E872D87188B0F87BB
:100DE000FB0111821082FA0111821082F801118236
:100DF0001082F901118210822090DF043090E0040B
:100E00002091DD042C83F090DA042F2D30E0388F10
:100E10002F8B46E0F49E900111243E832D83A090F9
:100E2000CE04B090CF04E090DB04E8E0EE9E6001D9
:100E3000112491012C5F3F4F3A8B298B2E5F3F4F3E
:100E40003C8B2B8B245031093A8F298F2A5F3F4FDF
:100E50003B832A8398878F8344244A94542CAFEF92
:100E6000BFEF8FEF9FE79C8F8B8F0FEF1FE770E037
:100E700060E050E040E0EF81F8858191F887EF83F2
:100E8000882309F4C0C02114310409F487C08A30D2
:100E900041F4EA81FB8184918E9D600D711D1124C6
:100EA000E8CF8D3041F3E989FA899491EB89FC8987
:100EB0002491891700F32817F0F2E98DFA8D259116
:100EC0003491891BF7E08F9F200D311D1124F9010A
:100ED000329684918983319694919D8B3196849139
:100EE0008E8B319684912A5F3F4FF901F491FD8FEB
:100EF0002C812223F1F03981632E712C680E711C34
:100F000087FD7A942F89388D629E4001639E900CF4
:100F1000729E900C1124840E951EA814B9044CF4F2
:100F2000EA81FB8194919E9D600D711D112450E01A
:100F300040E02F2D382F3203C0011124840F951F5C
:100F40002E2D3D8D3203F00111249F01260F371FF6
:100F5000801791070CF48C01EB8DFC8D2E173F0749
:100F600014F43C8F2B8FF981FF9D800D911D11246E
:100F70000197A817B9070CF4DC018D898E9D200D0F
:100F8000311D112421503109421653060CF4290158
:100F90009E899F9D400D511D11246DCF8A3019F4FB
:100FA0006C0D7D1D66CF8D3009F465CF2C81222319
:100FB00059F08D819E81840F951FA816B90624F4DF
:100FC0006C0D7D1D50E040E02D813E81240F351FCA
:100FD000C9010197A817B9070CF4DC01C601860FF7
:100FE000971F0197481659060CF42C01401751071A
:100FF0000CF48A018B8D9C8D6817790714F47C8F13
:101000006B8FA90138CFA017B1075CF0E985FA858D
:1010100011830083A01BB10B1196ED85FE85B18372
:10102000A0832B8D3C8D421653066CF0EB85FC851E
:1010300031832083421A530AFFEF4F1A5F0AEF856C
:10104000F889518240826D960FB6F894DEBF0FBECC
:10105000CDBFDF91CF911F910F91FF90EF90DF9067
:10106000CF90BF90AF909F908F907F906F905F9048
:101070004F903F902F90089596E0899FD0011124C2
:10108000A55FBB4F90967C936E935F9791E091968E
:101090009C939197E0917804F09179049091770472
:1010A000992339F0309751F0811108C080912704BD
:1010B0001994309719F05C968C91FACF08950895A1
:1010C0008150823108F05AC0E82FF0E08827E459B7
:1010D000F74F8F4F0C94FF308C0890087E088408DF
:1010E0008808BE08930899089D08A308A708AB08BC
:1010F000B108B508BE08B908BF08C30880918000D0
:101100008F77809380000895809180008F7DF9CF44
:1011100080918000877FF5CF84B58F7784BD089557
:1011200084B58F7DFBCF8091B0008F778093B00026
:1011300008958091B0008F7DF9CF809190008F77D6
:10114000809390000895809190008F7DF9CF8091D9
:101150009000877FF5CF8091A0008F778093A000CB
:1011600008958091A0008F7DF9CF8091A000877FA6
:10117000F5CF809120018F77809320010895809191
:1011800020018F7DF9CF80912001877FF5CFCF930C
:10119000DF93282F30E0F901EF5BF34F8491F901E1
:1011A000E457F34FD491F901E451F34FC491CC23A8
:1011B000A1F081110E946008EC2FF0E0EE0FFF1FFC
:1011C000E95DF34FA591B491EC91ED2381E090E0BE
:1011D00009F480E0DF91CF91089580E090E0FACFAC
:1011E0001F93CF93DF93282F30E0F901EF5BF34F8C
:1011F0008491F901E457F34FD491F901E451F34F8D
:10120000C491CC23A9F0162F81110E946008EC2F05
:10121000F0E0EE0FFF1FEE52F34FA591B4918FB7A0
:10122000F894EC91111108C0D095DE23DC938FBFA8
:10123000DF91CF911F910895DE2BF8CFCF93DF93ED
:1012400090E0FC01E457F34F24918451934FFC014B
:1012500084918823C9F090E0880F991FFC01E35F17
:10126000F34FA591B491FC01EE52F34FC591D49187
:1012700061110DC09FB7F8948C91209582238C93B7
:101280008881282328839FBFDF91CF910895623002
:1012900051F49FB7F8943C91822F809583238C93CF
:1012A000E8812E2BEFCF8FB7F894EC912E2B2C9357
:1012B0008FBFEACF8F929F92AF92BF92CF92DF9271
:1012C000EF92FF920F931F93CF938C014A015B0122
:1012D00080910A02863079F08F3F09F455C0CF9192
:1012E0001F910F91FF90EF90DF90CF90BF90AF9044
:1012F0009F908F900895EBE8FCE0C491C7FDEFCF7D
:1013000061E086E00E941E09C11158C0980150E0BA
:1013100040E068E478EE81E090E00E94E03069010E
:101320007A0181E0C81AD108E108F10885B5887F03
:10133000836085BDD801AA0FBB1FA50194010E943F
:10134000253128EE33E040E050E00E94BE30C2304C
:1013500009F449C10CF07BC1CC2309F435C1C1307B
:1013600009F0BDCFD0928900C0928800209302047A
:1013700030930304409304045093050480916F005C
:10138000826080936F00ABCF86E080930A02EBE827
:10139000FCE0C4918C2FCF3F09F4A1CFC23009F4F7
:1013A00082C030F5CC2309F448C0C13009F45DC0D7
:1013B00087FD95CF61E086E00E941E09980150E00C
:1013C00040E0C23009F0CEC060E970ED83E090E00B
:1013D0000E94E03069017A0181E0C81AD108E10871
:1013E000F1088091B100887F83608093B100A2CF23
:1013F000C43009F499C008F478C0C530C9F6109219
:1014000020011092210180912101886080932101A7
:1014100080912101816080932101E2EFFCE0E49161
:10142000F0E0EE0FFF1FEE52F34F85919491E2E949
:10143000FCE0E491E093EA0363CF14BC15BC84B5EF
:10144000826084BD85B5816085BDE2EFFCE0E491FA
:10145000F0E0EE0FFF1FEE52F34F85919491E2E919
:10146000FCE0E491E093F1034BCF109280001092E6
:10147000810080918100886080938100809181004B
:10148000816080938100E2EFFCE0E491F0E0EE0FF8
:10149000FF1FEE52F34F85919491E2E9FCE0E49155
:1014A000E093F0032DCF1092B0001092B100809124
:1014B000B00082608093B0008091B1008160809321
:1014C000B100E2EFFCE0E491F0E0EE0FFF1FEE521E
:1014D000F34F859194919093EF038093EE03E2E9AB
:1014E000FCE0E491E093ED030BCF1092900010929A
:1014F000910080919100886080939100809191008B
:10150000816080939100E2EFFCE0E491F0E0EE0F67
:10151000FF1FEE52F34F85919491E2E9FCE0E491D4
:10152000E093EC03C3E0ECCE1092A0001092A10077
:101530008091A10088608093A1008091A1008160CA
:101540008093A100E2EFFCE0E491F0E0EE0FFF1FDA
:10155000EE52F34F85919491E2E9FCE0E491E0933F
:10156000EB03CECE60E072E18AE790E00E94E030CB
:1015700069017A0181E0C81AD108E108F108C13097
:1015800039F480918100887F816080938100D2CE80
:10159000C33039F480919100887F816080939100FD
:1015A000C9CEC43039F48091A100887F81608093D6
:1015B000A100C0CEC53009F0BDCE80912101887F49
:1015C000816080932101B6CEC7BC2093060430937E
:1015D0000704409308045093090480916E008260D0
:1015E00080936E007CCEC092B3002093FE033093B4
:1015F000FF034093000450930104809170008260C7
:10160000809370006CCED0929900C0929800209385
:10161000FA033093FB034093FC035093FD03809146
:1016200071008260809371005ACED092A900C0925E
:10163000A8002093F6033093F7034093F8035093E8
:10164000F9038091720082608093720048CEC430AA
:1016500061F3CCF2C53009F042CED0922901C0929C
:1016600028012093F2033093F3034093F403509343
:10167000F5038091730082608093730030CE3FB792
:10168000F8948091E2039091E303A091E403B09178
:10169000E50326B5A89B05C02F3F19F00196A11DB3
:1016A000B11D3FBFBA2FA92F982F8827BC01CD01AC
:1016B000620F711D811D911D42E0660F771F881F0B
:1016C000991F4A95D1F708958F929F92AF92BF923A
:1016D000CF92DF92EF92FF924B015C010E943F0B91
:1016E0006B017C010E943F0B6C197D098E099F09DB
:1016F000683E734081059105A8F321E0821A9108A4
:10170000A108B10888EEC80E83E0D81EE11CF11CC8
:1017100081149104A104B10429F7FF90EF90DF90A8
:10172000CF90BF90AF909F908F9008952FB7F8946F
:101730006091DE037091DF038091E0039091E103FB
:101740002FBF08950F931F93CF93DF93C82FD62FEA
:1017500086E0C89FF0011124E55FFB4F11A2878D41
:1017600090A181309105F1F058F082309105F1F1AE
:10177000039709F440C0DF91CF911F910F91089515
:101780006623C9F361E070E08C2F0E943C080E9440
:10179000960B609363047093640480936504909344
:1017A0006604E9CF0E94960B0091630410916404D3
:1017B0002091650430916604AB01BC01401B510BC4
:1017C000620B730B8091750490917604B0E0A0E0F9
:1017D00084179507A607B70748F462E070E08C2FDE
:1017E000DF91CF911F910F910C943C0863E070E062
:1017F000D111C1CFF4CF70E060E0F1CF089508952A
:10180000AF92BF92CF92DF92EF92FF920F931F930E
:10181000CF93DF936C017B018B01040F151FEB014C
:101820005E01AE18BF08C017D10759F06991D60103
:10183000ED91FC910190F081E02DC6011995892B65
:1018400079F7C501DF91CF911F910F91FF90EF9034
:10185000DF90CF90BF90AF900895EF92FF920F93DB
:101860001F93CF93DF93EC01EC80FD806E157F0515
:101870000CF070C057FF04C0240F351F50E040E04B
:101880008E819F81FA01E20FF31F8E179F071CF4D0
:101890009C01241B350B121613060CF05BC0922F13
:1018A000842F8695869586958E9DD0018F9DB00D4F
:1018B00011246A0F7B1FAF8DB8A1A60FB71F477009
:1018C00049F188E0841B482F682F70E0FB01EC5140
:1018D000F94FE491281708F063C0621B71092FEFDC
:1018E00030E002C0359527956A95E2F7E223013092
:1018F000110539F0B0F10230110561F58C91E8273E
:1019000002C08C91E82BEC93941720F12C813D813F
:10191000A20FB31FE92FE41BE83078F00230110565
:1019200021F58E2F9C9190959C932C813D81A20F47
:10193000B31F88508830B0F7E770EE2359F0F0E01D
:10194000E452F94FE49101301105F9F010F1023041
:10195000110519F1DF91CF911F910F91FF90EF9039
:101960000895E0958C91E823CECF81E00115110513
:1019700009F480E081959E2F8C932C813D81A20FEC
:10198000B31F98509830C0F7D7CF8C91E82BEC93C9
:10199000E1CFE0958C91E823FACF8C91E827F7CF3F
:1019A0000130110509F4ADCFE0F20230110509F460
:1019B000A5CFAE0DBF1DAECF0F931F93CF93DF9377
:1019C00077FF04C0260F371F70E060E0DC0114963B
:1019D000CD91DC91FB01E20FF31FCE17DF071CF462
:1019E0009E01261B370B121613064CF5FA0157FD04
:1019F0003796A3E0F595E795AA95E1F7EC9FD0011E
:101A0000ED9FB00DFC9FB00D11246A0F7B1FDC0110
:101A10005F96ED91FC91E60FF71F4770552781E027
:101A200090E001C0880F4A95EAF7482F0130110570
:101A300059F0A8F02E0F3F1F02301105E1F0DF91A1
:101A4000CF911F910F9108952E0F3F1FE217F307BB
:101A5000B1F38191DF011197842B8C93F7CF80959F
:101A60002E0F3F1FE217F30751F39191DF011197FA
:101A700098239C93F7CFE217F30709F38191DF01D5
:101A8000119784278C93F7CF0F931F93FA01DC01F2
:101A900056964C9156974230E9F04330A1F14130CF
:101AA00061F514964D915C91DA01AE1BBF0BFD01FF
:101AB000E21BF30B77FD0BC0DC0116964D915C9198
:101AC0006417750724F4AB01BF010E94DC0C1F9161
:101AD0000F91089514964D915C91DA01A61BB70BF6
:101AE000BD0161507109DC0116964D915C91DA01DE
:101AF000AE1BBF0BFD01E21BF30B77FDE8CFAF017F
:101B00000E942D0CE4CF16964D915C91DA01A61B34
:101B1000B70BBD0161507109CDCF0F931F93FA012F
:101B2000DC0156964C9156974230A9F0433091F122
:101B3000413019F514964D915C91DA01AE1BBF0B43
:101B4000FD013197F7FD04C0AB01BF010E942D0CD0
:101B50001F910F91089514964D915C91DA01A61B87
:101B6000B70BBD01DC0116964D915C91DA01AE1BFD
:101B7000BF0BFD013197621B730BF7FDE9CFDC0151
:101B800016964D915C91E417F50714F7AF010E948A
:101B9000DC0CDECF16964D915C91DA01A61BB70BDB
:101BA000BD01621B730BCECFFC0177FD64C0808545
:101BB0009185681779070CF05EC057FD5CC082857F
:101BC0009385481759070CF056C086898230B1F0CA
:101BD000833029F1813041F484819581841B950BF8
:101BE000AB01BC01615071092130310509F108F4E4
:101BF00043C02230310509F463C008958481958182
:101C0000DC01A61BB70BBD0161507109868197816C
:101C1000DC01A41BB50BAD0141505109E5CF868114
:101C20009781861B970BBA01AC0141505109DCCF5B
:101C3000CA0157FD0796A3E095958795AA95E1F708
:101C4000A481B5818A9F90018B9F300D9A9F300DA2
:101C50001124620F731F078CF0A1E02DE60FF71F10
:101C60004770552721E030E001C0220F4A95EAF77E
:101C70008081822B80830895CA0157FD079633E047
:101C8000959587953A95E1F7A481B5818A9F900152
:101C90008B9F300D9A9F300D1124620F731F078C9C
:101CA000F0A1E02DE60FF71F4770552781E090E087
:101CB00001C0880F4A95EAF7809590818923DACF91
:101CC000CA0157FD079623E0959587952A95E1F778
:101CD000A481B5818A9F90018B9F300D9A9F300D12
:101CE0001124620F731F078CF0A1E02DE60FF71F80
:101CF0004770552721E030E001C0220F4A95EAF7EE
:101D000080818227B7CFCF93CFB7F8948091A80373
:101D1000811127C0E1E2FDE08491E1ECFCE09491C7
:101D2000E82FF0E0EE0FFF1FE35FF34FA591B491B2
:101D3000EC91E92321F461E085E30E94F00861E081
:101D400085E30E941E098CB580618CBD8CB58064D2
:101D50008CBD61E084E30E941E0961E083E30E9480
:101D60001E098091A8038F5F8093A803CFBFCF91F6
:101D70000895FC01A5A1B6A18C9192A589238C930D
:101D8000A5A1B6A18C9191A5892B8C9308950F9351
:101D90001F93CF93DF93EC018B018DA981110DC0AF
:101DA0001EBD0DB407FEFDCF0EBD0DB407FEFDCF69
:101DB000DF91CF911F910F9108958130E9F480E177
:101DC000E9A1FAA1908117FF14C02DA1922B908355
:101DD000EBA1FCA190812FA1922B9083EBA1FCA100
:101DE000908128A592239083000F111F815041F705
:101DF000DFCF2EA19223EBCFEF8DF8A11083CE0180
:101E00000E94B90EEF8DF8A10083CE01DF91CF9132
:101E10001F910F910C94B90EFC0185A9811105C089
:101E20006EBD0DB407FEFDCF08958130E1F488E06A
:101E3000A1A1B2A19C9167FF13C025A1922B9C93F5
:101E4000A3A1B4A19C9127A1922B9C93660FA3A15F
:101E5000B4A19C9120A592239C93815049F70895A9
:101E600026A19223ECCFA78DB0A16C93CF010C9447
:101E7000B90ECF93DF93EC01ED8DFE8D80819CA98F
:101E800089238083CE010E940C0FED8DFE8D808111
:101E90009BA9892B8083DF91CF910895AF92BF9248
:101EA000CF92DF92EF92FF920F931F93CF93DF9326
:101EB000EC015B016A01215031097901E60EF71E40
:101EC00001501109040F151F80910602909107021D
:101ED0008617970739F480910402909105028E15B8
:101EE0009F05A1F06AE2CE010E94390FB501CE0133
:101EF0000E94C70EB701CE010E94C70EB092070222
:101F0000A0920602F0920502E09204028091020281
:101F1000909103028C159D0539F4809100029091F7
:101F2000010280179107A1F06BE2CE010E94390FE8
:101F3000B601CE010E94C70EB801CE010E94C70EA5
:101F4000D0920302C0920202109301020093000299
:101F50006CE2CE01DF91CF911F910F91FF90EF9036
:101F6000DF90CF90BF90AF900C94390F1F93CF9319
:101F7000DF93EC01162FE881F9810284F385E02DCF
:101F80001995112371F06DADCE010E94390FE881D2
:101F9000F9810688F789E02DCE01DF91CF911F915D
:101FA00019946EADF1CFAF92BF92CF92DF92EF92C4
:101FB000FF920F931F93CF93DF93EC0177FD38C00F
:101FC00088859985681779079CF557FD31C08A8502
:101FD0009B854817590764F569017A015B01E8811F
:101FE000F9810284F385E02DCE011995E881F9810C
:101FF00002A4F3A5E02D01E010E021E030E0A7010C
:10200000B501CE011995B601CE010E94C70EE88137
:10201000F9810688F789E02DCE01DF91CF911F91DC
:102020000F91FF90EF90DF90CF90BF90AF901994F9
:10203000DF91CF911F910F91FF90EF90DF90CF90A4
:10204000BF90AF9008958F929F92AF92BF92CF9220
:10205000DF92EF92FF920F931F93CF93DF93EC01E8
:1020600049015701E881F98102A4F3A5E02D1995F2
:102070009401D8010E9407316B017C01C114D10485
:10208000E104F10409F490C08DA9811115C081E02B
:10209000C81AD108E108F1088FEFC816D806E8067B
:1020A000F80609F481C0BEBC0DB407FEFDCFAEBC7E
:1020B0000DB407FEFDCFEBCF813009F045C081E0C4
:1020C000C81AD108E108F1088FEFC816D806E8064B
:1020D000F80609F469C09B2D88E0E9A1FAA12081E6
:1020E00097FF2CC03DA1232B2083EBA1FCA12081D5
:1020F0003FA1232B2083EBA1FCA1208138A5232322
:102100002083990F815049F79A2D88E0E9A1FAA11F
:10211000208197FF16C03DA1232B2083EBA1FCA1BA
:1021200020813FA1232B2083EBA1FCA1208138A596
:1021300023232083990F815049F7C1CF3EA1232348
:10214000D3CF3EA12323E9CFBA1016C0CC0CDD1C9F
:10215000EE1CFF1CEF8DF8A1B08281E0C81AD108F7
:10216000E108F1088FEFC816D806E806F806E1F096
:10217000CE010E94B90EF1CF81E0C81AD108E10862
:10218000F1088FEFC816D806E806F80669F0EF8D5B
:10219000F8A1B082CE010E94B90EEF8DF8A1A08205
:1021A000CE010E94B90EE8CFDF91CF911F910F9120
:1021B000FF90EF90DF90CF90BF90AF909F908F9067
:1021C00008958F929F92AF92BF92CF92DF92EF923B
:1021D000FF920F931F93CF93DF935C014B016A0132
:1021E000E90177FD52C0DC0118968D919C9168172A
:1021F00079070CF04AC0209709F447C037FF07C0A1
:10220000C9010196C80ED91ED195C195D109F50114
:1022100082859385C816D906C4F5A6014C0F5D1FAB
:102220009A012150310937FD30C0D7FE03C0EA01C1
:10223000D12CC12C281739071CF0EC01CC19DD0971
:10224000D501ED91FC910284F385E02DC50119952E
:1022500078018E0121E030E0A601B401C5010E94A1
:102260002310D501ED91FC910688F789E02DC50179
:10227000DF91CF911F910F91FF90EF90DF90CF9062
:10228000BF90AF909F908F901994DF91CF911F9145
:102290000F91FF90EF90DF90CF90BF90AF909F9005
:1022A0008F9008958F929F92AF92BF92CF92DF92BC
:1022B000EF92FF920F931F93CF93DF935C016B011B
:1022C0004A01E90157FD52C0DC011A968D919C919B
:1022D000481759070CF04AC0209709F447C037FF48
:1022E00007C0C9010196C80ED91ED195C195D10963
:1022F000F50180859185C816D906C4F5A6014C0F55
:102300005D1F9A012150310937FD30C0D7FE03C04F
:10231000EA01D12CC12C281739071CF0EC01CC198B
:10232000DD09D501ED91FC910284F385E02DC50115
:102330001995780101E010E09E01A401B601C501E4
:102340000E942310D501ED91FC910688F789E02DBC
:10235000C501DF91CF911F910F91FF90EF90DF901A
:10236000CF90BF90AF909F908F901994DF91CF91B5
:102370001F910F91FF90EF90DF90CF90BF90AF90A3
:102380009F908F9008958F929F92AF92BF92CF921D
:10239000DF92EF92FF920F931F93CF93DF934C0145
:1023A0006B015A01E901209709F46CC00115110570
:1023B00009F468C037FF07C0C9010196C80ED91ECD
:1023C000D195C195D109F401A085B185CA16DB0666
:1023D0000CF058C017FF07C0C8010196A80EB91E1F
:1023E000119501951109F40182859385A816B90606
:1023F0000CF048C0F601EC0FFD1FAF014150510930
:1024000057FD40C0B501600F711F9B01215031097C
:1024100037FD38C0D7FE03C0EF01D12CC12CB7FE69
:1024200003C08B01B12CA12C4A175B071CF0ED01F6
:10243000CC19DD09281739071CF08C010A191B0972
:10244000D401ED91FC910284F385E02DC40119952E
:102450009E01A501B601C4010E942310D401ED9193
:10246000FC910688F789E02DC401DF91CF911F917F
:102470000F91FF90EF90DF90CF90BF90AF909F9023
:102480008F901994DF91CF911F910F91FF90EF9052
:10249000DF90CF90BF90AF909F908F900895EF9274
:1024A000FF920F931F93CF93DF9377FD32C0DC0130
:1024B0001896ED91FC916E177F075CF5211531059B
:1024C00041F137FF07C0F90131964E0F5F1F31957B
:1024D00021953109DC011A96ED91FC914E175F07A9
:1024E000C4F4EA01C20FD31FDE011197B7FD11C07A
:1024F00057FF03C09E0150E040E0AE17BF071CF03D
:102500009F01241B350B7801890121E030E00E94F6
:102510002310DF91CF911F910F91FF90EF900895BD
:10252000EF92FF920F931F93CF93DF9357FD31C02C
:10253000DC011A96ED91FC914E175F0754F52115B9
:10254000310539F137FF07C0F90131966E0F7F1F52
:10255000319521953109DC011896ED91FC916E17AA
:102560007F07BCF4EB01C20FD31FDE011197B7FD4B
:1025700010C077FF03C09E0170E060E0AE17BF0798
:102580001CF09F01261B370B780101E010E00E9430
:102590002310DF91CF911F910F91FF90EF9008953D
:1025A0008F929F92AF92BF92CF92DF92EF92FF9263
:1025B0000F931F93CF93DF9347012115310509F442
:1025C0004BC00115110509F447C037FF07C0F901D9
:1025D00031966E0F7F1F319521953109DC011896D8
:1025E000AD90BC906A157B05BCF517FF07C0F801DC
:1025F00031964E0F5F1F119501951109DC011A9656
:10260000ED91FC914E175F073CF56B01C20ED31E96
:10261000E6012197D7FD20C07A01E00EF11ED70117
:102620001197B7FD19C077FF03C0960170E060E015
:1026300057FF03C0870150E040E0CA15DB051CF0DE
:102640009501261B370BAE17BF071CF08F01041B2B
:10265000150B74010E942310DF91CF911F910F91F0
:10266000FF90EF90DF90CF90BF90AF909F908F90B2
:102670000895EF92FF920F931F93CF93DF93EC0196
:1026800077FD22C08885998568177907ECF457FD96
:102690001BC08A859B8548175907B4F47901E881E6
:1026A000F98102A4F3A5E02D01E010E021E030E083
:1026B000CE011995B701CE01DF91CF911F910F91F6
:1026C000FF90EF900C94C70EDF91CF911F910F9167
:1026D000FF90EF9008950895FC0187A987FD06C03B
:1026E000A38DB48D9C9181A9892B8C9308958EBD67
:1026F00000000DB407FEFDCF8EB508958CBD9DBDC5
:102700000895FC0125A9211104C081A192A10C9476
:102710007E1308950F931F93CF93DF931F92CDB72E
:10272000DEB78C016370DC0156966C93569762306D
:1027300009F468C0633009F46AC0613009F456C016
:1027400088E4898380EF90E019969C938E93189784
:1027500080E491E01B969C938E931A97C8010E9487
:102760008113D801D7968C91D79787FD09C05B96C6
:10277000ED91FC915C978081D2969C918923808316
:10278000D8015D96ED91FC915E978081D4969C91E5
:102790008923808366E3C8010E940C0FD8015D96EF
:1027A000ED91FC915E978081D3969C91D397892B74
:1027B0008083D5968C91823061F16981C8010E9435
:1027C0000C0FD801D7968C91D79787FD09C05B96DF
:1027D000ED91FC915C978081D1969C91892B8083AF
:1027E0000F90DF91CF911F910F91089588E2898317
:1027F00080E491E0F8019187808780EF90E09387F3
:102800008287ACCF88E8898380EF90E09DCF88EE07
:10281000EECFF80180A9882381F269817A81C8010D
:102820000E94C70ECECFAF92BF92CF92DF92EF92AF
:10283000FF920F931F93CF93DF93EC01E62E8A0153
:10284000A22E0E9481138FA987FD06C0EB8DFC8DFF
:1028500080819AA989238083ED8DFE8D80819CA93A
:10286000892380836E2DCE010E940C0FED8DFE8D8D
:1028700080819BA9892B8083D12CC12CB12CCA14B7
:10288000DB04E4F48DA97801823079F488A98823E7
:1028900061F0F801619171917F01CE010E94C70E34
:1028A000FFEFCF1ADF0A8701EACFFFEFEF1AFF0A27
:1028B000F8016491CE010E940C0FF2CF8FA987FD21
:1028C00006C0EB8DFC8D808199A9892B8083DF91D7
:1028D000CF911F910F91FF90EF90DF90CF90BF901D
:1028E000AF900895611106C060E220E050E040E042
:1028F0000C94131461E2F9CFCF93DF93EC010E94A3
:1029000081138FA987FD06C0EB8DFC8D80819AA96C
:1029100089238083DF91CF9108950895FC0163702E
:10292000668B8481958126813781613039F06330EF
:1029300029F0918780873387228708953187208700
:102940009387828708952F923F924F925F926F9262
:102950007F928F929F92AF92BF92CF92DF92EF922F
:10296000FF920F931F93CF93DF93CDB7DEB76A9794
:102970000FB6F894DEBF0FBECDBF9A8F898F7A83D2
:1029800069834A01D22E18870F833701BC2CDC01E2
:1029900059962D913C915A972115310509F015C191
:1029A00018968D919C911997681779070CF0D7C1EB
:1029B0001A968D919C91481759070CF0D0C14C2C58
:1029C000512CB6E0CB9E600D711D11247C876B8766
:1029D000161617060CF0C3C1EA2DF0E0FA87E98756
:1029E00093E0EE0FFF1F9A95E1F7F88BEF87CF0189
:1029F000840F951F181619060CF0B1C1A98DBA8D58
:102A000058968C91811104C0BFEABD1508F4D39487
:102A1000A98DBA8DED91FC9111970284F385E02D7B
:102A2000CD011995B5E0DB9EC0011124E981FA8141
:102A3000FC83EB83312C212C9C0124523E4F388F98
:102A40002F8B4A2D50E05E8B4D8BEF89F88DE20D78
:102A5000F31D44919E828D82D12CC12C69817A8193
:102A6000620D731D7A8B698B842F90E09C8B8B8B0E
:102A7000E98DFA8DA081B18140FF82C0F1E0BF12E3
:102A80006FC0AF126DC01C96ED91FC912F813885FF
:102A9000A4014C0D5D1D69897A89898D9A8D1995DE
:102AA000EB89FC89F595E7954E2F5FEFC51AD50A9E
:102AB0006D817E818D899E89680F791F7E836D83EC
:102AC00098E0C916D10481F6AFEF2A1A3A0AEB81D1
:102AD000FC81E40DF51DFC83EB83F5E02F1631043A
:102AE00009F0B3CF2F81388526153705B9F0A98DA8
:102AF000BA8DED91FC91B1E0BB1257C0AB1255C03D
:102B000069817A816B5F7F4F0088F189E02D8301B5
:102B100028E030E0A401898D9A8D1995A98DBA8D90
:102B2000ED91FC9111970688F789E02DCD016A9609
:102B30000FB6F894DEBF0FBECDBFDF91CF911F91CE
:102B40000F91FF90EF90DF90CF90BF90AF909F904C
:102B50008F907F906F905F904F903F902F9019943F
:102B60001E96ED91FC91EF80F88409851A859201FB
:102B70004D815E816B817C81898D9A8D199590CF75
:102B80002F8138852615370509F48ACF31E0B31235
:102B900007C0A31205C01C96ED91FC91930178CF5C
:102BA0001E96ED91FC917301E0CF6B857C856419D5
:102BB00075090684F785E02D73010F851889920148
:102BC000A401898D9A8D1995A9CFF9013496949114
:102BD000329745915491D91AB7E0DB9E400D511DB3
:102BE0001124F901259134913C8B2B8BFA0125900E
:102BF0003490FA013296749031963491398B329632
:102C000064903196449041E04C1518F04A1508F054
:102C10007FC0662D062C000C770B7C836B83842D84
:102C2000042C000C990B9E838D83A98DBA8DED9198
:102C3000FC9111970284F385E02DCD011995512C5B
:102C4000D12CC12CEA2DF0E0FA87E9872B2D30E05A
:102C50003C872B87A401440D511D47FC5A95588F82
:102C60004F8B69817A81660D711D67FC7A957E872D
:102C70006D877989C71608F051CF2C2D30E04D8132
:102C80005E81420F531FA985BA854A9FC0014B9FA1
:102C9000900D5A9F900D1124FC01E80DF91DF88B41
:102CA000EF87852D612C4F89588D420F531F5E8B06
:102CB0004D8B671408F050C044244394480E87702D
:102CC00041F4C1010196EB89FC89E20DF31DD4901A
:102CD0001C01D7FE19C0A98DBA8DED91FC91662D0E
:102CE00070E0B1E0BB1219C0AB1217C02D853E8554
:102CF000620F731F0484F585E02D2F8138854D897F
:102D00005E89898D9A8D1995DD0C6394842DD1CFC0
:102D10001E821D821C821B8288CF4B815C81640FC6
:102D2000751FAB85BC856A9FC0016B9F900D7A9F14
:102D3000900D112469817A81680F791F0684F785C7
:102D4000E02DEF80F88409851A859D014F8558890B
:102D5000898D9A8D1995D8CF570CC3948ACF6A96CE
:102D60000FB6F894DEBF0FBECDBFDF91CF911F919C
:102D70000F91FF90EF90DF90CF90BF90AF909F901A
:102D80008F907F906F905F904F903F902F9008951D
:102D90008F929F92AF92CF92EF92FF920F931F93D9
:102DA000CF93DF93EC01262F898D9A8D009709F040
:102DB00051C06A30D1F41D861C868D8948E0849FFD
:102DC000900111248E859F85820F931F9F878E8788
:102DD00081E090E0DF91CF911F910F91FF90EF90F4
:102DE000CF90AF909F908F9008956D3089F3CC88ED
:102DF000AD888F898823C1F08C859D8536E0C39E80
:102E0000800D911D1124488559854817590764F490
:102E10004E855F851D861C8638E0A39EC001112467
:102E2000840F951F9F878E87EA88FB8808891989F8
:102E30004E855F856C857D85CE010E94A3142C890B
:102E40008C859D8546E0249F800D911D11249D87D2
:102E50008C87BECF6A3069F41D861C86FC013896CB
:102E6000E4912D898E859F85E29F800D911D11240F
:102E7000ADCF6D3009F4ACCFFC01349634916317BB
:102E800008F4A6CF3296E491E61708F4A1CFFC012E
:102E9000329685909490462F431B342F47E0349F01
:102EA000800C911C1124F401329634913196E491F6
:102EB0003323A9F1EE2399F1CC88F4013596E491FE
:102EC000AD884F89442301F10E2E000CFF0BE30F58
:102ED000F11DCE9EA001CF9E500D11246C857D85E5
:102EE000460F571F68857985641775076CF44E8502
:102EF0005F851D861C86FC013896E491AE9E400DD0
:102F0000511D11245F874E87EA88FB88088919893B
:102F10004E855F856C857D85CE010E94A314F401EA
:102F20003496E4912C898C859D85E29F800D911DBE
:102F300011248DCF2F923F924F925F926F927F928A
:102F40008F929F92AF92BF92CF92DF92EF92FF92B9
:102F50000F931F93CF93DF93CDB7DEB7AA970FB62A
:102F6000F894DEBF0FBECDBF9A8389833B015AA779
:102F700049A7190148012601BE86AD86DC01ED9105
:102F8000FC910284F385E02D041715070CF0E8C0CE
:102F9000C416D5060CF409C199A58AA59AA689A6D6
:102FA000892E982E962D872D3101292E382E898134
:102FB0009A81199529A53AA52415350509F017C157
:102FC000261437042CF4962D872D3101292E382E06
:102FD000E614F7042CF02E143F040CF417017301CF
:102FE00091012E193F092F5F3F4FA981BA81ED91C1
:102FF000FC9111970288F389E02D0D851E8549A566
:103000005AA5B701CD011995A981BA81ED91FC911D
:1030100011970688F789E02DCD01AA960FB6F8948E
:10302000DEBF0FBECDBFDF91CF911F910F91FF90FB
:10303000EF90DF90CF90BF90AF909F908F907F9058
:103040006F905F904F903F902F9019945C8A4B8ABD
:10305000F2C04F89588D052E000C660B770B4D83FF
:103060005E836F8378872B813C8128193909AF896A
:10307000B88D0E9407316B017C012B813C8169A5D1
:103080007AA5261B370BAD89BE890E9407314B01FB
:103090005C018F859889092E000CAA0BBB0B8F87CA
:1030A000988BA98BBA8B29853A85032E000C440B8B
:1030B000550B29873A874B875C874B815C81441687
:1030C00055060CF4A1CFC701B6012F85388949896F
:1030D0005A890E94E030B101620F731F7C8B6B8BA9
:1030E000C501B40129853A854B855C850E94E03095
:1030F000B301620F731F8D819E81AF81B885C80EA9
:10310000D91EEA1EFB1E298D3A8D4B8D5C8D820ED9
:10311000931EA41EB51E4B895C89641775072CF09D
:10312000962F872FBA019B8B8C8B2B893C89261B72
:10313000370B2F5F3F4FA981BA81ED91FC91119719
:103140000288F389E02D0D851E854B815C81CD01C0
:1031500019952B813C812F5F3F4F3C832B83ADCF53
:10316000C016D1060CF023CF29A53AA5C216D30666
:1031700074F1892D4901DAA6C9A6402E582E922D48
:10318000832D1B013701E92EF82E06CF89819A8104
:10319000199599A58AA55AA649A6492E582E962D65
:1031A000872D3701E92EF82E22C0C016D10674F300
:1031B00089819A81199599A58AA51AA709A7460117
:1031C000492E582E962D872D31011701EBCF89817D
:1031D0009A81199599A58AA55AA649A62401892EEE
:1031E000982E962D872D37017101292E382EC10179
:1031F00086199709940149A55AA5241B350BB701D7
:10320000661977097E8B6D8BD201A41BB50BBA872B
:10321000A987A70142195309588F4F8BB20168192A
:103220007909788B6F874814590409F40FCFD401BA
:103230001197BC8BAB8B49A55AA55C834B83A12C02
:10324000B12C65011D821E821F8218864D895E8900
:10325000052E000C660B770B498F5A8F6B8F7C8F76
:10326000A901330F660B770B4D8F5E8F6F8F78A39D
:1032700029853A85032E000C440B550B29A33AA34C
:103280004BA35CA3AC01990F660B770B4DA35EA318
:103290006FA378A76B817C818B899C8986179707A0
:1032A0000CF4D7CE6D817E818F8198852D8D3E8DDA
:1032B0004F8D58A10E94E0307301E20EF31EC6014B
:1032C000B50129A13AA14BA15CA10E94E030B30154
:1032D000620F731F2D813E814F8158858DA19EA164
:1032E000AFA1B8A5280F391F4A1F5B1F2D833E834E
:1032F0004F835887298D3A8D4B8D5C8DA20EB31E5E
:10330000C41ED51E6E157F052CF0962F872FB70192
:10331000E92EF82E9701261B370B2F5F3F4FA9810F
:10332000BA81ED91FC9111970288F389E02D0D850A
:103330001E854B815C81CD0119952B813C812F5FCE
:103340003F4F3C832B83A6CF6F927F928F929F92A9
:10335000AF92BF92CF92DF92EF92FF920F931F93A3
:10336000CF93DF93EC016B015A0139014801E881E9
:10337000F9810284F385E02D1995E881F9810288AD
:10338000F389E02D87019301A501B601CE011995BE
:10339000A501480D591D41505109E881F981028864
:1033A000F389E02D9301B601CE011995E881F981E9
:1033B0000088F189E02D9401A501B601CE0119958F
:1033C000C60CD71CB60161507109E881F9810088EB
:1033D000F189E02D9401A501CE011995E881F981CB
:1033E0000688F789E02DCE01DF91CF911F910F91D3
:1033F000FF90EF90DF90CF90BF90AF909F908F9015
:103400007F906F9019946F927F928F929F92AF925C
:10341000BF92CF92DF92EF92FF920F931F93CF93C1
:10342000DF935C01EB016A01490138018701DC018E
:10343000ED91FC916217730719F5641675062CF06F
:10344000962D872D3A01C92ED82E960126193709B7
:103450002F5F3F4F048CF58DE02DA301BE01C50108
:103460001995DF91CF911F910F91FF90EF90DF9011
:10347000CF90BF90AF909F908F907F906F90089566
:103480004615570591F42617370724F0892D4B016F
:10349000C22FD82F9E01281939092F5F3F4F068C64
:1034A000F78DE02DA601B401DACF0284F385E02D7B
:1034B0001995D501ED91FC910488F589E02D8301E2
:1034C0009401A601BE01C5011995D501ED91FC91AC
:1034D0000688F789E02DC501DF91CF911F910F91EB
:1034E000FF90EF90DF90CF90BF90AF909F908F9024
:1034F0007F906F901994EF92FF920F931F93DC01CE
:103500001A960D911C911B9718962D913C91199725
:10351000ED91FC9100A0F1A1E02D7B0150E040E095
:1035200070E060E019951F910F91FF90EF90089562
:103530004F925F926F927F928F929F92AF92BF92C3
:10354000CF92DF92EF92FF920F931F93CF93DF936F
:103550006C012B015A0139014801DC01ED91FC910C
:103560000284F385E02D1995E201640C751CD601E7
:10357000ED91FC91C615D7055CF40088F189E02D2A
:1035800087019401A501BE01C60119952196EFCFCF
:103590000688F789E02DC601DF91CF911F910F9129
:1035A000FF90EF90DF90CF90BF90AF909F908F9063
:1035B0007F906F905F904F9019948F929F92AF92EF
:1035C000BF92CF92DF92EF92FF920F931F93CF9310
:1035D000DF93EC015B014A016901E881F981028412
:1035E000F385E02D199595012C0D3D1D21503109D4
:1035F000E881F9810488F589E02D78018401A4012E
:10360000B501CE011995E881F9810688F789E02D89
:10361000CE01DF91CF911F910F91FF90EF90DF903E
:10362000CF90BF90AF909F908F9019948F929F9260
:10363000AF92BF92CF92DF92EF92FF920F931F93C0
:10364000CF93DF93EC015B014A0169017801E881C6
:10365000F9810284F385E02D1995C80CD91C8601E7
:1036600001501109E881F9810488F589E02D95015F
:10367000A401B501CE011995E881F9810688F78981
:10368000E02DCE01DF91CF911F910F91FF90EF9030
:10369000DF90CF90BF90AF909F908F901994EF9252
:1036A000FF920F931F93DC01ED91FC9100A0F1A11B
:1036B000E02D19951F910F91FF90EF9008950F93B2
:1036C0001F93DC01ED91FC91068CF78DE02D19958F
:1036D0001F910F9108950F931F93DC01ED91FC91C1
:1036E000048CF58DE02D19951F910F910895DC0143
:1036F000ED91FC910084F185E02D19943F924F9259
:103700005F926F927F928F929F92AF92BF92CF9271
:10371000DF92EF92FF920F931F93CF93DF935C01A1
:103720007B014A016901390187E0680E711C93E051
:10373000759467949A95E1F72B01400E511E10E0A5
:1037400000E0312CD0E0C0E0CE0187709927330C27
:10375000892B59F4FE0183E0F595E7958A95E1F709
:10376000E00FF11FE80DF91D349037FE0AC021E08B
:1037700030E0A701B5016C0F7D1F86E894E00E9440
:10378000771B2196CC16DD06F9F68FEFE81AF80ABA
:10379000060D171DE414F504A9F6DF91CF911F91D2
:1037A0000F91FF90EF90DF90CF90BF90AF909F90E0
:1037B0008F907F906F905F904F903F9008952F92E1
:1037C0003F924F925F926F927F928F929F92AF92B1
:1037D000BF92CF92DF92EF92FF920F931F93CF93FE
:1037E000DF9300D000D0CDB7DEB73C016A013E8345
:1037F0002D83FC82EB825801A41AB50AB7FE03C0E0
:10380000B194A194B1088D809E80861A970A97FE84
:1038100003C09194819491088A149B045CF0902FCA
:10382000812F0D811E819D838E839C2D8D2D6B019B
:10383000692F782F0C151D055CF09D818E817E838C
:103840006D83692F782F902F812F8601C92ED82E56
:103850001601201A310A2B012D813E81421A530A8A
:1038600057FE03C0519441945108710137FE03C0C3
:103870003FEFE31AF30AF594E7948D819E81861752
:1038800097075CF5A1E0B0E0BA83A983C016D10622
:103890004CF1D301ED91FC910484F585E02D2B8151
:1038A0003C81A8016D817E818A149B041CF04D81AE
:1038B0005E81B801C3011995E418F508F7FE0AC046
:1038C0002D813E8189819A81280F391F3E832D8366
:1038D000E20CF31C0F5F1F4FD9CF2FEF3FEF3A835E
:1038E0002983D4CF26960FB6F894DEBF0FBECDBF86
:1038F000DF91CF911F910F91FF90EF90DF90CF90CC
:10390000BF90AF909F908F907F906F905F904F90FF
:103910003F902F9008950895862F0C94C708862F06
:10392000642F0C94F008862F642F0C941E092091AC
:103930005E03260F3327331F21323105ECF420912B
:103940008203FC0190E080E0243069F082E0089579
:10395000A0915E032191AC01425C5C4FA40FB52F96
:10396000B11D2C930196861798F380915E03680F22
:1039700060935E0380E0089581E0089510928203D1
:1039800081E0809384031092830361E084E10E94CC
:10399000F00861E085E10E94F008E9EBF0E0808149
:1039A0008E7F808380818D7F808388E48093B800C0
:1039B00085E48093BC000895CF93DF9391E09093CA
:1039C0003D038823B9F0C091B800D091BA0080912E
:1039D000BC008A7B8093BC0060E084E10E94F00818
:1039E00060E085E10E94F0080E94BE1CD093BA00FE
:1039F000C093B800DF91CF910895E091AE0380911C
:103A0000AD03E81730F4F0E0E85EFC4F808190E011
:103A100008958FEF9FEF08959091AE038091AD03CD
:103A20002FEF3FEF981748F4E92FF0E0E85EFC4FE6
:103A3000208130E09F5F9093AE03C901089580918B
:103A4000AD039091AE03891B990B0895CF92DF923D
:103A5000EF92FF920F931F93CF93DF937C01CB01E3
:103A60008A012091E903222389F0EB016B01C40E46
:103A7000D51ECC15DD0569F06991D701ED91FC915A
:103A80000190F081E02DC7011995F3CF642F0E94BA
:103A9000971CC801DF91CF911F910F91FF90EF907C
:103AA000DF90CF900895CF93DF931F92CDB7DEB70D
:103AB00069832091E9032223F9F02091E603203263
:103AC00058F021E030E0FC013383228390E080E075
:103AD0000F90DF91CF9108958091E703E82FF0E0F8
:103AE000E850FD4F998190838F5F8093E703809327
:103AF000E60381E090E0ECCF61E0CE0101960E9408
:103B0000971CF7CFCF92DF92EF92FF920F931F9304
:103B1000CF93DF93D091E60381E0D13208F09CC0CF
:103B2000C091E8030E943F0B6B017C0180918203EE
:103B300081116CC082E08093820381E080938403D2
:103B40008FEF809381031092A603D093A503A8EF73
:103B5000B2E0E5E8F3E080E0D8138DC01092A7034F
:103B60008091A703CC0FC82BC093A7038091830338
:103B7000813009F084C0109283030E943F0B6B01D7
:103B80007C018091A7038093BB00809139039091C1
:103B90003A03A0913B03B0913C03892B8A2B8B2BDA
:103BA000A1F00E943F0B0091390310913A0320913C
:103BB0003B0330913C036C197D098E099F09061760
:103BC00017072807390708F442C08091BC0083FD1D
:103BD000D8CF85EC8093BC000E943F0B6B017C0129
:103BE00080918203823009F44CC0809181038F3F21
:103BF00009F469C080918103803209F466C0809124
:103C00008103803309F463C084E026C080913903C6
:103C100090913A03A0913B03B0913C03892B8A2BEE
:103C20008B2B09F483CF0E943F0B00913903109135
:103C30003A0320913B0330913C036C197D098E09B6
:103C40009F09061717072807390708F06FCF8091DB
:103C500038030E94DC1C85E01092E7031092E60313
:103C60001092E903DF91CF911F910F91FF90EF9098
:103C7000DF90CF9008959D9191938F5F6DCF85EEEA
:103C8000A9CF8091390390913A03A0913B03B09161
:103C90003C03892B8A2B8B2B09F4A2CF0E943F0B6C
:103CA0000091390310913A0320913B0330913C037A
:103CB0006C197D098E099F09061717072807390710
:103CC00008F08ECFC4CF80E0C7CF82E0C5CF83E0BD
:103CD000C3CFEF92FF920F931F93CF93DF937C019B
:103CE000C62F8091A3049091A404009709F459C0B1
:103CF0002091A70431E03093E9032093E803109268
:103D0000E7031092E603DC01ED91FC910190F08154
:103D1000E02D60E019958701EE24E394F12CD1E0C9
:103D2000C1508091A3049091A404CF3F91F1B0E2DF
:103D3000EB16F104D8F00E94821D8091A3049091AB
:103D4000A4042091A704D093E9032093E8031092E0
:103D5000E7031092E603DC01ED91FC910190F08104
:103D6000E02D60E01995EE24E394F12C8091A304FA
:103D70009091A404F8016491DC01ED91FC91019013
:103D8000F081E02D1995BFEFEB1AFB0A0F5F1F4F73
:103D9000C7CFDF91CF911F910F91FF90EF900C94BF
:103DA000821DE091B304F091B40490818091B90434
:103DB0008095892380838701C15008F438C0F801B9
:103DC00084912091A1043091A204232B29F00E9418
:103DD00077130F5F1F4FF0CF28E030E040E8E0910D
:103DE000AF04F091B0049091B704582F5423D9F048
:103DF0005081952B9083E091B104F091B2049081B1
:103E00005091B804952B9083E091B104F091B204E5
:103E100050819091B80490959523908346952150B8
:103E20003109E9F6D6CF508190959523E3CFDF9104
:103E3000CF911F910F91FF90EF9008951F93CF9313
:103E4000DF93EC018D8D9E8D009721F1162F29A116
:103E500031E03093E9032093E8031092E7031092D6
:103E6000E603DC01ED91FC910190F081E02D60E032
:103E700019958D8D9E8DDC01ED91FC910190F08165
:103E8000E02D612F19958D8D9E8DDF91CF911F9122
:103E90000C94821DADA5BEA59C918BA9809589230C
:103EA0008C938B8D9C8D892B31F0862FDF91CF9158
:103EB0001F910C94771328E030E080E8A9A5BAA5FB
:103EC00099A9462F4823C1F04C91942B9C93ABA504
:103ED000BCA59C914AA9942B9C93ABA5BCA54C91E5
:103EE0009AA9909594239C9386952150310931F796
:103EF000DF91CF911F9108954C9190959423E6CF37
:103F0000DF92EF92FF920F931F93CF93DF938091F5
:103F1000A3049091A404892B09F4A5C02091BB04AB
:103F20003091BC044091BD045091BE0460E074E245
:103F300084EF90E00E94BE302051310941095109BF
:103F400056954795379527952093B80064E087E804
:103F50009CE00E94691E80918A0490918B048034B9
:103F6000910509F097C060E286E894E00E941E1F68
:103F700060918A04615E86E894E00E941E1F209191
:103F80008C0430918D04C901079697FD079633E0A4
:103F9000959587953A95E1F720918A0430918B04A5
:103FA000829F8001839F100D929F100D1124C0915C
:103FB000A504D091A6048091A3049091A4040C0FB1
:103FC0001D1F009709F498C02091A70431E0309399
:103FD000E9032093E8031092E7031092E603DC0163
:103FE000ED91FC910190F081E02D60E41995EE24B3
:103FF000E394F12CDD24D3948091A3049091A40444
:104000000C171D0709F44FC0B0E2EB16F104D8F00D
:104010000E94821D8091A3049091A4042091A70482
:10402000D092E9032093E8031092E7031092E6038D
:10403000DC01ED91FC910190F081E02D60E4199597
:10404000EE24E394F12C8091A3049091A40469914F
:10405000DC01ED91FC910190F081E02D1995BFEF0D
:10406000EB1AFB0AC9CF8091A1049091A204892B7D
:1040700031F08091C4049091C5040E947E13E091B8
:10408000B504F091B60490818091BA04809589239B
:1040900080835CCF60E086E894E00E941E1F609100
:1040A0008A04615068CF0E94821D8091A304909180
:1040B000A404892B09F461C02091BF043091C0048D
:1040C0004091C1045091C20460E074E284EF90E03A
:1040D0000E94BE302051310941095109569547953A
:1040E000379527952093B800DF91CF911F910F91BD
:1040F000FF90EF90DF900895E091B304F091B40445
:1041000080819091B904892B80830C171D0769F277
:1041100089912091A1043091A204232B19F00E94CF
:104120007713F3CF28E030E040E8E091AF04F0915E
:10413000B0049091B704582F5423D9F05081952B97
:104140009083E091B104F091B20490815091B80451
:10415000952B9083E091B104F091B204508190913D
:10416000B804909595239083469521503109E9F63E
:10417000CCCF508190959523E3CFE091B504F09199
:10418000B60480819091BA04892B8083ADCF1F93B0
:10419000CF93DF93EC01162F8D8D9E8D892BB1F17E
:1041A0002DA93EA94FA958AD60E074E284EF90E0DC
:1041B0000E94BE3020513109410951095695479559
:1041C000379527952093B80066EA111167EACE016A
:1041D0000E941E1F8D8D9E8D892B41F129AD3AAD18
:1041E0004BAD5CAD60E074E284EF90E00E94BE30C5
:1041F0002051310941095109569547953795279521
:104200002093B800DF91CF911F9108958B8D9C8DE5
:10421000892B21F08EAD9FAD0E947E13EFA5F8A9EA
:1042200090818CA9809589238083CECFEFA5F8A9B2
:1042300080819CA9892B8083E5CF90E080E0089560
:104240002091DB033091DC03E1EBF3E050E040E050
:104250004217530744F46191719168177907A1F0EF
:104260004F5F5F4FF5CF2431310571F0A9014F5FEA
:104270005F4F5093DC034093DB03220F331FF901A0
:10428000EF54FC4F91838083089548E750E060E04D
:1042900070E080EB94E00E945A0966E970E080E0EB
:1042A00090E00C94640B40E550E060E070E088E042
:1042B00097E00C945A0920918C0430918D04C90127
:1042C000079697FD079623E0959587952A95E1F740
:1042D00020918A0430918B04829FA001839F500D0E
:1042E000929F500D112470E060E08091A5049091A0
:1042F000A6040C945A320E945532FB010190002012
:10430000E9F73197AF01461B570BDC01ED91FC91AA
:104310000280F381E02D1994CF92DF92EF92FF9209
:104320000F931F93CF93DF93EC016A017B01C114BC
:10433000D104E104F10431F4C12C22E1D22E2AE7A8
:10434000E22EF12C8FA987FD07C061E00E941E09B3
:1043500061E08FA90E94F00861E088AD0E941E090B
:1043600061E088AD0E94F0088DA9811172C040E023
:1043700052E16AE770E0C416D506E606F70640F497
:1043800076956795579547958F5F8630A1F787E0BB
:10439000982F906A969599A3809581708AA31BA205
:1043A0001CA21DA21EA20E94830E8EA987FD21C001
:1043B00061E00E941E0961E08EA90E94F00864E697
:1043C00070E080E090E00E94640B60E08EA90E94A3
:1043D000F00864E670E080E090E00E94640B61E029
:1043E0008EA90E94F00868EC70E080E090E00E94E6
:1043F000640B8EA987FF0DC020E050E040E061E033
:10440000CE010E94131466E970E080E090E00E9403
:10441000640B0CEE16E0C8010196F8016491662366
:1044200009F463C00E5F1F4FFC01F490EF2CE89479
:10443000E7F82E2DA801CE010E9413140E0D111DB8
:10444000F7FEE9CF66E970E080E090E00E94640B3F
:10445000E2CF0CEE1CE0F12C8130B9F461E08AA5CA
:104460000E941E0960E08AA50E94F00861E08CA508
:104470000E941E0960E08CA50E94F0088BA587FDB4
:1044800094CF60E00E941E0990CFF8018491E82F3C
:10449000F0E0EE0FFF1FEE52F34F859194912F8DB8
:1044A00038A12817390741F461E08F2D0E941E09B9
:1044B00060E08F2D0E94F008F3940F5F1F4FF6E429
:1044C000FF12E3CF61E08EA50E941E0961E08EA578
:1044D0000E94F0088FA587FD68CF61E00E941E0949
:1044E00061E08FA50E94F00860CF80EF90E099878F
:1044F000888780E491E09B878A87DF91CF911F9125
:104500000F91FF90EF90DF90CF90089585ED80930D
:10451000BC008091390390913A03A0913B03B09184
:104520003C030796A11DB11D23E0B695A79597956D
:1045300087952A95D1F72091BC0024FD03C01092E5
:10454000820308954091390350913A0360913B03EF
:1045500070913C03452B462B472B69F30097A1052F
:10456000B10541F02AE22A95F1F700C00197A109AF
:10457000B109E1CF809138030C94DC1CAF92BF925B
:10458000CF92DF92EF92FF920F931F93CF93DF931F
:1045900000D000D01F921F92CDB7DEB76C0164EA45
:1045A00072E00E946132892B09F45EC06EEA72E00B
:1045B000C6010E946132892B11F400E018EF82E0FD
:1045C0008093DA048093DB041093D7040093D6041D
:1045D0001092D9041092D8048E01095F1F4F9E01DA
:1045E0002B5F3F4FAE014D5F5F4FBE016F5F7F4F4F
:1045F000C6010E94CE062091CE043091CF048D8159
:104600009E815901A81AB90AB694A7940F811885FA
:104610000A5F1F4FF12CE12C4CE850E070E060E0A5
:1046200086EC94E00E94C311B092D304A092D2040D
:104630008CE890E09093D5048093D404B60186EC86
:1046400094E00E947D2128960FB6F894DEBF0FBE3D
:10465000CDBFDF91CF911F910F91FF90EF90DF9031
:10466000CF90BF90AF90089500EE17E0A8CF60E024
:1046700080E30E94F00861E08EE20E94F0088EEA7A
:1046800092E00C94BE226F927F928F929F92AF9293
:10469000BF92CF92DF92EF92FF920F931F93CF932F
:1046A000DF930E94960B009167041091680420919B
:1046B000690430916A04AB01BC01401B510B620BD1
:1046C000730B8091730490917404B0E0A0E08417A0
:1046D0009507A607B70708F01DC1C0E080917104D7
:1046E000C81760F4E0916D04F0916E04EC0FF11DB9
:1046F00062E080810E941E09CF5FF0CF712C812C77
:10470000912C5401839480917204781608F05FC054
:10471000072D10E0E0916F04F0917004E00FF11F9D
:1047200061E080810E941E09E0916F04F0917004A5
:10473000E00FF11F60E080810E94F008D501C40104
:10474000072C04C0880F991FAA1FBB1F0A94D2F719
:104750006C017C01E094F094612C809171046816E6
:10476000F8F4C62DD0E0E0916D04F0916E04EC0FEA
:10477000FD1F80810E94C7082496CC0FDD1FC55FF6
:10478000DB4F892B41F4888199818C299D2999835C
:1047900088836394E2CF888199818E219F21F7CF0E
:1047A000E0916F04F0917004E00FF11F61E08081EF
:1047B0000E94F00880916F0490917004080F191FF7
:1047C00060E0F80180810E941E0973949CCF0BE089
:1047D00014E0E8018FEF9FEF2F8D38A1232B21F4F8
:1047E0001C8E9E8F8D8F19A22696F4E0C734DF07AA
:1047F00099F7F12C26E0B22E80917104F81608F09A
:1048000052C0E12CCF2CD12CCC0CDD1CC6018D5E0E
:104810009B4F6C0120917204E21608F042C0F60131
:10482000608171810E2C02C0769567950A94E2F73B
:10483000F29E900111242E0D311DEBE0F4E080E09A
:10484000458D568D2417350709F480C08F5F369645
:104850008A30B1F760FF23C0EBE0F4E090E080E045
:10486000448D411117C0E0916B04F0916C04E20F8C
:10487000F31F4081B89EF001B99EF00D1124E55F51
:10488000FB4F448F368F258F10A2178E61E00E9458
:10489000A20B05C0019636968A30910509F7E3947C
:1048A000B9CFF394A9CF8BE0E82E84E0F82ED12C79
:1048B000F70181A18111D82EF6E0EF0EF11CCE1583
:1048C000DF05B1F70E94960B60936704709368044C
:1048D0008093690490936A04DD20E1F00E943723FD
:1048E000F80181A1882389F0878D90A1019769F44F
:1048F000C48D0E9453218C2F0C2E000C990BC09755
:104900008A309105B0F40E9420210A5F1F4F0E15D6
:104910001F0531F7DF91CF911F910F91FF90EF901D
:10492000DF90CF90BF90AF909F908F907F906F90CF
:10493000089590E080E0C43531F38AE090E0C3341C
:1049400011F3C33511F78FEF9FEFDDCF61709FCF6C
:1049500061E080E30E94F00860E08EE20E94F008CF
:1049600084EA92E00C94BE221F920F920FB60F922F
:1049700011242F933F938F939F93AF93BF93809175
:10498000DE039091DF03A091E003B091E103309149
:10499000DD0323E0230F2D3758F50196A11DB11D2E
:1049A0002093DD038093DE039093DF03A093E00365
:1049B000B093E1038091E2039091E303A091E403BB
:1049C000B091E5030196A11DB11D8093E203909380
:1049D000E303A093E403B093E503BF91AF919F91EC
:1049E0008F913F912F910F900FBE0F901F901895B0
:1049F00026E8230F0296A11DB11DD2CF1F920F9260
:104A00000FB60F9211240BB60F922F933F934F9333
:104A10005F936F937F938F939F93AF93BF93EF9326
:104A2000FF938091FE039091FF03A0910004B09149
:104A30000104892B8A2B8B2BE1F19091ED03E091FE
:104A4000EE03F091EF038081892780838091FE033C
:104A50009091FF03A0910004B0910104181619066B
:104A60001A061B069CF48091FE039091FF03A0910F
:104A70000004B09101040197A109B1098093FE03DC
:104A80009093FF03A0930004B0930104FF91EF9172
:104A9000BF91AF919F918F917F916F915F914F9156
:104AA0003F912F910F900BBE0F900FBE0F901F9054
:104AB000189580910A02EBE8FCE0E4919FEF909357
:104AC0000A02E230E9F040F4EE2389F0E13091F09F
:104AD00060E00E94F008DACFE43049F110F1E530EF
:104AE000B9F7909173009D7F90937300F1CF10926E
:104AF0006E00EECF90916F009D7F90936F00E8CF96
:104B0000909170009D7F9093700091E09093B00021
:104B10009091B100987F94609093B1001092B3008F
:104B2000D7CF909171009D7F90937100D1CF9091DC
:104B300072009D7F90937200CBCF1F920F920FB6A1
:104B40000F9211240BB60F922F933F934F935F93C5
:104B50006F937F938F939F93AF93BF93EF93FF9345
:104B60008091B900887F803609F44DC008F040C0BC
:104B7000883209F4A9C028F5803109F49DC0C8F431
:104B8000882309F4FBC0883009F496C0FF91EF91A7
:104B9000BF91AF919F918F917F916F915F914F9155
:104BA0003F912F910F900BBE0F900FBE0F901F9053
:104BB0001895883109F488C0803241F780938103C9
:104BC00014C0803409F49DC040F48033B9F38833B5
:104BD000E9F68093810385ECB0C0803509F485C087
:104BE000883509F496C0883489F60E948622CECF93
:104BF000883909F48CC038F5883729F050F48836A4
:104C000011F0803719F683E08093820310928003BD
:104C100057C0883809F47BC0803919F0803809F012
:104C2000B5CF80918003803208F071C0E09180039D
:104C300081E08E0F809380038091BB00F0E0E05A0A
:104C4000FC4F80833DC0803B39F0E0F4803A09F4AA
:104C500079C0883A09F09ACF84E080938203109259
:104C60005F0310925E03E091AB03F091AC031995E2
:104C700080915E0381110FC081E080935E031092EA
:104C80003E0309C0803C09F4A6CF883C09F4A3CFB9
:104C9000883B09F07BCFE0915F0381E08E0F80932A
:104CA0005F03F0E0E25CFC4F80818093BB00909159
:104CB0005F0380915E0329C08091A7038093BB00AE
:104CC00085EC8093BC0062CF9091A6038091A503F0
:104CD000981758F5E091A60381E08E0F8093A60304
:104CE000F0E0EB57FC4F8081E9CFE091A60381E033
:104CF0008E0F8093A6038091BB00F0E0EB57FC4F32
:104D000080839091A6038091A5039817C8F285E847
:104D1000D8CFE091A60381E08E0F8093A603809107
:104D2000BB00F0E0EB57FC4F80838091840381113E
:104D30005CCF81E08093830384EA8093BC0010926F
:104D4000820324CF85EC8093BC0010928203809173
:104D50008003803230F4E0918003F0E0E05AFC4FB1
:104D600010826091800370E0E091A903F091AA03A2
:104D700080E693E019951092800308CF109281038A
:104D800034CF0F931F93CF93DF93EC010E947D21CB
:104D90008C0161EA72E0CE010E947D21800F911F9B
:104DA000DF91CF911F910F91089510927D04109281
:104DB0007C0488EE93E0A0E0B0E080937E049093C2
:104DC0007F04A0938004B09381048DE292E09093DD
:104DD0007B0480937A041092C9041092C80420EFD7
:104DE00030E03093CB042093CA0480E491E09093A8
:104DF000CD048093CC043093CF042093CE049093C1
:104E0000D1048093D0041092DC041092D304109249
:104E1000D2041092D5041092D40421E02093DB0434
:104E20002093DA048FEF9FEF9093D9048093D804F6
:104E30009093D7048093D6042093DD041092DE046F
:104E40001092E0041092DF041092FB0439E03093DA
:104E5000FC0438E03093FD043AE03093FE041092F5
:104E600000051092FF0410920205109201051092A5
:104E70000305109204051092050510920605109284
:104E80000705109208054AE054E05093E604409369
:104E9000E504E6EFFCE0E491F0E0EE0FFF1FEE52D8
:104EA000F34F459154915093E4044093E304E6E9B1
:104EB000FCE034913093F904E4EFFCE0E491F0E09D
:104EC000EE0FFF1FEE52F34F459154915093E204C1
:104ED0004093E104E4E9FCE0E491E093F704E09519
:104EE000E093F804E32FE095E093FA0445E752E0FD
:104EF0005093C7044093C60410928904109288040A
:104F000060E870E070938B0460938A0440E450E0A2
:104F100050938D0440938C0470938F0460938E049F
:104F2000509391044093900410929C041092930427
:104F300010929204109295041092940420939B0472
:104F400020939A04909399048093980490939704E3
:104F50008093960420939D0410929E041092A004C6
:104F600010929F0489E492E09093870480938604D2
:104F70001092A2041092A1048AE794E09093A404F2
:104F80008093A3041092A6041092A5048FEF80933F
:104F9000AA048093AB048093AC048093AD04809307
:104FA000AE0480E89AE1A6E0B0E08093BB04909361
:104FB000BC04A093BD04B093BE0480EA96E8A1E0CF
:104FC000B0E08093BF049093C004A093C104B09359
:104FD000C20480E58093C4041092C50410920D04AD
:104FE0001092110410921004109212048FE392E0B8
:104FF00090930C0480930B04E7E2F4E083E694E0E2
:10500000108214821382158236968E179F07C1F77D
:105010008FE092E090936E0480936D048BE092E0B9
:105020009093700480936F0484E080937104809364
:10503000720483E192E090936C0480936B048AE0A5
:1050400090E0909374048093730484EF91E09093C4
:10505000760480937504109279041092780410926B
:105060006704109268041092690410926A04109206
:1050700077040895CF93DF93CDB7DEB7E3970FB6EC
:10508000F894DEBF0FBECDBF789484B5826084BD36
:1050900084B5816084BD85B5826085BD85B581603C
:1050A00085BD80916E00816080936E0010928100BA
:1050B0008091810082608093810080918100816075
:1050C0008093810080918000816080938000809136
:1050D000B10084608093B1008091B00081608093C2
:1050E000B000809191008260809391008091910046
:1050F0008160809391008091900081608093900006
:105100008091A10082608093A1008091A1008160C4
:105110008093A1008091A00081608093A000809185
:10512000210182608093210180912101816080931F
:1051300021018091200181608093200180917A007B
:10514000846080937A0080917A00826080937A00F4
:1051500080917A00816080937A0080917A008068E3
:1051600080937A001092C1001092AE031092AD03AA
:105170001092E7031092E6030E94BE1C8EEF9BE0A4
:105180009093AC038093AB038FEF9BE09093AA03C3
:105190008093A90361E086E00E941E0962E08CE032
:1051A0000E941E0962E08DE00E941E0961E080E31A
:1051B0000E941E0961E08EE20E941E0960E080E309
:1051C0000E94F00861E08EE20E94F0088091A50440
:1051D0009091A604892B11F520918C0430918D04B7
:1051E000C901079697FD0796B3E095958795BA95FF
:1051F000E1F720918A0430918B04AC01429FC001F9
:10520000439F900D529F900D11240E943031909336
:10521000A6048093A504892B09F425C30E945B2171
:1052200020918C0430918D0480918A0490918B049C
:10523000B901213231050CF4B4C06054710977FF13
:1052400002C06F5F7F4F759567958255910997FDF5
:10525000019600E410E022E530E04DE459E0959538
:1052600087950E947E1B82E08093A8048091A3040E
:105270009091A404892B09F4A7C08CE38093A70420
:105280001092AE031092AD031092E7031092E60362
:105290000E94BE1C8EEF9BE09093AC038093AB0307
:1052A0008FEF9BE09093AA038093A9038091AE04B3
:1052B00087FD1EC061E00E941E0961E08091AE047E
:1052C0000E94F00861E070E080E090E00E94640BD2
:1052D00060E08091AE040E94F0086AE070E080E037
:1052E00090E00E94640B61E08091AE040E94F0089F
:1052F0008091A3049091A404892B09F4F2C0209119
:10530000BB043091BC044091BD045091BE0460E0E8
:1053100074E284EF90E00E94BE30205131094109CF
:10532000510956954795379527952093B80064E025
:1053300089E697E00E94691E60918C04615086E8BE
:1053400094E00E941E1F64E085E697E00E94691EBB
:105350008091A80464E1813009F460E186E894E07A
:105360000E941E1F64E081E697E00E94691E8FE89C
:105370008093C30480918A0490918B0480389105B6
:1053800009F043C280918C0490918D048034910582
:1053900009F04BC28091A804813009F4B9C08FECA8
:1053A000B8C06052710977FF02C06F5F7F4F75957B
:1053B00067958357910997FD019600E210E023E776
:1053C00030E04DE657E04BCF61E08091AC040E94A5
:1053D0001E0961E08091AD040E941E098091AC0419
:1053E000082E000C990BFC01E451F34FE491F0E01E
:1053F000EE0FFF1FEE52F34F259134913093B4041A
:105400002093B304FC01E457F34FE491E093B90413
:105410008091AD04082E000C990BFC01E451F34F70
:10542000E491F0E0EE0FFF1FEE52F34FA591B4911F
:10543000B093B604A093B504FC01E457F34FE49194
:10544000E093BA048C91E82BEC938091A1049091A5
:10545000A204892B19F00E94830E28CF61E080916D
:10546000AA040E941E0961E08091AB040E941E09FB
:105470008091AA04082E000C990BFC01E451F34F13
:10548000E491F0E0EE0FFF1FEE52F34F25913491BF
:105490003093B0042093AF04FC01E457F34FE49140
:1054A000E093B7048091AB04082E000C990BFC012B
:1054B000E451F34FE491F0E0EE0FFF1FEE52F34F93
:1054C000A591B491B093B204A093B104FC01E45748
:1054D000F34FE491E093B8048C91E095E823EC93CA
:1054E000E5CE8091A1049091A204892B31F08091A6
:1054F000C4049091C5040E947E13E091B504F0911C
:10550000B60490818091BA048095892380830FCF5F
:105510008FE98093C30412E16AED86E894E00E946B
:105520001E1F612F86E894E00E941E1F61E886E836
:1055300094E00E941E1F6091C30486E894E00E94DC
:105540001E1F69ED86E894E00E941E1F8091A8044A
:1055500061EF813009F462E286E894E00E941E1F48
:1055600066E08BE597E00E94691E8091A30490910C
:10557000A404892B09F46DC12091BF043091C004AB
:105580004091C1045091C20460E074E284EF90E065
:105590000E94BE3020513109410951095695479565
:1055A000379527952093B8000E945B2181E0809376
:1055B0009A0480939B0481E090E0909399048093F7
:1055C00098049093970480939604109293041092F9
:1055D0009204109295041092940469EB72E086E8AC
:1055E00094E00E94C1260E94801F40E050E0BA0172
:1055F00086EC94E00E948C2160E086EC94E00E94AE
:105600008A1370E060E086EC94E00E947B1A83E0ED
:105610008093DA048093DB048FEF97E09093D904B2
:105620008093D8049093D7048093D604CE0101963A
:105630009BA78AA78C019E012E5D3F4FAE014C5D5A
:105640005F4FBE016A5D7F4F82EC92E00E94CE0602
:105650008091CE049091CF042AA13BA1821B930B91
:10566000969587959093D3048093D20484E190E03B
:105670009093D5048093D40462EC72E086EC94E0BD
:105680000E94C12682E08093DA048093DB0480EEDE
:105690009FEF9093D9048093D8049093D70480937C
:1056A000D6049E012E5D3F4FAE014C5D5F4FBE01A3
:1056B0006A5D7F4F8CEC92E00E94CE068091CE0412
:1056C0009091CF042AA13BA1821B930B96958795BD
:1056D0009093D3048093D2048CE390E09093D5040C
:1056E0008093D4046CEC72E086EC94E00E94C126B6
:1056F0009E012E5D3F4FAE014C5D5F4FBE016A5D66
:105700007F4F8CED92E00E94CE068091CE04909166
:10571000CF042AA13BA1821B930B9695879590936A
:10572000D3048093D2048AE590E09093D5048093CB
:10573000D4046CED72E086EC94E00E94C1269E01D8
:105740002E5D3F4FAE014C5D5F4FBE016A5D7F4FE6
:1057500085EE92E00E94CE068091CE049091CF0417
:105760002AA13BA1821B930B969587959093D30416
:105770008093D20483E790E09093D5048093D4047F
:1057800065EE72E086EC94E00E94C1268CE00E94F7
:10579000C7083C0101E0892B09F400E08DE00E947C
:1057A000C7084C0111E0892B09F410E00E94432343
:1057B00080910902882341F0672831F490E080E06D
:1057C0000E9420210E94532180910802882341F0E9
:1057D000892831F490E080E00E9420210E9453212A
:1057E00000930902109308028091DB039091DC037F
:1057F000892BD1F51092DA031092D90380E090E062
:10580000892B21F20E940000C1CF8036910589F4D6
:1058100080918C0490918D04409739F48091A80474
:10582000813029F08FEA8093C30412E075CE80E1C5
:10583000FACF80349105C9F780918C0490918D0442
:10584000809799F78091A804813009F0A8CD80E174
:1058500060CEE091B504F091B60480819091BA04D5
:10586000892B8083A1CEFFCFE091B103F091B203E9
:10587000FFA7EEA74091D0045091D104405A51099E
:1058800057FF02C04F5F5F4F4A0195948794940180
:1058900020563F4F3BAB2AAB8091AF039091B003B2
:1058A0004EA55FA5841795070CF0D2C151E0509327
:1058B000D9031092DA03F12CE12C0AE510E022E37F
:1058C00030E0A4014D585F4F6DE270E086EC94E04B
:1058D0000E94C3110E94960B1B012C01C401885326
:1058E0009F4F99AB88AB0E94960B6219730984098C
:1058F0009509683B7B408105910508F048C00E94EE
:1059000043230E94960B62197309840995090E942A
:10591000C32F20E030E84BE355E40E941B2F20E02A
:1059200030E040E252E40E9451300E948D2F68A87E
:1059300079A8661A770A2AA93BA9261B370B3DA727
:105940002CA7E0EEAE2EE7E0BE2E6301FAE5EF2EC7
:10595000F12C830122E330E04CA55DA566E470E004
:1059600086EC94E00E949A176EE170E080E090E08F
:105970000E94640BB12CA12C22E330E04CA55DA564
:1059800066E470E086EC94E00E949A17ACCF840144
:105990000C541F4FA40144575F4F60EEA62E67E0E2
:1059A000B62E68017AE5E72EF12C22E330E066E4BA
:1059B00070E086EC94E00E949A178091AF0390917A
:1059C000B00301969093B0038093AF030E944521EA
:1059D0009090DA038090D9034090AF035090B003C9
:1059E0000E945B2184E080939A0480939B0441E0B1
:1059F00050E0509399044093980450939704409337
:105A0000960484E390E09093930480939204109220
:105A1000950410929404052C000C6608770877FE14
:105A2000A8C16DE286E894E00E94C81622273327B9
:105A3000A901241935094609570919A2FE01B19691
:105A40003F01CA01B9012AE030E040E050E00E9485
:105A5000BE30605DF30162933F01211531054105C0
:105A6000510579F76114710429F0B30186E894E0D7
:105A70000E947D218820A9F0AA24A394B12C0FE3D1
:105A8000C02ED12C8AE4E82EF12C0FE310E026E39F
:105A900030E042E350E060E470E086E894E00E9489
:105AA0009A179920A9F0AA24A394B12CA2E3CA2E94
:105AB000D12CBAE4EB2EF12C02E310E026E330E027
:105AC0004FE350E060E470E086E894E00E949A17AB
:105AD0000E94801F7090DA036090D9035090AF034A
